{
	"contracts/marketplace/PropertyMarketplace.sol": {
		"PropertyMarketplace": {
			"abi": [
				{
					"inputs": [
						{
							"internalType": "uint256",
							"name": "_platformFeePercentage",
							"type": "uint256"
						},
						{
							"internalType": "address",
							"name": "_feeRecipient",
							"type": "address"
						},
						{
							"internalType": "address",
							"name": "initialOwner",
							"type": "address"
						}
					],
					"stateMutability": "nonpayable",
					"type": "constructor"
				},
				{
					"inputs": [
						{
							"internalType": "address",
							"name": "owner",
							"type": "address"
						}
					],
					"name": "OwnableInvalidOwner",
					"type": "error"
				},
				{
					"inputs": [
						{
							"internalType": "address",
							"name": "account",
							"type": "address"
						}
					],
					"name": "OwnableUnauthorizedAccount",
					"type": "error"
				},
				{
					"anonymous": false,
					"inputs": [
						{
							"indexed": false,
							"internalType": "address",
							"name": "newFeeRecipient",
							"type": "address"
						}
					],
					"name": "FeeRecipientUpdated",
					"type": "event"
				},
				{
					"anonymous": false,
					"inputs": [
						{
							"indexed": true,
							"internalType": "uint256",
							"name": "listingId",
							"type": "uint256"
						}
					],
					"name": "ListingCancelled",
					"type": "event"
				},
				{
					"anonymous": false,
					"inputs": [
						{
							"indexed": true,
							"internalType": "uint256",
							"name": "listingId",
							"type": "uint256"
						},
						{
							"indexed": true,
							"internalType": "address",
							"name": "seller",
							"type": "address"
						},
						{
							"indexed": true,
							"internalType": "address",
							"name": "propertyToken",
							"type": "address"
						},
						{
							"indexed": false,
							"internalType": "uint256",
							"name": "tokenAmount",
							"type": "uint256"
						},
						{
							"indexed": false,
							"internalType": "uint256",
							"name": "pricePerToken",
							"type": "uint256"
						}
					],
					"name": "ListingCreated",
					"type": "event"
				},
				{
					"anonymous": false,
					"inputs": [
						{
							"indexed": true,
							"internalType": "uint256",
							"name": "listingId",
							"type": "uint256"
						},
						{
							"indexed": true,
							"internalType": "address",
							"name": "buyer",
							"type": "address"
						},
						{
							"indexed": false,
							"internalType": "uint256",
							"name": "amount",
							"type": "uint256"
						},
						{
							"indexed": false,
							"internalType": "uint256",
							"name": "totalPrice",
							"type": "uint256"
						}
					],
					"name": "ListingPurchased",
					"type": "event"
				},
				{
					"anonymous": false,
					"inputs": [
						{
							"indexed": true,
							"internalType": "address",
							"name": "previousOwner",
							"type": "address"
						},
						{
							"indexed": true,
							"internalType": "address",
							"name": "newOwner",
							"type": "address"
						}
					],
					"name": "OwnershipTransferred",
					"type": "event"
				},
				{
					"anonymous": false,
					"inputs": [
						{
							"indexed": false,
							"internalType": "uint256",
							"name": "newFeePercentage",
							"type": "uint256"
						}
					],
					"name": "PlatformFeeUpdated",
					"type": "event"
				},
				{
					"inputs": [
						{
							"internalType": "uint256",
							"name": "_listingId",
							"type": "uint256"
						}
					],
					"name": "cancelListing",
					"outputs": [],
					"stateMutability": "nonpayable",
					"type": "function"
				},
				{
					"inputs": [
						{
							"internalType": "address",
							"name": "_propertyToken",
							"type": "address"
						},
						{
							"internalType": "uint256",
							"name": "_tokenAmount",
							"type": "uint256"
						},
						{
							"internalType": "uint256",
							"name": "_pricePerToken",
							"type": "uint256"
						}
					],
					"name": "createListing",
					"outputs": [
						{
							"internalType": "uint256",
							"name": "",
							"type": "uint256"
						}
					],
					"stateMutability": "nonpayable",
					"type": "function"
				},
				{
					"inputs": [],
					"name": "feeRecipient",
					"outputs": [
						{
							"internalType": "address",
							"name": "",
							"type": "address"
						}
					],
					"stateMutability": "view",
					"type": "function"
				},
				{
					"inputs": [],
					"name": "getActiveListings",
					"outputs": [
						{
							"internalType": "uint256[]",
							"name": "",
							"type": "uint256[]"
						}
					],
					"stateMutability": "view",
					"type": "function"
				},
				{
					"inputs": [
						{
							"internalType": "uint256",
							"name": "",
							"type": "uint256"
						}
					],
					"name": "listings",
					"outputs": [
						{
							"internalType": "address",
							"name": "seller",
							"type": "address"
						},
						{
							"internalType": "address",
							"name": "propertyToken",
							"type": "address"
						},
						{
							"internalType": "uint256",
							"name": "tokenAmount",
							"type": "uint256"
						},
						{
							"internalType": "uint256",
							"name": "pricePerToken",
							"type": "uint256"
						},
						{
							"internalType": "bool",
							"name": "isActive",
							"type": "bool"
						}
					],
					"stateMutability": "view",
					"type": "function"
				},
				{
					"inputs": [],
					"name": "owner",
					"outputs": [
						{
							"internalType": "address",
							"name": "",
							"type": "address"
						}
					],
					"stateMutability": "view",
					"type": "function"
				},
				{
					"inputs": [],
					"name": "platformFeePercentage",
					"outputs": [
						{
							"internalType": "uint256",
							"name": "",
							"type": "uint256"
						}
					],
					"stateMutability": "view",
					"type": "function"
				},
				{
					"inputs": [
						{
							"internalType": "uint256",
							"name": "_listingId",
							"type": "uint256"
						},
						{
							"internalType": "uint256",
							"name": "_amount",
							"type": "uint256"
						}
					],
					"name": "purchaseTokens",
					"outputs": [],
					"stateMutability": "payable",
					"type": "function"
				},
				{
					"inputs": [],
					"name": "renounceOwnership",
					"outputs": [],
					"stateMutability": "nonpayable",
					"type": "function"
				},
				{
					"inputs": [
						{
							"internalType": "address",
							"name": "newOwner",
							"type": "address"
						}
					],
					"name": "transferOwnership",
					"outputs": [],
					"stateMutability": "nonpayable",
					"type": "function"
				},
				{
					"inputs": [
						{
							"internalType": "address",
							"name": "_newFeeRecipient",
							"type": "address"
						}
					],
					"name": "updateFeeRecipient",
					"outputs": [],
					"stateMutability": "nonpayable",
					"type": "function"
				},
				{
					"inputs": [
						{
							"internalType": "uint256",
							"name": "_newFeePercentage",
							"type": "uint256"
						}
					],
					"name": "updatePlatformFeePercentage",
					"outputs": [],
					"stateMutability": "nonpayable",
					"type": "function"
				}
			],
			"devdoc": {
				"errors": {
					"OwnableInvalidOwner(address)": [
						{
							"details": "The owner is not a valid owner account. (eg. `address(0)`)"
						}
					],
					"OwnableUnauthorizedAccount(address)": [
						{
							"details": "The caller account is not authorized to perform an operation."
						}
					]
				},
				"kind": "dev",
				"methods": {
					"owner()": {
						"details": "Returns the address of the current owner."
					},
					"renounceOwnership()": {
						"details": "Leaves the contract without owner. It will not be possible to call `onlyOwner` functions. Can only be called by the current owner. NOTE: Renouncing ownership will leave the contract without an owner, thereby disabling any functionality that is only available to the owner."
					},
					"transferOwnership(address)": {
						"details": "Transfers ownership of the contract to a new account (`newOwner`). Can only be called by the current owner."
					}
				},
				"version": 1
			},
			"evm": {
				"assembly": "    /* \"contracts/marketplace/PropertyMarketplace.sol\":391:5677  contract PropertyMarketplace is ReentrancyGuard, Ownable {... */\n  mstore(0x40, 0x80)\n    /* \"contracts/marketplace/PropertyMarketplace.sol\":1354:1566  constructor(uint256 _platformFeePercentage, address _feeRecipient, address initialOwner) Ownable(initialOwner) {... */\n  callvalue\n  dup1\n  iszero\n  tag_1\n  jumpi\n  revert(0x00, 0x00)\ntag_1:\n  pop\n  mload(0x40)\n  sub(codesize, bytecodeSize)\n  dup1\n  bytecodeSize\n  dup4\n  codecopy\n  dup2\n  dup2\n  add\n  0x40\n  mstore\n  dup2\n  add\n  swap1\n  tag_2\n  swap2\n  swap1\n  tag_3\n  jump\t// in\ntag_2:\n    /* \"contracts/marketplace/PropertyMarketplace.sol\":1451:1463  initialOwner */\n  dup1\n    /* \"https://github.com/OpenZeppelin/openzeppelin-contracts/blob/v4.9.0/contracts/security/ReentrancyGuard.sol\":1716:1717  1 */\n  0x01\n    /* \"https://github.com/OpenZeppelin/openzeppelin-contracts/blob/v4.9.0/contracts/security/ReentrancyGuard.sol\":1821:1828  _status */\n  0x00\n    /* \"https://github.com/OpenZeppelin/openzeppelin-contracts/blob/v4.9.0/contracts/security/ReentrancyGuard.sol\":1821:1843  _status = _NOT_ENTERED */\n  dup2\n  swap1\n  sstore\n  pop\n    /* \"https://github.com/OpenZeppelin/openzeppelin-contracts/blob/v5.0.0/contracts/access/Ownable.sol\":1297:1298  0 */\n  0x00\n    /* \"https://github.com/OpenZeppelin/openzeppelin-contracts/blob/v5.0.0/contracts/access/Ownable.sol\":1273:1299  initialOwner == address(0) */\n  0xffffffffffffffffffffffffffffffffffffffff\n  and\n    /* \"https://github.com/OpenZeppelin/openzeppelin-contracts/blob/v5.0.0/contracts/access/Ownable.sol\":1273:1285  initialOwner */\n  dup2\n    /* \"https://github.com/OpenZeppelin/openzeppelin-contracts/blob/v5.0.0/contracts/access/Ownable.sol\":1273:1299  initialOwner == address(0) */\n  0xffffffffffffffffffffffffffffffffffffffff\n  and\n  sub\n    /* \"https://github.com/OpenZeppelin/openzeppelin-contracts/blob/v5.0.0/contracts/access/Ownable.sol\":1269:1364  if (initialOwner == address(0)) {... */\n  tag_9\n  jumpi\n    /* \"https://github.com/OpenZeppelin/openzeppelin-contracts/blob/v5.0.0/contracts/access/Ownable.sol\":1350:1351  0 */\n  0x00\n    /* \"https://github.com/OpenZeppelin/openzeppelin-contracts/blob/v5.0.0/contracts/access/Ownable.sol\":1322:1353  OwnableInvalidOwner(address(0)) */\n  mload(0x40)\n  0x1e4fbdf700000000000000000000000000000000000000000000000000000000\n  dup2\n  mstore\n  0x04\n  add\n  tag_10\n  swap2\n  swap1\n  tag_11\n  jump\t// in\ntag_10:\n  mload(0x40)\n  dup1\n  swap2\n  sub\n  swap1\n  revert\n    /* \"https://github.com/OpenZeppelin/openzeppelin-contracts/blob/v5.0.0/contracts/access/Ownable.sol\":1269:1364  if (initialOwner == address(0)) {... */\ntag_9:\n    /* \"https://github.com/OpenZeppelin/openzeppelin-contracts/blob/v5.0.0/contracts/access/Ownable.sol\":1373:1405  _transferOwnership(initialOwner) */\n  tag_12\n    /* \"https://github.com/OpenZeppelin/openzeppelin-contracts/blob/v5.0.0/contracts/access/Ownable.sol\":1392:1404  initialOwner */\n  dup2\n    /* \"https://github.com/OpenZeppelin/openzeppelin-contracts/blob/v5.0.0/contracts/access/Ownable.sol\":1373:1391  _transferOwnership */\n  shl(0x20, tag_13)\n    /* \"https://github.com/OpenZeppelin/openzeppelin-contracts/blob/v5.0.0/contracts/access/Ownable.sol\":1373:1405  _transferOwnership(initialOwner) */\n  0x20\n  shr\n  jump\t// in\ntag_12:\n    /* \"https://github.com/OpenZeppelin/openzeppelin-contracts/blob/v5.0.0/contracts/access/Ownable.sol\":1225:1412  constructor(address initialOwner) {... */\n  pop\n    /* \"contracts/marketplace/PropertyMarketplace.sol\":1499:1521  _platformFeePercentage */\n  dup3\n    /* \"contracts/marketplace/PropertyMarketplace.sol\":1475:1496  platformFeePercentage */\n  0x02\n    /* \"contracts/marketplace/PropertyMarketplace.sol\":1475:1521  platformFeePercentage = _platformFeePercentage */\n  dup2\n  swap1\n  sstore\n  pop\n    /* \"contracts/marketplace/PropertyMarketplace.sol\":1546:1559  _feeRecipient */\n  dup2\n    /* \"contracts/marketplace/PropertyMarketplace.sol\":1531:1543  feeRecipient */\n  0x03\n  0x00\n    /* \"contracts/marketplace/PropertyMarketplace.sol\":1531:1559  feeRecipient = _feeRecipient */\n  0x0100\n  exp\n  dup2\n  sload\n  dup2\n  0xffffffffffffffffffffffffffffffffffffffff\n  mul\n  not\n  and\n  swap1\n  dup4\n  0xffffffffffffffffffffffffffffffffffffffff\n  and\n  mul\n  or\n  swap1\n  sstore\n  pop\n    /* \"contracts/marketplace/PropertyMarketplace.sol\":1354:1566  constructor(uint256 _platformFeePercentage, address _feeRecipient, address initialOwner) Ownable(initialOwner) {... */\n  pop\n  pop\n  pop\n    /* \"contracts/marketplace/PropertyMarketplace.sol\":391:5677  contract PropertyMarketplace is ReentrancyGuard, Ownable {... */\n  jump(tag_15)\n    /* \"https://github.com/OpenZeppelin/openzeppelin-contracts/blob/v5.0.0/contracts/access/Ownable.sol\":2912:3099  function _transferOwnership(address newOwner) internal virtual {... */\ntag_13:\n    /* \"https://github.com/OpenZeppelin/openzeppelin-contracts/blob/v5.0.0/contracts/access/Ownable.sol\":2985:3001  address oldOwner */\n  0x00\n    /* \"https://github.com/OpenZeppelin/openzeppelin-contracts/blob/v5.0.0/contracts/access/Ownable.sol\":3004:3010  _owner */\n  0x01\n  0x00\n  swap1\n  sload\n  swap1\n  0x0100\n  exp\n  swap1\n  div\n  0xffffffffffffffffffffffffffffffffffffffff\n  and\n    /* \"https://github.com/OpenZeppelin/openzeppelin-contracts/blob/v5.0.0/contracts/access/Ownable.sol\":2985:3010  address oldOwner = _owner */\n  swap1\n  pop\n    /* \"https://github.com/OpenZeppelin/openzeppelin-contracts/blob/v5.0.0/contracts/access/Ownable.sol\":3029:3037  newOwner */\n  dup2\n    /* \"https://github.com/OpenZeppelin/openzeppelin-contracts/blob/v5.0.0/contracts/access/Ownable.sol\":3020:3026  _owner */\n  0x01\n  0x00\n    /* \"https://github.com/OpenZeppelin/openzeppelin-contracts/blob/v5.0.0/contracts/access/Ownable.sol\":3020:3037  _owner = newOwner */\n  0x0100\n  exp\n  dup2\n  sload\n  dup2\n  0xffffffffffffffffffffffffffffffffffffffff\n  mul\n  not\n  and\n  swap1\n  dup4\n  0xffffffffffffffffffffffffffffffffffffffff\n  and\n  mul\n  or\n  swap1\n  sstore\n  pop\n    /* \"https://github.com/OpenZeppelin/openzeppelin-contracts/blob/v5.0.0/contracts/access/Ownable.sol\":3083:3091  newOwner */\n  dup2\n    /* \"https://github.com/OpenZeppelin/openzeppelin-contracts/blob/v5.0.0/contracts/access/Ownable.sol\":3052:3092  OwnershipTransferred(oldOwner, newOwner) */\n  0xffffffffffffffffffffffffffffffffffffffff\n  and\n    /* \"https://github.com/OpenZeppelin/openzeppelin-contracts/blob/v5.0.0/contracts/access/Ownable.sol\":3073:3081  oldOwner */\n  dup2\n    /* \"https://github.com/OpenZeppelin/openzeppelin-contracts/blob/v5.0.0/contracts/access/Ownable.sol\":3052:3092  OwnershipTransferred(oldOwner, newOwner) */\n  0xffffffffffffffffffffffffffffffffffffffff\n  and\n  0x8be0079c531659141344cd1fd0a4f28419497f9722a3daafe3b4186f6b6457e0\n  mload(0x40)\n  mload(0x40)\n  dup1\n  swap2\n  sub\n  swap1\n  log3\n    /* \"https://github.com/OpenZeppelin/openzeppelin-contracts/blob/v5.0.0/contracts/access/Ownable.sol\":2975:3099  {... */\n  pop\n    /* \"https://github.com/OpenZeppelin/openzeppelin-contracts/blob/v5.0.0/contracts/access/Ownable.sol\":2912:3099  function _transferOwnership(address newOwner) internal virtual {... */\n  pop\n  jump\t// out\n    /* \"#utility.yul\":88:205   */\ntag_18:\n    /* \"#utility.yul\":197:198   */\n  0x00\n    /* \"#utility.yul\":194:195   */\n  0x00\n    /* \"#utility.yul\":187:199   */\n  revert\n    /* \"#utility.yul\":334:411   */\ntag_20:\n    /* \"#utility.yul\":371:378   */\n  0x00\n    /* \"#utility.yul\":400:405   */\n  dup2\n    /* \"#utility.yul\":389:405   */\n  swap1\n  pop\n    /* \"#utility.yul\":334:411   */\n  swap2\n  swap1\n  pop\n  jump\t// out\n    /* \"#utility.yul\":417:539   */\ntag_21:\n    /* \"#utility.yul\":490:514   */\n  tag_34\n    /* \"#utility.yul\":508:513   */\n  dup2\n    /* \"#utility.yul\":490:514   */\n  tag_20\n  jump\t// in\ntag_34:\n    /* \"#utility.yul\":483:488   */\n  dup2\n    /* \"#utility.yul\":480:515   */\n  eq\n    /* \"#utility.yul\":470:533   */\n  tag_35\n  jumpi\n    /* \"#utility.yul\":529:530   */\n  0x00\n    /* \"#utility.yul\":526:527   */\n  0x00\n    /* \"#utility.yul\":519:531   */\n  revert\n    /* \"#utility.yul\":470:533   */\ntag_35:\n    /* \"#utility.yul\":417:539   */\n  pop\n  jump\t// out\n    /* \"#utility.yul\":545:688   */\ntag_22:\n    /* \"#utility.yul\":602:607   */\n  0x00\n    /* \"#utility.yul\":633:639   */\n  dup2\n    /* \"#utility.yul\":627:640   */\n  mload\n    /* \"#utility.yul\":618:640   */\n  swap1\n  pop\n    /* \"#utility.yul\":649:682   */\n  tag_37\n    /* \"#utility.yul\":676:681   */\n  dup2\n    /* \"#utility.yul\":649:682   */\n  tag_21\n  jump\t// in\ntag_37:\n    /* \"#utility.yul\":545:688   */\n  swap3\n  swap2\n  pop\n  pop\n  jump\t// out\n    /* \"#utility.yul\":694:820   */\ntag_23:\n    /* \"#utility.yul\":731:738   */\n  0x00\n    /* \"#utility.yul\":771:813   */\n  0xffffffffffffffffffffffffffffffffffffffff\n    /* \"#utility.yul\":764:769   */\n  dup3\n    /* \"#utility.yul\":760:814   */\n  and\n    /* \"#utility.yul\":749:814   */\n  swap1\n  pop\n    /* \"#utility.yul\":694:820   */\n  swap2\n  swap1\n  pop\n  jump\t// out\n    /* \"#utility.yul\":826:922   */\ntag_24:\n    /* \"#utility.yul\":863:870   */\n  0x00\n    /* \"#utility.yul\":892:916   */\n  tag_40\n    /* \"#utility.yul\":910:915   */\n  dup3\n    /* \"#utility.yul\":892:916   */\n  tag_23\n  jump\t// in\ntag_40:\n    /* \"#utility.yul\":881:916   */\n  swap1\n  pop\n    /* \"#utility.yul\":826:922   */\n  swap2\n  swap1\n  pop\n  jump\t// out\n    /* \"#utility.yul\":928:1050   */\ntag_25:\n    /* \"#utility.yul\":1001:1025   */\n  tag_42\n    /* \"#utility.yul\":1019:1024   */\n  dup2\n    /* \"#utility.yul\":1001:1025   */\n  tag_24\n  jump\t// in\ntag_42:\n    /* \"#utility.yul\":994:999   */\n  dup2\n    /* \"#utility.yul\":991:1026   */\n  eq\n    /* \"#utility.yul\":981:1044   */\n  tag_43\n  jumpi\n    /* \"#utility.yul\":1040:1041   */\n  0x00\n    /* \"#utility.yul\":1037:1038   */\n  0x00\n    /* \"#utility.yul\":1030:1042   */\n  revert\n    /* \"#utility.yul\":981:1044   */\ntag_43:\n    /* \"#utility.yul\":928:1050   */\n  pop\n  jump\t// out\n    /* \"#utility.yul\":1056:1199   */\ntag_26:\n    /* \"#utility.yul\":1113:1118   */\n  0x00\n    /* \"#utility.yul\":1144:1150   */\n  dup2\n    /* \"#utility.yul\":1138:1151   */\n  mload\n    /* \"#utility.yul\":1129:1151   */\n  swap1\n  pop\n    /* \"#utility.yul\":1160:1193   */\n  tag_45\n    /* \"#utility.yul\":1187:1192   */\n  dup2\n    /* \"#utility.yul\":1160:1193   */\n  tag_25\n  jump\t// in\ntag_45:\n    /* \"#utility.yul\":1056:1199   */\n  swap3\n  swap2\n  pop\n  pop\n  jump\t// out\n    /* \"#utility.yul\":1205:1868   */\ntag_3:\n    /* \"#utility.yul\":1293:1299   */\n  0x00\n    /* \"#utility.yul\":1301:1307   */\n  0x00\n    /* \"#utility.yul\":1309:1315   */\n  0x00\n    /* \"#utility.yul\":1358:1360   */\n  0x60\n    /* \"#utility.yul\":1346:1355   */\n  dup5\n    /* \"#utility.yul\":1337:1344   */\n  dup7\n    /* \"#utility.yul\":1333:1356   */\n  sub\n    /* \"#utility.yul\":1329:1361   */\n  slt\n    /* \"#utility.yul\":1326:1445   */\n  iszero\n  tag_47\n  jumpi\n    /* \"#utility.yul\":1364:1443   */\n  tag_48\n  tag_18\n  jump\t// in\ntag_48:\n    /* \"#utility.yul\":1326:1445   */\ntag_47:\n    /* \"#utility.yul\":1484:1485   */\n  0x00\n    /* \"#utility.yul\":1509:1573   */\n  tag_49\n    /* \"#utility.yul\":1565:1572   */\n  dup7\n    /* \"#utility.yul\":1556:1562   */\n  dup3\n    /* \"#utility.yul\":1545:1554   */\n  dup8\n    /* \"#utility.yul\":1541:1563   */\n  add\n    /* \"#utility.yul\":1509:1573   */\n  tag_22\n  jump\t// in\ntag_49:\n    /* \"#utility.yul\":1499:1573   */\n  swap4\n  pop\n    /* \"#utility.yul\":1455:1583   */\n  pop\n    /* \"#utility.yul\":1622:1624   */\n  0x20\n    /* \"#utility.yul\":1648:1712   */\n  tag_50\n    /* \"#utility.yul\":1704:1711   */\n  dup7\n    /* \"#utility.yul\":1695:1701   */\n  dup3\n    /* \"#utility.yul\":1684:1693   */\n  dup8\n    /* \"#utility.yul\":1680:1702   */\n  add\n    /* \"#utility.yul\":1648:1712   */\n  tag_26\n  jump\t// in\ntag_50:\n    /* \"#utility.yul\":1638:1712   */\n  swap3\n  pop\n    /* \"#utility.yul\":1593:1722   */\n  pop\n    /* \"#utility.yul\":1761:1763   */\n  0x40\n    /* \"#utility.yul\":1787:1851   */\n  tag_51\n    /* \"#utility.yul\":1843:1850   */\n  dup7\n    /* \"#utility.yul\":1834:1840   */\n  dup3\n    /* \"#utility.yul\":1823:1832   */\n  dup8\n    /* \"#utility.yul\":1819:1841   */\n  add\n    /* \"#utility.yul\":1787:1851   */\n  tag_26\n  jump\t// in\ntag_51:\n    /* \"#utility.yul\":1777:1851   */\n  swap2\n  pop\n    /* \"#utility.yul\":1732:1861   */\n  pop\n    /* \"#utility.yul\":1205:1868   */\n  swap3\n  pop\n  swap3\n  pop\n  swap3\n  jump\t// out\n    /* \"#utility.yul\":1874:1992   */\ntag_27:\n    /* \"#utility.yul\":1961:1985   */\n  tag_53\n    /* \"#utility.yul\":1979:1984   */\n  dup2\n    /* \"#utility.yul\":1961:1985   */\n  tag_24\n  jump\t// in\ntag_53:\n    /* \"#utility.yul\":1956:1959   */\n  dup3\n    /* \"#utility.yul\":1949:1986   */\n  mstore\n    /* \"#utility.yul\":1874:1992   */\n  pop\n  pop\n  jump\t// out\n    /* \"#utility.yul\":1998:2220   */\ntag_11:\n    /* \"#utility.yul\":2091:2095   */\n  0x00\n    /* \"#utility.yul\":2129:2131   */\n  0x20\n    /* \"#utility.yul\":2118:2127   */\n  dup3\n    /* \"#utility.yul\":2114:2132   */\n  add\n    /* \"#utility.yul\":2106:2132   */\n  swap1\n  pop\n    /* \"#utility.yul\":2142:2213   */\n  tag_55\n    /* \"#utility.yul\":2210:2211   */\n  0x00\n    /* \"#utility.yul\":2199:2208   */\n  dup4\n    /* \"#utility.yul\":2195:2212   */\n  add\n    /* \"#utility.yul\":2186:2192   */\n  dup5\n    /* \"#utility.yul\":2142:2213   */\n  tag_27\n  jump\t// in\ntag_55:\n    /* \"#utility.yul\":1998:2220   */\n  swap3\n  swap2\n  pop\n  pop\n  jump\t// out\n    /* \"contracts/marketplace/PropertyMarketplace.sol\":391:5677  contract PropertyMarketplace is ReentrancyGuard, Ownable {... */\ntag_15:\n  dataSize(sub_0)\n  dup1\n  dataOffset(sub_0)\n  0x00\n  codecopy\n  0x00\n  return\nstop\n\nsub_0: assembly {\n        /* \"contracts/marketplace/PropertyMarketplace.sol\":391:5677  contract PropertyMarketplace is ReentrancyGuard, Ownable {... */\n      mstore(0x40, 0x80)\n      jumpi(tag_1, lt(calldatasize, 0x04))\n      shr(0xe0, calldataload(0x00))\n      dup1\n      0x8da5cb5b\n      gt\n      tag_14\n      jumpi\n      dup1\n      0x8da5cb5b\n      eq\n      tag_8\n      jumpi\n      dup1\n      0xcdd78cfc\n      eq\n      tag_9\n      jumpi\n      dup1\n      0xde74e57b\n      eq\n      tag_10\n      jumpi\n      dup1\n      0xe4830153\n      eq\n      tag_11\n      jumpi\n      dup1\n      0xf160d369\n      eq\n      tag_12\n      jumpi\n      dup1\n      0xf2fde38b\n      eq\n      tag_13\n      jumpi\n      jump(tag_1)\n    tag_14:\n      dup1\n      0x24780c56\n      eq\n      tag_2\n      jumpi\n      dup1\n      0x305a67a8\n      eq\n      tag_3\n      jumpi\n      dup1\n      0x46904840\n      eq\n      tag_4\n      jumpi\n      dup1\n      0x715018a6\n      eq\n      tag_5\n      jumpi\n      dup1\n      0x87c35bc0\n      eq\n      tag_6\n      jumpi\n      dup1\n      0x8bf0af3e\n      eq\n      tag_7\n      jumpi\n    tag_1:\n      revert(0x00, 0x00)\n        /* \"contracts/marketplace/PropertyMarketplace.sol\":1604:2442  function createListing(address _propertyToken, uint256 _tokenAmount, uint256 _pricePerToken) external returns (uint256) {... */\n    tag_2:\n      callvalue\n      dup1\n      iszero\n      tag_15\n      jumpi\n      revert(0x00, 0x00)\n    tag_15:\n      pop\n      tag_16\n      0x04\n      dup1\n      calldatasize\n      sub\n      dup2\n      add\n      swap1\n      tag_17\n      swap2\n      swap1\n      tag_18\n      jump\t// in\n    tag_17:\n      tag_19\n      jump\t// in\n    tag_16:\n      mload(0x40)\n      tag_20\n      swap2\n      swap1\n      tag_21\n      jump\t// in\n    tag_20:\n      mload(0x40)\n      dup1\n      swap2\n      sub\n      swap1\n      return\n        /* \"contracts/marketplace/PropertyMarketplace.sol\":2476:2941  function cancelListing(uint256 _listingId) external {... */\n    tag_3:\n      callvalue\n      dup1\n      iszero\n      tag_22\n      jumpi\n      revert(0x00, 0x00)\n    tag_22:\n      pop\n      tag_23\n      0x04\n      dup1\n      calldatasize\n      sub\n      dup2\n      add\n      swap1\n      tag_24\n      swap2\n      swap1\n      tag_25\n      jump\t// in\n    tag_24:\n      tag_26\n      jump\t// in\n    tag_23:\n      stop\n        /* \"contracts/marketplace/PropertyMarketplace.sol\":604:631  address public feeRecipient */\n    tag_4:\n      callvalue\n      dup1\n      iszero\n      tag_27\n      jumpi\n      revert(0x00, 0x00)\n    tag_27:\n      pop\n      tag_28\n      tag_29\n      jump\t// in\n    tag_28:\n      mload(0x40)\n      tag_30\n      swap2\n      swap1\n      tag_31\n      jump\t// in\n    tag_30:\n      mload(0x40)\n      dup1\n      swap2\n      sub\n      swap1\n      return\n        /* \"https://github.com/OpenZeppelin/openzeppelin-contracts/blob/v5.0.0/contracts/access/Ownable.sol\":2293:2394  function renounceOwnership() public virtual onlyOwner {... */\n    tag_5:\n      callvalue\n      dup1\n      iszero\n      tag_32\n      jumpi\n      revert(0x00, 0x00)\n    tag_32:\n      pop\n      tag_33\n      tag_34\n      jump\t// in\n    tag_33:\n      stop\n        /* \"contracts/marketplace/PropertyMarketplace.sol\":4962:5675  function getActiveListings() external view returns (uint256[] memory) {... */\n    tag_6:\n      callvalue\n      dup1\n      iszero\n      tag_35\n      jumpi\n      revert(0x00, 0x00)\n    tag_35:\n      pop\n      tag_36\n      tag_37\n      jump\t// in\n    tag_36:\n      mload(0x40)\n      tag_38\n      swap2\n      swap1\n      tag_39\n      jump\t// in\n    tag_38:\n      mload(0x40)\n      dup1\n      swap2\n      sub\n      swap1\n      return\n        /* \"contracts/marketplace/PropertyMarketplace.sol\":2989:4296  function purchaseTokens(uint256 _listingId, uint256 _amount) external payable nonReentrant {... */\n    tag_7:\n      tag_40\n      0x04\n      dup1\n      calldatasize\n      sub\n      dup2\n      add\n      swap1\n      tag_41\n      swap2\n      swap1\n      tag_42\n      jump\t// in\n    tag_41:\n      tag_43\n      jump\t// in\n    tag_40:\n      stop\n        /* \"https://github.com/OpenZeppelin/openzeppelin-contracts/blob/v5.0.0/contracts/access/Ownable.sol\":1638:1723  function owner() public view virtual returns (address) {... */\n    tag_8:\n      callvalue\n      dup1\n      iszero\n      tag_44\n      jumpi\n      revert(0x00, 0x00)\n    tag_44:\n      pop\n      tag_45\n      tag_46\n      jump\t// in\n    tag_45:\n      mload(0x40)\n      tag_47\n      swap2\n      swap1\n      tag_31\n      jump\t// in\n    tag_47:\n      mload(0x40)\n      dup1\n      swap2\n      sub\n      swap1\n      return\n        /* \"contracts/marketplace/PropertyMarketplace.sol\":519:555  uint256 public platformFeePercentage */\n    tag_9:\n      callvalue\n      dup1\n      iszero\n      tag_48\n      jumpi\n      revert(0x00, 0x00)\n    tag_48:\n      pop\n      tag_49\n      tag_50\n      jump\t// in\n    tag_49:\n      mload(0x40)\n      tag_51\n      swap2\n      swap1\n      tag_21\n      jump\t// in\n    tag_51:\n      mload(0x40)\n      dup1\n      swap2\n      sub\n      swap1\n      return\n        /* \"contracts/marketplace/PropertyMarketplace.sol\":866:891  Listing[] public listings */\n    tag_10:\n      callvalue\n      dup1\n      iszero\n      tag_52\n      jumpi\n      revert(0x00, 0x00)\n    tag_52:\n      pop\n      tag_53\n      0x04\n      dup1\n      calldatasize\n      sub\n      dup2\n      add\n      swap1\n      tag_54\n      swap2\n      swap1\n      tag_25\n      jump\t// in\n    tag_54:\n      tag_55\n      jump\t// in\n    tag_53:\n      mload(0x40)\n      tag_56\n      swap6\n      swap5\n      swap4\n      swap3\n      swap2\n      swap1\n      tag_57\n      jump\t// in\n    tag_56:\n      mload(0x40)\n      dup1\n      swap2\n      sub\n      swap1\n      return\n        /* \"contracts/marketplace/PropertyMarketplace.sol\":4357:4621  function updatePlatformFeePercentage(uint256 _newFeePercentage) external onlyOwner {... */\n    tag_11:\n      callvalue\n      dup1\n      iszero\n      tag_58\n      jumpi\n      revert(0x00, 0x00)\n    tag_58:\n      pop\n      tag_59\n      0x04\n      dup1\n      calldatasize\n      sub\n      dup2\n      add\n      swap1\n      tag_60\n      swap2\n      swap1\n      tag_25\n      jump\t// in\n    tag_60:\n      tag_61\n      jump\t// in\n    tag_59:\n      stop\n        /* \"contracts/marketplace/PropertyMarketplace.sol\":4680:4921  function updateFeeRecipient(address _newFeeRecipient) external onlyOwner {... */\n    tag_12:\n      callvalue\n      dup1\n      iszero\n      tag_62\n      jumpi\n      revert(0x00, 0x00)\n    tag_62:\n      pop\n      tag_63\n      0x04\n      dup1\n      calldatasize\n      sub\n      dup2\n      add\n      swap1\n      tag_64\n      swap2\n      swap1\n      tag_65\n      jump\t// in\n    tag_64:\n      tag_66\n      jump\t// in\n    tag_63:\n      stop\n        /* \"https://github.com/OpenZeppelin/openzeppelin-contracts/blob/v5.0.0/contracts/access/Ownable.sol\":2543:2758  function transferOwnership(address newOwner) public virtual onlyOwner {... */\n    tag_13:\n      callvalue\n      dup1\n      iszero\n      tag_67\n      jumpi\n      revert(0x00, 0x00)\n    tag_67:\n      pop\n      tag_68\n      0x04\n      dup1\n      calldatasize\n      sub\n      dup2\n      add\n      swap1\n      tag_69\n      swap2\n      swap1\n      tag_65\n      jump\t// in\n    tag_69:\n      tag_70\n      jump\t// in\n    tag_68:\n      stop\n        /* \"contracts/marketplace/PropertyMarketplace.sol\":1604:2442  function createListing(address _propertyToken, uint256 _tokenAmount, uint256 _pricePerToken) external returns (uint256) {... */\n    tag_19:\n        /* \"contracts/marketplace/PropertyMarketplace.sol\":1715:1722  uint256 */\n      0x00\n        /* \"contracts/marketplace/PropertyMarketplace.sol\":1757:1758  0 */\n      0x00\n        /* \"contracts/marketplace/PropertyMarketplace.sol\":1742:1754  _tokenAmount */\n      dup4\n        /* \"contracts/marketplace/PropertyMarketplace.sol\":1742:1758  _tokenAmount > 0 */\n      gt\n        /* \"contracts/marketplace/PropertyMarketplace.sol\":1734:1798  require(_tokenAmount > 0, \"Token amount must be greater than 0\") */\n      tag_72\n      jumpi\n      mload(0x40)\n      0x08c379a000000000000000000000000000000000000000000000000000000000\n      dup2\n      mstore\n      0x04\n      add\n      tag_73\n      swap1\n      tag_74\n      jump\t// in\n    tag_73:\n      mload(0x40)\n      dup1\n      swap2\n      sub\n      swap1\n      revert\n    tag_72:\n        /* \"contracts/marketplace/PropertyMarketplace.sol\":1833:1834  0 */\n      0x00\n        /* \"contracts/marketplace/PropertyMarketplace.sol\":1816:1830  _pricePerToken */\n      dup3\n        /* \"contracts/marketplace/PropertyMarketplace.sol\":1816:1834  _pricePerToken > 0 */\n      gt\n        /* \"contracts/marketplace/PropertyMarketplace.sol\":1808:1867  require(_pricePerToken > 0, \"Price must be greater than 0\") */\n      tag_75\n      jumpi\n      mload(0x40)\n      0x08c379a000000000000000000000000000000000000000000000000000000000\n      dup2\n      mstore\n      0x04\n      add\n      tag_76\n      swap1\n      tag_77\n      jump\t// in\n    tag_76:\n      mload(0x40)\n      dup1\n      swap2\n      sub\n      swap1\n      revert\n    tag_75:\n        /* \"contracts/marketplace/PropertyMarketplace.sol\":1937:1951  _propertyToken */\n      dup4\n        /* \"contracts/marketplace/PropertyMarketplace.sol\":1930:1965  IERC20(_propertyToken).transferFrom */\n      0xffffffffffffffffffffffffffffffffffffffff\n      and\n      0x23b872dd\n        /* \"contracts/marketplace/PropertyMarketplace.sol\":1966:1976  msg.sender */\n      caller\n        /* \"contracts/marketplace/PropertyMarketplace.sol\":1986:1990  this */\n      address\n        /* \"contracts/marketplace/PropertyMarketplace.sol\":1993:2005  _tokenAmount */\n      dup7\n        /* \"contracts/marketplace/PropertyMarketplace.sol\":1930:2006  IERC20(_propertyToken).transferFrom(msg.sender, address(this), _tokenAmount) */\n      mload(0x40)\n      dup5\n      0xffffffff\n      and\n      0xe0\n      shl\n      dup2\n      mstore\n      0x04\n      add\n      tag_78\n      swap4\n      swap3\n      swap2\n      swap1\n      tag_79\n      jump\t// in\n    tag_78:\n      0x20\n      mload(0x40)\n      dup1\n      dup4\n      sub\n      dup2\n      0x00\n      dup8\n      gas\n      call\n      iszero\n      dup1\n      iszero\n      tag_81\n      jumpi\n      returndatacopy(0x00, 0x00, returndatasize)\n      revert(0x00, returndatasize)\n    tag_81:\n      pop\n      pop\n      pop\n      pop\n      mload(0x40)\n      returndatasize\n      not(0x1f)\n      0x1f\n      dup3\n      add\n      and\n      dup3\n      add\n      dup1\n      0x40\n      mstore\n      pop\n      dup2\n      add\n      swap1\n      tag_82\n      swap2\n      swap1\n      tag_83\n      jump\t// in\n    tag_82:\n      pop\n        /* \"contracts/marketplace/PropertyMarketplace.sol\":2025:2033  listings */\n      0x04\n        /* \"contracts/marketplace/PropertyMarketplace.sol\":2039:2243  Listing({... */\n      mload(0x40)\n      dup1\n      0xa0\n      add\n      0x40\n      mstore\n      dup1\n        /* \"contracts/marketplace/PropertyMarketplace.sol\":2069:2079  msg.sender */\n      caller\n        /* \"contracts/marketplace/PropertyMarketplace.sol\":2039:2243  Listing({... */\n      0xffffffffffffffffffffffffffffffffffffffff\n      and\n      dup2\n      mstore\n      0x20\n      add\n        /* \"contracts/marketplace/PropertyMarketplace.sol\":2108:2122  _propertyToken */\n      dup7\n        /* \"contracts/marketplace/PropertyMarketplace.sol\":2039:2243  Listing({... */\n      0xffffffffffffffffffffffffffffffffffffffff\n      and\n      dup2\n      mstore\n      0x20\n      add\n        /* \"contracts/marketplace/PropertyMarketplace.sol\":2149:2161  _tokenAmount */\n      dup6\n        /* \"contracts/marketplace/PropertyMarketplace.sol\":2039:2243  Listing({... */\n      dup2\n      mstore\n      0x20\n      add\n        /* \"contracts/marketplace/PropertyMarketplace.sol\":2190:2204  _pricePerToken */\n      dup5\n        /* \"contracts/marketplace/PropertyMarketplace.sol\":2039:2243  Listing({... */\n      dup2\n      mstore\n      0x20\n      add\n        /* \"contracts/marketplace/PropertyMarketplace.sol\":2228:2232  true */\n      0x01\n        /* \"contracts/marketplace/PropertyMarketplace.sol\":2039:2243  Listing({... */\n      iszero\n      iszero\n      dup2\n      mstore\n      pop\n        /* \"contracts/marketplace/PropertyMarketplace.sol\":2025:2244  listings.push(Listing({... */\n      swap1\n      dup1\n      0x01\n      dup2\n      sload\n      add\n      dup1\n      dup3\n      sstore\n      dup1\n      swap2\n      pop\n      pop\n      0x01\n      swap1\n      sub\n      swap1\n      0x00\n      mstore\n      keccak256(0x00, 0x20)\n      swap1\n      0x05\n      mul\n      add\n      0x00\n      swap1\n      swap2\n      swap1\n      swap2\n      swap1\n      swap2\n      pop\n      0x00\n      dup3\n      add\n      mload\n      dup2\n      0x00\n      add\n      exp(0x0100, 0x00)\n      dup2\n      sload\n      dup2\n      0xffffffffffffffffffffffffffffffffffffffff\n      mul\n      not\n      and\n      swap1\n      dup4\n      0xffffffffffffffffffffffffffffffffffffffff\n      and\n      mul\n      or\n      swap1\n      sstore\n      pop\n      0x20\n      dup3\n      add\n      mload\n      dup2\n      0x01\n      add\n      exp(0x0100, 0x00)\n      dup2\n      sload\n      dup2\n      0xffffffffffffffffffffffffffffffffffffffff\n      mul\n      not\n      and\n      swap1\n      dup4\n      0xffffffffffffffffffffffffffffffffffffffff\n      and\n      mul\n      or\n      swap1\n      sstore\n      pop\n      0x40\n      dup3\n      add\n      mload\n      dup2\n      0x02\n      add\n      sstore\n      0x60\n      dup3\n      add\n      mload\n      dup2\n      0x03\n      add\n      sstore\n      0x80\n      dup3\n      add\n      mload\n      dup2\n      0x04\n      add\n      exp(0x0100, 0x00)\n      dup2\n      sload\n      dup2\n      0xff\n      mul\n      not\n      and\n      swap1\n      dup4\n      iszero\n      iszero\n      mul\n      or\n      swap1\n      sstore\n      pop\n      pop\n      pop\n        /* \"contracts/marketplace/PropertyMarketplace.sol\":2263:2280  uint256 listingId */\n      0x00\n        /* \"contracts/marketplace/PropertyMarketplace.sol\":2301:2302  1 */\n      0x01\n        /* \"contracts/marketplace/PropertyMarketplace.sol\":2283:2291  listings */\n      0x04\n        /* \"contracts/marketplace/PropertyMarketplace.sol\":2283:2298  listings.length */\n      dup1\n      sload\n      swap1\n      pop\n        /* \"contracts/marketplace/PropertyMarketplace.sol\":2283:2302  listings.length - 1 */\n      tag_85\n      swap2\n      swap1\n      tag_86\n      jump\t// in\n    tag_85:\n        /* \"contracts/marketplace/PropertyMarketplace.sol\":2263:2302  uint256 listingId = listings.length - 1 */\n      swap1\n      pop\n        /* \"contracts/marketplace/PropertyMarketplace.sol\":2355:2369  _propertyToken */\n      dup5\n        /* \"contracts/marketplace/PropertyMarketplace.sol\":2317:2400  ListingCreated(listingId, msg.sender, _propertyToken, _tokenAmount, _pricePerToken) */\n      0xffffffffffffffffffffffffffffffffffffffff\n      and\n        /* \"contracts/marketplace/PropertyMarketplace.sol\":2343:2353  msg.sender */\n      caller\n        /* \"contracts/marketplace/PropertyMarketplace.sol\":2317:2400  ListingCreated(listingId, msg.sender, _propertyToken, _tokenAmount, _pricePerToken) */\n      0xffffffffffffffffffffffffffffffffffffffff\n      and\n        /* \"contracts/marketplace/PropertyMarketplace.sol\":2332:2341  listingId */\n      dup3\n        /* \"contracts/marketplace/PropertyMarketplace.sol\":2317:2400  ListingCreated(listingId, msg.sender, _propertyToken, _tokenAmount, _pricePerToken) */\n      0x508c75a3cb42c068e54cf9e0b738921b4e2375725c5965ef4a110475606fc05a\n        /* \"contracts/marketplace/PropertyMarketplace.sol\":2371:2383  _tokenAmount */\n      dup8\n        /* \"contracts/marketplace/PropertyMarketplace.sol\":2385:2399  _pricePerToken */\n      dup8\n        /* \"contracts/marketplace/PropertyMarketplace.sol\":2317:2400  ListingCreated(listingId, msg.sender, _propertyToken, _tokenAmount, _pricePerToken) */\n      mload(0x40)\n      tag_87\n      swap3\n      swap2\n      swap1\n      tag_88\n      jump\t// in\n    tag_87:\n      mload(0x40)\n      dup1\n      swap2\n      sub\n      swap1\n      log4\n        /* \"contracts/marketplace/PropertyMarketplace.sol\":2426:2435  listingId */\n      dup1\n        /* \"contracts/marketplace/PropertyMarketplace.sol\":2419:2435  return listingId */\n      swap2\n      pop\n      pop\n        /* \"contracts/marketplace/PropertyMarketplace.sol\":1604:2442  function createListing(address _propertyToken, uint256 _tokenAmount, uint256 _pricePerToken) external returns (uint256) {... */\n      swap4\n      swap3\n      pop\n      pop\n      pop\n      jump\t// out\n        /* \"contracts/marketplace/PropertyMarketplace.sol\":2476:2941  function cancelListing(uint256 _listingId) external {... */\n    tag_26:\n        /* \"contracts/marketplace/PropertyMarketplace.sol\":2538:2561  Listing storage listing */\n      0x00\n        /* \"contracts/marketplace/PropertyMarketplace.sol\":2564:2572  listings */\n      0x04\n        /* \"contracts/marketplace/PropertyMarketplace.sol\":2573:2583  _listingId */\n      dup3\n        /* \"contracts/marketplace/PropertyMarketplace.sol\":2564:2584  listings[_listingId] */\n      dup2\n      sload\n      dup2\n      lt\n      tag_90\n      jumpi\n      tag_91\n      tag_92\n      jump\t// in\n    tag_91:\n    tag_90:\n      swap1\n      0x00\n      mstore\n      keccak256(0x00, 0x20)\n      swap1\n      0x05\n      mul\n      add\n        /* \"contracts/marketplace/PropertyMarketplace.sol\":2538:2584  Listing storage listing = listings[_listingId] */\n      swap1\n      pop\n        /* \"contracts/marketplace/PropertyMarketplace.sol\":2620:2630  msg.sender */\n      caller\n        /* \"contracts/marketplace/PropertyMarketplace.sol\":2602:2630  listing.seller == msg.sender */\n      0xffffffffffffffffffffffffffffffffffffffff\n      and\n        /* \"contracts/marketplace/PropertyMarketplace.sol\":2602:2609  listing */\n      dup2\n        /* \"contracts/marketplace/PropertyMarketplace.sol\":2602:2616  listing.seller */\n      0x00\n      add\n      0x00\n      swap1\n      sload\n      swap1\n      0x0100\n      exp\n      swap1\n      div\n      0xffffffffffffffffffffffffffffffffffffffff\n      and\n        /* \"contracts/marketplace/PropertyMarketplace.sol\":2602:2630  listing.seller == msg.sender */\n      0xffffffffffffffffffffffffffffffffffffffff\n      and\n      eq\n        /* \"contracts/marketplace/PropertyMarketplace.sol\":2594:2649  require(listing.seller == msg.sender, \"Not the seller\") */\n      tag_94\n      jumpi\n      mload(0x40)\n      0x08c379a000000000000000000000000000000000000000000000000000000000\n      dup2\n      mstore\n      0x04\n      add\n      tag_95\n      swap1\n      tag_96\n      jump\t// in\n    tag_95:\n      mload(0x40)\n      dup1\n      swap2\n      sub\n      swap1\n      revert\n    tag_94:\n        /* \"contracts/marketplace/PropertyMarketplace.sol\":2667:2674  listing */\n      dup1\n        /* \"contracts/marketplace/PropertyMarketplace.sol\":2667:2683  listing.isActive */\n      0x04\n      add\n      0x00\n      swap1\n      sload\n      swap1\n      0x0100\n      exp\n      swap1\n      div\n      0xff\n      and\n        /* \"contracts/marketplace/PropertyMarketplace.sol\":2659:2706  require(listing.isActive, \"Listing not active\") */\n      tag_97\n      jumpi\n      mload(0x40)\n      0x08c379a000000000000000000000000000000000000000000000000000000000\n      dup2\n      mstore\n      0x04\n      add\n      tag_98\n      swap1\n      tag_99\n      jump\t// in\n    tag_98:\n      mload(0x40)\n      dup1\n      swap2\n      sub\n      swap1\n      revert\n    tag_97:\n        /* \"contracts/marketplace/PropertyMarketplace.sol\":2744:2749  false */\n      0x00\n        /* \"contracts/marketplace/PropertyMarketplace.sol\":2725:2732  listing */\n      dup2\n        /* \"contracts/marketplace/PropertyMarketplace.sol\":2725:2741  listing.isActive */\n      0x04\n      add\n      0x00\n        /* \"contracts/marketplace/PropertyMarketplace.sol\":2725:2749  listing.isActive = false */\n      0x0100\n      exp\n      dup2\n      sload\n      dup2\n      0xff\n      mul\n      not\n      and\n      swap1\n      dup4\n      iszero\n      iszero\n      mul\n      or\n      swap1\n      sstore\n      pop\n        /* \"contracts/marketplace/PropertyMarketplace.sol\":2814:2821  listing */\n      dup1\n        /* \"contracts/marketplace/PropertyMarketplace.sol\":2814:2835  listing.propertyToken */\n      0x01\n      add\n      0x00\n      swap1\n      sload\n      swap1\n      0x0100\n      exp\n      swap1\n      div\n      0xffffffffffffffffffffffffffffffffffffffff\n      and\n        /* \"contracts/marketplace/PropertyMarketplace.sol\":2807:2845  IERC20(listing.propertyToken).transfer */\n      0xffffffffffffffffffffffffffffffffffffffff\n      and\n      0xa9059cbb\n        /* \"contracts/marketplace/PropertyMarketplace.sol\":2846:2853  listing */\n      dup3\n        /* \"contracts/marketplace/PropertyMarketplace.sol\":2846:2860  listing.seller */\n      0x00\n      add\n      0x00\n      swap1\n      sload\n      swap1\n      0x0100\n      exp\n      swap1\n      div\n      0xffffffffffffffffffffffffffffffffffffffff\n      and\n        /* \"contracts/marketplace/PropertyMarketplace.sol\":2862:2869  listing */\n      dup4\n        /* \"contracts/marketplace/PropertyMarketplace.sol\":2862:2881  listing.tokenAmount */\n      0x02\n      add\n      sload\n        /* \"contracts/marketplace/PropertyMarketplace.sol\":2807:2882  IERC20(listing.propertyToken).transfer(listing.seller, listing.tokenAmount) */\n      mload(0x40)\n      dup4\n      0xffffffff\n      and\n      0xe0\n      shl\n      dup2\n      mstore\n      0x04\n      add\n      tag_100\n      swap3\n      swap2\n      swap1\n      tag_101\n      jump\t// in\n    tag_100:\n      0x20\n      mload(0x40)\n      dup1\n      dup4\n      sub\n      dup2\n      0x00\n      dup8\n      gas\n      call\n      iszero\n      dup1\n      iszero\n      tag_103\n      jumpi\n      returndatacopy(0x00, 0x00, returndatasize)\n      revert(0x00, returndatasize)\n    tag_103:\n      pop\n      pop\n      pop\n      pop\n      mload(0x40)\n      returndatasize\n      not(0x1f)\n      0x1f\n      dup3\n      add\n      and\n      dup3\n      add\n      dup1\n      0x40\n      mstore\n      pop\n      dup2\n      add\n      swap1\n      tag_104\n      swap2\n      swap1\n      tag_83\n      jump\t// in\n    tag_104:\n      pop\n        /* \"contracts/marketplace/PropertyMarketplace.sol\":2923:2933  _listingId */\n      dup2\n        /* \"contracts/marketplace/PropertyMarketplace.sol\":2906:2934  ListingCancelled(_listingId) */\n      0x411aee90354c51b1b04cd563fcab2617142a9d50da19232d888547c8a1b7fd8a\n      mload(0x40)\n      mload(0x40)\n      dup1\n      swap2\n      sub\n      swap1\n      log2\n        /* \"contracts/marketplace/PropertyMarketplace.sol\":2528:2941  {... */\n      pop\n        /* \"contracts/marketplace/PropertyMarketplace.sol\":2476:2941  function cancelListing(uint256 _listingId) external {... */\n      pop\n      jump\t// out\n        /* \"contracts/marketplace/PropertyMarketplace.sol\":604:631  address public feeRecipient */\n    tag_29:\n      0x03\n      0x00\n      swap1\n      sload\n      swap1\n      0x0100\n      exp\n      swap1\n      div\n      0xffffffffffffffffffffffffffffffffffffffff\n      and\n      dup2\n      jump\t// out\n        /* \"https://github.com/OpenZeppelin/openzeppelin-contracts/blob/v5.0.0/contracts/access/Ownable.sol\":2293:2394  function renounceOwnership() public virtual onlyOwner {... */\n    tag_34:\n        /* \"https://github.com/OpenZeppelin/openzeppelin-contracts/blob/v5.0.0/contracts/access/Ownable.sol\":1531:1544  _checkOwner() */\n      tag_106\n        /* \"https://github.com/OpenZeppelin/openzeppelin-contracts/blob/v5.0.0/contracts/access/Ownable.sol\":1531:1542  _checkOwner */\n      tag_107\n        /* \"https://github.com/OpenZeppelin/openzeppelin-contracts/blob/v5.0.0/contracts/access/Ownable.sol\":1531:1544  _checkOwner() */\n      jump\t// in\n    tag_106:\n        /* \"https://github.com/OpenZeppelin/openzeppelin-contracts/blob/v5.0.0/contracts/access/Ownable.sol\":2357:2387  _transferOwnership(address(0)) */\n      tag_109\n        /* \"https://github.com/OpenZeppelin/openzeppelin-contracts/blob/v5.0.0/contracts/access/Ownable.sol\":2384:2385  0 */\n      0x00\n        /* \"https://github.com/OpenZeppelin/openzeppelin-contracts/blob/v5.0.0/contracts/access/Ownable.sol\":2357:2375  _transferOwnership */\n      tag_110\n        /* \"https://github.com/OpenZeppelin/openzeppelin-contracts/blob/v5.0.0/contracts/access/Ownable.sol\":2357:2387  _transferOwnership(address(0)) */\n      jump\t// in\n    tag_109:\n        /* \"https://github.com/OpenZeppelin/openzeppelin-contracts/blob/v5.0.0/contracts/access/Ownable.sol\":2293:2394  function renounceOwnership() public virtual onlyOwner {... */\n      jump\t// out\n        /* \"contracts/marketplace/PropertyMarketplace.sol\":4962:5675  function getActiveListings() external view returns (uint256[] memory) {... */\n    tag_37:\n        /* \"contracts/marketplace/PropertyMarketplace.sol\":5014:5030  uint256[] memory */\n      0x60\n        /* \"contracts/marketplace/PropertyMarketplace.sol\":5042:5061  uint256 activeCount */\n      0x00\n        /* \"contracts/marketplace/PropertyMarketplace.sol\":5064:5065  0 */\n      0x00\n        /* \"contracts/marketplace/PropertyMarketplace.sol\":5042:5065  uint256 activeCount = 0 */\n      swap1\n      pop\n        /* \"contracts/marketplace/PropertyMarketplace.sol\":5122:5131  uint256 i */\n      0x00\n        /* \"contracts/marketplace/PropertyMarketplace.sol\":5134:5135  0 */\n      0x00\n        /* \"contracts/marketplace/PropertyMarketplace.sol\":5122:5135  uint256 i = 0 */\n      swap1\n      pop\n        /* \"contracts/marketplace/PropertyMarketplace.sol\":5117:5259  for (uint256 i = 0; i < listings.length; i++) {... */\n    tag_112:\n        /* \"contracts/marketplace/PropertyMarketplace.sol\":5141:5149  listings */\n      0x04\n        /* \"contracts/marketplace/PropertyMarketplace.sol\":5141:5156  listings.length */\n      dup1\n      sload\n      swap1\n      pop\n        /* \"contracts/marketplace/PropertyMarketplace.sol\":5137:5138  i */\n      dup2\n        /* \"contracts/marketplace/PropertyMarketplace.sol\":5137:5156  i < listings.length */\n      lt\n        /* \"contracts/marketplace/PropertyMarketplace.sol\":5117:5259  for (uint256 i = 0; i < listings.length; i++) {... */\n      iszero\n      tag_113\n      jumpi\n        /* \"contracts/marketplace/PropertyMarketplace.sol\":5181:5189  listings */\n      0x04\n        /* \"contracts/marketplace/PropertyMarketplace.sol\":5190:5191  i */\n      dup2\n        /* \"contracts/marketplace/PropertyMarketplace.sol\":5181:5192  listings[i] */\n      dup2\n      sload\n      dup2\n      lt\n      tag_115\n      jumpi\n      tag_116\n      tag_92\n      jump\t// in\n    tag_116:\n    tag_115:\n      swap1\n      0x00\n      mstore\n      keccak256(0x00, 0x20)\n      swap1\n      0x05\n      mul\n      add\n        /* \"contracts/marketplace/PropertyMarketplace.sol\":5181:5201  listings[i].isActive */\n      0x04\n      add\n      0x00\n      swap1\n      sload\n      swap1\n      0x0100\n      exp\n      swap1\n      div\n      0xff\n      and\n        /* \"contracts/marketplace/PropertyMarketplace.sol\":5177:5249  if (listings[i].isActive) {... */\n      iszero\n      tag_118\n      jumpi\n        /* \"contracts/marketplace/PropertyMarketplace.sol\":5221:5234  activeCount++ */\n      dup2\n      dup1\n      tag_119\n      swap1\n      tag_120\n      jump\t// in\n    tag_119:\n      swap3\n      pop\n      pop\n        /* \"contracts/marketplace/PropertyMarketplace.sol\":5177:5249  if (listings[i].isActive) {... */\n    tag_118:\n        /* \"contracts/marketplace/PropertyMarketplace.sol\":5158:5161  i++ */\n      dup1\n      dup1\n      0x01\n      add\n      swap2\n      pop\n      pop\n        /* \"contracts/marketplace/PropertyMarketplace.sol\":5117:5259  for (uint256 i = 0; i < listings.length; i++) {... */\n      jump(tag_112)\n    tag_113:\n      pop\n        /* \"contracts/marketplace/PropertyMarketplace.sol\":5323:5354  uint256[] memory activeListings */\n      0x00\n        /* \"contracts/marketplace/PropertyMarketplace.sol\":5371:5382  activeCount */\n      dup2\n        /* \"contracts/marketplace/PropertyMarketplace.sol\":5357:5383  new uint256[](activeCount) */\n      0xffffffffffffffff\n      dup2\n      gt\n      iszero\n      tag_121\n      jumpi\n      tag_122\n      tag_123\n      jump\t// in\n    tag_122:\n    tag_121:\n      mload(0x40)\n      swap1\n      dup1\n      dup3\n      mstore\n      dup1\n      0x20\n      mul\n      0x20\n      add\n      dup3\n      add\n      0x40\n      mstore\n      dup1\n      iszero\n      tag_124\n      jumpi\n      dup2\n      0x20\n      add\n      0x20\n      dup3\n      mul\n      dup1\n      calldatasize\n      dup4\n      calldatacopy\n      dup1\n      dup3\n      add\n      swap2\n      pop\n      pop\n      swap1\n      pop\n    tag_124:\n      pop\n        /* \"contracts/marketplace/PropertyMarketplace.sol\":5323:5383  uint256[] memory activeListings = new uint256[](activeCount) */\n      swap1\n      pop\n        /* \"contracts/marketplace/PropertyMarketplace.sol\":5393:5413  uint256 currentIndex */\n      0x00\n        /* \"contracts/marketplace/PropertyMarketplace.sol\":5416:5417  0 */\n      0x00\n        /* \"contracts/marketplace/PropertyMarketplace.sol\":5393:5417  uint256 currentIndex = 0 */\n      swap1\n      pop\n        /* \"contracts/marketplace/PropertyMarketplace.sol\":5441:5450  uint256 i */\n      0x00\n        /* \"contracts/marketplace/PropertyMarketplace.sol\":5453:5454  0 */\n      0x00\n        /* \"contracts/marketplace/PropertyMarketplace.sol\":5441:5454  uint256 i = 0 */\n      swap1\n      pop\n        /* \"contracts/marketplace/PropertyMarketplace.sol\":5436:5629  for (uint256 i = 0; i < listings.length; i++) {... */\n    tag_125:\n        /* \"contracts/marketplace/PropertyMarketplace.sol\":5460:5468  listings */\n      0x04\n        /* \"contracts/marketplace/PropertyMarketplace.sol\":5460:5475  listings.length */\n      dup1\n      sload\n      swap1\n      pop\n        /* \"contracts/marketplace/PropertyMarketplace.sol\":5456:5457  i */\n      dup2\n        /* \"contracts/marketplace/PropertyMarketplace.sol\":5456:5475  i < listings.length */\n      lt\n        /* \"contracts/marketplace/PropertyMarketplace.sol\":5436:5629  for (uint256 i = 0; i < listings.length; i++) {... */\n      iszero\n      tag_126\n      jumpi\n        /* \"contracts/marketplace/PropertyMarketplace.sol\":5500:5508  listings */\n      0x04\n        /* \"contracts/marketplace/PropertyMarketplace.sol\":5509:5510  i */\n      dup2\n        /* \"contracts/marketplace/PropertyMarketplace.sol\":5500:5511  listings[i] */\n      dup2\n      sload\n      dup2\n      lt\n      tag_128\n      jumpi\n      tag_129\n      tag_92\n      jump\t// in\n    tag_129:\n    tag_128:\n      swap1\n      0x00\n      mstore\n      keccak256(0x00, 0x20)\n      swap1\n      0x05\n      mul\n      add\n        /* \"contracts/marketplace/PropertyMarketplace.sol\":5500:5520  listings[i].isActive */\n      0x04\n      add\n      0x00\n      swap1\n      sload\n      swap1\n      0x0100\n      exp\n      swap1\n      div\n      0xff\n      and\n        /* \"contracts/marketplace/PropertyMarketplace.sol\":5496:5619  if (listings[i].isActive) {... */\n      iszero\n      tag_131\n      jumpi\n        /* \"contracts/marketplace/PropertyMarketplace.sol\":5571:5572  i */\n      dup1\n        /* \"contracts/marketplace/PropertyMarketplace.sol\":5540:5554  activeListings */\n      dup4\n        /* \"contracts/marketplace/PropertyMarketplace.sol\":5555:5567  currentIndex */\n      dup4\n        /* \"contracts/marketplace/PropertyMarketplace.sol\":5540:5568  activeListings[currentIndex] */\n      dup2\n      mload\n      dup2\n      lt\n      tag_132\n      jumpi\n      tag_133\n      tag_92\n      jump\t// in\n    tag_133:\n    tag_132:\n      0x20\n      mul\n      0x20\n      add\n      add\n        /* \"contracts/marketplace/PropertyMarketplace.sol\":5540:5572  activeListings[currentIndex] = i */\n      dup2\n      dup2\n      mstore\n      pop\n      pop\n        /* \"contracts/marketplace/PropertyMarketplace.sol\":5590:5604  currentIndex++ */\n      dup2\n      dup1\n      tag_134\n      swap1\n      tag_120\n      jump\t// in\n    tag_134:\n      swap3\n      pop\n      pop\n        /* \"contracts/marketplace/PropertyMarketplace.sol\":5496:5619  if (listings[i].isActive) {... */\n    tag_131:\n        /* \"contracts/marketplace/PropertyMarketplace.sol\":5477:5480  i++ */\n      dup1\n      dup1\n      0x01\n      add\n      swap2\n      pop\n      pop\n        /* \"contracts/marketplace/PropertyMarketplace.sol\":5436:5629  for (uint256 i = 0; i < listings.length; i++) {... */\n      jump(tag_125)\n    tag_126:\n      pop\n        /* \"contracts/marketplace/PropertyMarketplace.sol\":5654:5668  activeListings */\n      dup2\n        /* \"contracts/marketplace/PropertyMarketplace.sol\":5647:5668  return activeListings */\n      swap4\n      pop\n      pop\n      pop\n      pop\n        /* \"contracts/marketplace/PropertyMarketplace.sol\":4962:5675  function getActiveListings() external view returns (uint256[] memory) {... */\n      swap1\n      jump\t// out\n        /* \"contracts/marketplace/PropertyMarketplace.sol\":2989:4296  function purchaseTokens(uint256 _listingId, uint256 _amount) external payable nonReentrant {... */\n    tag_43:\n        /* \"https://github.com/OpenZeppelin/openzeppelin-contracts/blob/v4.9.0/contracts/security/ReentrancyGuard.sol\":2261:2282  _nonReentrantBefore() */\n      tag_136\n        /* \"https://github.com/OpenZeppelin/openzeppelin-contracts/blob/v4.9.0/contracts/security/ReentrancyGuard.sol\":2261:2280  _nonReentrantBefore */\n      tag_137\n        /* \"https://github.com/OpenZeppelin/openzeppelin-contracts/blob/v4.9.0/contracts/security/ReentrancyGuard.sol\":2261:2282  _nonReentrantBefore() */\n      jump\t// in\n    tag_136:\n        /* \"contracts/marketplace/PropertyMarketplace.sol\":3090:3113  Listing storage listing */\n      0x00\n        /* \"contracts/marketplace/PropertyMarketplace.sol\":3116:3124  listings */\n      0x04\n        /* \"contracts/marketplace/PropertyMarketplace.sol\":3125:3135  _listingId */\n      dup4\n        /* \"contracts/marketplace/PropertyMarketplace.sol\":3116:3136  listings[_listingId] */\n      dup2\n      sload\n      dup2\n      lt\n      tag_139\n      jumpi\n      tag_140\n      tag_92\n      jump\t// in\n    tag_140:\n    tag_139:\n      swap1\n      0x00\n      mstore\n      keccak256(0x00, 0x20)\n      swap1\n      0x05\n      mul\n      add\n        /* \"contracts/marketplace/PropertyMarketplace.sol\":3090:3136  Listing storage listing = listings[_listingId] */\n      swap1\n      pop\n        /* \"contracts/marketplace/PropertyMarketplace.sol\":3154:3161  listing */\n      dup1\n        /* \"contracts/marketplace/PropertyMarketplace.sol\":3154:3170  listing.isActive */\n      0x04\n      add\n      0x00\n      swap1\n      sload\n      swap1\n      0x0100\n      exp\n      swap1\n      div\n      0xff\n      and\n        /* \"contracts/marketplace/PropertyMarketplace.sol\":3146:3193  require(listing.isActive, \"Listing not active\") */\n      tag_142\n      jumpi\n      mload(0x40)\n      0x08c379a000000000000000000000000000000000000000000000000000000000\n      dup2\n      mstore\n      0x04\n      add\n      tag_143\n      swap1\n      tag_99\n      jump\t// in\n    tag_143:\n      mload(0x40)\n      dup1\n      swap2\n      sub\n      swap1\n      revert\n    tag_142:\n        /* \"contracts/marketplace/PropertyMarketplace.sol\":3221:3222  0 */\n      0x00\n        /* \"contracts/marketplace/PropertyMarketplace.sol\":3211:3218  _amount */\n      dup3\n        /* \"contracts/marketplace/PropertyMarketplace.sol\":3211:3222  _amount > 0 */\n      gt\n        /* \"contracts/marketplace/PropertyMarketplace.sol\":3211:3256  _amount > 0 && _amount <= listing.tokenAmount */\n      dup1\n      iszero\n      tag_144\n      jumpi\n      pop\n        /* \"contracts/marketplace/PropertyMarketplace.sol\":3237:3244  listing */\n      dup1\n        /* \"contracts/marketplace/PropertyMarketplace.sol\":3237:3256  listing.tokenAmount */\n      0x02\n      add\n      sload\n        /* \"contracts/marketplace/PropertyMarketplace.sol\":3226:3233  _amount */\n      dup3\n        /* \"contracts/marketplace/PropertyMarketplace.sol\":3226:3256  _amount <= listing.tokenAmount */\n      gt\n      iszero\n        /* \"contracts/marketplace/PropertyMarketplace.sol\":3211:3256  _amount > 0 && _amount <= listing.tokenAmount */\n    tag_144:\n        /* \"contracts/marketplace/PropertyMarketplace.sol\":3203:3275  require(_amount > 0 && _amount <= listing.tokenAmount, \"Invalid amount\") */\n      tag_145\n      jumpi\n      mload(0x40)\n      0x08c379a000000000000000000000000000000000000000000000000000000000\n      dup2\n      mstore\n      0x04\n      add\n      tag_146\n      swap1\n      tag_147\n      jump\t// in\n    tag_146:\n      mload(0x40)\n      dup1\n      swap2\n      sub\n      swap1\n      revert\n    tag_145:\n        /* \"contracts/marketplace/PropertyMarketplace.sol\":3294:3312  uint256 totalPrice */\n      0x00\n        /* \"contracts/marketplace/PropertyMarketplace.sol\":3325:3332  listing */\n      dup2\n        /* \"contracts/marketplace/PropertyMarketplace.sol\":3325:3346  listing.pricePerToken */\n      0x03\n      add\n      sload\n        /* \"contracts/marketplace/PropertyMarketplace.sol\":3315:3322  _amount */\n      dup4\n        /* \"contracts/marketplace/PropertyMarketplace.sol\":3315:3346  _amount * listing.pricePerToken */\n      tag_148\n      swap2\n      swap1\n      tag_149\n      jump\t// in\n    tag_148:\n        /* \"contracts/marketplace/PropertyMarketplace.sol\":3294:3346  uint256 totalPrice = _amount * listing.pricePerToken */\n      swap1\n      pop\n        /* \"contracts/marketplace/PropertyMarketplace.sol\":3377:3387  totalPrice */\n      dup1\n        /* \"contracts/marketplace/PropertyMarketplace.sol\":3364:3373  msg.value */\n      callvalue\n        /* \"contracts/marketplace/PropertyMarketplace.sol\":3364:3387  msg.value >= totalPrice */\n      lt\n      iszero\n        /* \"contracts/marketplace/PropertyMarketplace.sol\":3356:3412  require(msg.value >= totalPrice, \"Insufficient payment\") */\n      tag_150\n      jumpi\n      mload(0x40)\n      0x08c379a000000000000000000000000000000000000000000000000000000000\n      dup2\n      mstore\n      0x04\n      add\n      tag_151\n      swap1\n      tag_152\n      jump\t// in\n    tag_151:\n      mload(0x40)\n      dup1\n      swap2\n      sub\n      swap1\n      revert\n    tag_150:\n        /* \"contracts/marketplace/PropertyMarketplace.sol\":3465:3484  uint256 platformFee */\n      0x00\n        /* \"contracts/marketplace/PropertyMarketplace.sol\":3526:3531  10000 */\n      0x2710\n        /* \"contracts/marketplace/PropertyMarketplace.sol\":3501:3522  platformFeePercentage */\n      sload(0x02)\n        /* \"contracts/marketplace/PropertyMarketplace.sol\":3488:3498  totalPrice */\n      dup4\n        /* \"contracts/marketplace/PropertyMarketplace.sol\":3488:3522  totalPrice * platformFeePercentage */\n      tag_153\n      swap2\n      swap1\n      tag_149\n      jump\t// in\n    tag_153:\n        /* \"contracts/marketplace/PropertyMarketplace.sol\":3487:3531  (totalPrice * platformFeePercentage) / 10000 */\n      tag_154\n      swap2\n      swap1\n      tag_155\n      jump\t// in\n    tag_154:\n        /* \"contracts/marketplace/PropertyMarketplace.sol\":3465:3531  uint256 platformFee = (totalPrice * platformFeePercentage) / 10000 */\n      swap1\n      pop\n        /* \"contracts/marketplace/PropertyMarketplace.sol\":3541:3563  uint256 sellerProceeds */\n      0x00\n        /* \"contracts/marketplace/PropertyMarketplace.sol\":3579:3590  platformFee */\n      dup2\n        /* \"contracts/marketplace/PropertyMarketplace.sol\":3566:3576  totalPrice */\n      dup4\n        /* \"contracts/marketplace/PropertyMarketplace.sol\":3566:3590  totalPrice - platformFee */\n      tag_156\n      swap2\n      swap1\n      tag_86\n      jump\t// in\n    tag_156:\n        /* \"contracts/marketplace/PropertyMarketplace.sol\":3541:3590  uint256 sellerProceeds = totalPrice - platformFee */\n      swap1\n      pop\n        /* \"contracts/marketplace/PropertyMarketplace.sol\":3658:3665  _amount */\n      dup5\n        /* \"contracts/marketplace/PropertyMarketplace.sol\":3635:3642  listing */\n      dup5\n        /* \"contracts/marketplace/PropertyMarketplace.sol\":3635:3654  listing.tokenAmount */\n      0x02\n      add\n      0x00\n        /* \"contracts/marketplace/PropertyMarketplace.sol\":3635:3665  listing.tokenAmount -= _amount */\n      dup3\n      dup3\n      sload\n      tag_157\n      swap2\n      swap1\n      tag_86\n      jump\t// in\n    tag_157:\n      swap3\n      pop\n      pop\n      dup2\n      swap1\n      sstore\n      pop\n        /* \"contracts/marketplace/PropertyMarketplace.sol\":3702:3703  0 */\n      0x00\n        /* \"contracts/marketplace/PropertyMarketplace.sol\":3679:3686  listing */\n      dup5\n        /* \"contracts/marketplace/PropertyMarketplace.sol\":3679:3698  listing.tokenAmount */\n      0x02\n      add\n      sload\n        /* \"contracts/marketplace/PropertyMarketplace.sol\":3679:3703  listing.tokenAmount == 0 */\n      sub\n        /* \"contracts/marketplace/PropertyMarketplace.sol\":3675:3754  if (listing.tokenAmount == 0) {... */\n      tag_158\n      jumpi\n        /* \"contracts/marketplace/PropertyMarketplace.sol\":3738:3743  false */\n      0x00\n        /* \"contracts/marketplace/PropertyMarketplace.sol\":3719:3726  listing */\n      dup5\n        /* \"contracts/marketplace/PropertyMarketplace.sol\":3719:3735  listing.isActive */\n      0x04\n      add\n      0x00\n        /* \"contracts/marketplace/PropertyMarketplace.sol\":3719:3743  listing.isActive = false */\n      0x0100\n      exp\n      dup2\n      sload\n      dup2\n      0xff\n      mul\n      not\n      and\n      swap1\n      dup4\n      iszero\n      iszero\n      mul\n      or\n      swap1\n      sstore\n      pop\n        /* \"contracts/marketplace/PropertyMarketplace.sol\":3675:3754  if (listing.tokenAmount == 0) {... */\n    tag_158:\n        /* \"contracts/marketplace/PropertyMarketplace.sol\":3815:3822  listing */\n      dup4\n        /* \"contracts/marketplace/PropertyMarketplace.sol\":3815:3836  listing.propertyToken */\n      0x01\n      add\n      0x00\n      swap1\n      sload\n      swap1\n      0x0100\n      exp\n      swap1\n      div\n      0xffffffffffffffffffffffffffffffffffffffff\n      and\n        /* \"contracts/marketplace/PropertyMarketplace.sol\":3808:3846  IERC20(listing.propertyToken).transfer */\n      0xffffffffffffffffffffffffffffffffffffffff\n      and\n      0xa9059cbb\n        /* \"contracts/marketplace/PropertyMarketplace.sol\":3847:3857  msg.sender */\n      caller\n        /* \"contracts/marketplace/PropertyMarketplace.sol\":3859:3866  _amount */\n      dup8\n        /* \"contracts/marketplace/PropertyMarketplace.sol\":3808:3867  IERC20(listing.propertyToken).transfer(msg.sender, _amount) */\n      mload(0x40)\n      dup4\n      0xffffffff\n      and\n      0xe0\n      shl\n      dup2\n      mstore\n      0x04\n      add\n      tag_159\n      swap3\n      swap2\n      swap1\n      tag_101\n      jump\t// in\n    tag_159:\n      0x20\n      mload(0x40)\n      dup1\n      dup4\n      sub\n      dup2\n      0x00\n      dup8\n      gas\n      call\n      iszero\n      dup1\n      iszero\n      tag_161\n      jumpi\n      returndatacopy(0x00, 0x00, returndatasize)\n      revert(0x00, returndatasize)\n    tag_161:\n      pop\n      pop\n      pop\n      pop\n      mload(0x40)\n      returndatasize\n      not(0x1f)\n      0x1f\n      dup3\n      add\n      and\n      dup3\n      add\n      dup1\n      0x40\n      mstore\n      pop\n      dup2\n      add\n      swap1\n      tag_162\n      swap2\n      swap1\n      tag_83\n      jump\t// in\n    tag_162:\n      pop\n        /* \"contracts/marketplace/PropertyMarketplace.sol\":3943:3950  listing */\n      dup4\n        /* \"contracts/marketplace/PropertyMarketplace.sol\":3943:3957  listing.seller */\n      0x00\n      add\n      0x00\n      swap1\n      sload\n      swap1\n      0x0100\n      exp\n      swap1\n      div\n      0xffffffffffffffffffffffffffffffffffffffff\n      and\n        /* \"contracts/marketplace/PropertyMarketplace.sol\":3935:3967  payable(listing.seller).transfer */\n      0xffffffffffffffffffffffffffffffffffffffff\n      and\n        /* \"contracts/marketplace/PropertyMarketplace.sol\":3935:3983  payable(listing.seller).transfer(sellerProceeds) */\n      0x08fc\n        /* \"contracts/marketplace/PropertyMarketplace.sol\":3968:3982  sellerProceeds */\n      dup3\n        /* \"contracts/marketplace/PropertyMarketplace.sol\":3935:3983  payable(listing.seller).transfer(sellerProceeds) */\n      swap1\n      dup2\n      iszero\n      mul\n      swap1\n      mload(0x40)\n      0x00\n      mload(0x40)\n      dup1\n      dup4\n      sub\n      dup2\n      dup6\n      dup9\n      dup9\n      call\n      swap4\n      pop\n      pop\n      pop\n      pop\n      iszero\n      dup1\n      iszero\n      tag_164\n      jumpi\n      returndatacopy(0x00, 0x00, returndatasize)\n      revert(0x00, returndatasize)\n    tag_164:\n      pop\n        /* \"contracts/marketplace/PropertyMarketplace.sol\":4001:4013  feeRecipient */\n      0x03\n      0x00\n      swap1\n      sload\n      swap1\n      0x0100\n      exp\n      swap1\n      div\n      0xffffffffffffffffffffffffffffffffffffffff\n      and\n        /* \"contracts/marketplace/PropertyMarketplace.sol\":3993:4023  payable(feeRecipient).transfer */\n      0xffffffffffffffffffffffffffffffffffffffff\n      and\n        /* \"contracts/marketplace/PropertyMarketplace.sol\":3993:4036  payable(feeRecipient).transfer(platformFee) */\n      0x08fc\n        /* \"contracts/marketplace/PropertyMarketplace.sol\":4024:4035  platformFee */\n      dup4\n        /* \"contracts/marketplace/PropertyMarketplace.sol\":3993:4036  payable(feeRecipient).transfer(platformFee) */\n      swap1\n      dup2\n      iszero\n      mul\n      swap1\n      mload(0x40)\n      0x00\n      mload(0x40)\n      dup1\n      dup4\n      sub\n      dup2\n      dup6\n      dup9\n      dup9\n      call\n      swap4\n      pop\n      pop\n      pop\n      pop\n      iszero\n      dup1\n      iszero\n      tag_166\n      jumpi\n      returndatacopy(0x00, 0x00, returndatasize)\n      revert(0x00, returndatasize)\n    tag_166:\n      pop\n        /* \"contracts/marketplace/PropertyMarketplace.sol\":4116:4126  totalPrice */\n      dup3\n        /* \"contracts/marketplace/PropertyMarketplace.sol\":4104:4113  msg.value */\n      callvalue\n        /* \"contracts/marketplace/PropertyMarketplace.sol\":4104:4126  msg.value > totalPrice */\n      gt\n        /* \"contracts/marketplace/PropertyMarketplace.sol\":4100:4205  if (msg.value > totalPrice) {... */\n      iszero\n      tag_167\n      jumpi\n        /* \"contracts/marketplace/PropertyMarketplace.sol\":4150:4160  msg.sender */\n      caller\n        /* \"contracts/marketplace/PropertyMarketplace.sol\":4142:4170  payable(msg.sender).transfer */\n      0xffffffffffffffffffffffffffffffffffffffff\n      and\n        /* \"contracts/marketplace/PropertyMarketplace.sol\":4142:4194  payable(msg.sender).transfer(msg.value - totalPrice) */\n      0x08fc\n        /* \"contracts/marketplace/PropertyMarketplace.sol\":4183:4193  totalPrice */\n      dup5\n        /* \"contracts/marketplace/PropertyMarketplace.sol\":4171:4180  msg.value */\n      callvalue\n        /* \"contracts/marketplace/PropertyMarketplace.sol\":4171:4193  msg.value - totalPrice */\n      tag_168\n      swap2\n      swap1\n      tag_86\n      jump\t// in\n    tag_168:\n        /* \"contracts/marketplace/PropertyMarketplace.sol\":4142:4194  payable(msg.sender).transfer(msg.value - totalPrice) */\n      swap1\n      dup2\n      iszero\n      mul\n      swap1\n      mload(0x40)\n      0x00\n      mload(0x40)\n      dup1\n      dup4\n      sub\n      dup2\n      dup6\n      dup9\n      dup9\n      call\n      swap4\n      pop\n      pop\n      pop\n      pop\n      iszero\n      dup1\n      iszero\n      tag_170\n      jumpi\n      returndatacopy(0x00, 0x00, returndatasize)\n      revert(0x00, returndatasize)\n    tag_170:\n      pop\n        /* \"contracts/marketplace/PropertyMarketplace.sol\":4100:4205  if (msg.value > totalPrice) {... */\n    tag_167:\n        /* \"contracts/marketplace/PropertyMarketplace.sol\":4257:4267  msg.sender */\n      caller\n        /* \"contracts/marketplace/PropertyMarketplace.sol\":4228:4289  ListingPurchased(_listingId, msg.sender, _amount, totalPrice) */\n      0xffffffffffffffffffffffffffffffffffffffff\n      and\n        /* \"contracts/marketplace/PropertyMarketplace.sol\":4245:4255  _listingId */\n      dup7\n        /* \"contracts/marketplace/PropertyMarketplace.sol\":4228:4289  ListingPurchased(_listingId, msg.sender, _amount, totalPrice) */\n      0x0db6cd6881fc0453b2d01f52eb5a16417707659f245732abc10f847426e3525d\n        /* \"contracts/marketplace/PropertyMarketplace.sol\":4269:4276  _amount */\n      dup8\n        /* \"contracts/marketplace/PropertyMarketplace.sol\":4278:4288  totalPrice */\n      dup7\n        /* \"contracts/marketplace/PropertyMarketplace.sol\":4228:4289  ListingPurchased(_listingId, msg.sender, _amount, totalPrice) */\n      mload(0x40)\n      tag_171\n      swap3\n      swap2\n      swap1\n      tag_88\n      jump\t// in\n    tag_171:\n      mload(0x40)\n      dup1\n      swap2\n      sub\n      swap1\n      log3\n        /* \"contracts/marketplace/PropertyMarketplace.sol\":3080:4296  {... */\n      pop\n      pop\n      pop\n      pop\n        /* \"https://github.com/OpenZeppelin/openzeppelin-contracts/blob/v4.9.0/contracts/security/ReentrancyGuard.sol\":2303:2323  _nonReentrantAfter() */\n      tag_172\n        /* \"https://github.com/OpenZeppelin/openzeppelin-contracts/blob/v4.9.0/contracts/security/ReentrancyGuard.sol\":2303:2321  _nonReentrantAfter */\n      tag_173\n        /* \"https://github.com/OpenZeppelin/openzeppelin-contracts/blob/v4.9.0/contracts/security/ReentrancyGuard.sol\":2303:2323  _nonReentrantAfter() */\n      jump\t// in\n    tag_172:\n        /* \"contracts/marketplace/PropertyMarketplace.sol\":2989:4296  function purchaseTokens(uint256 _listingId, uint256 _amount) external payable nonReentrant {... */\n      pop\n      pop\n      jump\t// out\n        /* \"https://github.com/OpenZeppelin/openzeppelin-contracts/blob/v5.0.0/contracts/access/Ownable.sol\":1638:1723  function owner() public view virtual returns (address) {... */\n    tag_46:\n        /* \"https://github.com/OpenZeppelin/openzeppelin-contracts/blob/v5.0.0/contracts/access/Ownable.sol\":1684:1691  address */\n      0x00\n        /* \"https://github.com/OpenZeppelin/openzeppelin-contracts/blob/v5.0.0/contracts/access/Ownable.sol\":1710:1716  _owner */\n      0x01\n      0x00\n      swap1\n      sload\n      swap1\n      0x0100\n      exp\n      swap1\n      div\n      0xffffffffffffffffffffffffffffffffffffffff\n      and\n        /* \"https://github.com/OpenZeppelin/openzeppelin-contracts/blob/v5.0.0/contracts/access/Ownable.sol\":1703:1716  return _owner */\n      swap1\n      pop\n        /* \"https://github.com/OpenZeppelin/openzeppelin-contracts/blob/v5.0.0/contracts/access/Ownable.sol\":1638:1723  function owner() public view virtual returns (address) {... */\n      swap1\n      jump\t// out\n        /* \"contracts/marketplace/PropertyMarketplace.sol\":519:555  uint256 public platformFeePercentage */\n    tag_50:\n      sload(0x02)\n      dup2\n      jump\t// out\n        /* \"contracts/marketplace/PropertyMarketplace.sol\":866:891  Listing[] public listings */\n    tag_55:\n      0x04\n      dup2\n      dup2\n      sload\n      dup2\n      lt\n      tag_175\n      jumpi\n      0x00\n      dup1\n      revert\n    tag_175:\n      swap1\n      0x00\n      mstore\n      keccak256(0x00, 0x20)\n      swap1\n      0x05\n      mul\n      add\n      0x00\n      swap2\n      pop\n      swap1\n      pop\n      dup1\n      0x00\n      add\n      0x00\n      swap1\n      sload\n      swap1\n      0x0100\n      exp\n      swap1\n      div\n      0xffffffffffffffffffffffffffffffffffffffff\n      and\n      swap1\n      dup1\n      0x01\n      add\n      0x00\n      swap1\n      sload\n      swap1\n      0x0100\n      exp\n      swap1\n      div\n      0xffffffffffffffffffffffffffffffffffffffff\n      and\n      swap1\n      dup1\n      0x02\n      add\n      sload\n      swap1\n      dup1\n      0x03\n      add\n      sload\n      swap1\n      dup1\n      0x04\n      add\n      0x00\n      swap1\n      sload\n      swap1\n      0x0100\n      exp\n      swap1\n      div\n      0xff\n      and\n      swap1\n      pop\n      dup6\n      jump\t// out\n        /* \"contracts/marketplace/PropertyMarketplace.sol\":4357:4621  function updatePlatformFeePercentage(uint256 _newFeePercentage) external onlyOwner {... */\n    tag_61:\n        /* \"https://github.com/OpenZeppelin/openzeppelin-contracts/blob/v5.0.0/contracts/access/Ownable.sol\":1531:1544  _checkOwner() */\n      tag_178\n        /* \"https://github.com/OpenZeppelin/openzeppelin-contracts/blob/v5.0.0/contracts/access/Ownable.sol\":1531:1542  _checkOwner */\n      tag_107\n        /* \"https://github.com/OpenZeppelin/openzeppelin-contracts/blob/v5.0.0/contracts/access/Ownable.sol\":1531:1544  _checkOwner() */\n      jump\t// in\n    tag_178:\n        /* \"contracts/marketplace/PropertyMarketplace.sol\":4479:4483  1000 */\n      0x03e8\n        /* \"contracts/marketplace/PropertyMarketplace.sol\":4458:4475  _newFeePercentage */\n      dup2\n        /* \"contracts/marketplace/PropertyMarketplace.sol\":4458:4483  _newFeePercentage <= 1000 */\n      gt\n      iszero\n        /* \"contracts/marketplace/PropertyMarketplace.sol\":4450:4500  require(_newFeePercentage <= 1000, \"Fee too high\") */\n      tag_180\n      jumpi\n      mload(0x40)\n      0x08c379a000000000000000000000000000000000000000000000000000000000\n      dup2\n      mstore\n      0x04\n      add\n      tag_181\n      swap1\n      tag_182\n      jump\t// in\n    tag_181:\n      mload(0x40)\n      dup1\n      swap2\n      sub\n      swap1\n      revert\n    tag_180:\n        /* \"contracts/marketplace/PropertyMarketplace.sol\":4545:4562  _newFeePercentage */\n      dup1\n        /* \"contracts/marketplace/PropertyMarketplace.sol\":4521:4542  platformFeePercentage */\n      0x02\n        /* \"contracts/marketplace/PropertyMarketplace.sol\":4521:4562  platformFeePercentage = _newFeePercentage */\n      dup2\n      swap1\n      sstore\n      pop\n        /* \"contracts/marketplace/PropertyMarketplace.sol\":4577:4614  PlatformFeeUpdated(_newFeePercentage) */\n      0x45610d581145924dd7090a5017e5f2b1d6f42213bb2e95707ff86846bbfcb1ca\n        /* \"contracts/marketplace/PropertyMarketplace.sol\":4596:4613  _newFeePercentage */\n      dup2\n        /* \"contracts/marketplace/PropertyMarketplace.sol\":4577:4614  PlatformFeeUpdated(_newFeePercentage) */\n      mload(0x40)\n      tag_183\n      swap2\n      swap1\n      tag_21\n      jump\t// in\n    tag_183:\n      mload(0x40)\n      dup1\n      swap2\n      sub\n      swap1\n      log1\n        /* \"contracts/marketplace/PropertyMarketplace.sol\":4357:4621  function updatePlatformFeePercentage(uint256 _newFeePercentage) external onlyOwner {... */\n      pop\n      jump\t// out\n        /* \"contracts/marketplace/PropertyMarketplace.sol\":4680:4921  function updateFeeRecipient(address _newFeeRecipient) external onlyOwner {... */\n    tag_66:\n        /* \"https://github.com/OpenZeppelin/openzeppelin-contracts/blob/v5.0.0/contracts/access/Ownable.sol\":1531:1544  _checkOwner() */\n      tag_185\n        /* \"https://github.com/OpenZeppelin/openzeppelin-contracts/blob/v5.0.0/contracts/access/Ownable.sol\":1531:1542  _checkOwner */\n      tag_107\n        /* \"https://github.com/OpenZeppelin/openzeppelin-contracts/blob/v5.0.0/contracts/access/Ownable.sol\":1531:1544  _checkOwner() */\n      jump\t// in\n    tag_185:\n        /* \"contracts/marketplace/PropertyMarketplace.sol\":4799:4800  0 */\n      0x00\n        /* \"contracts/marketplace/PropertyMarketplace.sol\":4771:4801  _newFeeRecipient != address(0) */\n      0xffffffffffffffffffffffffffffffffffffffff\n      and\n        /* \"contracts/marketplace/PropertyMarketplace.sol\":4771:4787  _newFeeRecipient */\n      dup2\n        /* \"contracts/marketplace/PropertyMarketplace.sol\":4771:4801  _newFeeRecipient != address(0) */\n      0xffffffffffffffffffffffffffffffffffffffff\n      and\n      sub\n        /* \"contracts/marketplace/PropertyMarketplace.sol\":4763:4821  require(_newFeeRecipient != address(0), \"Invalid address\") */\n      tag_187\n      jumpi\n      mload(0x40)\n      0x08c379a000000000000000000000000000000000000000000000000000000000\n      dup2\n      mstore\n      0x04\n      add\n      tag_188\n      swap1\n      tag_189\n      jump\t// in\n    tag_188:\n      mload(0x40)\n      dup1\n      swap2\n      sub\n      swap1\n      revert\n    tag_187:\n        /* \"contracts/marketplace/PropertyMarketplace.sol\":4846:4862  _newFeeRecipient */\n      dup1\n        /* \"contracts/marketplace/PropertyMarketplace.sol\":4831:4843  feeRecipient */\n      0x03\n      0x00\n        /* \"contracts/marketplace/PropertyMarketplace.sol\":4831:4862  feeRecipient = _newFeeRecipient */\n      0x0100\n      exp\n      dup2\n      sload\n      dup2\n      0xffffffffffffffffffffffffffffffffffffffff\n      mul\n      not\n      and\n      swap1\n      dup4\n      0xffffffffffffffffffffffffffffffffffffffff\n      and\n      mul\n      or\n      swap1\n      sstore\n      pop\n        /* \"contracts/marketplace/PropertyMarketplace.sol\":4877:4914  FeeRecipientUpdated(_newFeeRecipient) */\n      0x7a7b5a0a132f9e0581eb8527f66eae9ee89c2a3e79d4ac7e41a1f1f4d48a7fc2\n        /* \"contracts/marketplace/PropertyMarketplace.sol\":4897:4913  _newFeeRecipient */\n      dup2\n        /* \"contracts/marketplace/PropertyMarketplace.sol\":4877:4914  FeeRecipientUpdated(_newFeeRecipient) */\n      mload(0x40)\n      tag_190\n      swap2\n      swap1\n      tag_31\n      jump\t// in\n    tag_190:\n      mload(0x40)\n      dup1\n      swap2\n      sub\n      swap1\n      log1\n        /* \"contracts/marketplace/PropertyMarketplace.sol\":4680:4921  function updateFeeRecipient(address _newFeeRecipient) external onlyOwner {... */\n      pop\n      jump\t// out\n        /* \"https://github.com/OpenZeppelin/openzeppelin-contracts/blob/v5.0.0/contracts/access/Ownable.sol\":2543:2758  function transferOwnership(address newOwner) public virtual onlyOwner {... */\n    tag_70:\n        /* \"https://github.com/OpenZeppelin/openzeppelin-contracts/blob/v5.0.0/contracts/access/Ownable.sol\":1531:1544  _checkOwner() */\n      tag_192\n        /* \"https://github.com/OpenZeppelin/openzeppelin-contracts/blob/v5.0.0/contracts/access/Ownable.sol\":1531:1542  _checkOwner */\n      tag_107\n        /* \"https://github.com/OpenZeppelin/openzeppelin-contracts/blob/v5.0.0/contracts/access/Ownable.sol\":1531:1544  _checkOwner() */\n      jump\t// in\n    tag_192:\n        /* \"https://github.com/OpenZeppelin/openzeppelin-contracts/blob/v5.0.0/contracts/access/Ownable.sol\":2647:2648  0 */\n      0x00\n        /* \"https://github.com/OpenZeppelin/openzeppelin-contracts/blob/v5.0.0/contracts/access/Ownable.sol\":2627:2649  newOwner == address(0) */\n      0xffffffffffffffffffffffffffffffffffffffff\n      and\n        /* \"https://github.com/OpenZeppelin/openzeppelin-contracts/blob/v5.0.0/contracts/access/Ownable.sol\":2627:2635  newOwner */\n      dup2\n        /* \"https://github.com/OpenZeppelin/openzeppelin-contracts/blob/v5.0.0/contracts/access/Ownable.sol\":2627:2649  newOwner == address(0) */\n      0xffffffffffffffffffffffffffffffffffffffff\n      and\n      sub\n        /* \"https://github.com/OpenZeppelin/openzeppelin-contracts/blob/v5.0.0/contracts/access/Ownable.sol\":2623:2714  if (newOwner == address(0)) {... */\n      tag_194\n      jumpi\n        /* \"https://github.com/OpenZeppelin/openzeppelin-contracts/blob/v5.0.0/contracts/access/Ownable.sol\":2700:2701  0 */\n      0x00\n        /* \"https://github.com/OpenZeppelin/openzeppelin-contracts/blob/v5.0.0/contracts/access/Ownable.sol\":2672:2703  OwnableInvalidOwner(address(0)) */\n      mload(0x40)\n      0x1e4fbdf700000000000000000000000000000000000000000000000000000000\n      dup2\n      mstore\n      0x04\n      add\n      tag_195\n      swap2\n      swap1\n      tag_31\n      jump\t// in\n    tag_195:\n      mload(0x40)\n      dup1\n      swap2\n      sub\n      swap1\n      revert\n        /* \"https://github.com/OpenZeppelin/openzeppelin-contracts/blob/v5.0.0/contracts/access/Ownable.sol\":2623:2714  if (newOwner == address(0)) {... */\n    tag_194:\n        /* \"https://github.com/OpenZeppelin/openzeppelin-contracts/blob/v5.0.0/contracts/access/Ownable.sol\":2723:2751  _transferOwnership(newOwner) */\n      tag_196\n        /* \"https://github.com/OpenZeppelin/openzeppelin-contracts/blob/v5.0.0/contracts/access/Ownable.sol\":2742:2750  newOwner */\n      dup2\n        /* \"https://github.com/OpenZeppelin/openzeppelin-contracts/blob/v5.0.0/contracts/access/Ownable.sol\":2723:2741  _transferOwnership */\n      tag_110\n        /* \"https://github.com/OpenZeppelin/openzeppelin-contracts/blob/v5.0.0/contracts/access/Ownable.sol\":2723:2751  _transferOwnership(newOwner) */\n      jump\t// in\n    tag_196:\n        /* \"https://github.com/OpenZeppelin/openzeppelin-contracts/blob/v5.0.0/contracts/access/Ownable.sol\":2543:2758  function transferOwnership(address newOwner) public virtual onlyOwner {... */\n      pop\n      jump\t// out\n        /* \"https://github.com/OpenZeppelin/openzeppelin-contracts/blob/v5.0.0/contracts/access/Ownable.sol\":1796:1958  function _checkOwner() internal view virtual {... */\n    tag_107:\n        /* \"https://github.com/OpenZeppelin/openzeppelin-contracts/blob/v5.0.0/contracts/access/Ownable.sol\":1866:1878  _msgSender() */\n      tag_198\n        /* \"https://github.com/OpenZeppelin/openzeppelin-contracts/blob/v5.0.0/contracts/access/Ownable.sol\":1866:1876  _msgSender */\n      tag_199\n        /* \"https://github.com/OpenZeppelin/openzeppelin-contracts/blob/v5.0.0/contracts/access/Ownable.sol\":1866:1878  _msgSender() */\n      jump\t// in\n    tag_198:\n        /* \"https://github.com/OpenZeppelin/openzeppelin-contracts/blob/v5.0.0/contracts/access/Ownable.sol\":1855:1878  owner() != _msgSender() */\n      0xffffffffffffffffffffffffffffffffffffffff\n      and\n        /* \"https://github.com/OpenZeppelin/openzeppelin-contracts/blob/v5.0.0/contracts/access/Ownable.sol\":1855:1862  owner() */\n      tag_200\n        /* \"https://github.com/OpenZeppelin/openzeppelin-contracts/blob/v5.0.0/contracts/access/Ownable.sol\":1855:1860  owner */\n      tag_46\n        /* \"https://github.com/OpenZeppelin/openzeppelin-contracts/blob/v5.0.0/contracts/access/Ownable.sol\":1855:1862  owner() */\n      jump\t// in\n    tag_200:\n        /* \"https://github.com/OpenZeppelin/openzeppelin-contracts/blob/v5.0.0/contracts/access/Ownable.sol\":1855:1878  owner() != _msgSender() */\n      0xffffffffffffffffffffffffffffffffffffffff\n      and\n      eq\n        /* \"https://github.com/OpenZeppelin/openzeppelin-contracts/blob/v5.0.0/contracts/access/Ownable.sol\":1851:1952  if (owner() != _msgSender()) {... */\n      tag_201\n      jumpi\n        /* \"https://github.com/OpenZeppelin/openzeppelin-contracts/blob/v5.0.0/contracts/access/Ownable.sol\":1928:1940  _msgSender() */\n      tag_202\n        /* \"https://github.com/OpenZeppelin/openzeppelin-contracts/blob/v5.0.0/contracts/access/Ownable.sol\":1928:1938  _msgSender */\n      tag_199\n        /* \"https://github.com/OpenZeppelin/openzeppelin-contracts/blob/v5.0.0/contracts/access/Ownable.sol\":1928:1940  _msgSender() */\n      jump\t// in\n    tag_202:\n        /* \"https://github.com/OpenZeppelin/openzeppelin-contracts/blob/v5.0.0/contracts/access/Ownable.sol\":1901:1941  OwnableUnauthorizedAccount(_msgSender()) */\n      mload(0x40)\n      0x118cdaa700000000000000000000000000000000000000000000000000000000\n      dup2\n      mstore\n      0x04\n      add\n      tag_203\n      swap2\n      swap1\n      tag_31\n      jump\t// in\n    tag_203:\n      mload(0x40)\n      dup1\n      swap2\n      sub\n      swap1\n      revert\n        /* \"https://github.com/OpenZeppelin/openzeppelin-contracts/blob/v5.0.0/contracts/access/Ownable.sol\":1851:1952  if (owner() != _msgSender()) {... */\n    tag_201:\n        /* \"https://github.com/OpenZeppelin/openzeppelin-contracts/blob/v5.0.0/contracts/access/Ownable.sol\":1796:1958  function _checkOwner() internal view virtual {... */\n      jump\t// out\n        /* \"https://github.com/OpenZeppelin/openzeppelin-contracts/blob/v5.0.0/contracts/access/Ownable.sol\":2912:3099  function _transferOwnership(address newOwner) internal virtual {... */\n    tag_110:\n        /* \"https://github.com/OpenZeppelin/openzeppelin-contracts/blob/v5.0.0/contracts/access/Ownable.sol\":2985:3001  address oldOwner */\n      0x00\n        /* \"https://github.com/OpenZeppelin/openzeppelin-contracts/blob/v5.0.0/contracts/access/Ownable.sol\":3004:3010  _owner */\n      0x01\n      0x00\n      swap1\n      sload\n      swap1\n      0x0100\n      exp\n      swap1\n      div\n      0xffffffffffffffffffffffffffffffffffffffff\n      and\n        /* \"https://github.com/OpenZeppelin/openzeppelin-contracts/blob/v5.0.0/contracts/access/Ownable.sol\":2985:3010  address oldOwner = _owner */\n      swap1\n      pop\n        /* \"https://github.com/OpenZeppelin/openzeppelin-contracts/blob/v5.0.0/contracts/access/Ownable.sol\":3029:3037  newOwner */\n      dup2\n        /* \"https://github.com/OpenZeppelin/openzeppelin-contracts/blob/v5.0.0/contracts/access/Ownable.sol\":3020:3026  _owner */\n      0x01\n      0x00\n        /* \"https://github.com/OpenZeppelin/openzeppelin-contracts/blob/v5.0.0/contracts/access/Ownable.sol\":3020:3037  _owner = newOwner */\n      0x0100\n      exp\n      dup2\n      sload\n      dup2\n      0xffffffffffffffffffffffffffffffffffffffff\n      mul\n      not\n      and\n      swap1\n      dup4\n      0xffffffffffffffffffffffffffffffffffffffff\n      and\n      mul\n      or\n      swap1\n      sstore\n      pop\n        /* \"https://github.com/OpenZeppelin/openzeppelin-contracts/blob/v5.0.0/contracts/access/Ownable.sol\":3083:3091  newOwner */\n      dup2\n        /* \"https://github.com/OpenZeppelin/openzeppelin-contracts/blob/v5.0.0/contracts/access/Ownable.sol\":3052:3092  OwnershipTransferred(oldOwner, newOwner) */\n      0xffffffffffffffffffffffffffffffffffffffff\n      and\n        /* \"https://github.com/OpenZeppelin/openzeppelin-contracts/blob/v5.0.0/contracts/access/Ownable.sol\":3073:3081  oldOwner */\n      dup2\n        /* \"https://github.com/OpenZeppelin/openzeppelin-contracts/blob/v5.0.0/contracts/access/Ownable.sol\":3052:3092  OwnershipTransferred(oldOwner, newOwner) */\n      0xffffffffffffffffffffffffffffffffffffffff\n      and\n      0x8be0079c531659141344cd1fd0a4f28419497f9722a3daafe3b4186f6b6457e0\n      mload(0x40)\n      mload(0x40)\n      dup1\n      swap2\n      sub\n      swap1\n      log3\n        /* \"https://github.com/OpenZeppelin/openzeppelin-contracts/blob/v5.0.0/contracts/access/Ownable.sol\":2975:3099  {... */\n      pop\n        /* \"https://github.com/OpenZeppelin/openzeppelin-contracts/blob/v5.0.0/contracts/access/Ownable.sol\":2912:3099  function _transferOwnership(address newOwner) internal virtual {... */\n      pop\n      jump\t// out\n        /* \"https://github.com/OpenZeppelin/openzeppelin-contracts/blob/v4.9.0/contracts/security/ReentrancyGuard.sol\":2336:2623  function _nonReentrantBefore() private {... */\n    tag_137:\n        /* \"https://github.com/OpenZeppelin/openzeppelin-contracts/blob/v4.9.0/contracts/security/ReentrancyGuard.sol\":1759:1760  2 */\n      0x02\n        /* \"https://github.com/OpenZeppelin/openzeppelin-contracts/blob/v4.9.0/contracts/security/ReentrancyGuard.sol\":2468:2475  _status */\n      sload(0x00)\n        /* \"https://github.com/OpenZeppelin/openzeppelin-contracts/blob/v4.9.0/contracts/security/ReentrancyGuard.sol\":2468:2487  _status != _ENTERED */\n      sub\n        /* \"https://github.com/OpenZeppelin/openzeppelin-contracts/blob/v4.9.0/contracts/security/ReentrancyGuard.sol\":2460:2523  require(_status != _ENTERED, \"ReentrancyGuard: reentrant call\") */\n      tag_206\n      jumpi\n      mload(0x40)\n      0x08c379a000000000000000000000000000000000000000000000000000000000\n      dup2\n      mstore\n      0x04\n      add\n      tag_207\n      swap1\n      tag_208\n      jump\t// in\n    tag_207:\n      mload(0x40)\n      dup1\n      swap2\n      sub\n      swap1\n      revert\n    tag_206:\n        /* \"https://github.com/OpenZeppelin/openzeppelin-contracts/blob/v4.9.0/contracts/security/ReentrancyGuard.sol\":1759:1760  2 */\n      0x02\n        /* \"https://github.com/OpenZeppelin/openzeppelin-contracts/blob/v4.9.0/contracts/security/ReentrancyGuard.sol\":2598:2605  _status */\n      0x00\n        /* \"https://github.com/OpenZeppelin/openzeppelin-contracts/blob/v4.9.0/contracts/security/ReentrancyGuard.sol\":2598:2616  _status = _ENTERED */\n      dup2\n      swap1\n      sstore\n      pop\n        /* \"https://github.com/OpenZeppelin/openzeppelin-contracts/blob/v4.9.0/contracts/security/ReentrancyGuard.sol\":2336:2623  function _nonReentrantBefore() private {... */\n      jump\t// out\n        /* \"https://github.com/OpenZeppelin/openzeppelin-contracts/blob/v4.9.0/contracts/security/ReentrancyGuard.sol\":2629:2838  function _nonReentrantAfter() private {... */\n    tag_173:\n        /* \"https://github.com/OpenZeppelin/openzeppelin-contracts/blob/v4.9.0/contracts/security/ReentrancyGuard.sol\":1716:1717  1 */\n      0x01\n        /* \"https://github.com/OpenZeppelin/openzeppelin-contracts/blob/v4.9.0/contracts/security/ReentrancyGuard.sol\":2809:2816  _status */\n      0x00\n        /* \"https://github.com/OpenZeppelin/openzeppelin-contracts/blob/v4.9.0/contracts/security/ReentrancyGuard.sol\":2809:2831  _status = _NOT_ENTERED */\n      dup2\n      swap1\n      sstore\n      pop\n        /* \"https://github.com/OpenZeppelin/openzeppelin-contracts/blob/v4.9.0/contracts/security/ReentrancyGuard.sol\":2629:2838  function _nonReentrantAfter() private {... */\n      jump\t// out\n        /* \"https://github.com/OpenZeppelin/openzeppelin-contracts/blob/v5.0.0/contracts/utils/Context.sol\":656:752  function _msgSender() internal view virtual returns (address) {... */\n    tag_199:\n        /* \"https://github.com/OpenZeppelin/openzeppelin-contracts/blob/v5.0.0/contracts/utils/Context.sol\":709:716  address */\n      0x00\n        /* \"https://github.com/OpenZeppelin/openzeppelin-contracts/blob/v5.0.0/contracts/utils/Context.sol\":735:745  msg.sender */\n      caller\n        /* \"https://github.com/OpenZeppelin/openzeppelin-contracts/blob/v5.0.0/contracts/utils/Context.sol\":728:745  return msg.sender */\n      swap1\n      pop\n        /* \"https://github.com/OpenZeppelin/openzeppelin-contracts/blob/v5.0.0/contracts/utils/Context.sol\":656:752  function _msgSender() internal view virtual returns (address) {... */\n      swap1\n      jump\t// out\n        /* \"#utility.yul\":88:205   */\n    tag_212:\n        /* \"#utility.yul\":197:198   */\n      0x00\n        /* \"#utility.yul\":194:195   */\n      0x00\n        /* \"#utility.yul\":187:199   */\n      revert\n        /* \"#utility.yul\":334:460   */\n    tag_214:\n        /* \"#utility.yul\":371:378   */\n      0x00\n        /* \"#utility.yul\":411:453   */\n      0xffffffffffffffffffffffffffffffffffffffff\n        /* \"#utility.yul\":404:409   */\n      dup3\n        /* \"#utility.yul\":400:454   */\n      and\n        /* \"#utility.yul\":389:454   */\n      swap1\n      pop\n        /* \"#utility.yul\":334:460   */\n      swap2\n      swap1\n      pop\n      jump\t// out\n        /* \"#utility.yul\":466:562   */\n    tag_215:\n        /* \"#utility.yul\":503:510   */\n      0x00\n        /* \"#utility.yul\":532:556   */\n      tag_261\n        /* \"#utility.yul\":550:555   */\n      dup3\n        /* \"#utility.yul\":532:556   */\n      tag_214\n      jump\t// in\n    tag_261:\n        /* \"#utility.yul\":521:556   */\n      swap1\n      pop\n        /* \"#utility.yul\":466:562   */\n      swap2\n      swap1\n      pop\n      jump\t// out\n        /* \"#utility.yul\":568:690   */\n    tag_216:\n        /* \"#utility.yul\":641:665   */\n      tag_263\n        /* \"#utility.yul\":659:664   */\n      dup2\n        /* \"#utility.yul\":641:665   */\n      tag_215\n      jump\t// in\n    tag_263:\n        /* \"#utility.yul\":634:639   */\n      dup2\n        /* \"#utility.yul\":631:666   */\n      eq\n        /* \"#utility.yul\":621:684   */\n      tag_264\n      jumpi\n        /* \"#utility.yul\":680:681   */\n      0x00\n        /* \"#utility.yul\":677:678   */\n      0x00\n        /* \"#utility.yul\":670:682   */\n      revert\n        /* \"#utility.yul\":621:684   */\n    tag_264:\n        /* \"#utility.yul\":568:690   */\n      pop\n      jump\t// out\n        /* \"#utility.yul\":696:835   */\n    tag_217:\n        /* \"#utility.yul\":742:747   */\n      0x00\n        /* \"#utility.yul\":780:786   */\n      dup2\n        /* \"#utility.yul\":767:787   */\n      calldataload\n        /* \"#utility.yul\":758:787   */\n      swap1\n      pop\n        /* \"#utility.yul\":796:829   */\n      tag_266\n        /* \"#utility.yul\":823:828   */\n      dup2\n        /* \"#utility.yul\":796:829   */\n      tag_216\n      jump\t// in\n    tag_266:\n        /* \"#utility.yul\":696:835   */\n      swap3\n      swap2\n      pop\n      pop\n      jump\t// out\n        /* \"#utility.yul\":841:918   */\n    tag_218:\n        /* \"#utility.yul\":878:885   */\n      0x00\n        /* \"#utility.yul\":907:912   */\n      dup2\n        /* \"#utility.yul\":896:912   */\n      swap1\n      pop\n        /* \"#utility.yul\":841:918   */\n      swap2\n      swap1\n      pop\n      jump\t// out\n        /* \"#utility.yul\":924:1046   */\n    tag_219:\n        /* \"#utility.yul\":997:1021   */\n      tag_269\n        /* \"#utility.yul\":1015:1020   */\n      dup2\n        /* \"#utility.yul\":997:1021   */\n      tag_218\n      jump\t// in\n    tag_269:\n        /* \"#utility.yul\":990:995   */\n      dup2\n        /* \"#utility.yul\":987:1022   */\n      eq\n        /* \"#utility.yul\":977:1040   */\n      tag_270\n      jumpi\n        /* \"#utility.yul\":1036:1037   */\n      0x00\n        /* \"#utility.yul\":1033:1034   */\n      0x00\n        /* \"#utility.yul\":1026:1038   */\n      revert\n        /* \"#utility.yul\":977:1040   */\n    tag_270:\n        /* \"#utility.yul\":924:1046   */\n      pop\n      jump\t// out\n        /* \"#utility.yul\":1052:1191   */\n    tag_220:\n        /* \"#utility.yul\":1098:1103   */\n      0x00\n        /* \"#utility.yul\":1136:1142   */\n      dup2\n        /* \"#utility.yul\":1123:1143   */\n      calldataload\n        /* \"#utility.yul\":1114:1143   */\n      swap1\n      pop\n        /* \"#utility.yul\":1152:1185   */\n      tag_272\n        /* \"#utility.yul\":1179:1184   */\n      dup2\n        /* \"#utility.yul\":1152:1185   */\n      tag_219\n      jump\t// in\n    tag_272:\n        /* \"#utility.yul\":1052:1191   */\n      swap3\n      swap2\n      pop\n      pop\n      jump\t// out\n        /* \"#utility.yul\":1197:1816   */\n    tag_18:\n        /* \"#utility.yul\":1274:1280   */\n      0x00\n        /* \"#utility.yul\":1282:1288   */\n      0x00\n        /* \"#utility.yul\":1290:1296   */\n      0x00\n        /* \"#utility.yul\":1339:1341   */\n      0x60\n        /* \"#utility.yul\":1327:1336   */\n      dup5\n        /* \"#utility.yul\":1318:1325   */\n      dup7\n        /* \"#utility.yul\":1314:1337   */\n      sub\n        /* \"#utility.yul\":1310:1342   */\n      slt\n        /* \"#utility.yul\":1307:1426   */\n      iszero\n      tag_274\n      jumpi\n        /* \"#utility.yul\":1345:1424   */\n      tag_275\n      tag_212\n      jump\t// in\n    tag_275:\n        /* \"#utility.yul\":1307:1426   */\n    tag_274:\n        /* \"#utility.yul\":1465:1466   */\n      0x00\n        /* \"#utility.yul\":1490:1543   */\n      tag_276\n        /* \"#utility.yul\":1535:1542   */\n      dup7\n        /* \"#utility.yul\":1526:1532   */\n      dup3\n        /* \"#utility.yul\":1515:1524   */\n      dup8\n        /* \"#utility.yul\":1511:1533   */\n      add\n        /* \"#utility.yul\":1490:1543   */\n      tag_217\n      jump\t// in\n    tag_276:\n        /* \"#utility.yul\":1480:1543   */\n      swap4\n      pop\n        /* \"#utility.yul\":1436:1553   */\n      pop\n        /* \"#utility.yul\":1592:1594   */\n      0x20\n        /* \"#utility.yul\":1618:1671   */\n      tag_277\n        /* \"#utility.yul\":1663:1670   */\n      dup7\n        /* \"#utility.yul\":1654:1660   */\n      dup3\n        /* \"#utility.yul\":1643:1652   */\n      dup8\n        /* \"#utility.yul\":1639:1661   */\n      add\n        /* \"#utility.yul\":1618:1671   */\n      tag_220\n      jump\t// in\n    tag_277:\n        /* \"#utility.yul\":1608:1671   */\n      swap3\n      pop\n        /* \"#utility.yul\":1563:1681   */\n      pop\n        /* \"#utility.yul\":1720:1722   */\n      0x40\n        /* \"#utility.yul\":1746:1799   */\n      tag_278\n        /* \"#utility.yul\":1791:1798   */\n      dup7\n        /* \"#utility.yul\":1782:1788   */\n      dup3\n        /* \"#utility.yul\":1771:1780   */\n      dup8\n        /* \"#utility.yul\":1767:1789   */\n      add\n        /* \"#utility.yul\":1746:1799   */\n      tag_220\n      jump\t// in\n    tag_278:\n        /* \"#utility.yul\":1736:1799   */\n      swap2\n      pop\n        /* \"#utility.yul\":1691:1809   */\n      pop\n        /* \"#utility.yul\":1197:1816   */\n      swap3\n      pop\n      swap3\n      pop\n      swap3\n      jump\t// out\n        /* \"#utility.yul\":1822:1940   */\n    tag_221:\n        /* \"#utility.yul\":1909:1933   */\n      tag_280\n        /* \"#utility.yul\":1927:1932   */\n      dup2\n        /* \"#utility.yul\":1909:1933   */\n      tag_218\n      jump\t// in\n    tag_280:\n        /* \"#utility.yul\":1904:1907   */\n      dup3\n        /* \"#utility.yul\":1897:1934   */\n      mstore\n        /* \"#utility.yul\":1822:1940   */\n      pop\n      pop\n      jump\t// out\n        /* \"#utility.yul\":1946:2168   */\n    tag_21:\n        /* \"#utility.yul\":2039:2043   */\n      0x00\n        /* \"#utility.yul\":2077:2079   */\n      0x20\n        /* \"#utility.yul\":2066:2075   */\n      dup3\n        /* \"#utility.yul\":2062:2080   */\n      add\n        /* \"#utility.yul\":2054:2080   */\n      swap1\n      pop\n        /* \"#utility.yul\":2090:2161   */\n      tag_282\n        /* \"#utility.yul\":2158:2159   */\n      0x00\n        /* \"#utility.yul\":2147:2156   */\n      dup4\n        /* \"#utility.yul\":2143:2160   */\n      add\n        /* \"#utility.yul\":2134:2140   */\n      dup5\n        /* \"#utility.yul\":2090:2161   */\n      tag_221\n      jump\t// in\n    tag_282:\n        /* \"#utility.yul\":1946:2168   */\n      swap3\n      swap2\n      pop\n      pop\n      jump\t// out\n        /* \"#utility.yul\":2174:2503   */\n    tag_25:\n        /* \"#utility.yul\":2233:2239   */\n      0x00\n        /* \"#utility.yul\":2282:2284   */\n      0x20\n        /* \"#utility.yul\":2270:2279   */\n      dup3\n        /* \"#utility.yul\":2261:2268   */\n      dup5\n        /* \"#utility.yul\":2257:2280   */\n      sub\n        /* \"#utility.yul\":2253:2285   */\n      slt\n        /* \"#utility.yul\":2250:2369   */\n      iszero\n      tag_284\n      jumpi\n        /* \"#utility.yul\":2288:2367   */\n      tag_285\n      tag_212\n      jump\t// in\n    tag_285:\n        /* \"#utility.yul\":2250:2369   */\n    tag_284:\n        /* \"#utility.yul\":2408:2409   */\n      0x00\n        /* \"#utility.yul\":2433:2486   */\n      tag_286\n        /* \"#utility.yul\":2478:2485   */\n      dup5\n        /* \"#utility.yul\":2469:2475   */\n      dup3\n        /* \"#utility.yul\":2458:2467   */\n      dup6\n        /* \"#utility.yul\":2454:2476   */\n      add\n        /* \"#utility.yul\":2433:2486   */\n      tag_220\n      jump\t// in\n    tag_286:\n        /* \"#utility.yul\":2423:2486   */\n      swap2\n      pop\n        /* \"#utility.yul\":2379:2496   */\n      pop\n        /* \"#utility.yul\":2174:2503   */\n      swap3\n      swap2\n      pop\n      pop\n      jump\t// out\n        /* \"#utility.yul\":2509:2627   */\n    tag_222:\n        /* \"#utility.yul\":2596:2620   */\n      tag_288\n        /* \"#utility.yul\":2614:2619   */\n      dup2\n        /* \"#utility.yul\":2596:2620   */\n      tag_215\n      jump\t// in\n    tag_288:\n        /* \"#utility.yul\":2591:2594   */\n      dup3\n        /* \"#utility.yul\":2584:2621   */\n      mstore\n        /* \"#utility.yul\":2509:2627   */\n      pop\n      pop\n      jump\t// out\n        /* \"#utility.yul\":2633:2855   */\n    tag_31:\n        /* \"#utility.yul\":2726:2730   */\n      0x00\n        /* \"#utility.yul\":2764:2766   */\n      0x20\n        /* \"#utility.yul\":2753:2762   */\n      dup3\n        /* \"#utility.yul\":2749:2767   */\n      add\n        /* \"#utility.yul\":2741:2767   */\n      swap1\n      pop\n        /* \"#utility.yul\":2777:2848   */\n      tag_290\n        /* \"#utility.yul\":2845:2846   */\n      0x00\n        /* \"#utility.yul\":2834:2843   */\n      dup4\n        /* \"#utility.yul\":2830:2847   */\n      add\n        /* \"#utility.yul\":2821:2827   */\n      dup5\n        /* \"#utility.yul\":2777:2848   */\n      tag_222\n      jump\t// in\n    tag_290:\n        /* \"#utility.yul\":2633:2855   */\n      swap3\n      swap2\n      pop\n      pop\n      jump\t// out\n        /* \"#utility.yul\":2861:2975   */\n    tag_223:\n        /* \"#utility.yul\":2928:2934   */\n      0x00\n        /* \"#utility.yul\":2962:2967   */\n      dup2\n        /* \"#utility.yul\":2956:2968   */\n      mload\n        /* \"#utility.yul\":2946:2968   */\n      swap1\n      pop\n        /* \"#utility.yul\":2861:2975   */\n      swap2\n      swap1\n      pop\n      jump\t// out\n        /* \"#utility.yul\":2981:3165   */\n    tag_224:\n        /* \"#utility.yul\":3080:3091   */\n      0x00\n        /* \"#utility.yul\":3114:3120   */\n      dup3\n        /* \"#utility.yul\":3109:3112   */\n      dup3\n        /* \"#utility.yul\":3102:3121   */\n      mstore\n        /* \"#utility.yul\":3154:3158   */\n      0x20\n        /* \"#utility.yul\":3149:3152   */\n      dup3\n        /* \"#utility.yul\":3145:3159   */\n      add\n        /* \"#utility.yul\":3130:3159   */\n      swap1\n      pop\n        /* \"#utility.yul\":2981:3165   */\n      swap3\n      swap2\n      pop\n      pop\n      jump\t// out\n        /* \"#utility.yul\":3171:3303   */\n    tag_225:\n        /* \"#utility.yul\":3238:3242   */\n      0x00\n        /* \"#utility.yul\":3261:3264   */\n      dup2\n        /* \"#utility.yul\":3253:3264   */\n      swap1\n      pop\n        /* \"#utility.yul\":3291:3295   */\n      0x20\n        /* \"#utility.yul\":3286:3289   */\n      dup3\n        /* \"#utility.yul\":3282:3296   */\n      add\n        /* \"#utility.yul\":3274:3296   */\n      swap1\n      pop\n        /* \"#utility.yul\":3171:3303   */\n      swap2\n      swap1\n      pop\n      jump\t// out\n        /* \"#utility.yul\":3309:3417   */\n    tag_226:\n        /* \"#utility.yul\":3386:3410   */\n      tag_295\n        /* \"#utility.yul\":3404:3409   */\n      dup2\n        /* \"#utility.yul\":3386:3410   */\n      tag_218\n      jump\t// in\n    tag_295:\n        /* \"#utility.yul\":3381:3384   */\n      dup3\n        /* \"#utility.yul\":3374:3411   */\n      mstore\n        /* \"#utility.yul\":3309:3417   */\n      pop\n      pop\n      jump\t// out\n        /* \"#utility.yul\":3423:3602   */\n    tag_227:\n        /* \"#utility.yul\":3492:3502   */\n      0x00\n        /* \"#utility.yul\":3513:3559   */\n      tag_297\n        /* \"#utility.yul\":3555:3558   */\n      dup4\n        /* \"#utility.yul\":3547:3553   */\n      dup4\n        /* \"#utility.yul\":3513:3559   */\n      tag_226\n      jump\t// in\n    tag_297:\n        /* \"#utility.yul\":3591:3595   */\n      0x20\n        /* \"#utility.yul\":3586:3589   */\n      dup4\n        /* \"#utility.yul\":3582:3596   */\n      add\n        /* \"#utility.yul\":3568:3596   */\n      swap1\n      pop\n        /* \"#utility.yul\":3423:3602   */\n      swap3\n      swap2\n      pop\n      pop\n      jump\t// out\n        /* \"#utility.yul\":3608:3721   */\n    tag_228:\n        /* \"#utility.yul\":3678:3682   */\n      0x00\n        /* \"#utility.yul\":3710:3714   */\n      0x20\n        /* \"#utility.yul\":3705:3708   */\n      dup3\n        /* \"#utility.yul\":3701:3715   */\n      add\n        /* \"#utility.yul\":3693:3715   */\n      swap1\n      pop\n        /* \"#utility.yul\":3608:3721   */\n      swap2\n      swap1\n      pop\n      jump\t// out\n        /* \"#utility.yul\":3757:4489   */\n    tag_229:\n        /* \"#utility.yul\":3876:3879   */\n      0x00\n        /* \"#utility.yul\":3905:3959   */\n      tag_300\n        /* \"#utility.yul\":3953:3958   */\n      dup3\n        /* \"#utility.yul\":3905:3959   */\n      tag_223\n      jump\t// in\n    tag_300:\n        /* \"#utility.yul\":3975:4061   */\n      tag_301\n        /* \"#utility.yul\":4054:4060   */\n      dup2\n        /* \"#utility.yul\":4049:4052   */\n      dup6\n        /* \"#utility.yul\":3975:4061   */\n      tag_224\n      jump\t// in\n    tag_301:\n        /* \"#utility.yul\":3968:4061   */\n      swap4\n      pop\n        /* \"#utility.yul\":4085:4141   */\n      tag_302\n        /* \"#utility.yul\":4135:4140   */\n      dup4\n        /* \"#utility.yul\":4085:4141   */\n      tag_225\n      jump\t// in\n    tag_302:\n        /* \"#utility.yul\":4164:4171   */\n      dup1\n        /* \"#utility.yul\":4195:4196   */\n      0x00\n        /* \"#utility.yul\":4180:4464   */\n    tag_303:\n        /* \"#utility.yul\":4205:4211   */\n      dup4\n        /* \"#utility.yul\":4202:4203   */\n      dup2\n        /* \"#utility.yul\":4199:4212   */\n      lt\n        /* \"#utility.yul\":4180:4464   */\n      iszero\n      tag_305\n      jumpi\n        /* \"#utility.yul\":4281:4287   */\n      dup2\n        /* \"#utility.yul\":4275:4288   */\n      mload\n        /* \"#utility.yul\":4308:4371   */\n      tag_306\n        /* \"#utility.yul\":4367:4370   */\n      dup9\n        /* \"#utility.yul\":4352:4365   */\n      dup3\n        /* \"#utility.yul\":4308:4371   */\n      tag_227\n      jump\t// in\n    tag_306:\n        /* \"#utility.yul\":4301:4371   */\n      swap8\n      pop\n        /* \"#utility.yul\":4394:4454   */\n      tag_307\n        /* \"#utility.yul\":4447:4453   */\n      dup4\n        /* \"#utility.yul\":4394:4454   */\n      tag_228\n      jump\t// in\n    tag_307:\n        /* \"#utility.yul\":4384:4454   */\n      swap3\n      pop\n        /* \"#utility.yul\":4240:4464   */\n      pop\n        /* \"#utility.yul\":4227:4228   */\n      0x01\n        /* \"#utility.yul\":4224:4225   */\n      dup2\n        /* \"#utility.yul\":4220:4229   */\n      add\n        /* \"#utility.yul\":4215:4229   */\n      swap1\n      pop\n        /* \"#utility.yul\":4180:4464   */\n      jump(tag_303)\n    tag_305:\n        /* \"#utility.yul\":4184:4198   */\n      pop\n        /* \"#utility.yul\":4480:4483   */\n      dup6\n        /* \"#utility.yul\":4473:4483   */\n      swap4\n      pop\n        /* \"#utility.yul\":3881:4489   */\n      pop\n      pop\n      pop\n        /* \"#utility.yul\":3757:4489   */\n      swap3\n      swap2\n      pop\n      pop\n      jump\t// out\n        /* \"#utility.yul\":4495:4868   */\n    tag_39:\n        /* \"#utility.yul\":4638:4642   */\n      0x00\n        /* \"#utility.yul\":4676:4678   */\n      0x20\n        /* \"#utility.yul\":4665:4674   */\n      dup3\n        /* \"#utility.yul\":4661:4679   */\n      add\n        /* \"#utility.yul\":4653:4679   */\n      swap1\n      pop\n        /* \"#utility.yul\":4725:4734   */\n      dup2\n        /* \"#utility.yul\":4719:4723   */\n      dup2\n        /* \"#utility.yul\":4715:4735   */\n      sub\n        /* \"#utility.yul\":4711:4712   */\n      0x00\n        /* \"#utility.yul\":4700:4709   */\n      dup4\n        /* \"#utility.yul\":4696:4713   */\n      add\n        /* \"#utility.yul\":4689:4736   */\n      mstore\n        /* \"#utility.yul\":4753:4861   */\n      tag_309\n        /* \"#utility.yul\":4856:4860   */\n      dup2\n        /* \"#utility.yul\":4847:4853   */\n      dup5\n        /* \"#utility.yul\":4753:4861   */\n      tag_229\n      jump\t// in\n    tag_309:\n        /* \"#utility.yul\":4745:4861   */\n      swap1\n      pop\n        /* \"#utility.yul\":4495:4868   */\n      swap3\n      swap2\n      pop\n      pop\n      jump\t// out\n        /* \"#utility.yul\":4874:5348   */\n    tag_42:\n        /* \"#utility.yul\":4942:4948   */\n      0x00\n        /* \"#utility.yul\":4950:4956   */\n      0x00\n        /* \"#utility.yul\":4999:5001   */\n      0x40\n        /* \"#utility.yul\":4987:4996   */\n      dup4\n        /* \"#utility.yul\":4978:4985   */\n      dup6\n        /* \"#utility.yul\":4974:4997   */\n      sub\n        /* \"#utility.yul\":4970:5002   */\n      slt\n        /* \"#utility.yul\":4967:5086   */\n      iszero\n      tag_311\n      jumpi\n        /* \"#utility.yul\":5005:5084   */\n      tag_312\n      tag_212\n      jump\t// in\n    tag_312:\n        /* \"#utility.yul\":4967:5086   */\n    tag_311:\n        /* \"#utility.yul\":5125:5126   */\n      0x00\n        /* \"#utility.yul\":5150:5203   */\n      tag_313\n        /* \"#utility.yul\":5195:5202   */\n      dup6\n        /* \"#utility.yul\":5186:5192   */\n      dup3\n        /* \"#utility.yul\":5175:5184   */\n      dup7\n        /* \"#utility.yul\":5171:5193   */\n      add\n        /* \"#utility.yul\":5150:5203   */\n      tag_220\n      jump\t// in\n    tag_313:\n        /* \"#utility.yul\":5140:5203   */\n      swap3\n      pop\n        /* \"#utility.yul\":5096:5213   */\n      pop\n        /* \"#utility.yul\":5252:5254   */\n      0x20\n        /* \"#utility.yul\":5278:5331   */\n      tag_314\n        /* \"#utility.yul\":5323:5330   */\n      dup6\n        /* \"#utility.yul\":5314:5320   */\n      dup3\n        /* \"#utility.yul\":5303:5312   */\n      dup7\n        /* \"#utility.yul\":5299:5321   */\n      add\n        /* \"#utility.yul\":5278:5331   */\n      tag_220\n      jump\t// in\n    tag_314:\n        /* \"#utility.yul\":5268:5331   */\n      swap2\n      pop\n        /* \"#utility.yul\":5223:5341   */\n      pop\n        /* \"#utility.yul\":4874:5348   */\n      swap3\n      pop\n      swap3\n      swap1\n      pop\n      jump\t// out\n        /* \"#utility.yul\":5354:5444   */\n    tag_230:\n        /* \"#utility.yul\":5388:5395   */\n      0x00\n        /* \"#utility.yul\":5431:5436   */\n      dup2\n        /* \"#utility.yul\":5424:5437   */\n      iszero\n        /* \"#utility.yul\":5417:5438   */\n      iszero\n        /* \"#utility.yul\":5406:5438   */\n      swap1\n      pop\n        /* \"#utility.yul\":5354:5444   */\n      swap2\n      swap1\n      pop\n      jump\t// out\n        /* \"#utility.yul\":5450:5559   */\n    tag_231:\n        /* \"#utility.yul\":5531:5552   */\n      tag_317\n        /* \"#utility.yul\":5546:5551   */\n      dup2\n        /* \"#utility.yul\":5531:5552   */\n      tag_230\n      jump\t// in\n    tag_317:\n        /* \"#utility.yul\":5526:5529   */\n      dup3\n        /* \"#utility.yul\":5519:5553   */\n      mstore\n        /* \"#utility.yul\":5450:5559   */\n      pop\n      pop\n      jump\t// out\n        /* \"#utility.yul\":5565:6217   */\n    tag_57:\n        /* \"#utility.yul\":5764:5768   */\n      0x00\n        /* \"#utility.yul\":5802:5805   */\n      0xa0\n        /* \"#utility.yul\":5791:5800   */\n      dup3\n        /* \"#utility.yul\":5787:5806   */\n      add\n        /* \"#utility.yul\":5779:5806   */\n      swap1\n      pop\n        /* \"#utility.yul\":5816:5887   */\n      tag_319\n        /* \"#utility.yul\":5884:5885   */\n      0x00\n        /* \"#utility.yul\":5873:5882   */\n      dup4\n        /* \"#utility.yul\":5869:5886   */\n      add\n        /* \"#utility.yul\":5860:5866   */\n      dup9\n        /* \"#utility.yul\":5816:5887   */\n      tag_222\n      jump\t// in\n    tag_319:\n        /* \"#utility.yul\":5897:5969   */\n      tag_320\n        /* \"#utility.yul\":5965:5967   */\n      0x20\n        /* \"#utility.yul\":5954:5963   */\n      dup4\n        /* \"#utility.yul\":5950:5968   */\n      add\n        /* \"#utility.yul\":5941:5947   */\n      dup8\n        /* \"#utility.yul\":5897:5969   */\n      tag_222\n      jump\t// in\n    tag_320:\n        /* \"#utility.yul\":5979:6051   */\n      tag_321\n        /* \"#utility.yul\":6047:6049   */\n      0x40\n        /* \"#utility.yul\":6036:6045   */\n      dup4\n        /* \"#utility.yul\":6032:6050   */\n      add\n        /* \"#utility.yul\":6023:6029   */\n      dup7\n        /* \"#utility.yul\":5979:6051   */\n      tag_221\n      jump\t// in\n    tag_321:\n        /* \"#utility.yul\":6061:6133   */\n      tag_322\n        /* \"#utility.yul\":6129:6131   */\n      0x60\n        /* \"#utility.yul\":6118:6127   */\n      dup4\n        /* \"#utility.yul\":6114:6132   */\n      add\n        /* \"#utility.yul\":6105:6111   */\n      dup6\n        /* \"#utility.yul\":6061:6133   */\n      tag_221\n      jump\t// in\n    tag_322:\n        /* \"#utility.yul\":6143:6210   */\n      tag_323\n        /* \"#utility.yul\":6205:6208   */\n      0x80\n        /* \"#utility.yul\":6194:6203   */\n      dup4\n        /* \"#utility.yul\":6190:6209   */\n      add\n        /* \"#utility.yul\":6181:6187   */\n      dup5\n        /* \"#utility.yul\":6143:6210   */\n      tag_231\n      jump\t// in\n    tag_323:\n        /* \"#utility.yul\":5565:6217   */\n      swap7\n      swap6\n      pop\n      pop\n      pop\n      pop\n      pop\n      pop\n      jump\t// out\n        /* \"#utility.yul\":6223:6552   */\n    tag_65:\n        /* \"#utility.yul\":6282:6288   */\n      0x00\n        /* \"#utility.yul\":6331:6333   */\n      0x20\n        /* \"#utility.yul\":6319:6328   */\n      dup3\n        /* \"#utility.yul\":6310:6317   */\n      dup5\n        /* \"#utility.yul\":6306:6329   */\n      sub\n        /* \"#utility.yul\":6302:6334   */\n      slt\n        /* \"#utility.yul\":6299:6418   */\n      iszero\n      tag_325\n      jumpi\n        /* \"#utility.yul\":6337:6416   */\n      tag_326\n      tag_212\n      jump\t// in\n    tag_326:\n        /* \"#utility.yul\":6299:6418   */\n    tag_325:\n        /* \"#utility.yul\":6457:6458   */\n      0x00\n        /* \"#utility.yul\":6482:6535   */\n      tag_327\n        /* \"#utility.yul\":6527:6534   */\n      dup5\n        /* \"#utility.yul\":6518:6524   */\n      dup3\n        /* \"#utility.yul\":6507:6516   */\n      dup6\n        /* \"#utility.yul\":6503:6525   */\n      add\n        /* \"#utility.yul\":6482:6535   */\n      tag_217\n      jump\t// in\n    tag_327:\n        /* \"#utility.yul\":6472:6535   */\n      swap2\n      pop\n        /* \"#utility.yul\":6428:6545   */\n      pop\n        /* \"#utility.yul\":6223:6552   */\n      swap3\n      swap2\n      pop\n      pop\n      jump\t// out\n        /* \"#utility.yul\":6558:6727   */\n    tag_232:\n        /* \"#utility.yul\":6642:6653   */\n      0x00\n        /* \"#utility.yul\":6676:6682   */\n      dup3\n        /* \"#utility.yul\":6671:6674   */\n      dup3\n        /* \"#utility.yul\":6664:6683   */\n      mstore\n        /* \"#utility.yul\":6716:6720   */\n      0x20\n        /* \"#utility.yul\":6711:6714   */\n      dup3\n        /* \"#utility.yul\":6707:6721   */\n      add\n        /* \"#utility.yul\":6692:6721   */\n      swap1\n      pop\n        /* \"#utility.yul\":6558:6727   */\n      swap3\n      swap2\n      pop\n      pop\n      jump\t// out\n        /* \"#utility.yul\":6733:6955   */\n    tag_233:\n        /* \"#utility.yul\":6873:6907   */\n      0x546f6b656e20616d6f756e74206d757374206265206772656174657220746861\n        /* \"#utility.yul\":6869:6870   */\n      0x00\n        /* \"#utility.yul\":6861:6867   */\n      dup3\n        /* \"#utility.yul\":6857:6871   */\n      add\n        /* \"#utility.yul\":6850:6908   */\n      mstore\n        /* \"#utility.yul\":6942:6947   */\n      0x6e20300000000000000000000000000000000000000000000000000000000000\n        /* \"#utility.yul\":6937:6939   */\n      0x20\n        /* \"#utility.yul\":6929:6935   */\n      dup3\n        /* \"#utility.yul\":6925:6940   */\n      add\n        /* \"#utility.yul\":6918:6948   */\n      mstore\n        /* \"#utility.yul\":6733:6955   */\n      pop\n      jump\t// out\n        /* \"#utility.yul\":6961:7327   */\n    tag_234:\n        /* \"#utility.yul\":7103:7106   */\n      0x00\n        /* \"#utility.yul\":7124:7191   */\n      tag_331\n        /* \"#utility.yul\":7188:7190   */\n      0x23\n        /* \"#utility.yul\":7183:7186   */\n      dup4\n        /* \"#utility.yul\":7124:7191   */\n      tag_232\n      jump\t// in\n    tag_331:\n        /* \"#utility.yul\":7117:7191   */\n      swap2\n      pop\n        /* \"#utility.yul\":7200:7293   */\n      tag_332\n        /* \"#utility.yul\":7289:7292   */\n      dup3\n        /* \"#utility.yul\":7200:7293   */\n      tag_233\n      jump\t// in\n    tag_332:\n        /* \"#utility.yul\":7318:7320   */\n      0x40\n        /* \"#utility.yul\":7313:7316   */\n      dup3\n        /* \"#utility.yul\":7309:7321   */\n      add\n        /* \"#utility.yul\":7302:7321   */\n      swap1\n      pop\n        /* \"#utility.yul\":6961:7327   */\n      swap2\n      swap1\n      pop\n      jump\t// out\n        /* \"#utility.yul\":7333:7752   */\n    tag_74:\n        /* \"#utility.yul\":7499:7503   */\n      0x00\n        /* \"#utility.yul\":7537:7539   */\n      0x20\n        /* \"#utility.yul\":7526:7535   */\n      dup3\n        /* \"#utility.yul\":7522:7540   */\n      add\n        /* \"#utility.yul\":7514:7540   */\n      swap1\n      pop\n        /* \"#utility.yul\":7586:7595   */\n      dup2\n        /* \"#utility.yul\":7580:7584   */\n      dup2\n        /* \"#utility.yul\":7576:7596   */\n      sub\n        /* \"#utility.yul\":7572:7573   */\n      0x00\n        /* \"#utility.yul\":7561:7570   */\n      dup4\n        /* \"#utility.yul\":7557:7574   */\n      add\n        /* \"#utility.yul\":7550:7597   */\n      mstore\n        /* \"#utility.yul\":7614:7745   */\n      tag_334\n        /* \"#utility.yul\":7740:7744   */\n      dup2\n        /* \"#utility.yul\":7614:7745   */\n      tag_234\n      jump\t// in\n    tag_334:\n        /* \"#utility.yul\":7606:7745   */\n      swap1\n      pop\n        /* \"#utility.yul\":7333:7752   */\n      swap2\n      swap1\n      pop\n      jump\t// out\n        /* \"#utility.yul\":7758:7936   */\n    tag_235:\n        /* \"#utility.yul\":7898:7928   */\n      0x5072696365206d7573742062652067726561746572207468616e203000000000\n        /* \"#utility.yul\":7894:7895   */\n      0x00\n        /* \"#utility.yul\":7886:7892   */\n      dup3\n        /* \"#utility.yul\":7882:7896   */\n      add\n        /* \"#utility.yul\":7875:7929   */\n      mstore\n        /* \"#utility.yul\":7758:7936   */\n      pop\n      jump\t// out\n        /* \"#utility.yul\":7942:8308   */\n    tag_236:\n        /* \"#utility.yul\":8084:8087   */\n      0x00\n        /* \"#utility.yul\":8105:8172   */\n      tag_337\n        /* \"#utility.yul\":8169:8171   */\n      0x1c\n        /* \"#utility.yul\":8164:8167   */\n      dup4\n        /* \"#utility.yul\":8105:8172   */\n      tag_232\n      jump\t// in\n    tag_337:\n        /* \"#utility.yul\":8098:8172   */\n      swap2\n      pop\n        /* \"#utility.yul\":8181:8274   */\n      tag_338\n        /* \"#utility.yul\":8270:8273   */\n      dup3\n        /* \"#utility.yul\":8181:8274   */\n      tag_235\n      jump\t// in\n    tag_338:\n        /* \"#utility.yul\":8299:8301   */\n      0x20\n        /* \"#utility.yul\":8294:8297   */\n      dup3\n        /* \"#utility.yul\":8290:8302   */\n      add\n        /* \"#utility.yul\":8283:8302   */\n      swap1\n      pop\n        /* \"#utility.yul\":7942:8308   */\n      swap2\n      swap1\n      pop\n      jump\t// out\n        /* \"#utility.yul\":8314:8733   */\n    tag_77:\n        /* \"#utility.yul\":8480:8484   */\n      0x00\n        /* \"#utility.yul\":8518:8520   */\n      0x20\n        /* \"#utility.yul\":8507:8516   */\n      dup3\n        /* \"#utility.yul\":8503:8521   */\n      add\n        /* \"#utility.yul\":8495:8521   */\n      swap1\n      pop\n        /* \"#utility.yul\":8567:8576   */\n      dup2\n        /* \"#utility.yul\":8561:8565   */\n      dup2\n        /* \"#utility.yul\":8557:8577   */\n      sub\n        /* \"#utility.yul\":8553:8554   */\n      0x00\n        /* \"#utility.yul\":8542:8551   */\n      dup4\n        /* \"#utility.yul\":8538:8555   */\n      add\n        /* \"#utility.yul\":8531:8578   */\n      mstore\n        /* \"#utility.yul\":8595:8726   */\n      tag_340\n        /* \"#utility.yul\":8721:8725   */\n      dup2\n        /* \"#utility.yul\":8595:8726   */\n      tag_236\n      jump\t// in\n    tag_340:\n        /* \"#utility.yul\":8587:8726   */\n      swap1\n      pop\n        /* \"#utility.yul\":8314:8733   */\n      swap2\n      swap1\n      pop\n      jump\t// out\n        /* \"#utility.yul\":8739:9181   */\n    tag_79:\n        /* \"#utility.yul\":8888:8892   */\n      0x00\n        /* \"#utility.yul\":8926:8928   */\n      0x60\n        /* \"#utility.yul\":8915:8924   */\n      dup3\n        /* \"#utility.yul\":8911:8929   */\n      add\n        /* \"#utility.yul\":8903:8929   */\n      swap1\n      pop\n        /* \"#utility.yul\":8939:9010   */\n      tag_342\n        /* \"#utility.yul\":9007:9008   */\n      0x00\n        /* \"#utility.yul\":8996:9005   */\n      dup4\n        /* \"#utility.yul\":8992:9009   */\n      add\n        /* \"#utility.yul\":8983:8989   */\n      dup7\n        /* \"#utility.yul\":8939:9010   */\n      tag_222\n      jump\t// in\n    tag_342:\n        /* \"#utility.yul\":9020:9092   */\n      tag_343\n        /* \"#utility.yul\":9088:9090   */\n      0x20\n        /* \"#utility.yul\":9077:9086   */\n      dup4\n        /* \"#utility.yul\":9073:9091   */\n      add\n        /* \"#utility.yul\":9064:9070   */\n      dup6\n        /* \"#utility.yul\":9020:9092   */\n      tag_222\n      jump\t// in\n    tag_343:\n        /* \"#utility.yul\":9102:9174   */\n      tag_344\n        /* \"#utility.yul\":9170:9172   */\n      0x40\n        /* \"#utility.yul\":9159:9168   */\n      dup4\n        /* \"#utility.yul\":9155:9173   */\n      add\n        /* \"#utility.yul\":9146:9152   */\n      dup5\n        /* \"#utility.yul\":9102:9174   */\n      tag_221\n      jump\t// in\n    tag_344:\n        /* \"#utility.yul\":8739:9181   */\n      swap5\n      swap4\n      pop\n      pop\n      pop\n      pop\n      jump\t// out\n        /* \"#utility.yul\":9187:9303   */\n    tag_237:\n        /* \"#utility.yul\":9257:9278   */\n      tag_346\n        /* \"#utility.yul\":9272:9277   */\n      dup2\n        /* \"#utility.yul\":9257:9278   */\n      tag_230\n      jump\t// in\n    tag_346:\n        /* \"#utility.yul\":9250:9255   */\n      dup2\n        /* \"#utility.yul\":9247:9279   */\n      eq\n        /* \"#utility.yul\":9237:9297   */\n      tag_347\n      jumpi\n        /* \"#utility.yul\":9293:9294   */\n      0x00\n        /* \"#utility.yul\":9290:9291   */\n      0x00\n        /* \"#utility.yul\":9283:9295   */\n      revert\n        /* \"#utility.yul\":9237:9297   */\n    tag_347:\n        /* \"#utility.yul\":9187:9303   */\n      pop\n      jump\t// out\n        /* \"#utility.yul\":9309:9446   */\n    tag_238:\n        /* \"#utility.yul\":9363:9368   */\n      0x00\n        /* \"#utility.yul\":9394:9400   */\n      dup2\n        /* \"#utility.yul\":9388:9401   */\n      mload\n        /* \"#utility.yul\":9379:9401   */\n      swap1\n      pop\n        /* \"#utility.yul\":9410:9440   */\n      tag_349\n        /* \"#utility.yul\":9434:9439   */\n      dup2\n        /* \"#utility.yul\":9410:9440   */\n      tag_237\n      jump\t// in\n    tag_349:\n        /* \"#utility.yul\":9309:9446   */\n      swap3\n      swap2\n      pop\n      pop\n      jump\t// out\n        /* \"#utility.yul\":9452:9797   */\n    tag_83:\n        /* \"#utility.yul\":9519:9525   */\n      0x00\n        /* \"#utility.yul\":9568:9570   */\n      0x20\n        /* \"#utility.yul\":9556:9565   */\n      dup3\n        /* \"#utility.yul\":9547:9554   */\n      dup5\n        /* \"#utility.yul\":9543:9566   */\n      sub\n        /* \"#utility.yul\":9539:9571   */\n      slt\n        /* \"#utility.yul\":9536:9655   */\n      iszero\n      tag_351\n      jumpi\n        /* \"#utility.yul\":9574:9653   */\n      tag_352\n      tag_212\n      jump\t// in\n    tag_352:\n        /* \"#utility.yul\":9536:9655   */\n    tag_351:\n        /* \"#utility.yul\":9694:9695   */\n      0x00\n        /* \"#utility.yul\":9719:9780   */\n      tag_353\n        /* \"#utility.yul\":9772:9779   */\n      dup5\n        /* \"#utility.yul\":9763:9769   */\n      dup3\n        /* \"#utility.yul\":9752:9761   */\n      dup6\n        /* \"#utility.yul\":9748:9770   */\n      add\n        /* \"#utility.yul\":9719:9780   */\n      tag_238\n      jump\t// in\n    tag_353:\n        /* \"#utility.yul\":9709:9780   */\n      swap2\n      pop\n        /* \"#utility.yul\":9665:9790   */\n      pop\n        /* \"#utility.yul\":9452:9797   */\n      swap3\n      swap2\n      pop\n      pop\n      jump\t// out\n        /* \"#utility.yul\":9803:9983   */\n    tag_239:\n        /* \"#utility.yul\":9851:9928   */\n      0x4e487b7100000000000000000000000000000000000000000000000000000000\n        /* \"#utility.yul\":9848:9849   */\n      0x00\n        /* \"#utility.yul\":9841:9929   */\n      mstore\n        /* \"#utility.yul\":9948:9952   */\n      0x11\n        /* \"#utility.yul\":9945:9946   */\n      0x04\n        /* \"#utility.yul\":9938:9953   */\n      mstore\n        /* \"#utility.yul\":9972:9976   */\n      0x24\n        /* \"#utility.yul\":9969:9970   */\n      0x00\n        /* \"#utility.yul\":9962:9977   */\n      revert\n        /* \"#utility.yul\":9989:10183   */\n    tag_86:\n        /* \"#utility.yul\":10029:10033   */\n      0x00\n        /* \"#utility.yul\":10049:10069   */\n      tag_356\n        /* \"#utility.yul\":10067:10068   */\n      dup3\n        /* \"#utility.yul\":10049:10069   */\n      tag_218\n      jump\t// in\n    tag_356:\n        /* \"#utility.yul\":10044:10069   */\n      swap2\n      pop\n        /* \"#utility.yul\":10083:10103   */\n      tag_357\n        /* \"#utility.yul\":10101:10102   */\n      dup4\n        /* \"#utility.yul\":10083:10103   */\n      tag_218\n      jump\t// in\n    tag_357:\n        /* \"#utility.yul\":10078:10103   */\n      swap3\n      pop\n        /* \"#utility.yul\":10127:10128   */\n      dup3\n        /* \"#utility.yul\":10124:10125   */\n      dup3\n        /* \"#utility.yul\":10120:10129   */\n      sub\n        /* \"#utility.yul\":10112:10129   */\n      swap1\n      pop\n        /* \"#utility.yul\":10151:10152   */\n      dup2\n        /* \"#utility.yul\":10145:10149   */\n      dup2\n        /* \"#utility.yul\":10142:10153   */\n      gt\n        /* \"#utility.yul\":10139:10176   */\n      iszero\n      tag_358\n      jumpi\n        /* \"#utility.yul\":10156:10174   */\n      tag_359\n      tag_239\n      jump\t// in\n    tag_359:\n        /* \"#utility.yul\":10139:10176   */\n    tag_358:\n        /* \"#utility.yul\":9989:10183   */\n      swap3\n      swap2\n      pop\n      pop\n      jump\t// out\n        /* \"#utility.yul\":10189:10521   */\n    tag_88:\n        /* \"#utility.yul\":10310:10314   */\n      0x00\n        /* \"#utility.yul\":10348:10350   */\n      0x40\n        /* \"#utility.yul\":10337:10346   */\n      dup3\n        /* \"#utility.yul\":10333:10351   */\n      add\n        /* \"#utility.yul\":10325:10351   */\n      swap1\n      pop\n        /* \"#utility.yul\":10361:10432   */\n      tag_361\n        /* \"#utility.yul\":10429:10430   */\n      0x00\n        /* \"#utility.yul\":10418:10427   */\n      dup4\n        /* \"#utility.yul\":10414:10431   */\n      add\n        /* \"#utility.yul\":10405:10411   */\n      dup6\n        /* \"#utility.yul\":10361:10432   */\n      tag_221\n      jump\t// in\n    tag_361:\n        /* \"#utility.yul\":10442:10514   */\n      tag_362\n        /* \"#utility.yul\":10510:10512   */\n      0x20\n        /* \"#utility.yul\":10499:10508   */\n      dup4\n        /* \"#utility.yul\":10495:10513   */\n      add\n        /* \"#utility.yul\":10486:10492   */\n      dup5\n        /* \"#utility.yul\":10442:10514   */\n      tag_221\n      jump\t// in\n    tag_362:\n        /* \"#utility.yul\":10189:10521   */\n      swap4\n      swap3\n      pop\n      pop\n      pop\n      jump\t// out\n        /* \"#utility.yul\":10527:10707   */\n    tag_92:\n        /* \"#utility.yul\":10575:10652   */\n      0x4e487b7100000000000000000000000000000000000000000000000000000000\n        /* \"#utility.yul\":10572:10573   */\n      0x00\n        /* \"#utility.yul\":10565:10653   */\n      mstore\n        /* \"#utility.yul\":10672:10676   */\n      0x32\n        /* \"#utility.yul\":10669:10670   */\n      0x04\n        /* \"#utility.yul\":10662:10677   */\n      mstore\n        /* \"#utility.yul\":10696:10700   */\n      0x24\n        /* \"#utility.yul\":10693:10694   */\n      0x00\n        /* \"#utility.yul\":10686:10701   */\n      revert\n        /* \"#utility.yul\":10713:10877   */\n    tag_240:\n        /* \"#utility.yul\":10853:10869   */\n      0x4e6f74207468652073656c6c6572000000000000000000000000000000000000\n        /* \"#utility.yul\":10849:10850   */\n      0x00\n        /* \"#utility.yul\":10841:10847   */\n      dup3\n        /* \"#utility.yul\":10837:10851   */\n      add\n        /* \"#utility.yul\":10830:10870   */\n      mstore\n        /* \"#utility.yul\":10713:10877   */\n      pop\n      jump\t// out\n        /* \"#utility.yul\":10883:11249   */\n    tag_241:\n        /* \"#utility.yul\":11025:11028   */\n      0x00\n        /* \"#utility.yul\":11046:11113   */\n      tag_366\n        /* \"#utility.yul\":11110:11112   */\n      0x0e\n        /* \"#utility.yul\":11105:11108   */\n      dup4\n        /* \"#utility.yul\":11046:11113   */\n      tag_232\n      jump\t// in\n    tag_366:\n        /* \"#utility.yul\":11039:11113   */\n      swap2\n      pop\n        /* \"#utility.yul\":11122:11215   */\n      tag_367\n        /* \"#utility.yul\":11211:11214   */\n      dup3\n        /* \"#utility.yul\":11122:11215   */\n      tag_240\n      jump\t// in\n    tag_367:\n        /* \"#utility.yul\":11240:11242   */\n      0x20\n        /* \"#utility.yul\":11235:11238   */\n      dup3\n        /* \"#utility.yul\":11231:11243   */\n      add\n        /* \"#utility.yul\":11224:11243   */\n      swap1\n      pop\n        /* \"#utility.yul\":10883:11249   */\n      swap2\n      swap1\n      pop\n      jump\t// out\n        /* \"#utility.yul\":11255:11674   */\n    tag_96:\n        /* \"#utility.yul\":11421:11425   */\n      0x00\n        /* \"#utility.yul\":11459:11461   */\n      0x20\n        /* \"#utility.yul\":11448:11457   */\n      dup3\n        /* \"#utility.yul\":11444:11462   */\n      add\n        /* \"#utility.yul\":11436:11462   */\n      swap1\n      pop\n        /* \"#utility.yul\":11508:11517   */\n      dup2\n        /* \"#utility.yul\":11502:11506   */\n      dup2\n        /* \"#utility.yul\":11498:11518   */\n      sub\n        /* \"#utility.yul\":11494:11495   */\n      0x00\n        /* \"#utility.yul\":11483:11492   */\n      dup4\n        /* \"#utility.yul\":11479:11496   */\n      add\n        /* \"#utility.yul\":11472:11519   */\n      mstore\n        /* \"#utility.yul\":11536:11667   */\n      tag_369\n        /* \"#utility.yul\":11662:11666   */\n      dup2\n        /* \"#utility.yul\":11536:11667   */\n      tag_241\n      jump\t// in\n    tag_369:\n        /* \"#utility.yul\":11528:11667   */\n      swap1\n      pop\n        /* \"#utility.yul\":11255:11674   */\n      swap2\n      swap1\n      pop\n      jump\t// out\n        /* \"#utility.yul\":11680:11848   */\n    tag_242:\n        /* \"#utility.yul\":11820:11840   */\n      0x4c697374696e67206e6f74206163746976650000000000000000000000000000\n        /* \"#utility.yul\":11816:11817   */\n      0x00\n        /* \"#utility.yul\":11808:11814   */\n      dup3\n        /* \"#utility.yul\":11804:11818   */\n      add\n        /* \"#utility.yul\":11797:11841   */\n      mstore\n        /* \"#utility.yul\":11680:11848   */\n      pop\n      jump\t// out\n        /* \"#utility.yul\":11854:12220   */\n    tag_243:\n        /* \"#utility.yul\":11996:11999   */\n      0x00\n        /* \"#utility.yul\":12017:12084   */\n      tag_372\n        /* \"#utility.yul\":12081:12083   */\n      0x12\n        /* \"#utility.yul\":12076:12079   */\n      dup4\n        /* \"#utility.yul\":12017:12084   */\n      tag_232\n      jump\t// in\n    tag_372:\n        /* \"#utility.yul\":12010:12084   */\n      swap2\n      pop\n        /* \"#utility.yul\":12093:12186   */\n      tag_373\n        /* \"#utility.yul\":12182:12185   */\n      dup3\n        /* \"#utility.yul\":12093:12186   */\n      tag_242\n      jump\t// in\n    tag_373:\n        /* \"#utility.yul\":12211:12213   */\n      0x20\n        /* \"#utility.yul\":12206:12209   */\n      dup3\n        /* \"#utility.yul\":12202:12214   */\n      add\n        /* \"#utility.yul\":12195:12214   */\n      swap1\n      pop\n        /* \"#utility.yul\":11854:12220   */\n      swap2\n      swap1\n      pop\n      jump\t// out\n        /* \"#utility.yul\":12226:12645   */\n    tag_99:\n        /* \"#utility.yul\":12392:12396   */\n      0x00\n        /* \"#utility.yul\":12430:12432   */\n      0x20\n        /* \"#utility.yul\":12419:12428   */\n      dup3\n        /* \"#utility.yul\":12415:12433   */\n      add\n        /* \"#utility.yul\":12407:12433   */\n      swap1\n      pop\n        /* \"#utility.yul\":12479:12488   */\n      dup2\n        /* \"#utility.yul\":12473:12477   */\n      dup2\n        /* \"#utility.yul\":12469:12489   */\n      sub\n        /* \"#utility.yul\":12465:12466   */\n      0x00\n        /* \"#utility.yul\":12454:12463   */\n      dup4\n        /* \"#utility.yul\":12450:12467   */\n      add\n        /* \"#utility.yul\":12443:12490   */\n      mstore\n        /* \"#utility.yul\":12507:12638   */\n      tag_375\n        /* \"#utility.yul\":12633:12637   */\n      dup2\n        /* \"#utility.yul\":12507:12638   */\n      tag_243\n      jump\t// in\n    tag_375:\n        /* \"#utility.yul\":12499:12638   */\n      swap1\n      pop\n        /* \"#utility.yul\":12226:12645   */\n      swap2\n      swap1\n      pop\n      jump\t// out\n        /* \"#utility.yul\":12651:12983   */\n    tag_101:\n        /* \"#utility.yul\":12772:12776   */\n      0x00\n        /* \"#utility.yul\":12810:12812   */\n      0x40\n        /* \"#utility.yul\":12799:12808   */\n      dup3\n        /* \"#utility.yul\":12795:12813   */\n      add\n        /* \"#utility.yul\":12787:12813   */\n      swap1\n      pop\n        /* \"#utility.yul\":12823:12894   */\n      tag_377\n        /* \"#utility.yul\":12891:12892   */\n      0x00\n        /* \"#utility.yul\":12880:12889   */\n      dup4\n        /* \"#utility.yul\":12876:12893   */\n      add\n        /* \"#utility.yul\":12867:12873   */\n      dup6\n        /* \"#utility.yul\":12823:12894   */\n      tag_222\n      jump\t// in\n    tag_377:\n        /* \"#utility.yul\":12904:12976   */\n      tag_378\n        /* \"#utility.yul\":12972:12974   */\n      0x20\n        /* \"#utility.yul\":12961:12970   */\n      dup4\n        /* \"#utility.yul\":12957:12975   */\n      add\n        /* \"#utility.yul\":12948:12954   */\n      dup5\n        /* \"#utility.yul\":12904:12976   */\n      tag_221\n      jump\t// in\n    tag_378:\n        /* \"#utility.yul\":12651:12983   */\n      swap4\n      swap3\n      pop\n      pop\n      pop\n      jump\t// out\n        /* \"#utility.yul\":12989:13222   */\n    tag_120:\n        /* \"#utility.yul\":13028:13031   */\n      0x00\n        /* \"#utility.yul\":13051:13075   */\n      tag_380\n        /* \"#utility.yul\":13069:13074   */\n      dup3\n        /* \"#utility.yul\":13051:13075   */\n      tag_218\n      jump\t// in\n    tag_380:\n        /* \"#utility.yul\":13042:13075   */\n      swap2\n      pop\n        /* \"#utility.yul\":13097:13163   */\n      0xffffffffffffffffffffffffffffffffffffffffffffffffffffffffffffffff\n        /* \"#utility.yul\":13090:13095   */\n      dup3\n        /* \"#utility.yul\":13087:13164   */\n      sub\n        /* \"#utility.yul\":13084:13187   */\n      tag_381\n      jumpi\n        /* \"#utility.yul\":13167:13185   */\n      tag_382\n      tag_239\n      jump\t// in\n    tag_382:\n        /* \"#utility.yul\":13084:13187   */\n    tag_381:\n        /* \"#utility.yul\":13214:13215   */\n      0x01\n        /* \"#utility.yul\":13207:13212   */\n      dup3\n        /* \"#utility.yul\":13203:13216   */\n      add\n        /* \"#utility.yul\":13196:13216   */\n      swap1\n      pop\n        /* \"#utility.yul\":12989:13222   */\n      swap2\n      swap1\n      pop\n      jump\t// out\n        /* \"#utility.yul\":13228:13408   */\n    tag_123:\n        /* \"#utility.yul\":13276:13353   */\n      0x4e487b7100000000000000000000000000000000000000000000000000000000\n        /* \"#utility.yul\":13273:13274   */\n      0x00\n        /* \"#utility.yul\":13266:13354   */\n      mstore\n        /* \"#utility.yul\":13373:13377   */\n      0x41\n        /* \"#utility.yul\":13370:13371   */\n      0x04\n        /* \"#utility.yul\":13363:13378   */\n      mstore\n        /* \"#utility.yul\":13397:13401   */\n      0x24\n        /* \"#utility.yul\":13394:13395   */\n      0x00\n        /* \"#utility.yul\":13387:13402   */\n      revert\n        /* \"#utility.yul\":13414:13578   */\n    tag_244:\n        /* \"#utility.yul\":13554:13570   */\n      0x496e76616c696420616d6f756e74000000000000000000000000000000000000\n        /* \"#utility.yul\":13550:13551   */\n      0x00\n        /* \"#utility.yul\":13542:13548   */\n      dup3\n        /* \"#utility.yul\":13538:13552   */\n      add\n        /* \"#utility.yul\":13531:13571   */\n      mstore\n        /* \"#utility.yul\":13414:13578   */\n      pop\n      jump\t// out\n        /* \"#utility.yul\":13584:13950   */\n    tag_245:\n        /* \"#utility.yul\":13726:13729   */\n      0x00\n        /* \"#utility.yul\":13747:13814   */\n      tag_386\n        /* \"#utility.yul\":13811:13813   */\n      0x0e\n        /* \"#utility.yul\":13806:13809   */\n      dup4\n        /* \"#utility.yul\":13747:13814   */\n      tag_232\n      jump\t// in\n    tag_386:\n        /* \"#utility.yul\":13740:13814   */\n      swap2\n      pop\n        /* \"#utility.yul\":13823:13916   */\n      tag_387\n        /* \"#utility.yul\":13912:13915   */\n      dup3\n        /* \"#utility.yul\":13823:13916   */\n      tag_244\n      jump\t// in\n    tag_387:\n        /* \"#utility.yul\":13941:13943   */\n      0x20\n        /* \"#utility.yul\":13936:13939   */\n      dup3\n        /* \"#utility.yul\":13932:13944   */\n      add\n        /* \"#utility.yul\":13925:13944   */\n      swap1\n      pop\n        /* \"#utility.yul\":13584:13950   */\n      swap2\n      swap1\n      pop\n      jump\t// out\n        /* \"#utility.yul\":13956:14375   */\n    tag_147:\n        /* \"#utility.yul\":14122:14126   */\n      0x00\n        /* \"#utility.yul\":14160:14162   */\n      0x20\n        /* \"#utility.yul\":14149:14158   */\n      dup3\n        /* \"#utility.yul\":14145:14163   */\n      add\n        /* \"#utility.yul\":14137:14163   */\n      swap1\n      pop\n        /* \"#utility.yul\":14209:14218   */\n      dup2\n        /* \"#utility.yul\":14203:14207   */\n      dup2\n        /* \"#utility.yul\":14199:14219   */\n      sub\n        /* \"#utility.yul\":14195:14196   */\n      0x00\n        /* \"#utility.yul\":14184:14193   */\n      dup4\n        /* \"#utility.yul\":14180:14197   */\n      add\n        /* \"#utility.yul\":14173:14220   */\n      mstore\n        /* \"#utility.yul\":14237:14368   */\n      tag_389\n        /* \"#utility.yul\":14363:14367   */\n      dup2\n        /* \"#utility.yul\":14237:14368   */\n      tag_245\n      jump\t// in\n    tag_389:\n        /* \"#utility.yul\":14229:14368   */\n      swap1\n      pop\n        /* \"#utility.yul\":13956:14375   */\n      swap2\n      swap1\n      pop\n      jump\t// out\n        /* \"#utility.yul\":14381:14791   */\n    tag_149:\n        /* \"#utility.yul\":14421:14428   */\n      0x00\n        /* \"#utility.yul\":14444:14464   */\n      tag_391\n        /* \"#utility.yul\":14462:14463   */\n      dup3\n        /* \"#utility.yul\":14444:14464   */\n      tag_218\n      jump\t// in\n    tag_391:\n        /* \"#utility.yul\":14439:14464   */\n      swap2\n      pop\n        /* \"#utility.yul\":14478:14498   */\n      tag_392\n        /* \"#utility.yul\":14496:14497   */\n      dup4\n        /* \"#utility.yul\":14478:14498   */\n      tag_218\n      jump\t// in\n    tag_392:\n        /* \"#utility.yul\":14473:14498   */\n      swap3\n      pop\n        /* \"#utility.yul\":14533:14534   */\n      dup3\n        /* \"#utility.yul\":14530:14531   */\n      dup3\n        /* \"#utility.yul\":14526:14535   */\n      mul\n        /* \"#utility.yul\":14555:14585   */\n      tag_393\n        /* \"#utility.yul\":14573:14584   */\n      dup2\n        /* \"#utility.yul\":14555:14585   */\n      tag_218\n      jump\t// in\n    tag_393:\n        /* \"#utility.yul\":14544:14585   */\n      swap2\n      pop\n        /* \"#utility.yul\":14734:14735   */\n      dup3\n        /* \"#utility.yul\":14725:14732   */\n      dup3\n        /* \"#utility.yul\":14721:14736   */\n      div\n        /* \"#utility.yul\":14718:14719   */\n      dup5\n        /* \"#utility.yul\":14715:14737   */\n      eq\n        /* \"#utility.yul\":14695:14696   */\n      dup4\n        /* \"#utility.yul\":14688:14697   */\n      iszero\n        /* \"#utility.yul\":14668:14751   */\n      or\n        /* \"#utility.yul\":14645:14784   */\n      tag_394\n      jumpi\n        /* \"#utility.yul\":14764:14782   */\n      tag_395\n      tag_239\n      jump\t// in\n    tag_395:\n        /* \"#utility.yul\":14645:14784   */\n    tag_394:\n        /* \"#utility.yul\":14429:14791   */\n      pop\n        /* \"#utility.yul\":14381:14791   */\n      swap3\n      swap2\n      pop\n      pop\n      jump\t// out\n        /* \"#utility.yul\":14797:14967   */\n    tag_246:\n        /* \"#utility.yul\":14937:14959   */\n      0x496e73756666696369656e74207061796d656e74000000000000000000000000\n        /* \"#utility.yul\":14933:14934   */\n      0x00\n        /* \"#utility.yul\":14925:14931   */\n      dup3\n        /* \"#utility.yul\":14921:14935   */\n      add\n        /* \"#utility.yul\":14914:14960   */\n      mstore\n        /* \"#utility.yul\":14797:14967   */\n      pop\n      jump\t// out\n        /* \"#utility.yul\":14973:15339   */\n    tag_247:\n        /* \"#utility.yul\":15115:15118   */\n      0x00\n        /* \"#utility.yul\":15136:15203   */\n      tag_398\n        /* \"#utility.yul\":15200:15202   */\n      0x14\n        /* \"#utility.yul\":15195:15198   */\n      dup4\n        /* \"#utility.yul\":15136:15203   */\n      tag_232\n      jump\t// in\n    tag_398:\n        /* \"#utility.yul\":15129:15203   */\n      swap2\n      pop\n        /* \"#utility.yul\":15212:15305   */\n      tag_399\n        /* \"#utility.yul\":15301:15304   */\n      dup3\n        /* \"#utility.yul\":15212:15305   */\n      tag_246\n      jump\t// in\n    tag_399:\n        /* \"#utility.yul\":15330:15332   */\n      0x20\n        /* \"#utility.yul\":15325:15328   */\n      dup3\n        /* \"#utility.yul\":15321:15333   */\n      add\n        /* \"#utility.yul\":15314:15333   */\n      swap1\n      pop\n        /* \"#utility.yul\":14973:15339   */\n      swap2\n      swap1\n      pop\n      jump\t// out\n        /* \"#utility.yul\":15345:15764   */\n    tag_152:\n        /* \"#utility.yul\":15511:15515   */\n      0x00\n        /* \"#utility.yul\":15549:15551   */\n      0x20\n        /* \"#utility.yul\":15538:15547   */\n      dup3\n        /* \"#utility.yul\":15534:15552   */\n      add\n        /* \"#utility.yul\":15526:15552   */\n      swap1\n      pop\n        /* \"#utility.yul\":15598:15607   */\n      dup2\n        /* \"#utility.yul\":15592:15596   */\n      dup2\n        /* \"#utility.yul\":15588:15608   */\n      sub\n        /* \"#utility.yul\":15584:15585   */\n      0x00\n        /* \"#utility.yul\":15573:15582   */\n      dup4\n        /* \"#utility.yul\":15569:15586   */\n      add\n        /* \"#utility.yul\":15562:15609   */\n      mstore\n        /* \"#utility.yul\":15626:15757   */\n      tag_401\n        /* \"#utility.yul\":15752:15756   */\n      dup2\n        /* \"#utility.yul\":15626:15757   */\n      tag_247\n      jump\t// in\n    tag_401:\n        /* \"#utility.yul\":15618:15757   */\n      swap1\n      pop\n        /* \"#utility.yul\":15345:15764   */\n      swap2\n      swap1\n      pop\n      jump\t// out\n        /* \"#utility.yul\":15770:15950   */\n    tag_248:\n        /* \"#utility.yul\":15818:15895   */\n      0x4e487b7100000000000000000000000000000000000000000000000000000000\n        /* \"#utility.yul\":15815:15816   */\n      0x00\n        /* \"#utility.yul\":15808:15896   */\n      mstore\n        /* \"#utility.yul\":15915:15919   */\n      0x12\n        /* \"#utility.yul\":15912:15913   */\n      0x04\n        /* \"#utility.yul\":15905:15920   */\n      mstore\n        /* \"#utility.yul\":15939:15943   */\n      0x24\n        /* \"#utility.yul\":15936:15937   */\n      0x00\n        /* \"#utility.yul\":15929:15944   */\n      revert\n        /* \"#utility.yul\":15956:16141   */\n    tag_155:\n        /* \"#utility.yul\":15996:15997   */\n      0x00\n        /* \"#utility.yul\":16013:16033   */\n      tag_404\n        /* \"#utility.yul\":16031:16032   */\n      dup3\n        /* \"#utility.yul\":16013:16033   */\n      tag_218\n      jump\t// in\n    tag_404:\n        /* \"#utility.yul\":16008:16033   */\n      swap2\n      pop\n        /* \"#utility.yul\":16047:16067   */\n      tag_405\n        /* \"#utility.yul\":16065:16066   */\n      dup4\n        /* \"#utility.yul\":16047:16067   */\n      tag_218\n      jump\t// in\n    tag_405:\n        /* \"#utility.yul\":16042:16067   */\n      swap3\n      pop\n        /* \"#utility.yul\":16086:16087   */\n      dup3\n        /* \"#utility.yul\":16076:16111   */\n      tag_406\n      jumpi\n        /* \"#utility.yul\":16091:16109   */\n      tag_407\n      tag_248\n      jump\t// in\n    tag_407:\n        /* \"#utility.yul\":16076:16111   */\n    tag_406:\n        /* \"#utility.yul\":16133:16134   */\n      dup3\n        /* \"#utility.yul\":16130:16131   */\n      dup3\n        /* \"#utility.yul\":16126:16135   */\n      div\n        /* \"#utility.yul\":16121:16135   */\n      swap1\n      pop\n        /* \"#utility.yul\":15956:16141   */\n      swap3\n      swap2\n      pop\n      pop\n      jump\t// out\n        /* \"#utility.yul\":16147:16309   */\n    tag_249:\n        /* \"#utility.yul\":16287:16301   */\n      0x46656520746f6f20686967680000000000000000000000000000000000000000\n        /* \"#utility.yul\":16283:16284   */\n      0x00\n        /* \"#utility.yul\":16275:16281   */\n      dup3\n        /* \"#utility.yul\":16271:16285   */\n      add\n        /* \"#utility.yul\":16264:16302   */\n      mstore\n        /* \"#utility.yul\":16147:16309   */\n      pop\n      jump\t// out\n        /* \"#utility.yul\":16315:16681   */\n    tag_250:\n        /* \"#utility.yul\":16457:16460   */\n      0x00\n        /* \"#utility.yul\":16478:16545   */\n      tag_410\n        /* \"#utility.yul\":16542:16544   */\n      0x0c\n        /* \"#utility.yul\":16537:16540   */\n      dup4\n        /* \"#utility.yul\":16478:16545   */\n      tag_232\n      jump\t// in\n    tag_410:\n        /* \"#utility.yul\":16471:16545   */\n      swap2\n      pop\n        /* \"#utility.yul\":16554:16647   */\n      tag_411\n        /* \"#utility.yul\":16643:16646   */\n      dup3\n        /* \"#utility.yul\":16554:16647   */\n      tag_249\n      jump\t// in\n    tag_411:\n        /* \"#utility.yul\":16672:16674   */\n      0x20\n        /* \"#utility.yul\":16667:16670   */\n      dup3\n        /* \"#utility.yul\":16663:16675   */\n      add\n        /* \"#utility.yul\":16656:16675   */\n      swap1\n      pop\n        /* \"#utility.yul\":16315:16681   */\n      swap2\n      swap1\n      pop\n      jump\t// out\n        /* \"#utility.yul\":16687:17106   */\n    tag_182:\n        /* \"#utility.yul\":16853:16857   */\n      0x00\n        /* \"#utility.yul\":16891:16893   */\n      0x20\n        /* \"#utility.yul\":16880:16889   */\n      dup3\n        /* \"#utility.yul\":16876:16894   */\n      add\n        /* \"#utility.yul\":16868:16894   */\n      swap1\n      pop\n        /* \"#utility.yul\":16940:16949   */\n      dup2\n        /* \"#utility.yul\":16934:16938   */\n      dup2\n        /* \"#utility.yul\":16930:16950   */\n      sub\n        /* \"#utility.yul\":16926:16927   */\n      0x00\n        /* \"#utility.yul\":16915:16924   */\n      dup4\n        /* \"#utility.yul\":16911:16928   */\n      add\n        /* \"#utility.yul\":16904:16951   */\n      mstore\n        /* \"#utility.yul\":16968:17099   */\n      tag_413\n        /* \"#utility.yul\":17094:17098   */\n      dup2\n        /* \"#utility.yul\":16968:17099   */\n      tag_250\n      jump\t// in\n    tag_413:\n        /* \"#utility.yul\":16960:17099   */\n      swap1\n      pop\n        /* \"#utility.yul\":16687:17106   */\n      swap2\n      swap1\n      pop\n      jump\t// out\n        /* \"#utility.yul\":17112:17277   */\n    tag_251:\n        /* \"#utility.yul\":17252:17269   */\n      0x496e76616c696420616464726573730000000000000000000000000000000000\n        /* \"#utility.yul\":17248:17249   */\n      0x00\n        /* \"#utility.yul\":17240:17246   */\n      dup3\n        /* \"#utility.yul\":17236:17250   */\n      add\n        /* \"#utility.yul\":17229:17270   */\n      mstore\n        /* \"#utility.yul\":17112:17277   */\n      pop\n      jump\t// out\n        /* \"#utility.yul\":17283:17649   */\n    tag_252:\n        /* \"#utility.yul\":17425:17428   */\n      0x00\n        /* \"#utility.yul\":17446:17513   */\n      tag_416\n        /* \"#utility.yul\":17510:17512   */\n      0x0f\n        /* \"#utility.yul\":17505:17508   */\n      dup4\n        /* \"#utility.yul\":17446:17513   */\n      tag_232\n      jump\t// in\n    tag_416:\n        /* \"#utility.yul\":17439:17513   */\n      swap2\n      pop\n        /* \"#utility.yul\":17522:17615   */\n      tag_417\n        /* \"#utility.yul\":17611:17614   */\n      dup3\n        /* \"#utility.yul\":17522:17615   */\n      tag_251\n      jump\t// in\n    tag_417:\n        /* \"#utility.yul\":17640:17642   */\n      0x20\n        /* \"#utility.yul\":17635:17638   */\n      dup3\n        /* \"#utility.yul\":17631:17643   */\n      add\n        /* \"#utility.yul\":17624:17643   */\n      swap1\n      pop\n        /* \"#utility.yul\":17283:17649   */\n      swap2\n      swap1\n      pop\n      jump\t// out\n        /* \"#utility.yul\":17655:18074   */\n    tag_189:\n        /* \"#utility.yul\":17821:17825   */\n      0x00\n        /* \"#utility.yul\":17859:17861   */\n      0x20\n        /* \"#utility.yul\":17848:17857   */\n      dup3\n        /* \"#utility.yul\":17844:17862   */\n      add\n        /* \"#utility.yul\":17836:17862   */\n      swap1\n      pop\n        /* \"#utility.yul\":17908:17917   */\n      dup2\n        /* \"#utility.yul\":17902:17906   */\n      dup2\n        /* \"#utility.yul\":17898:17918   */\n      sub\n        /* \"#utility.yul\":17894:17895   */\n      0x00\n        /* \"#utility.yul\":17883:17892   */\n      dup4\n        /* \"#utility.yul\":17879:17896   */\n      add\n        /* \"#utility.yul\":17872:17919   */\n      mstore\n        /* \"#utility.yul\":17936:18067   */\n      tag_419\n        /* \"#utility.yul\":18062:18066   */\n      dup2\n        /* \"#utility.yul\":17936:18067   */\n      tag_252\n      jump\t// in\n    tag_419:\n        /* \"#utility.yul\":17928:18067   */\n      swap1\n      pop\n        /* \"#utility.yul\":17655:18074   */\n      swap2\n      swap1\n      pop\n      jump\t// out\n        /* \"#utility.yul\":18080:18261   */\n    tag_253:\n        /* \"#utility.yul\":18220:18253   */\n      0x5265656e7472616e637947756172643a207265656e7472616e742063616c6c00\n        /* \"#utility.yul\":18216:18217   */\n      0x00\n        /* \"#utility.yul\":18208:18214   */\n      dup3\n        /* \"#utility.yul\":18204:18218   */\n      add\n        /* \"#utility.yul\":18197:18254   */\n      mstore\n        /* \"#utility.yul\":18080:18261   */\n      pop\n      jump\t// out\n        /* \"#utility.yul\":18267:18633   */\n    tag_254:\n        /* \"#utility.yul\":18409:18412   */\n      0x00\n        /* \"#utility.yul\":18430:18497   */\n      tag_422\n        /* \"#utility.yul\":18494:18496   */\n      0x1f\n        /* \"#utility.yul\":18489:18492   */\n      dup4\n        /* \"#utility.yul\":18430:18497   */\n      tag_232\n      jump\t// in\n    tag_422:\n        /* \"#utility.yul\":18423:18497   */\n      swap2\n      pop\n        /* \"#utility.yul\":18506:18599   */\n      tag_423\n        /* \"#utility.yul\":18595:18598   */\n      dup3\n        /* \"#utility.yul\":18506:18599   */\n      tag_253\n      jump\t// in\n    tag_423:\n        /* \"#utility.yul\":18624:18626   */\n      0x20\n        /* \"#utility.yul\":18619:18622   */\n      dup3\n        /* \"#utility.yul\":18615:18627   */\n      add\n        /* \"#utility.yul\":18608:18627   */\n      swap1\n      pop\n        /* \"#utility.yul\":18267:18633   */\n      swap2\n      swap1\n      pop\n      jump\t// out\n        /* \"#utility.yul\":18639:19058   */\n    tag_208:\n        /* \"#utility.yul\":18805:18809   */\n      0x00\n        /* \"#utility.yul\":18843:18845   */\n      0x20\n        /* \"#utility.yul\":18832:18841   */\n      dup3\n        /* \"#utility.yul\":18828:18846   */\n      add\n        /* \"#utility.yul\":18820:18846   */\n      swap1\n      pop\n        /* \"#utility.yul\":18892:18901   */\n      dup2\n        /* \"#utility.yul\":18886:18890   */\n      dup2\n        /* \"#utility.yul\":18882:18902   */\n      sub\n        /* \"#utility.yul\":18878:18879   */\n      0x00\n        /* \"#utility.yul\":18867:18876   */\n      dup4\n        /* \"#utility.yul\":18863:18880   */\n      add\n        /* \"#utility.yul\":18856:18903   */\n      mstore\n        /* \"#utility.yul\":18920:19051   */\n      tag_425\n        /* \"#utility.yul\":19046:19050   */\n      dup2\n        /* \"#utility.yul\":18920:19051   */\n      tag_254\n      jump\t// in\n    tag_425:\n        /* \"#utility.yul\":18912:19051   */\n      swap1\n      pop\n        /* \"#utility.yul\":18639:19058   */\n      swap2\n      swap1\n      pop\n      jump\t// out\n\n    auxdata: 0xa2646970667358221220fd60442b7bdded69345db7e00dd5a4089dc4e411da117cf0b2f615dfecd6c0a764736f6c634300081d0033\n}\n",
				"bytecode": {
					"linkReferences": {},
					"object": "608060405234801561000f575f5ffd5b50604051611d84380380611d848339818101604052810190610031919061025c565b8060015f819055505f73ffffffffffffffffffffffffffffffffffffffff168173ffffffffffffffffffffffffffffffffffffffff16036100a9575f6040517f1e4fbdf70000000000000000000000000000000000000000000000000000000081526004016100a091906102bb565b60405180910390fd5b6100b88161010860201b60201c565b50826002819055508160035f6101000a81548173ffffffffffffffffffffffffffffffffffffffff021916908373ffffffffffffffffffffffffffffffffffffffff1602179055505050506102d4565b5f60015f9054906101000a900473ffffffffffffffffffffffffffffffffffffffff1690508160015f6101000a81548173ffffffffffffffffffffffffffffffffffffffff021916908373ffffffffffffffffffffffffffffffffffffffff1602179055508173ffffffffffffffffffffffffffffffffffffffff168173ffffffffffffffffffffffffffffffffffffffff167f8be0079c531659141344cd1fd0a4f28419497f9722a3daafe3b4186f6b6457e060405160405180910390a35050565b5f5ffd5b5f819050919050565b6101e1816101cf565b81146101eb575f5ffd5b50565b5f815190506101fc816101d8565b92915050565b5f73ffffffffffffffffffffffffffffffffffffffff82169050919050565b5f61022b82610202565b9050919050565b61023b81610221565b8114610245575f5ffd5b50565b5f8151905061025681610232565b92915050565b5f5f5f60608486031215610273576102726101cb565b5b5f610280868287016101ee565b935050602061029186828701610248565b92505060406102a286828701610248565b9150509250925092565b6102b581610221565b82525050565b5f6020820190506102ce5f8301846102ac565b92915050565b611aa3806102e15f395ff3fe6080604052600436106100a6575f3560e01c80638da5cb5b116100635780638da5cb5b14610194578063cdd78cfc146101be578063de74e57b146101e8578063e483015314610228578063f160d36914610250578063f2fde38b14610278576100a6565b806324780c56146100aa578063305a67a8146100e6578063469048401461010e578063715018a61461013857806387c35bc01461014e5780638bf0af3e14610178575b5f5ffd5b3480156100b5575f5ffd5b506100d060048036038101906100cb91906111a2565b6102a0565b6040516100dd9190611201565b60405180910390f35b3480156100f1575f5ffd5b5061010c6004803603810190610107919061121a565b610568565b005b348015610119575f5ffd5b5061012261077c565b60405161012f9190611254565b60405180910390f35b348015610143575f5ffd5b5061014c6107a1565b005b348015610159575f5ffd5b506101626107b4565b60405161016f9190611324565b60405180910390f35b610192600480360381019061018d9190611344565b6108fb565b005b34801561019f575f5ffd5b506101a8610caf565b6040516101b59190611254565b60405180910390f35b3480156101c9575f5ffd5b506101d2610cd7565b6040516101df9190611201565b60405180910390f35b3480156101f3575f5ffd5b5061020e6004803603810190610209919061121a565b610cdd565b60405161021f95949392919061139c565b60405180910390f35b348015610233575f5ffd5b5061024e6004803603810190610249919061121a565b610d68565b005b34801561025b575f5ffd5b50610276600480360381019061027191906113ed565b610df6565b005b348015610283575f5ffd5b5061029e600480360381019061029991906113ed565b610ee6565b005b5f5f83116102e3576040517f08c379a00000000000000000000000000000000000000000000000000000000081526004016102da90611498565b60405180910390fd5b5f8211610325576040517f08c379a000000000000000000000000000000000000000000000000000000000815260040161031c90611500565b60405180910390fd5b8373ffffffffffffffffffffffffffffffffffffffff166323b872dd3330866040518463ffffffff1660e01b81526004016103629392919061151e565b6020604051808303815f875af115801561037e573d5f5f3e3d5ffd5b505050506040513d601f19601f820116820180604052508101906103a2919061157d565b5060046040518060a001604052803373ffffffffffffffffffffffffffffffffffffffff1681526020018673ffffffffffffffffffffffffffffffffffffffff16815260200185815260200184815260200160011515815250908060018154018082558091505060019003905f5260205f2090600502015f909190919091505f820151815f015f6101000a81548173ffffffffffffffffffffffffffffffffffffffff021916908373ffffffffffffffffffffffffffffffffffffffff1602179055506020820151816001015f6101000a81548173ffffffffffffffffffffffffffffffffffffffff021916908373ffffffffffffffffffffffffffffffffffffffff16021790555060408201518160020155606082015181600301556080820151816004015f6101000a81548160ff02191690831515021790555050505f60016004805490506104f391906115d5565b90508473ffffffffffffffffffffffffffffffffffffffff163373ffffffffffffffffffffffffffffffffffffffff16827f508c75a3cb42c068e54cf9e0b738921b4e2375725c5965ef4a110475606fc05a8787604051610555929190611608565b60405180910390a4809150509392505050565b5f6004828154811061057d5761057c61162f565b5b905f5260205f20906005020190503373ffffffffffffffffffffffffffffffffffffffff16815f015f9054906101000a900473ffffffffffffffffffffffffffffffffffffffff1673ffffffffffffffffffffffffffffffffffffffff161461061b576040517f08c379a0000000000000000000000000000000000000000000000000000000008152600401610612906116a6565b60405180910390fd5b806004015f9054906101000a900460ff1661066b576040517f08c379a00000000000000000000000000000000000000000000000000000000081526004016106629061170e565b60405180910390fd5b5f816004015f6101000a81548160ff021916908315150217905550806001015f9054906101000a900473ffffffffffffffffffffffffffffffffffffffff1673ffffffffffffffffffffffffffffffffffffffff1663a9059cbb825f015f9054906101000a900473ffffffffffffffffffffffffffffffffffffffff1683600201546040518363ffffffff1660e01b815260040161070a92919061172c565b6020604051808303815f875af1158015610726573d5f5f3e3d5ffd5b505050506040513d601f19601f8201168201806040525081019061074a919061157d565b50817f411aee90354c51b1b04cd563fcab2617142a9d50da19232d888547c8a1b7fd8a60405160405180910390a25050565b60035f9054906101000a900473ffffffffffffffffffffffffffffffffffffffff1681565b6107a9610f6a565b6107b25f610ff1565b565b60605f5f90505f5f90505b60048054905081101561081d57600481815481106107e0576107df61162f565b5b905f5260205f2090600502016004015f9054906101000a900460ff161561081057818061080c90611753565b9250505b80806001019150506107bf565b505f8167ffffffffffffffff8111156108395761083861179a565b5b6040519080825280602002602001820160405280156108675781602001602082028036833780820191505090505b5090505f5f90505f5f90505b6004805490508110156108f157600481815481106108945761089361162f565b5b905f5260205f2090600502016004015f9054906101000a900460ff16156108e457808383815181106108c9576108c861162f565b5b60200260200101818152505081806108e090611753565b9250505b8080600101915050610873565b5081935050505090565b6109036110b4565b5f600483815481106109185761091761162f565b5b905f5260205f2090600502019050806004015f9054906101000a900460ff16610976576040517f08c379a000000000000000000000000000000000000000000000000000000000815260040161096d9061170e565b60405180910390fd5b5f82118015610989575080600201548211155b6109c8576040517f08c379a00000000000000000000000000000000000000000000000000000000081526004016109bf90611811565b60405180910390fd5b5f8160030154836109d9919061182f565b905080341015610a1e576040517f08c379a0000000000000000000000000000000000000000000000000000000008152600401610a15906118ba565b60405180910390fd5b5f61271060025483610a30919061182f565b610a3a9190611905565b90505f8183610a4991906115d5565b905084846002015f828254610a5e91906115d5565b925050819055505f846002015403610a8c575f846004015f6101000a81548160ff0219169083151502179055505b836001015f9054906101000a900473ffffffffffffffffffffffffffffffffffffffff1673ffffffffffffffffffffffffffffffffffffffff1663a9059cbb33876040518363ffffffff1660e01b8152600401610aea92919061172c565b6020604051808303815f875af1158015610b06573d5f5f3e3d5ffd5b505050506040513d601f19601f82011682018060405250810190610b2a919061157d565b50835f015f9054906101000a900473ffffffffffffffffffffffffffffffffffffffff1673ffffffffffffffffffffffffffffffffffffffff166108fc8290811502906040515f60405180830381858888f19350505050158015610b90573d5f5f3e3d5ffd5b5060035f9054906101000a900473ffffffffffffffffffffffffffffffffffffffff1673ffffffffffffffffffffffffffffffffffffffff166108fc8390811502906040515f60405180830381858888f19350505050158015610bf5573d5f5f3e3d5ffd5b5082341115610c4e573373ffffffffffffffffffffffffffffffffffffffff166108fc8434610c2491906115d5565b90811502906040515f60405180830381858888f19350505050158015610c4c573d5f5f3e3d5ffd5b505b3373ffffffffffffffffffffffffffffffffffffffff16867f0db6cd6881fc0453b2d01f52eb5a16417707659f245732abc10f847426e3525d8786604051610c97929190611608565b60405180910390a350505050610cab611101565b5050565b5f60015f9054906101000a900473ffffffffffffffffffffffffffffffffffffffff16905090565b60025481565b60048181548110610cec575f80fd5b905f5260205f2090600502015f91509050805f015f9054906101000a900473ffffffffffffffffffffffffffffffffffffffff1690806001015f9054906101000a900473ffffffffffffffffffffffffffffffffffffffff1690806002015490806003015490806004015f9054906101000a900460ff16905085565b610d70610f6a565b6103e8811115610db5576040517f08c379a0000000000000000000000000000000000000000000000000000000008152600401610dac9061197f565b60405180910390fd5b806002819055507f45610d581145924dd7090a5017e5f2b1d6f42213bb2e95707ff86846bbfcb1ca81604051610deb9190611201565b60405180910390a150565b610dfe610f6a565b5f73ffffffffffffffffffffffffffffffffffffffff168173ffffffffffffffffffffffffffffffffffffffff1603610e6c576040517f08c379a0000000000000000000000000000000000000000000000000000000008152600401610e63906119e7565b60405180910390fd5b8060035f6101000a81548173ffffffffffffffffffffffffffffffffffffffff021916908373ffffffffffffffffffffffffffffffffffffffff1602179055507f7a7b5a0a132f9e0581eb8527f66eae9ee89c2a3e79d4ac7e41a1f1f4d48a7fc281604051610edb9190611254565b60405180910390a150565b610eee610f6a565b5f73ffffffffffffffffffffffffffffffffffffffff168173ffffffffffffffffffffffffffffffffffffffff1603610f5e575f6040517f1e4fbdf7000000000000000000000000000000000000000000000000000000008152600401610f559190611254565b60405180910390fd5b610f6781610ff1565b50565b610f7261110a565b73ffffffffffffffffffffffffffffffffffffffff16610f90610caf565b73ffffffffffffffffffffffffffffffffffffffff1614610fef57610fb361110a565b6040517f118cdaa7000000000000000000000000000000000000000000000000000000008152600401610fe69190611254565b60405180910390fd5b565b5f60015f9054906101000a900473ffffffffffffffffffffffffffffffffffffffff1690508160015f6101000a81548173ffffffffffffffffffffffffffffffffffffffff021916908373ffffffffffffffffffffffffffffffffffffffff1602179055508173ffffffffffffffffffffffffffffffffffffffff168173ffffffffffffffffffffffffffffffffffffffff167f8be0079c531659141344cd1fd0a4f28419497f9722a3daafe3b4186f6b6457e060405160405180910390a35050565b60025f54036110f8576040517f08c379a00000000000000000000000000000000000000000000000000000000081526004016110ef90611a4f565b60405180910390fd5b60025f81905550565b60015f81905550565b5f33905090565b5f5ffd5b5f73ffffffffffffffffffffffffffffffffffffffff82169050919050565b5f61113e82611115565b9050919050565b61114e81611134565b8114611158575f5ffd5b50565b5f8135905061116981611145565b92915050565b5f819050919050565b6111818161116f565b811461118b575f5ffd5b50565b5f8135905061119c81611178565b92915050565b5f5f5f606084860312156111b9576111b8611111565b5b5f6111c68682870161115b565b93505060206111d78682870161118e565b92505060406111e88682870161118e565b9150509250925092565b6111fb8161116f565b82525050565b5f6020820190506112145f8301846111f2565b92915050565b5f6020828403121561122f5761122e611111565b5b5f61123c8482850161118e565b91505092915050565b61124e81611134565b82525050565b5f6020820190506112675f830184611245565b92915050565b5f81519050919050565b5f82825260208201905092915050565b5f819050602082019050919050565b61129f8161116f565b82525050565b5f6112b08383611296565b60208301905092915050565b5f602082019050919050565b5f6112d28261126d565b6112dc8185611277565b93506112e783611287565b805f5b838110156113175781516112fe88826112a5565b9750611309836112bc565b9250506001810190506112ea565b5085935050505092915050565b5f6020820190508181035f83015261133c81846112c8565b905092915050565b5f5f6040838503121561135a57611359611111565b5b5f6113678582860161118e565b92505060206113788582860161118e565b9150509250929050565b5f8115159050919050565b61139681611382565b82525050565b5f60a0820190506113af5f830188611245565b6113bc6020830187611245565b6113c960408301866111f2565b6113d660608301856111f2565b6113e3608083018461138d565b9695505050505050565b5f6020828403121561140257611401611111565b5b5f61140f8482850161115b565b91505092915050565b5f82825260208201905092915050565b7f546f6b656e20616d6f756e74206d7573742062652067726561746572207468615f8201527f6e20300000000000000000000000000000000000000000000000000000000000602082015250565b5f611482602383611418565b915061148d82611428565b604082019050919050565b5f6020820190508181035f8301526114af81611476565b9050919050565b7f5072696365206d7573742062652067726561746572207468616e2030000000005f82015250565b5f6114ea601c83611418565b91506114f5826114b6565b602082019050919050565b5f6020820190508181035f830152611517816114de565b9050919050565b5f6060820190506115315f830186611245565b61153e6020830185611245565b61154b60408301846111f2565b949350505050565b61155c81611382565b8114611566575f5ffd5b50565b5f8151905061157781611553565b92915050565b5f6020828403121561159257611591611111565b5b5f61159f84828501611569565b91505092915050565b7f4e487b71000000000000000000000000000000000000000000000000000000005f52601160045260245ffd5b5f6115df8261116f565b91506115ea8361116f565b9250828203905081811115611602576116016115a8565b5b92915050565b5f60408201905061161b5f8301856111f2565b61162860208301846111f2565b9392505050565b7f4e487b71000000000000000000000000000000000000000000000000000000005f52603260045260245ffd5b7f4e6f74207468652073656c6c65720000000000000000000000000000000000005f82015250565b5f611690600e83611418565b915061169b8261165c565b602082019050919050565b5f6020820190508181035f8301526116bd81611684565b9050919050565b7f4c697374696e67206e6f742061637469766500000000000000000000000000005f82015250565b5f6116f8601283611418565b9150611703826116c4565b602082019050919050565b5f6020820190508181035f830152611725816116ec565b9050919050565b5f60408201905061173f5f830185611245565b61174c60208301846111f2565b9392505050565b5f61175d8261116f565b91507fffffffffffffffffffffffffffffffffffffffffffffffffffffffffffffffff820361178f5761178e6115a8565b5b600182019050919050565b7f4e487b71000000000000000000000000000000000000000000000000000000005f52604160045260245ffd5b7f496e76616c696420616d6f756e740000000000000000000000000000000000005f82015250565b5f6117fb600e83611418565b9150611806826117c7565b602082019050919050565b5f6020820190508181035f830152611828816117ef565b9050919050565b5f6118398261116f565b91506118448361116f565b92508282026118528161116f565b91508282048414831517611869576118686115a8565b5b5092915050565b7f496e73756666696369656e74207061796d656e740000000000000000000000005f82015250565b5f6118a4601483611418565b91506118af82611870565b602082019050919050565b5f6020820190508181035f8301526118d181611898565b9050919050565b7f4e487b71000000000000000000000000000000000000000000000000000000005f52601260045260245ffd5b5f61190f8261116f565b915061191a8361116f565b92508261192a576119296118d8565b5b828204905092915050565b7f46656520746f6f206869676800000000000000000000000000000000000000005f82015250565b5f611969600c83611418565b915061197482611935565b602082019050919050565b5f6020820190508181035f8301526119968161195d565b9050919050565b7f496e76616c6964206164647265737300000000000000000000000000000000005f82015250565b5f6119d1600f83611418565b91506119dc8261199d565b602082019050919050565b5f6020820190508181035f8301526119fe816119c5565b9050919050565b7f5265656e7472616e637947756172643a207265656e7472616e742063616c6c005f82015250565b5f611a39601f83611418565b9150611a4482611a05565b602082019050919050565b5f6020820190508181035f830152611a6681611a2d565b905091905056fea2646970667358221220fd60442b7bdded69345db7e00dd5a4089dc4e411da117cf0b2f615dfecd6c0a764736f6c634300081d0033",
					"opcodes": "PUSH1 0x80 PUSH1 0x40 MSTORE CALLVALUE DUP1 ISZERO PUSH2 0xF JUMPI PUSH0 PUSH0 REVERT JUMPDEST POP PUSH1 0x40 MLOAD PUSH2 0x1D84 CODESIZE SUB DUP1 PUSH2 0x1D84 DUP4 CODECOPY DUP2 DUP2 ADD PUSH1 0x40 MSTORE DUP2 ADD SWAP1 PUSH2 0x31 SWAP2 SWAP1 PUSH2 0x25C JUMP JUMPDEST DUP1 PUSH1 0x1 PUSH0 DUP2 SWAP1 SSTORE POP PUSH0 PUSH20 0xFFFFFFFFFFFFFFFFFFFFFFFFFFFFFFFFFFFFFFFF AND DUP2 PUSH20 0xFFFFFFFFFFFFFFFFFFFFFFFFFFFFFFFFFFFFFFFF AND SUB PUSH2 0xA9 JUMPI PUSH0 PUSH1 0x40 MLOAD PUSH32 0x1E4FBDF700000000000000000000000000000000000000000000000000000000 DUP2 MSTORE PUSH1 0x4 ADD PUSH2 0xA0 SWAP2 SWAP1 PUSH2 0x2BB JUMP JUMPDEST PUSH1 0x40 MLOAD DUP1 SWAP2 SUB SWAP1 REVERT JUMPDEST PUSH2 0xB8 DUP2 PUSH2 0x108 PUSH1 0x20 SHL PUSH1 0x20 SHR JUMP JUMPDEST POP DUP3 PUSH1 0x2 DUP2 SWAP1 SSTORE POP DUP2 PUSH1 0x3 PUSH0 PUSH2 0x100 EXP DUP2 SLOAD DUP2 PUSH20 0xFFFFFFFFFFFFFFFFFFFFFFFFFFFFFFFFFFFFFFFF MUL NOT AND SWAP1 DUP4 PUSH20 0xFFFFFFFFFFFFFFFFFFFFFFFFFFFFFFFFFFFFFFFF AND MUL OR SWAP1 SSTORE POP POP POP POP PUSH2 0x2D4 JUMP JUMPDEST PUSH0 PUSH1 0x1 PUSH0 SWAP1 SLOAD SWAP1 PUSH2 0x100 EXP SWAP1 DIV PUSH20 0xFFFFFFFFFFFFFFFFFFFFFFFFFFFFFFFFFFFFFFFF AND SWAP1 POP DUP2 PUSH1 0x1 PUSH0 PUSH2 0x100 EXP DUP2 SLOAD DUP2 PUSH20 0xFFFFFFFFFFFFFFFFFFFFFFFFFFFFFFFFFFFFFFFF MUL NOT AND SWAP1 DUP4 PUSH20 0xFFFFFFFFFFFFFFFFFFFFFFFFFFFFFFFFFFFFFFFF AND MUL OR SWAP1 SSTORE POP DUP2 PUSH20 0xFFFFFFFFFFFFFFFFFFFFFFFFFFFFFFFFFFFFFFFF AND DUP2 PUSH20 0xFFFFFFFFFFFFFFFFFFFFFFFFFFFFFFFFFFFFFFFF AND PUSH32 0x8BE0079C531659141344CD1FD0A4F28419497F9722A3DAAFE3B4186F6B6457E0 PUSH1 0x40 MLOAD PUSH1 0x40 MLOAD DUP1 SWAP2 SUB SWAP1 LOG3 POP POP JUMP JUMPDEST PUSH0 PUSH0 REVERT JUMPDEST PUSH0 DUP2 SWAP1 POP SWAP2 SWAP1 POP JUMP JUMPDEST PUSH2 0x1E1 DUP2 PUSH2 0x1CF JUMP JUMPDEST DUP2 EQ PUSH2 0x1EB JUMPI PUSH0 PUSH0 REVERT JUMPDEST POP JUMP JUMPDEST PUSH0 DUP2 MLOAD SWAP1 POP PUSH2 0x1FC DUP2 PUSH2 0x1D8 JUMP JUMPDEST SWAP3 SWAP2 POP POP JUMP JUMPDEST PUSH0 PUSH20 0xFFFFFFFFFFFFFFFFFFFFFFFFFFFFFFFFFFFFFFFF DUP3 AND SWAP1 POP SWAP2 SWAP1 POP JUMP JUMPDEST PUSH0 PUSH2 0x22B DUP3 PUSH2 0x202 JUMP JUMPDEST SWAP1 POP SWAP2 SWAP1 POP JUMP JUMPDEST PUSH2 0x23B DUP2 PUSH2 0x221 JUMP JUMPDEST DUP2 EQ PUSH2 0x245 JUMPI PUSH0 PUSH0 REVERT JUMPDEST POP JUMP JUMPDEST PUSH0 DUP2 MLOAD SWAP1 POP PUSH2 0x256 DUP2 PUSH2 0x232 JUMP JUMPDEST SWAP3 SWAP2 POP POP JUMP JUMPDEST PUSH0 PUSH0 PUSH0 PUSH1 0x60 DUP5 DUP7 SUB SLT ISZERO PUSH2 0x273 JUMPI PUSH2 0x272 PUSH2 0x1CB JUMP JUMPDEST JUMPDEST PUSH0 PUSH2 0x280 DUP7 DUP3 DUP8 ADD PUSH2 0x1EE JUMP JUMPDEST SWAP4 POP POP PUSH1 0x20 PUSH2 0x291 DUP7 DUP3 DUP8 ADD PUSH2 0x248 JUMP JUMPDEST SWAP3 POP POP PUSH1 0x40 PUSH2 0x2A2 DUP7 DUP3 DUP8 ADD PUSH2 0x248 JUMP JUMPDEST SWAP2 POP POP SWAP3 POP SWAP3 POP SWAP3 JUMP JUMPDEST PUSH2 0x2B5 DUP2 PUSH2 0x221 JUMP JUMPDEST DUP3 MSTORE POP POP JUMP JUMPDEST PUSH0 PUSH1 0x20 DUP3 ADD SWAP1 POP PUSH2 0x2CE PUSH0 DUP4 ADD DUP5 PUSH2 0x2AC JUMP JUMPDEST SWAP3 SWAP2 POP POP JUMP JUMPDEST PUSH2 0x1AA3 DUP1 PUSH2 0x2E1 PUSH0 CODECOPY PUSH0 RETURN INVALID PUSH1 0x80 PUSH1 0x40 MSTORE PUSH1 0x4 CALLDATASIZE LT PUSH2 0xA6 JUMPI PUSH0 CALLDATALOAD PUSH1 0xE0 SHR DUP1 PUSH4 0x8DA5CB5B GT PUSH2 0x63 JUMPI DUP1 PUSH4 0x8DA5CB5B EQ PUSH2 0x194 JUMPI DUP1 PUSH4 0xCDD78CFC EQ PUSH2 0x1BE JUMPI DUP1 PUSH4 0xDE74E57B EQ PUSH2 0x1E8 JUMPI DUP1 PUSH4 0xE4830153 EQ PUSH2 0x228 JUMPI DUP1 PUSH4 0xF160D369 EQ PUSH2 0x250 JUMPI DUP1 PUSH4 0xF2FDE38B EQ PUSH2 0x278 JUMPI PUSH2 0xA6 JUMP JUMPDEST DUP1 PUSH4 0x24780C56 EQ PUSH2 0xAA JUMPI DUP1 PUSH4 0x305A67A8 EQ PUSH2 0xE6 JUMPI DUP1 PUSH4 0x46904840 EQ PUSH2 0x10E JUMPI DUP1 PUSH4 0x715018A6 EQ PUSH2 0x138 JUMPI DUP1 PUSH4 0x87C35BC0 EQ PUSH2 0x14E JUMPI DUP1 PUSH4 0x8BF0AF3E EQ PUSH2 0x178 JUMPI JUMPDEST PUSH0 PUSH0 REVERT JUMPDEST CALLVALUE DUP1 ISZERO PUSH2 0xB5 JUMPI PUSH0 PUSH0 REVERT JUMPDEST POP PUSH2 0xD0 PUSH1 0x4 DUP1 CALLDATASIZE SUB DUP2 ADD SWAP1 PUSH2 0xCB SWAP2 SWAP1 PUSH2 0x11A2 JUMP JUMPDEST PUSH2 0x2A0 JUMP JUMPDEST PUSH1 0x40 MLOAD PUSH2 0xDD SWAP2 SWAP1 PUSH2 0x1201 JUMP JUMPDEST PUSH1 0x40 MLOAD DUP1 SWAP2 SUB SWAP1 RETURN JUMPDEST CALLVALUE DUP1 ISZERO PUSH2 0xF1 JUMPI PUSH0 PUSH0 REVERT JUMPDEST POP PUSH2 0x10C PUSH1 0x4 DUP1 CALLDATASIZE SUB DUP2 ADD SWAP1 PUSH2 0x107 SWAP2 SWAP1 PUSH2 0x121A JUMP JUMPDEST PUSH2 0x568 JUMP JUMPDEST STOP JUMPDEST CALLVALUE DUP1 ISZERO PUSH2 0x119 JUMPI PUSH0 PUSH0 REVERT JUMPDEST POP PUSH2 0x122 PUSH2 0x77C JUMP JUMPDEST PUSH1 0x40 MLOAD PUSH2 0x12F SWAP2 SWAP1 PUSH2 0x1254 JUMP JUMPDEST PUSH1 0x40 MLOAD DUP1 SWAP2 SUB SWAP1 RETURN JUMPDEST CALLVALUE DUP1 ISZERO PUSH2 0x143 JUMPI PUSH0 PUSH0 REVERT JUMPDEST POP PUSH2 0x14C PUSH2 0x7A1 JUMP JUMPDEST STOP JUMPDEST CALLVALUE DUP1 ISZERO PUSH2 0x159 JUMPI PUSH0 PUSH0 REVERT JUMPDEST POP PUSH2 0x162 PUSH2 0x7B4 JUMP JUMPDEST PUSH1 0x40 MLOAD PUSH2 0x16F SWAP2 SWAP1 PUSH2 0x1324 JUMP JUMPDEST PUSH1 0x40 MLOAD DUP1 SWAP2 SUB SWAP1 RETURN JUMPDEST PUSH2 0x192 PUSH1 0x4 DUP1 CALLDATASIZE SUB DUP2 ADD SWAP1 PUSH2 0x18D SWAP2 SWAP1 PUSH2 0x1344 JUMP JUMPDEST PUSH2 0x8FB JUMP JUMPDEST STOP JUMPDEST CALLVALUE DUP1 ISZERO PUSH2 0x19F JUMPI PUSH0 PUSH0 REVERT JUMPDEST POP PUSH2 0x1A8 PUSH2 0xCAF JUMP JUMPDEST PUSH1 0x40 MLOAD PUSH2 0x1B5 SWAP2 SWAP1 PUSH2 0x1254 JUMP JUMPDEST PUSH1 0x40 MLOAD DUP1 SWAP2 SUB SWAP1 RETURN JUMPDEST CALLVALUE DUP1 ISZERO PUSH2 0x1C9 JUMPI PUSH0 PUSH0 REVERT JUMPDEST POP PUSH2 0x1D2 PUSH2 0xCD7 JUMP JUMPDEST PUSH1 0x40 MLOAD PUSH2 0x1DF SWAP2 SWAP1 PUSH2 0x1201 JUMP JUMPDEST PUSH1 0x40 MLOAD DUP1 SWAP2 SUB SWAP1 RETURN JUMPDEST CALLVALUE DUP1 ISZERO PUSH2 0x1F3 JUMPI PUSH0 PUSH0 REVERT JUMPDEST POP PUSH2 0x20E PUSH1 0x4 DUP1 CALLDATASIZE SUB DUP2 ADD SWAP1 PUSH2 0x209 SWAP2 SWAP1 PUSH2 0x121A JUMP JUMPDEST PUSH2 0xCDD JUMP JUMPDEST PUSH1 0x40 MLOAD PUSH2 0x21F SWAP6 SWAP5 SWAP4 SWAP3 SWAP2 SWAP1 PUSH2 0x139C JUMP JUMPDEST PUSH1 0x40 MLOAD DUP1 SWAP2 SUB SWAP1 RETURN JUMPDEST CALLVALUE DUP1 ISZERO PUSH2 0x233 JUMPI PUSH0 PUSH0 REVERT JUMPDEST POP PUSH2 0x24E PUSH1 0x4 DUP1 CALLDATASIZE SUB DUP2 ADD SWAP1 PUSH2 0x249 SWAP2 SWAP1 PUSH2 0x121A JUMP JUMPDEST PUSH2 0xD68 JUMP JUMPDEST STOP JUMPDEST CALLVALUE DUP1 ISZERO PUSH2 0x25B JUMPI PUSH0 PUSH0 REVERT JUMPDEST POP PUSH2 0x276 PUSH1 0x4 DUP1 CALLDATASIZE SUB DUP2 ADD SWAP1 PUSH2 0x271 SWAP2 SWAP1 PUSH2 0x13ED JUMP JUMPDEST PUSH2 0xDF6 JUMP JUMPDEST STOP JUMPDEST CALLVALUE DUP1 ISZERO PUSH2 0x283 JUMPI PUSH0 PUSH0 REVERT JUMPDEST POP PUSH2 0x29E PUSH1 0x4 DUP1 CALLDATASIZE SUB DUP2 ADD SWAP1 PUSH2 0x299 SWAP2 SWAP1 PUSH2 0x13ED JUMP JUMPDEST PUSH2 0xEE6 JUMP JUMPDEST STOP JUMPDEST PUSH0 PUSH0 DUP4 GT PUSH2 0x2E3 JUMPI PUSH1 0x40 MLOAD PUSH32 0x8C379A000000000000000000000000000000000000000000000000000000000 DUP2 MSTORE PUSH1 0x4 ADD PUSH2 0x2DA SWAP1 PUSH2 0x1498 JUMP JUMPDEST PUSH1 0x40 MLOAD DUP1 SWAP2 SUB SWAP1 REVERT JUMPDEST PUSH0 DUP3 GT PUSH2 0x325 JUMPI PUSH1 0x40 MLOAD PUSH32 0x8C379A000000000000000000000000000000000000000000000000000000000 DUP2 MSTORE PUSH1 0x4 ADD PUSH2 0x31C SWAP1 PUSH2 0x1500 JUMP JUMPDEST PUSH1 0x40 MLOAD DUP1 SWAP2 SUB SWAP1 REVERT JUMPDEST DUP4 PUSH20 0xFFFFFFFFFFFFFFFFFFFFFFFFFFFFFFFFFFFFFFFF AND PUSH4 0x23B872DD CALLER ADDRESS DUP7 PUSH1 0x40 MLOAD DUP5 PUSH4 0xFFFFFFFF AND PUSH1 0xE0 SHL DUP2 MSTORE PUSH1 0x4 ADD PUSH2 0x362 SWAP4 SWAP3 SWAP2 SWAP1 PUSH2 0x151E JUMP JUMPDEST PUSH1 0x20 PUSH1 0x40 MLOAD DUP1 DUP4 SUB DUP2 PUSH0 DUP8 GAS CALL ISZERO DUP1 ISZERO PUSH2 0x37E JUMPI RETURNDATASIZE PUSH0 PUSH0 RETURNDATACOPY RETURNDATASIZE PUSH0 REVERT JUMPDEST POP POP POP POP PUSH1 0x40 MLOAD RETURNDATASIZE PUSH1 0x1F NOT PUSH1 0x1F DUP3 ADD AND DUP3 ADD DUP1 PUSH1 0x40 MSTORE POP DUP2 ADD SWAP1 PUSH2 0x3A2 SWAP2 SWAP1 PUSH2 0x157D JUMP JUMPDEST POP PUSH1 0x4 PUSH1 0x40 MLOAD DUP1 PUSH1 0xA0 ADD PUSH1 0x40 MSTORE DUP1 CALLER PUSH20 0xFFFFFFFFFFFFFFFFFFFFFFFFFFFFFFFFFFFFFFFF AND DUP2 MSTORE PUSH1 0x20 ADD DUP7 PUSH20 0xFFFFFFFFFFFFFFFFFFFFFFFFFFFFFFFFFFFFFFFF AND DUP2 MSTORE PUSH1 0x20 ADD DUP6 DUP2 MSTORE PUSH1 0x20 ADD DUP5 DUP2 MSTORE PUSH1 0x20 ADD PUSH1 0x1 ISZERO ISZERO DUP2 MSTORE POP SWAP1 DUP1 PUSH1 0x1 DUP2 SLOAD ADD DUP1 DUP3 SSTORE DUP1 SWAP2 POP POP PUSH1 0x1 SWAP1 SUB SWAP1 PUSH0 MSTORE PUSH1 0x20 PUSH0 KECCAK256 SWAP1 PUSH1 0x5 MUL ADD PUSH0 SWAP1 SWAP2 SWAP1 SWAP2 SWAP1 SWAP2 POP PUSH0 DUP3 ADD MLOAD DUP2 PUSH0 ADD PUSH0 PUSH2 0x100 EXP DUP2 SLOAD DUP2 PUSH20 0xFFFFFFFFFFFFFFFFFFFFFFFFFFFFFFFFFFFFFFFF MUL NOT AND SWAP1 DUP4 PUSH20 0xFFFFFFFFFFFFFFFFFFFFFFFFFFFFFFFFFFFFFFFF AND MUL OR SWAP1 SSTORE POP PUSH1 0x20 DUP3 ADD MLOAD DUP2 PUSH1 0x1 ADD PUSH0 PUSH2 0x100 EXP DUP2 SLOAD DUP2 PUSH20 0xFFFFFFFFFFFFFFFFFFFFFFFFFFFFFFFFFFFFFFFF MUL NOT AND SWAP1 DUP4 PUSH20 0xFFFFFFFFFFFFFFFFFFFFFFFFFFFFFFFFFFFFFFFF AND MUL OR SWAP1 SSTORE POP PUSH1 0x40 DUP3 ADD MLOAD DUP2 PUSH1 0x2 ADD SSTORE PUSH1 0x60 DUP3 ADD MLOAD DUP2 PUSH1 0x3 ADD SSTORE PUSH1 0x80 DUP3 ADD MLOAD DUP2 PUSH1 0x4 ADD PUSH0 PUSH2 0x100 EXP DUP2 SLOAD DUP2 PUSH1 0xFF MUL NOT AND SWAP1 DUP4 ISZERO ISZERO MUL OR SWAP1 SSTORE POP POP POP PUSH0 PUSH1 0x1 PUSH1 0x4 DUP1 SLOAD SWAP1 POP PUSH2 0x4F3 SWAP2 SWAP1 PUSH2 0x15D5 JUMP JUMPDEST SWAP1 POP DUP5 PUSH20 0xFFFFFFFFFFFFFFFFFFFFFFFFFFFFFFFFFFFFFFFF AND CALLER PUSH20 0xFFFFFFFFFFFFFFFFFFFFFFFFFFFFFFFFFFFFFFFF AND DUP3 PUSH32 0x508C75A3CB42C068E54CF9E0B738921B4E2375725C5965EF4A110475606FC05A DUP8 DUP8 PUSH1 0x40 MLOAD PUSH2 0x555 SWAP3 SWAP2 SWAP1 PUSH2 0x1608 JUMP JUMPDEST PUSH1 0x40 MLOAD DUP1 SWAP2 SUB SWAP1 LOG4 DUP1 SWAP2 POP POP SWAP4 SWAP3 POP POP POP JUMP JUMPDEST PUSH0 PUSH1 0x4 DUP3 DUP2 SLOAD DUP2 LT PUSH2 0x57D JUMPI PUSH2 0x57C PUSH2 0x162F JUMP JUMPDEST JUMPDEST SWAP1 PUSH0 MSTORE PUSH1 0x20 PUSH0 KECCAK256 SWAP1 PUSH1 0x5 MUL ADD SWAP1 POP CALLER PUSH20 0xFFFFFFFFFFFFFFFFFFFFFFFFFFFFFFFFFFFFFFFF AND DUP2 PUSH0 ADD PUSH0 SWAP1 SLOAD SWAP1 PUSH2 0x100 EXP SWAP1 DIV PUSH20 0xFFFFFFFFFFFFFFFFFFFFFFFFFFFFFFFFFFFFFFFF AND PUSH20 0xFFFFFFFFFFFFFFFFFFFFFFFFFFFFFFFFFFFFFFFF AND EQ PUSH2 0x61B JUMPI PUSH1 0x40 MLOAD PUSH32 0x8C379A000000000000000000000000000000000000000000000000000000000 DUP2 MSTORE PUSH1 0x4 ADD PUSH2 0x612 SWAP1 PUSH2 0x16A6 JUMP JUMPDEST PUSH1 0x40 MLOAD DUP1 SWAP2 SUB SWAP1 REVERT JUMPDEST DUP1 PUSH1 0x4 ADD PUSH0 SWAP1 SLOAD SWAP1 PUSH2 0x100 EXP SWAP1 DIV PUSH1 0xFF AND PUSH2 0x66B JUMPI PUSH1 0x40 MLOAD PUSH32 0x8C379A000000000000000000000000000000000000000000000000000000000 DUP2 MSTORE PUSH1 0x4 ADD PUSH2 0x662 SWAP1 PUSH2 0x170E JUMP JUMPDEST PUSH1 0x40 MLOAD DUP1 SWAP2 SUB SWAP1 REVERT JUMPDEST PUSH0 DUP2 PUSH1 0x4 ADD PUSH0 PUSH2 0x100 EXP DUP2 SLOAD DUP2 PUSH1 0xFF MUL NOT AND SWAP1 DUP4 ISZERO ISZERO MUL OR SWAP1 SSTORE POP DUP1 PUSH1 0x1 ADD PUSH0 SWAP1 SLOAD SWAP1 PUSH2 0x100 EXP SWAP1 DIV PUSH20 0xFFFFFFFFFFFFFFFFFFFFFFFFFFFFFFFFFFFFFFFF AND PUSH20 0xFFFFFFFFFFFFFFFFFFFFFFFFFFFFFFFFFFFFFFFF AND PUSH4 0xA9059CBB DUP3 PUSH0 ADD PUSH0 SWAP1 SLOAD SWAP1 PUSH2 0x100 EXP SWAP1 DIV PUSH20 0xFFFFFFFFFFFFFFFFFFFFFFFFFFFFFFFFFFFFFFFF AND DUP4 PUSH1 0x2 ADD SLOAD PUSH1 0x40 MLOAD DUP4 PUSH4 0xFFFFFFFF AND PUSH1 0xE0 SHL DUP2 MSTORE PUSH1 0x4 ADD PUSH2 0x70A SWAP3 SWAP2 SWAP1 PUSH2 0x172C JUMP JUMPDEST PUSH1 0x20 PUSH1 0x40 MLOAD DUP1 DUP4 SUB DUP2 PUSH0 DUP8 GAS CALL ISZERO DUP1 ISZERO PUSH2 0x726 JUMPI RETURNDATASIZE PUSH0 PUSH0 RETURNDATACOPY RETURNDATASIZE PUSH0 REVERT JUMPDEST POP POP POP POP PUSH1 0x40 MLOAD RETURNDATASIZE PUSH1 0x1F NOT PUSH1 0x1F DUP3 ADD AND DUP3 ADD DUP1 PUSH1 0x40 MSTORE POP DUP2 ADD SWAP1 PUSH2 0x74A SWAP2 SWAP1 PUSH2 0x157D JUMP JUMPDEST POP DUP2 PUSH32 0x411AEE90354C51B1B04CD563FCAB2617142A9D50DA19232D888547C8A1B7FD8A PUSH1 0x40 MLOAD PUSH1 0x40 MLOAD DUP1 SWAP2 SUB SWAP1 LOG2 POP POP JUMP JUMPDEST PUSH1 0x3 PUSH0 SWAP1 SLOAD SWAP1 PUSH2 0x100 EXP SWAP1 DIV PUSH20 0xFFFFFFFFFFFFFFFFFFFFFFFFFFFFFFFFFFFFFFFF AND DUP2 JUMP JUMPDEST PUSH2 0x7A9 PUSH2 0xF6A JUMP JUMPDEST PUSH2 0x7B2 PUSH0 PUSH2 0xFF1 JUMP JUMPDEST JUMP JUMPDEST PUSH1 0x60 PUSH0 PUSH0 SWAP1 POP PUSH0 PUSH0 SWAP1 POP JUMPDEST PUSH1 0x4 DUP1 SLOAD SWAP1 POP DUP2 LT ISZERO PUSH2 0x81D JUMPI PUSH1 0x4 DUP2 DUP2 SLOAD DUP2 LT PUSH2 0x7E0 JUMPI PUSH2 0x7DF PUSH2 0x162F JUMP JUMPDEST JUMPDEST SWAP1 PUSH0 MSTORE PUSH1 0x20 PUSH0 KECCAK256 SWAP1 PUSH1 0x5 MUL ADD PUSH1 0x4 ADD PUSH0 SWAP1 SLOAD SWAP1 PUSH2 0x100 EXP SWAP1 DIV PUSH1 0xFF AND ISZERO PUSH2 0x810 JUMPI DUP2 DUP1 PUSH2 0x80C SWAP1 PUSH2 0x1753 JUMP JUMPDEST SWAP3 POP POP JUMPDEST DUP1 DUP1 PUSH1 0x1 ADD SWAP2 POP POP PUSH2 0x7BF JUMP JUMPDEST POP PUSH0 DUP2 PUSH8 0xFFFFFFFFFFFFFFFF DUP2 GT ISZERO PUSH2 0x839 JUMPI PUSH2 0x838 PUSH2 0x179A JUMP JUMPDEST JUMPDEST PUSH1 0x40 MLOAD SWAP1 DUP1 DUP3 MSTORE DUP1 PUSH1 0x20 MUL PUSH1 0x20 ADD DUP3 ADD PUSH1 0x40 MSTORE DUP1 ISZERO PUSH2 0x867 JUMPI DUP2 PUSH1 0x20 ADD PUSH1 0x20 DUP3 MUL DUP1 CALLDATASIZE DUP4 CALLDATACOPY DUP1 DUP3 ADD SWAP2 POP POP SWAP1 POP JUMPDEST POP SWAP1 POP PUSH0 PUSH0 SWAP1 POP PUSH0 PUSH0 SWAP1 POP JUMPDEST PUSH1 0x4 DUP1 SLOAD SWAP1 POP DUP2 LT ISZERO PUSH2 0x8F1 JUMPI PUSH1 0x4 DUP2 DUP2 SLOAD DUP2 LT PUSH2 0x894 JUMPI PUSH2 0x893 PUSH2 0x162F JUMP JUMPDEST JUMPDEST SWAP1 PUSH0 MSTORE PUSH1 0x20 PUSH0 KECCAK256 SWAP1 PUSH1 0x5 MUL ADD PUSH1 0x4 ADD PUSH0 SWAP1 SLOAD SWAP1 PUSH2 0x100 EXP SWAP1 DIV PUSH1 0xFF AND ISZERO PUSH2 0x8E4 JUMPI DUP1 DUP4 DUP4 DUP2 MLOAD DUP2 LT PUSH2 0x8C9 JUMPI PUSH2 0x8C8 PUSH2 0x162F JUMP JUMPDEST JUMPDEST PUSH1 0x20 MUL PUSH1 0x20 ADD ADD DUP2 DUP2 MSTORE POP POP DUP2 DUP1 PUSH2 0x8E0 SWAP1 PUSH2 0x1753 JUMP JUMPDEST SWAP3 POP POP JUMPDEST DUP1 DUP1 PUSH1 0x1 ADD SWAP2 POP POP PUSH2 0x873 JUMP JUMPDEST POP DUP2 SWAP4 POP POP POP POP SWAP1 JUMP JUMPDEST PUSH2 0x903 PUSH2 0x10B4 JUMP JUMPDEST PUSH0 PUSH1 0x4 DUP4 DUP2 SLOAD DUP2 LT PUSH2 0x918 JUMPI PUSH2 0x917 PUSH2 0x162F JUMP JUMPDEST JUMPDEST SWAP1 PUSH0 MSTORE PUSH1 0x20 PUSH0 KECCAK256 SWAP1 PUSH1 0x5 MUL ADD SWAP1 POP DUP1 PUSH1 0x4 ADD PUSH0 SWAP1 SLOAD SWAP1 PUSH2 0x100 EXP SWAP1 DIV PUSH1 0xFF AND PUSH2 0x976 JUMPI PUSH1 0x40 MLOAD PUSH32 0x8C379A000000000000000000000000000000000000000000000000000000000 DUP2 MSTORE PUSH1 0x4 ADD PUSH2 0x96D SWAP1 PUSH2 0x170E JUMP JUMPDEST PUSH1 0x40 MLOAD DUP1 SWAP2 SUB SWAP1 REVERT JUMPDEST PUSH0 DUP3 GT DUP1 ISZERO PUSH2 0x989 JUMPI POP DUP1 PUSH1 0x2 ADD SLOAD DUP3 GT ISZERO JUMPDEST PUSH2 0x9C8 JUMPI PUSH1 0x40 MLOAD PUSH32 0x8C379A000000000000000000000000000000000000000000000000000000000 DUP2 MSTORE PUSH1 0x4 ADD PUSH2 0x9BF SWAP1 PUSH2 0x1811 JUMP JUMPDEST PUSH1 0x40 MLOAD DUP1 SWAP2 SUB SWAP1 REVERT JUMPDEST PUSH0 DUP2 PUSH1 0x3 ADD SLOAD DUP4 PUSH2 0x9D9 SWAP2 SWAP1 PUSH2 0x182F JUMP JUMPDEST SWAP1 POP DUP1 CALLVALUE LT ISZERO PUSH2 0xA1E JUMPI PUSH1 0x40 MLOAD PUSH32 0x8C379A000000000000000000000000000000000000000000000000000000000 DUP2 MSTORE PUSH1 0x4 ADD PUSH2 0xA15 SWAP1 PUSH2 0x18BA JUMP JUMPDEST PUSH1 0x40 MLOAD DUP1 SWAP2 SUB SWAP1 REVERT JUMPDEST PUSH0 PUSH2 0x2710 PUSH1 0x2 SLOAD DUP4 PUSH2 0xA30 SWAP2 SWAP1 PUSH2 0x182F JUMP JUMPDEST PUSH2 0xA3A SWAP2 SWAP1 PUSH2 0x1905 JUMP JUMPDEST SWAP1 POP PUSH0 DUP2 DUP4 PUSH2 0xA49 SWAP2 SWAP1 PUSH2 0x15D5 JUMP JUMPDEST SWAP1 POP DUP5 DUP5 PUSH1 0x2 ADD PUSH0 DUP3 DUP3 SLOAD PUSH2 0xA5E SWAP2 SWAP1 PUSH2 0x15D5 JUMP JUMPDEST SWAP3 POP POP DUP2 SWAP1 SSTORE POP PUSH0 DUP5 PUSH1 0x2 ADD SLOAD SUB PUSH2 0xA8C JUMPI PUSH0 DUP5 PUSH1 0x4 ADD PUSH0 PUSH2 0x100 EXP DUP2 SLOAD DUP2 PUSH1 0xFF MUL NOT AND SWAP1 DUP4 ISZERO ISZERO MUL OR SWAP1 SSTORE POP JUMPDEST DUP4 PUSH1 0x1 ADD PUSH0 SWAP1 SLOAD SWAP1 PUSH2 0x100 EXP SWAP1 DIV PUSH20 0xFFFFFFFFFFFFFFFFFFFFFFFFFFFFFFFFFFFFFFFF AND PUSH20 0xFFFFFFFFFFFFFFFFFFFFFFFFFFFFFFFFFFFFFFFF AND PUSH4 0xA9059CBB CALLER DUP8 PUSH1 0x40 MLOAD DUP4 PUSH4 0xFFFFFFFF AND PUSH1 0xE0 SHL DUP2 MSTORE PUSH1 0x4 ADD PUSH2 0xAEA SWAP3 SWAP2 SWAP1 PUSH2 0x172C JUMP JUMPDEST PUSH1 0x20 PUSH1 0x40 MLOAD DUP1 DUP4 SUB DUP2 PUSH0 DUP8 GAS CALL ISZERO DUP1 ISZERO PUSH2 0xB06 JUMPI RETURNDATASIZE PUSH0 PUSH0 RETURNDATACOPY RETURNDATASIZE PUSH0 REVERT JUMPDEST POP POP POP POP PUSH1 0x40 MLOAD RETURNDATASIZE PUSH1 0x1F NOT PUSH1 0x1F DUP3 ADD AND DUP3 ADD DUP1 PUSH1 0x40 MSTORE POP DUP2 ADD SWAP1 PUSH2 0xB2A SWAP2 SWAP1 PUSH2 0x157D JUMP JUMPDEST POP DUP4 PUSH0 ADD PUSH0 SWAP1 SLOAD SWAP1 PUSH2 0x100 EXP SWAP1 DIV PUSH20 0xFFFFFFFFFFFFFFFFFFFFFFFFFFFFFFFFFFFFFFFF AND PUSH20 0xFFFFFFFFFFFFFFFFFFFFFFFFFFFFFFFFFFFFFFFF AND PUSH2 0x8FC DUP3 SWAP1 DUP2 ISZERO MUL SWAP1 PUSH1 0x40 MLOAD PUSH0 PUSH1 0x40 MLOAD DUP1 DUP4 SUB DUP2 DUP6 DUP9 DUP9 CALL SWAP4 POP POP POP POP ISZERO DUP1 ISZERO PUSH2 0xB90 JUMPI RETURNDATASIZE PUSH0 PUSH0 RETURNDATACOPY RETURNDATASIZE PUSH0 REVERT JUMPDEST POP PUSH1 0x3 PUSH0 SWAP1 SLOAD SWAP1 PUSH2 0x100 EXP SWAP1 DIV PUSH20 0xFFFFFFFFFFFFFFFFFFFFFFFFFFFFFFFFFFFFFFFF AND PUSH20 0xFFFFFFFFFFFFFFFFFFFFFFFFFFFFFFFFFFFFFFFF AND PUSH2 0x8FC DUP4 SWAP1 DUP2 ISZERO MUL SWAP1 PUSH1 0x40 MLOAD PUSH0 PUSH1 0x40 MLOAD DUP1 DUP4 SUB DUP2 DUP6 DUP9 DUP9 CALL SWAP4 POP POP POP POP ISZERO DUP1 ISZERO PUSH2 0xBF5 JUMPI RETURNDATASIZE PUSH0 PUSH0 RETURNDATACOPY RETURNDATASIZE PUSH0 REVERT JUMPDEST POP DUP3 CALLVALUE GT ISZERO PUSH2 0xC4E JUMPI CALLER PUSH20 0xFFFFFFFFFFFFFFFFFFFFFFFFFFFFFFFFFFFFFFFF AND PUSH2 0x8FC DUP5 CALLVALUE PUSH2 0xC24 SWAP2 SWAP1 PUSH2 0x15D5 JUMP JUMPDEST SWAP1 DUP2 ISZERO MUL SWAP1 PUSH1 0x40 MLOAD PUSH0 PUSH1 0x40 MLOAD DUP1 DUP4 SUB DUP2 DUP6 DUP9 DUP9 CALL SWAP4 POP POP POP POP ISZERO DUP1 ISZERO PUSH2 0xC4C JUMPI RETURNDATASIZE PUSH0 PUSH0 RETURNDATACOPY RETURNDATASIZE PUSH0 REVERT JUMPDEST POP JUMPDEST CALLER PUSH20 0xFFFFFFFFFFFFFFFFFFFFFFFFFFFFFFFFFFFFFFFF AND DUP7 PUSH32 0xDB6CD6881FC0453B2D01F52EB5A16417707659F245732ABC10F847426E3525D DUP8 DUP7 PUSH1 0x40 MLOAD PUSH2 0xC97 SWAP3 SWAP2 SWAP1 PUSH2 0x1608 JUMP JUMPDEST PUSH1 0x40 MLOAD DUP1 SWAP2 SUB SWAP1 LOG3 POP POP POP POP PUSH2 0xCAB PUSH2 0x1101 JUMP JUMPDEST POP POP JUMP JUMPDEST PUSH0 PUSH1 0x1 PUSH0 SWAP1 SLOAD SWAP1 PUSH2 0x100 EXP SWAP1 DIV PUSH20 0xFFFFFFFFFFFFFFFFFFFFFFFFFFFFFFFFFFFFFFFF AND SWAP1 POP SWAP1 JUMP JUMPDEST PUSH1 0x2 SLOAD DUP2 JUMP JUMPDEST PUSH1 0x4 DUP2 DUP2 SLOAD DUP2 LT PUSH2 0xCEC JUMPI PUSH0 DUP1 REVERT JUMPDEST SWAP1 PUSH0 MSTORE PUSH1 0x20 PUSH0 KECCAK256 SWAP1 PUSH1 0x5 MUL ADD PUSH0 SWAP2 POP SWAP1 POP DUP1 PUSH0 ADD PUSH0 SWAP1 SLOAD SWAP1 PUSH2 0x100 EXP SWAP1 DIV PUSH20 0xFFFFFFFFFFFFFFFFFFFFFFFFFFFFFFFFFFFFFFFF AND SWAP1 DUP1 PUSH1 0x1 ADD PUSH0 SWAP1 SLOAD SWAP1 PUSH2 0x100 EXP SWAP1 DIV PUSH20 0xFFFFFFFFFFFFFFFFFFFFFFFFFFFFFFFFFFFFFFFF AND SWAP1 DUP1 PUSH1 0x2 ADD SLOAD SWAP1 DUP1 PUSH1 0x3 ADD SLOAD SWAP1 DUP1 PUSH1 0x4 ADD PUSH0 SWAP1 SLOAD SWAP1 PUSH2 0x100 EXP SWAP1 DIV PUSH1 0xFF AND SWAP1 POP DUP6 JUMP JUMPDEST PUSH2 0xD70 PUSH2 0xF6A JUMP JUMPDEST PUSH2 0x3E8 DUP2 GT ISZERO PUSH2 0xDB5 JUMPI PUSH1 0x40 MLOAD PUSH32 0x8C379A000000000000000000000000000000000000000000000000000000000 DUP2 MSTORE PUSH1 0x4 ADD PUSH2 0xDAC SWAP1 PUSH2 0x197F JUMP JUMPDEST PUSH1 0x40 MLOAD DUP1 SWAP2 SUB SWAP1 REVERT JUMPDEST DUP1 PUSH1 0x2 DUP2 SWAP1 SSTORE POP PUSH32 0x45610D581145924DD7090A5017E5F2B1D6F42213BB2E95707FF86846BBFCB1CA DUP2 PUSH1 0x40 MLOAD PUSH2 0xDEB SWAP2 SWAP1 PUSH2 0x1201 JUMP JUMPDEST PUSH1 0x40 MLOAD DUP1 SWAP2 SUB SWAP1 LOG1 POP JUMP JUMPDEST PUSH2 0xDFE PUSH2 0xF6A JUMP JUMPDEST PUSH0 PUSH20 0xFFFFFFFFFFFFFFFFFFFFFFFFFFFFFFFFFFFFFFFF AND DUP2 PUSH20 0xFFFFFFFFFFFFFFFFFFFFFFFFFFFFFFFFFFFFFFFF AND SUB PUSH2 0xE6C JUMPI PUSH1 0x40 MLOAD PUSH32 0x8C379A000000000000000000000000000000000000000000000000000000000 DUP2 MSTORE PUSH1 0x4 ADD PUSH2 0xE63 SWAP1 PUSH2 0x19E7 JUMP JUMPDEST PUSH1 0x40 MLOAD DUP1 SWAP2 SUB SWAP1 REVERT JUMPDEST DUP1 PUSH1 0x3 PUSH0 PUSH2 0x100 EXP DUP2 SLOAD DUP2 PUSH20 0xFFFFFFFFFFFFFFFFFFFFFFFFFFFFFFFFFFFFFFFF MUL NOT AND SWAP1 DUP4 PUSH20 0xFFFFFFFFFFFFFFFFFFFFFFFFFFFFFFFFFFFFFFFF AND MUL OR SWAP1 SSTORE POP PUSH32 0x7A7B5A0A132F9E0581EB8527F66EAE9EE89C2A3E79D4AC7E41A1F1F4D48A7FC2 DUP2 PUSH1 0x40 MLOAD PUSH2 0xEDB SWAP2 SWAP1 PUSH2 0x1254 JUMP JUMPDEST PUSH1 0x40 MLOAD DUP1 SWAP2 SUB SWAP1 LOG1 POP JUMP JUMPDEST PUSH2 0xEEE PUSH2 0xF6A JUMP JUMPDEST PUSH0 PUSH20 0xFFFFFFFFFFFFFFFFFFFFFFFFFFFFFFFFFFFFFFFF AND DUP2 PUSH20 0xFFFFFFFFFFFFFFFFFFFFFFFFFFFFFFFFFFFFFFFF AND SUB PUSH2 0xF5E JUMPI PUSH0 PUSH1 0x40 MLOAD PUSH32 0x1E4FBDF700000000000000000000000000000000000000000000000000000000 DUP2 MSTORE PUSH1 0x4 ADD PUSH2 0xF55 SWAP2 SWAP1 PUSH2 0x1254 JUMP JUMPDEST PUSH1 0x40 MLOAD DUP1 SWAP2 SUB SWAP1 REVERT JUMPDEST PUSH2 0xF67 DUP2 PUSH2 0xFF1 JUMP JUMPDEST POP JUMP JUMPDEST PUSH2 0xF72 PUSH2 0x110A JUMP JUMPDEST PUSH20 0xFFFFFFFFFFFFFFFFFFFFFFFFFFFFFFFFFFFFFFFF AND PUSH2 0xF90 PUSH2 0xCAF JUMP JUMPDEST PUSH20 0xFFFFFFFFFFFFFFFFFFFFFFFFFFFFFFFFFFFFFFFF AND EQ PUSH2 0xFEF JUMPI PUSH2 0xFB3 PUSH2 0x110A JUMP JUMPDEST PUSH1 0x40 MLOAD PUSH32 0x118CDAA700000000000000000000000000000000000000000000000000000000 DUP2 MSTORE PUSH1 0x4 ADD PUSH2 0xFE6 SWAP2 SWAP1 PUSH2 0x1254 JUMP JUMPDEST PUSH1 0x40 MLOAD DUP1 SWAP2 SUB SWAP1 REVERT JUMPDEST JUMP JUMPDEST PUSH0 PUSH1 0x1 PUSH0 SWAP1 SLOAD SWAP1 PUSH2 0x100 EXP SWAP1 DIV PUSH20 0xFFFFFFFFFFFFFFFFFFFFFFFFFFFFFFFFFFFFFFFF AND SWAP1 POP DUP2 PUSH1 0x1 PUSH0 PUSH2 0x100 EXP DUP2 SLOAD DUP2 PUSH20 0xFFFFFFFFFFFFFFFFFFFFFFFFFFFFFFFFFFFFFFFF MUL NOT AND SWAP1 DUP4 PUSH20 0xFFFFFFFFFFFFFFFFFFFFFFFFFFFFFFFFFFFFFFFF AND MUL OR SWAP1 SSTORE POP DUP2 PUSH20 0xFFFFFFFFFFFFFFFFFFFFFFFFFFFFFFFFFFFFFFFF AND DUP2 PUSH20 0xFFFFFFFFFFFFFFFFFFFFFFFFFFFFFFFFFFFFFFFF AND PUSH32 0x8BE0079C531659141344CD1FD0A4F28419497F9722A3DAAFE3B4186F6B6457E0 PUSH1 0x40 MLOAD PUSH1 0x40 MLOAD DUP1 SWAP2 SUB SWAP1 LOG3 POP POP JUMP JUMPDEST PUSH1 0x2 PUSH0 SLOAD SUB PUSH2 0x10F8 JUMPI PUSH1 0x40 MLOAD PUSH32 0x8C379A000000000000000000000000000000000000000000000000000000000 DUP2 MSTORE PUSH1 0x4 ADD PUSH2 0x10EF SWAP1 PUSH2 0x1A4F JUMP JUMPDEST PUSH1 0x40 MLOAD DUP1 SWAP2 SUB SWAP1 REVERT JUMPDEST PUSH1 0x2 PUSH0 DUP2 SWAP1 SSTORE POP JUMP JUMPDEST PUSH1 0x1 PUSH0 DUP2 SWAP1 SSTORE POP JUMP JUMPDEST PUSH0 CALLER SWAP1 POP SWAP1 JUMP JUMPDEST PUSH0 PUSH0 REVERT JUMPDEST PUSH0 PUSH20 0xFFFFFFFFFFFFFFFFFFFFFFFFFFFFFFFFFFFFFFFF DUP3 AND SWAP1 POP SWAP2 SWAP1 POP JUMP JUMPDEST PUSH0 PUSH2 0x113E DUP3 PUSH2 0x1115 JUMP JUMPDEST SWAP1 POP SWAP2 SWAP1 POP JUMP JUMPDEST PUSH2 0x114E DUP2 PUSH2 0x1134 JUMP JUMPDEST DUP2 EQ PUSH2 0x1158 JUMPI PUSH0 PUSH0 REVERT JUMPDEST POP JUMP JUMPDEST PUSH0 DUP2 CALLDATALOAD SWAP1 POP PUSH2 0x1169 DUP2 PUSH2 0x1145 JUMP JUMPDEST SWAP3 SWAP2 POP POP JUMP JUMPDEST PUSH0 DUP2 SWAP1 POP SWAP2 SWAP1 POP JUMP JUMPDEST PUSH2 0x1181 DUP2 PUSH2 0x116F JUMP JUMPDEST DUP2 EQ PUSH2 0x118B JUMPI PUSH0 PUSH0 REVERT JUMPDEST POP JUMP JUMPDEST PUSH0 DUP2 CALLDATALOAD SWAP1 POP PUSH2 0x119C DUP2 PUSH2 0x1178 JUMP JUMPDEST SWAP3 SWAP2 POP POP JUMP JUMPDEST PUSH0 PUSH0 PUSH0 PUSH1 0x60 DUP5 DUP7 SUB SLT ISZERO PUSH2 0x11B9 JUMPI PUSH2 0x11B8 PUSH2 0x1111 JUMP JUMPDEST JUMPDEST PUSH0 PUSH2 0x11C6 DUP7 DUP3 DUP8 ADD PUSH2 0x115B JUMP JUMPDEST SWAP4 POP POP PUSH1 0x20 PUSH2 0x11D7 DUP7 DUP3 DUP8 ADD PUSH2 0x118E JUMP JUMPDEST SWAP3 POP POP PUSH1 0x40 PUSH2 0x11E8 DUP7 DUP3 DUP8 ADD PUSH2 0x118E JUMP JUMPDEST SWAP2 POP POP SWAP3 POP SWAP3 POP SWAP3 JUMP JUMPDEST PUSH2 0x11FB DUP2 PUSH2 0x116F JUMP JUMPDEST DUP3 MSTORE POP POP JUMP JUMPDEST PUSH0 PUSH1 0x20 DUP3 ADD SWAP1 POP PUSH2 0x1214 PUSH0 DUP4 ADD DUP5 PUSH2 0x11F2 JUMP JUMPDEST SWAP3 SWAP2 POP POP JUMP JUMPDEST PUSH0 PUSH1 0x20 DUP3 DUP5 SUB SLT ISZERO PUSH2 0x122F JUMPI PUSH2 0x122E PUSH2 0x1111 JUMP JUMPDEST JUMPDEST PUSH0 PUSH2 0x123C DUP5 DUP3 DUP6 ADD PUSH2 0x118E JUMP JUMPDEST SWAP2 POP POP SWAP3 SWAP2 POP POP JUMP JUMPDEST PUSH2 0x124E DUP2 PUSH2 0x1134 JUMP JUMPDEST DUP3 MSTORE POP POP JUMP JUMPDEST PUSH0 PUSH1 0x20 DUP3 ADD SWAP1 POP PUSH2 0x1267 PUSH0 DUP4 ADD DUP5 PUSH2 0x1245 JUMP JUMPDEST SWAP3 SWAP2 POP POP JUMP JUMPDEST PUSH0 DUP2 MLOAD SWAP1 POP SWAP2 SWAP1 POP JUMP JUMPDEST PUSH0 DUP3 DUP3 MSTORE PUSH1 0x20 DUP3 ADD SWAP1 POP SWAP3 SWAP2 POP POP JUMP JUMPDEST PUSH0 DUP2 SWAP1 POP PUSH1 0x20 DUP3 ADD SWAP1 POP SWAP2 SWAP1 POP JUMP JUMPDEST PUSH2 0x129F DUP2 PUSH2 0x116F JUMP JUMPDEST DUP3 MSTORE POP POP JUMP JUMPDEST PUSH0 PUSH2 0x12B0 DUP4 DUP4 PUSH2 0x1296 JUMP JUMPDEST PUSH1 0x20 DUP4 ADD SWAP1 POP SWAP3 SWAP2 POP POP JUMP JUMPDEST PUSH0 PUSH1 0x20 DUP3 ADD SWAP1 POP SWAP2 SWAP1 POP JUMP JUMPDEST PUSH0 PUSH2 0x12D2 DUP3 PUSH2 0x126D JUMP JUMPDEST PUSH2 0x12DC DUP2 DUP6 PUSH2 0x1277 JUMP JUMPDEST SWAP4 POP PUSH2 0x12E7 DUP4 PUSH2 0x1287 JUMP JUMPDEST DUP1 PUSH0 JUMPDEST DUP4 DUP2 LT ISZERO PUSH2 0x1317 JUMPI DUP2 MLOAD PUSH2 0x12FE DUP9 DUP3 PUSH2 0x12A5 JUMP JUMPDEST SWAP8 POP PUSH2 0x1309 DUP4 PUSH2 0x12BC JUMP JUMPDEST SWAP3 POP POP PUSH1 0x1 DUP2 ADD SWAP1 POP PUSH2 0x12EA JUMP JUMPDEST POP DUP6 SWAP4 POP POP POP POP SWAP3 SWAP2 POP POP JUMP JUMPDEST PUSH0 PUSH1 0x20 DUP3 ADD SWAP1 POP DUP2 DUP2 SUB PUSH0 DUP4 ADD MSTORE PUSH2 0x133C DUP2 DUP5 PUSH2 0x12C8 JUMP JUMPDEST SWAP1 POP SWAP3 SWAP2 POP POP JUMP JUMPDEST PUSH0 PUSH0 PUSH1 0x40 DUP4 DUP6 SUB SLT ISZERO PUSH2 0x135A JUMPI PUSH2 0x1359 PUSH2 0x1111 JUMP JUMPDEST JUMPDEST PUSH0 PUSH2 0x1367 DUP6 DUP3 DUP7 ADD PUSH2 0x118E JUMP JUMPDEST SWAP3 POP POP PUSH1 0x20 PUSH2 0x1378 DUP6 DUP3 DUP7 ADD PUSH2 0x118E JUMP JUMPDEST SWAP2 POP POP SWAP3 POP SWAP3 SWAP1 POP JUMP JUMPDEST PUSH0 DUP2 ISZERO ISZERO SWAP1 POP SWAP2 SWAP1 POP JUMP JUMPDEST PUSH2 0x1396 DUP2 PUSH2 0x1382 JUMP JUMPDEST DUP3 MSTORE POP POP JUMP JUMPDEST PUSH0 PUSH1 0xA0 DUP3 ADD SWAP1 POP PUSH2 0x13AF PUSH0 DUP4 ADD DUP9 PUSH2 0x1245 JUMP JUMPDEST PUSH2 0x13BC PUSH1 0x20 DUP4 ADD DUP8 PUSH2 0x1245 JUMP JUMPDEST PUSH2 0x13C9 PUSH1 0x40 DUP4 ADD DUP7 PUSH2 0x11F2 JUMP JUMPDEST PUSH2 0x13D6 PUSH1 0x60 DUP4 ADD DUP6 PUSH2 0x11F2 JUMP JUMPDEST PUSH2 0x13E3 PUSH1 0x80 DUP4 ADD DUP5 PUSH2 0x138D JUMP JUMPDEST SWAP7 SWAP6 POP POP POP POP POP POP JUMP JUMPDEST PUSH0 PUSH1 0x20 DUP3 DUP5 SUB SLT ISZERO PUSH2 0x1402 JUMPI PUSH2 0x1401 PUSH2 0x1111 JUMP JUMPDEST JUMPDEST PUSH0 PUSH2 0x140F DUP5 DUP3 DUP6 ADD PUSH2 0x115B JUMP JUMPDEST SWAP2 POP POP SWAP3 SWAP2 POP POP JUMP JUMPDEST PUSH0 DUP3 DUP3 MSTORE PUSH1 0x20 DUP3 ADD SWAP1 POP SWAP3 SWAP2 POP POP JUMP JUMPDEST PUSH32 0x546F6B656E20616D6F756E74206D757374206265206772656174657220746861 PUSH0 DUP3 ADD MSTORE PUSH32 0x6E20300000000000000000000000000000000000000000000000000000000000 PUSH1 0x20 DUP3 ADD MSTORE POP JUMP JUMPDEST PUSH0 PUSH2 0x1482 PUSH1 0x23 DUP4 PUSH2 0x1418 JUMP JUMPDEST SWAP2 POP PUSH2 0x148D DUP3 PUSH2 0x1428 JUMP JUMPDEST PUSH1 0x40 DUP3 ADD SWAP1 POP SWAP2 SWAP1 POP JUMP JUMPDEST PUSH0 PUSH1 0x20 DUP3 ADD SWAP1 POP DUP2 DUP2 SUB PUSH0 DUP4 ADD MSTORE PUSH2 0x14AF DUP2 PUSH2 0x1476 JUMP JUMPDEST SWAP1 POP SWAP2 SWAP1 POP JUMP JUMPDEST PUSH32 0x5072696365206D7573742062652067726561746572207468616E203000000000 PUSH0 DUP3 ADD MSTORE POP JUMP JUMPDEST PUSH0 PUSH2 0x14EA PUSH1 0x1C DUP4 PUSH2 0x1418 JUMP JUMPDEST SWAP2 POP PUSH2 0x14F5 DUP3 PUSH2 0x14B6 JUMP JUMPDEST PUSH1 0x20 DUP3 ADD SWAP1 POP SWAP2 SWAP1 POP JUMP JUMPDEST PUSH0 PUSH1 0x20 DUP3 ADD SWAP1 POP DUP2 DUP2 SUB PUSH0 DUP4 ADD MSTORE PUSH2 0x1517 DUP2 PUSH2 0x14DE JUMP JUMPDEST SWAP1 POP SWAP2 SWAP1 POP JUMP JUMPDEST PUSH0 PUSH1 0x60 DUP3 ADD SWAP1 POP PUSH2 0x1531 PUSH0 DUP4 ADD DUP7 PUSH2 0x1245 JUMP JUMPDEST PUSH2 0x153E PUSH1 0x20 DUP4 ADD DUP6 PUSH2 0x1245 JUMP JUMPDEST PUSH2 0x154B PUSH1 0x40 DUP4 ADD DUP5 PUSH2 0x11F2 JUMP JUMPDEST SWAP5 SWAP4 POP POP POP POP JUMP JUMPDEST PUSH2 0x155C DUP2 PUSH2 0x1382 JUMP JUMPDEST DUP2 EQ PUSH2 0x1566 JUMPI PUSH0 PUSH0 REVERT JUMPDEST POP JUMP JUMPDEST PUSH0 DUP2 MLOAD SWAP1 POP PUSH2 0x1577 DUP2 PUSH2 0x1553 JUMP JUMPDEST SWAP3 SWAP2 POP POP JUMP JUMPDEST PUSH0 PUSH1 0x20 DUP3 DUP5 SUB SLT ISZERO PUSH2 0x1592 JUMPI PUSH2 0x1591 PUSH2 0x1111 JUMP JUMPDEST JUMPDEST PUSH0 PUSH2 0x159F DUP5 DUP3 DUP6 ADD PUSH2 0x1569 JUMP JUMPDEST SWAP2 POP POP SWAP3 SWAP2 POP POP JUMP JUMPDEST PUSH32 0x4E487B7100000000000000000000000000000000000000000000000000000000 PUSH0 MSTORE PUSH1 0x11 PUSH1 0x4 MSTORE PUSH1 0x24 PUSH0 REVERT JUMPDEST PUSH0 PUSH2 0x15DF DUP3 PUSH2 0x116F JUMP JUMPDEST SWAP2 POP PUSH2 0x15EA DUP4 PUSH2 0x116F JUMP JUMPDEST SWAP3 POP DUP3 DUP3 SUB SWAP1 POP DUP2 DUP2 GT ISZERO PUSH2 0x1602 JUMPI PUSH2 0x1601 PUSH2 0x15A8 JUMP JUMPDEST JUMPDEST SWAP3 SWAP2 POP POP JUMP JUMPDEST PUSH0 PUSH1 0x40 DUP3 ADD SWAP1 POP PUSH2 0x161B PUSH0 DUP4 ADD DUP6 PUSH2 0x11F2 JUMP JUMPDEST PUSH2 0x1628 PUSH1 0x20 DUP4 ADD DUP5 PUSH2 0x11F2 JUMP JUMPDEST SWAP4 SWAP3 POP POP POP JUMP JUMPDEST PUSH32 0x4E487B7100000000000000000000000000000000000000000000000000000000 PUSH0 MSTORE PUSH1 0x32 PUSH1 0x4 MSTORE PUSH1 0x24 PUSH0 REVERT JUMPDEST PUSH32 0x4E6F74207468652073656C6C6572000000000000000000000000000000000000 PUSH0 DUP3 ADD MSTORE POP JUMP JUMPDEST PUSH0 PUSH2 0x1690 PUSH1 0xE DUP4 PUSH2 0x1418 JUMP JUMPDEST SWAP2 POP PUSH2 0x169B DUP3 PUSH2 0x165C JUMP JUMPDEST PUSH1 0x20 DUP3 ADD SWAP1 POP SWAP2 SWAP1 POP JUMP JUMPDEST PUSH0 PUSH1 0x20 DUP3 ADD SWAP1 POP DUP2 DUP2 SUB PUSH0 DUP4 ADD MSTORE PUSH2 0x16BD DUP2 PUSH2 0x1684 JUMP JUMPDEST SWAP1 POP SWAP2 SWAP1 POP JUMP JUMPDEST PUSH32 0x4C697374696E67206E6F74206163746976650000000000000000000000000000 PUSH0 DUP3 ADD MSTORE POP JUMP JUMPDEST PUSH0 PUSH2 0x16F8 PUSH1 0x12 DUP4 PUSH2 0x1418 JUMP JUMPDEST SWAP2 POP PUSH2 0x1703 DUP3 PUSH2 0x16C4 JUMP JUMPDEST PUSH1 0x20 DUP3 ADD SWAP1 POP SWAP2 SWAP1 POP JUMP JUMPDEST PUSH0 PUSH1 0x20 DUP3 ADD SWAP1 POP DUP2 DUP2 SUB PUSH0 DUP4 ADD MSTORE PUSH2 0x1725 DUP2 PUSH2 0x16EC JUMP JUMPDEST SWAP1 POP SWAP2 SWAP1 POP JUMP JUMPDEST PUSH0 PUSH1 0x40 DUP3 ADD SWAP1 POP PUSH2 0x173F PUSH0 DUP4 ADD DUP6 PUSH2 0x1245 JUMP JUMPDEST PUSH2 0x174C PUSH1 0x20 DUP4 ADD DUP5 PUSH2 0x11F2 JUMP JUMPDEST SWAP4 SWAP3 POP POP POP JUMP JUMPDEST PUSH0 PUSH2 0x175D DUP3 PUSH2 0x116F JUMP JUMPDEST SWAP2 POP PUSH32 0xFFFFFFFFFFFFFFFFFFFFFFFFFFFFFFFFFFFFFFFFFFFFFFFFFFFFFFFFFFFFFFFF DUP3 SUB PUSH2 0x178F JUMPI PUSH2 0x178E PUSH2 0x15A8 JUMP JUMPDEST JUMPDEST PUSH1 0x1 DUP3 ADD SWAP1 POP SWAP2 SWAP1 POP JUMP JUMPDEST PUSH32 0x4E487B7100000000000000000000000000000000000000000000000000000000 PUSH0 MSTORE PUSH1 0x41 PUSH1 0x4 MSTORE PUSH1 0x24 PUSH0 REVERT JUMPDEST PUSH32 0x496E76616C696420616D6F756E74000000000000000000000000000000000000 PUSH0 DUP3 ADD MSTORE POP JUMP JUMPDEST PUSH0 PUSH2 0x17FB PUSH1 0xE DUP4 PUSH2 0x1418 JUMP JUMPDEST SWAP2 POP PUSH2 0x1806 DUP3 PUSH2 0x17C7 JUMP JUMPDEST PUSH1 0x20 DUP3 ADD SWAP1 POP SWAP2 SWAP1 POP JUMP JUMPDEST PUSH0 PUSH1 0x20 DUP3 ADD SWAP1 POP DUP2 DUP2 SUB PUSH0 DUP4 ADD MSTORE PUSH2 0x1828 DUP2 PUSH2 0x17EF JUMP JUMPDEST SWAP1 POP SWAP2 SWAP1 POP JUMP JUMPDEST PUSH0 PUSH2 0x1839 DUP3 PUSH2 0x116F JUMP JUMPDEST SWAP2 POP PUSH2 0x1844 DUP4 PUSH2 0x116F JUMP JUMPDEST SWAP3 POP DUP3 DUP3 MUL PUSH2 0x1852 DUP2 PUSH2 0x116F JUMP JUMPDEST SWAP2 POP DUP3 DUP3 DIV DUP5 EQ DUP4 ISZERO OR PUSH2 0x1869 JUMPI PUSH2 0x1868 PUSH2 0x15A8 JUMP JUMPDEST JUMPDEST POP SWAP3 SWAP2 POP POP JUMP JUMPDEST PUSH32 0x496E73756666696369656E74207061796D656E74000000000000000000000000 PUSH0 DUP3 ADD MSTORE POP JUMP JUMPDEST PUSH0 PUSH2 0x18A4 PUSH1 0x14 DUP4 PUSH2 0x1418 JUMP JUMPDEST SWAP2 POP PUSH2 0x18AF DUP3 PUSH2 0x1870 JUMP JUMPDEST PUSH1 0x20 DUP3 ADD SWAP1 POP SWAP2 SWAP1 POP JUMP JUMPDEST PUSH0 PUSH1 0x20 DUP3 ADD SWAP1 POP DUP2 DUP2 SUB PUSH0 DUP4 ADD MSTORE PUSH2 0x18D1 DUP2 PUSH2 0x1898 JUMP JUMPDEST SWAP1 POP SWAP2 SWAP1 POP JUMP JUMPDEST PUSH32 0x4E487B7100000000000000000000000000000000000000000000000000000000 PUSH0 MSTORE PUSH1 0x12 PUSH1 0x4 MSTORE PUSH1 0x24 PUSH0 REVERT JUMPDEST PUSH0 PUSH2 0x190F DUP3 PUSH2 0x116F JUMP JUMPDEST SWAP2 POP PUSH2 0x191A DUP4 PUSH2 0x116F JUMP JUMPDEST SWAP3 POP DUP3 PUSH2 0x192A JUMPI PUSH2 0x1929 PUSH2 0x18D8 JUMP JUMPDEST JUMPDEST DUP3 DUP3 DIV SWAP1 POP SWAP3 SWAP2 POP POP JUMP JUMPDEST PUSH32 0x46656520746F6F20686967680000000000000000000000000000000000000000 PUSH0 DUP3 ADD MSTORE POP JUMP JUMPDEST PUSH0 PUSH2 0x1969 PUSH1 0xC DUP4 PUSH2 0x1418 JUMP JUMPDEST SWAP2 POP PUSH2 0x1974 DUP3 PUSH2 0x1935 JUMP JUMPDEST PUSH1 0x20 DUP3 ADD SWAP1 POP SWAP2 SWAP1 POP JUMP JUMPDEST PUSH0 PUSH1 0x20 DUP3 ADD SWAP1 POP DUP2 DUP2 SUB PUSH0 DUP4 ADD MSTORE PUSH2 0x1996 DUP2 PUSH2 0x195D JUMP JUMPDEST SWAP1 POP SWAP2 SWAP1 POP JUMP JUMPDEST PUSH32 0x496E76616C696420616464726573730000000000000000000000000000000000 PUSH0 DUP3 ADD MSTORE POP JUMP JUMPDEST PUSH0 PUSH2 0x19D1 PUSH1 0xF DUP4 PUSH2 0x1418 JUMP JUMPDEST SWAP2 POP PUSH2 0x19DC DUP3 PUSH2 0x199D JUMP JUMPDEST PUSH1 0x20 DUP3 ADD SWAP1 POP SWAP2 SWAP1 POP JUMP JUMPDEST PUSH0 PUSH1 0x20 DUP3 ADD SWAP1 POP DUP2 DUP2 SUB PUSH0 DUP4 ADD MSTORE PUSH2 0x19FE DUP2 PUSH2 0x19C5 JUMP JUMPDEST SWAP1 POP SWAP2 SWAP1 POP JUMP JUMPDEST PUSH32 0x5265656E7472616E637947756172643A207265656E7472616E742063616C6C00 PUSH0 DUP3 ADD MSTORE POP JUMP JUMPDEST PUSH0 PUSH2 0x1A39 PUSH1 0x1F DUP4 PUSH2 0x1418 JUMP JUMPDEST SWAP2 POP PUSH2 0x1A44 DUP3 PUSH2 0x1A05 JUMP JUMPDEST PUSH1 0x20 DUP3 ADD SWAP1 POP SWAP2 SWAP1 POP JUMP JUMPDEST PUSH0 PUSH1 0x20 DUP3 ADD SWAP1 POP DUP2 DUP2 SUB PUSH0 DUP4 ADD MSTORE PUSH2 0x1A66 DUP2 PUSH2 0x1A2D JUMP JUMPDEST SWAP1 POP SWAP2 SWAP1 POP JUMP INVALID LOG2 PUSH5 0x6970667358 0x22 SLT KECCAK256 REVERT PUSH1 0x44 0x2B PUSH28 0xDDED69345DB7E00DD5A4089DC4E411DA117CF0B2F615DFECD6C0A764 PUSH20 0x6F6C634300081D00330000000000000000000000 "
				},
				"gasEstimates": {
					"creation": {
						"codeDepositCost": "1363800",
						"executionCost": "infinite",
						"totalCost": "infinite"
					},
					"external": {
						"cancelListing(uint256)": "infinite",
						"createListing(address,uint256,uint256)": "infinite",
						"feeRecipient()": "2553",
						"getActiveListings()": "infinite",
						"listings(uint256)": "infinite",
						"owner()": "2515",
						"platformFeePercentage()": "2447",
						"purchaseTokens(uint256,uint256)": "infinite",
						"renounceOwnership()": "infinite",
						"transferOwnership(address)": "infinite",
						"updateFeeRecipient(address)": "infinite",
						"updatePlatformFeePercentage(uint256)": "infinite"
					}
				},
				"methodIdentifiers": {
					"cancelListing(uint256)": "305a67a8",
					"createListing(address,uint256,uint256)": "24780c56",
					"feeRecipient()": "46904840",
					"getActiveListings()": "87c35bc0",
					"listings(uint256)": "de74e57b",
					"owner()": "8da5cb5b",
					"platformFeePercentage()": "cdd78cfc",
					"purchaseTokens(uint256,uint256)": "8bf0af3e",
					"renounceOwnership()": "715018a6",
					"transferOwnership(address)": "f2fde38b",
					"updateFeeRecipient(address)": "f160d369",
					"updatePlatformFeePercentage(uint256)": "e4830153"
				}
			},
			"storageLayout": {
				"storage": [
					{
						"astId": 476,
						"contract": "contracts/marketplace/PropertyMarketplace.sol:PropertyMarketplace",
						"label": "_status",
						"offset": 0,
						"slot": "0",
						"type": "t_uint256"
					},
					{
						"astId": 539,
						"contract": "contracts/marketplace/PropertyMarketplace.sol:PropertyMarketplace",
						"label": "_owner",
						"offset": 0,
						"slot": "1",
						"type": "t_address"
					},
					{
						"astId": 10,
						"contract": "contracts/marketplace/PropertyMarketplace.sol:PropertyMarketplace",
						"label": "platformFeePercentage",
						"offset": 0,
						"slot": "2",
						"type": "t_uint256"
					},
					{
						"astId": 12,
						"contract": "contracts/marketplace/PropertyMarketplace.sol:PropertyMarketplace",
						"label": "feeRecipient",
						"offset": 0,
						"slot": "3",
						"type": "t_address"
					},
					{
						"astId": 27,
						"contract": "contracts/marketplace/PropertyMarketplace.sol:PropertyMarketplace",
						"label": "listings",
						"offset": 0,
						"slot": "4",
						"type": "t_array(t_struct(Listing)23_storage)dyn_storage"
					}
				],
				"types": {
					"t_address": {
						"encoding": "inplace",
						"label": "address",
						"numberOfBytes": "20"
					},
					"t_array(t_struct(Listing)23_storage)dyn_storage": {
						"base": "t_struct(Listing)23_storage",
						"encoding": "dynamic_array",
						"label": "struct PropertyMarketplace.Listing[]",
						"numberOfBytes": "32"
					},
					"t_bool": {
						"encoding": "inplace",
						"label": "bool",
						"numberOfBytes": "1"
					},
					"t_struct(Listing)23_storage": {
						"encoding": "inplace",
						"label": "struct PropertyMarketplace.Listing",
						"members": [
							{
								"astId": 14,
								"contract": "contracts/marketplace/PropertyMarketplace.sol:PropertyMarketplace",
								"label": "seller",
								"offset": 0,
								"slot": "0",
								"type": "t_address"
							},
							{
								"astId": 16,
								"contract": "contracts/marketplace/PropertyMarketplace.sol:PropertyMarketplace",
								"label": "propertyToken",
								"offset": 0,
								"slot": "1",
								"type": "t_address"
							},
							{
								"astId": 18,
								"contract": "contracts/marketplace/PropertyMarketplace.sol:PropertyMarketplace",
								"label": "tokenAmount",
								"offset": 0,
								"slot": "2",
								"type": "t_uint256"
							},
							{
								"astId": 20,
								"contract": "contracts/marketplace/PropertyMarketplace.sol:PropertyMarketplace",
								"label": "pricePerToken",
								"offset": 0,
								"slot": "3",
								"type": "t_uint256"
							},
							{
								"astId": 22,
								"contract": "contracts/marketplace/PropertyMarketplace.sol:PropertyMarketplace",
								"label": "isActive",
								"offset": 0,
								"slot": "4",
								"type": "t_bool"
							}
						],
						"numberOfBytes": "160"
					},
					"t_uint256": {
						"encoding": "inplace",
						"label": "uint256",
						"numberOfBytes": "32"
					}
				}
			},
			"userdoc": {
				"kind": "user",
				"methods": {},
				"version": 1
			}
		}
	}
}