{
	"contracts/rent/RentDistribution.sol": {
		"RentDistribution": {
			"abi": [
				{
					"inputs": [
						{
							"internalType": "address",
							"name": "initialOwner",
							"type": "address"
						}
					],
					"stateMutability": "nonpayable",
					"type": "constructor"
				},
				{
					"inputs": [
						{
							"internalType": "address",
							"name": "owner",
							"type": "address"
						}
					],
					"name": "OwnableInvalidOwner",
					"type": "error"
				},
				{
					"inputs": [
						{
							"internalType": "address",
							"name": "account",
							"type": "address"
						}
					],
					"name": "OwnableUnauthorizedAccount",
					"type": "error"
				},
				{
					"anonymous": false,
					"inputs": [
						{
							"indexed": true,
							"internalType": "address",
							"name": "previousOwner",
							"type": "address"
						},
						{
							"indexed": true,
							"internalType": "address",
							"name": "newOwner",
							"type": "address"
						}
					],
					"name": "OwnershipTransferred",
					"type": "event"
				},
				{
					"anonymous": false,
					"inputs": [
						{
							"indexed": true,
							"internalType": "address",
							"name": "propertyToken",
							"type": "address"
						},
						{
							"indexed": true,
							"internalType": "address",
							"name": "tokenHolder",
							"type": "address"
						},
						{
							"indexed": false,
							"internalType": "uint256",
							"name": "amount",
							"type": "uint256"
						}
					],
					"name": "RentClaimed",
					"type": "event"
				},
				{
					"anonymous": false,
					"inputs": [
						{
							"indexed": true,
							"internalType": "address",
							"name": "propertyToken",
							"type": "address"
						},
						{
							"indexed": false,
							"internalType": "uint256",
							"name": "amount",
							"type": "uint256"
						},
						{
							"indexed": false,
							"internalType": "uint256",
							"name": "timestamp",
							"type": "uint256"
						}
					],
					"name": "RentReceived",
					"type": "event"
				},
				{
					"inputs": [
						{
							"internalType": "address",
							"name": "_propertyToken",
							"type": "address"
						}
					],
					"name": "claimRent",
					"outputs": [],
					"stateMutability": "nonpayable",
					"type": "function"
				},
				{
					"inputs": [
						{
							"internalType": "address",
							"name": "_propertyToken",
							"type": "address"
						}
					],
					"name": "depositRent",
					"outputs": [],
					"stateMutability": "payable",
					"type": "function"
				},
				{
					"inputs": [
						{
							"internalType": "address",
							"name": "_propertyToken",
							"type": "address"
						},
						{
							"internalType": "address",
							"name": "_tokenHolder",
							"type": "address"
						}
					],
					"name": "getUnclaimedRent",
					"outputs": [
						{
							"internalType": "uint256",
							"name": "",
							"type": "uint256"
						}
					],
					"stateMutability": "view",
					"type": "function"
				},
				{
					"inputs": [],
					"name": "owner",
					"outputs": [
						{
							"internalType": "address",
							"name": "",
							"type": "address"
						}
					],
					"stateMutability": "view",
					"type": "function"
				},
				{
					"inputs": [],
					"name": "renounceOwnership",
					"outputs": [],
					"stateMutability": "nonpayable",
					"type": "function"
				},
				{
					"inputs": [
						{
							"internalType": "address",
							"name": "",
							"type": "address"
						},
						{
							"internalType": "uint256",
							"name": "",
							"type": "uint256"
						}
					],
					"name": "rentPayments",
					"outputs": [
						{
							"internalType": "uint256",
							"name": "amount",
							"type": "uint256"
						},
						{
							"internalType": "uint256",
							"name": "timestamp",
							"type": "uint256"
						},
						{
							"internalType": "uint256",
							"name": "totalSupplySnapshot",
							"type": "uint256"
						}
					],
					"stateMutability": "view",
					"type": "function"
				},
				{
					"inputs": [
						{
							"internalType": "address",
							"name": "",
							"type": "address"
						},
						{
							"internalType": "address",
							"name": "",
							"type": "address"
						}
					],
					"name": "tokenHolders",
					"outputs": [
						{
							"internalType": "uint256",
							"name": "lastClaimedIndex",
							"type": "uint256"
						}
					],
					"stateMutability": "view",
					"type": "function"
				},
				{
					"inputs": [
						{
							"internalType": "address",
							"name": "newOwner",
							"type": "address"
						}
					],
					"name": "transferOwnership",
					"outputs": [],
					"stateMutability": "nonpayable",
					"type": "function"
				}
			],
			"devdoc": {
				"errors": {
					"OwnableInvalidOwner(address)": [
						{
							"details": "The owner is not a valid owner account. (eg. `address(0)`)"
						}
					],
					"OwnableUnauthorizedAccount(address)": [
						{
							"details": "The caller account is not authorized to perform an operation."
						}
					]
				},
				"kind": "dev",
				"methods": {
					"owner()": {
						"details": "Returns the address of the current owner."
					},
					"renounceOwnership()": {
						"details": "Leaves the contract without owner. It will not be possible to call `onlyOwner` functions. Can only be called by the current owner. NOTE: Renouncing ownership will leave the contract without an owner, thereby disabling any functionality that is only available to the owner."
					},
					"transferOwnership(address)": {
						"details": "Transfers ownership of the contract to a new account (`newOwner`). Can only be called by the current owner."
					}
				},
				"version": 1
			},
			"evm": {
				"assembly": "    /* \"contracts/rent/RentDistribution.sol\":391:4142  contract RentDistribution is ReentrancyGuard, Ownable {... */\n  mstore(0x40, 0x80)\n    /* \"contracts/rent/RentDistribution.sol\":1151:1209  constructor(address initialOwner) Ownable(initialOwner) {} */\n  callvalue\n  dup1\n  iszero\n  tag_1\n  jumpi\n  revert(0x00, 0x00)\ntag_1:\n  pop\n  mload(0x40)\n  sub(codesize, bytecodeSize)\n  dup1\n  bytecodeSize\n  dup4\n  codecopy\n  dup2\n  dup2\n  add\n  0x40\n  mstore\n  dup2\n  add\n  swap1\n  tag_2\n  swap2\n  swap1\n  tag_3\n  jump\t// in\ntag_2:\n    /* \"contracts/rent/RentDistribution.sol\":1193:1205  initialOwner */\n  dup1\n    /* \"https://github.com/OpenZeppelin/openzeppelin-contracts/blob/v4.9.0/contracts/security/ReentrancyGuard.sol\":1716:1717  1 */\n  0x01\n    /* \"https://github.com/OpenZeppelin/openzeppelin-contracts/blob/v4.9.0/contracts/security/ReentrancyGuard.sol\":1821:1828  _status */\n  0x00\n    /* \"https://github.com/OpenZeppelin/openzeppelin-contracts/blob/v4.9.0/contracts/security/ReentrancyGuard.sol\":1821:1843  _status = _NOT_ENTERED */\n  dup2\n  swap1\n  sstore\n  pop\n    /* \"https://github.com/OpenZeppelin/openzeppelin-contracts/blob/v5.0.0/contracts/access/Ownable.sol\":1297:1298  0 */\n  0x00\n    /* \"https://github.com/OpenZeppelin/openzeppelin-contracts/blob/v5.0.0/contracts/access/Ownable.sol\":1273:1299  initialOwner == address(0) */\n  0xffffffffffffffffffffffffffffffffffffffff\n  and\n    /* \"https://github.com/OpenZeppelin/openzeppelin-contracts/blob/v5.0.0/contracts/access/Ownable.sol\":1273:1285  initialOwner */\n  dup2\n    /* \"https://github.com/OpenZeppelin/openzeppelin-contracts/blob/v5.0.0/contracts/access/Ownable.sol\":1273:1299  initialOwner == address(0) */\n  0xffffffffffffffffffffffffffffffffffffffff\n  and\n  sub\n    /* \"https://github.com/OpenZeppelin/openzeppelin-contracts/blob/v5.0.0/contracts/access/Ownable.sol\":1269:1364  if (initialOwner == address(0)) {... */\n  tag_9\n  jumpi\n    /* \"https://github.com/OpenZeppelin/openzeppelin-contracts/blob/v5.0.0/contracts/access/Ownable.sol\":1350:1351  0 */\n  0x00\n    /* \"https://github.com/OpenZeppelin/openzeppelin-contracts/blob/v5.0.0/contracts/access/Ownable.sol\":1322:1353  OwnableInvalidOwner(address(0)) */\n  mload(0x40)\n  0x1e4fbdf700000000000000000000000000000000000000000000000000000000\n  dup2\n  mstore\n  0x04\n  add\n  tag_10\n  swap2\n  swap1\n  tag_11\n  jump\t// in\ntag_10:\n  mload(0x40)\n  dup1\n  swap2\n  sub\n  swap1\n  revert\n    /* \"https://github.com/OpenZeppelin/openzeppelin-contracts/blob/v5.0.0/contracts/access/Ownable.sol\":1269:1364  if (initialOwner == address(0)) {... */\ntag_9:\n    /* \"https://github.com/OpenZeppelin/openzeppelin-contracts/blob/v5.0.0/contracts/access/Ownable.sol\":1373:1405  _transferOwnership(initialOwner) */\n  tag_12\n    /* \"https://github.com/OpenZeppelin/openzeppelin-contracts/blob/v5.0.0/contracts/access/Ownable.sol\":1392:1404  initialOwner */\n  dup2\n    /* \"https://github.com/OpenZeppelin/openzeppelin-contracts/blob/v5.0.0/contracts/access/Ownable.sol\":1373:1391  _transferOwnership */\n  shl(0x20, tag_13)\n    /* \"https://github.com/OpenZeppelin/openzeppelin-contracts/blob/v5.0.0/contracts/access/Ownable.sol\":1373:1405  _transferOwnership(initialOwner) */\n  0x20\n  shr\n  jump\t// in\ntag_12:\n    /* \"https://github.com/OpenZeppelin/openzeppelin-contracts/blob/v5.0.0/contracts/access/Ownable.sol\":1225:1412  constructor(address initialOwner) {... */\n  pop\n    /* \"contracts/rent/RentDistribution.sol\":1151:1209  constructor(address initialOwner) Ownable(initialOwner) {} */\n  pop\n    /* \"contracts/rent/RentDistribution.sol\":391:4142  contract RentDistribution is ReentrancyGuard, Ownable {... */\n  jump(tag_15)\n    /* \"https://github.com/OpenZeppelin/openzeppelin-contracts/blob/v5.0.0/contracts/access/Ownable.sol\":2912:3099  function _transferOwnership(address newOwner) internal virtual {... */\ntag_13:\n    /* \"https://github.com/OpenZeppelin/openzeppelin-contracts/blob/v5.0.0/contracts/access/Ownable.sol\":2985:3001  address oldOwner */\n  0x00\n    /* \"https://github.com/OpenZeppelin/openzeppelin-contracts/blob/v5.0.0/contracts/access/Ownable.sol\":3004:3010  _owner */\n  0x01\n  0x00\n  swap1\n  sload\n  swap1\n  0x0100\n  exp\n  swap1\n  div\n  0xffffffffffffffffffffffffffffffffffffffff\n  and\n    /* \"https://github.com/OpenZeppelin/openzeppelin-contracts/blob/v5.0.0/contracts/access/Ownable.sol\":2985:3010  address oldOwner = _owner */\n  swap1\n  pop\n    /* \"https://github.com/OpenZeppelin/openzeppelin-contracts/blob/v5.0.0/contracts/access/Ownable.sol\":3029:3037  newOwner */\n  dup2\n    /* \"https://github.com/OpenZeppelin/openzeppelin-contracts/blob/v5.0.0/contracts/access/Ownable.sol\":3020:3026  _owner */\n  0x01\n  0x00\n    /* \"https://github.com/OpenZeppelin/openzeppelin-contracts/blob/v5.0.0/contracts/access/Ownable.sol\":3020:3037  _owner = newOwner */\n  0x0100\n  exp\n  dup2\n  sload\n  dup2\n  0xffffffffffffffffffffffffffffffffffffffff\n  mul\n  not\n  and\n  swap1\n  dup4\n  0xffffffffffffffffffffffffffffffffffffffff\n  and\n  mul\n  or\n  swap1\n  sstore\n  pop\n    /* \"https://github.com/OpenZeppelin/openzeppelin-contracts/blob/v5.0.0/contracts/access/Ownable.sol\":3083:3091  newOwner */\n  dup2\n    /* \"https://github.com/OpenZeppelin/openzeppelin-contracts/blob/v5.0.0/contracts/access/Ownable.sol\":3052:3092  OwnershipTransferred(oldOwner, newOwner) */\n  0xffffffffffffffffffffffffffffffffffffffff\n  and\n    /* \"https://github.com/OpenZeppelin/openzeppelin-contracts/blob/v5.0.0/contracts/access/Ownable.sol\":3073:3081  oldOwner */\n  dup2\n    /* \"https://github.com/OpenZeppelin/openzeppelin-contracts/blob/v5.0.0/contracts/access/Ownable.sol\":3052:3092  OwnershipTransferred(oldOwner, newOwner) */\n  0xffffffffffffffffffffffffffffffffffffffff\n  and\n  0x8be0079c531659141344cd1fd0a4f28419497f9722a3daafe3b4186f6b6457e0\n  mload(0x40)\n  mload(0x40)\n  dup1\n  swap2\n  sub\n  swap1\n  log3\n    /* \"https://github.com/OpenZeppelin/openzeppelin-contracts/blob/v5.0.0/contracts/access/Ownable.sol\":2975:3099  {... */\n  pop\n    /* \"https://github.com/OpenZeppelin/openzeppelin-contracts/blob/v5.0.0/contracts/access/Ownable.sol\":2912:3099  function _transferOwnership(address newOwner) internal virtual {... */\n  pop\n  jump\t// out\n    /* \"#utility.yul\":88:205   */\ntag_18:\n    /* \"#utility.yul\":197:198   */\n  0x00\n    /* \"#utility.yul\":194:195   */\n  0x00\n    /* \"#utility.yul\":187:199   */\n  revert\n    /* \"#utility.yul\":334:460   */\ntag_20:\n    /* \"#utility.yul\":371:378   */\n  0x00\n    /* \"#utility.yul\":411:453   */\n  0xffffffffffffffffffffffffffffffffffffffff\n    /* \"#utility.yul\":404:409   */\n  dup3\n    /* \"#utility.yul\":400:454   */\n  and\n    /* \"#utility.yul\":389:454   */\n  swap1\n  pop\n    /* \"#utility.yul\":334:460   */\n  swap2\n  swap1\n  pop\n  jump\t// out\n    /* \"#utility.yul\":466:562   */\ntag_21:\n    /* \"#utility.yul\":503:510   */\n  0x00\n    /* \"#utility.yul\":532:556   */\n  tag_31\n    /* \"#utility.yul\":550:555   */\n  dup3\n    /* \"#utility.yul\":532:556   */\n  tag_20\n  jump\t// in\ntag_31:\n    /* \"#utility.yul\":521:556   */\n  swap1\n  pop\n    /* \"#utility.yul\":466:562   */\n  swap2\n  swap1\n  pop\n  jump\t// out\n    /* \"#utility.yul\":568:690   */\ntag_22:\n    /* \"#utility.yul\":641:665   */\n  tag_33\n    /* \"#utility.yul\":659:664   */\n  dup2\n    /* \"#utility.yul\":641:665   */\n  tag_21\n  jump\t// in\ntag_33:\n    /* \"#utility.yul\":634:639   */\n  dup2\n    /* \"#utility.yul\":631:666   */\n  eq\n    /* \"#utility.yul\":621:684   */\n  tag_34\n  jumpi\n    /* \"#utility.yul\":680:681   */\n  0x00\n    /* \"#utility.yul\":677:678   */\n  0x00\n    /* \"#utility.yul\":670:682   */\n  revert\n    /* \"#utility.yul\":621:684   */\ntag_34:\n    /* \"#utility.yul\":568:690   */\n  pop\n  jump\t// out\n    /* \"#utility.yul\":696:839   */\ntag_23:\n    /* \"#utility.yul\":753:758   */\n  0x00\n    /* \"#utility.yul\":784:790   */\n  dup2\n    /* \"#utility.yul\":778:791   */\n  mload\n    /* \"#utility.yul\":769:791   */\n  swap1\n  pop\n    /* \"#utility.yul\":800:833   */\n  tag_36\n    /* \"#utility.yul\":827:832   */\n  dup2\n    /* \"#utility.yul\":800:833   */\n  tag_22\n  jump\t// in\ntag_36:\n    /* \"#utility.yul\":696:839   */\n  swap3\n  swap2\n  pop\n  pop\n  jump\t// out\n    /* \"#utility.yul\":845:1196   */\ntag_3:\n    /* \"#utility.yul\":915:921   */\n  0x00\n    /* \"#utility.yul\":964:966   */\n  0x20\n    /* \"#utility.yul\":952:961   */\n  dup3\n    /* \"#utility.yul\":943:950   */\n  dup5\n    /* \"#utility.yul\":939:962   */\n  sub\n    /* \"#utility.yul\":935:967   */\n  slt\n    /* \"#utility.yul\":932:1051   */\n  iszero\n  tag_38\n  jumpi\n    /* \"#utility.yul\":970:1049   */\n  tag_39\n  tag_18\n  jump\t// in\ntag_39:\n    /* \"#utility.yul\":932:1051   */\ntag_38:\n    /* \"#utility.yul\":1090:1091   */\n  0x00\n    /* \"#utility.yul\":1115:1179   */\n  tag_40\n    /* \"#utility.yul\":1171:1178   */\n  dup5\n    /* \"#utility.yul\":1162:1168   */\n  dup3\n    /* \"#utility.yul\":1151:1160   */\n  dup6\n    /* \"#utility.yul\":1147:1169   */\n  add\n    /* \"#utility.yul\":1115:1179   */\n  tag_23\n  jump\t// in\ntag_40:\n    /* \"#utility.yul\":1105:1179   */\n  swap2\n  pop\n    /* \"#utility.yul\":1061:1189   */\n  pop\n    /* \"#utility.yul\":845:1196   */\n  swap3\n  swap2\n  pop\n  pop\n  jump\t// out\n    /* \"#utility.yul\":1202:1320   */\ntag_24:\n    /* \"#utility.yul\":1289:1313   */\n  tag_42\n    /* \"#utility.yul\":1307:1312   */\n  dup2\n    /* \"#utility.yul\":1289:1313   */\n  tag_21\n  jump\t// in\ntag_42:\n    /* \"#utility.yul\":1284:1287   */\n  dup3\n    /* \"#utility.yul\":1277:1314   */\n  mstore\n    /* \"#utility.yul\":1202:1320   */\n  pop\n  pop\n  jump\t// out\n    /* \"#utility.yul\":1326:1548   */\ntag_11:\n    /* \"#utility.yul\":1419:1423   */\n  0x00\n    /* \"#utility.yul\":1457:1459   */\n  0x20\n    /* \"#utility.yul\":1446:1455   */\n  dup3\n    /* \"#utility.yul\":1442:1460   */\n  add\n    /* \"#utility.yul\":1434:1460   */\n  swap1\n  pop\n    /* \"#utility.yul\":1470:1541   */\n  tag_44\n    /* \"#utility.yul\":1538:1539   */\n  0x00\n    /* \"#utility.yul\":1527:1536   */\n  dup4\n    /* \"#utility.yul\":1523:1540   */\n  add\n    /* \"#utility.yul\":1514:1520   */\n  dup5\n    /* \"#utility.yul\":1470:1541   */\n  tag_24\n  jump\t// in\ntag_44:\n    /* \"#utility.yul\":1326:1548   */\n  swap3\n  swap2\n  pop\n  pop\n  jump\t// out\n    /* \"contracts/rent/RentDistribution.sol\":391:4142  contract RentDistribution is ReentrancyGuard, Ownable {... */\ntag_15:\n  dataSize(sub_0)\n  dup1\n  dataOffset(sub_0)\n  0x00\n  codecopy\n  0x00\n  return\nstop\n\nsub_0: assembly {\n        /* \"contracts/rent/RentDistribution.sol\":391:4142  contract RentDistribution is ReentrancyGuard, Ownable {... */\n      mstore(0x40, 0x80)\n      jumpi(tag_1, lt(calldatasize, 0x04))\n      shr(0xe0, calldataload(0x00))\n      dup1\n      0x781f3621\n      gt\n      tag_10\n      jumpi\n      dup1\n      0x781f3621\n      eq\n      tag_6\n      jumpi\n      dup1\n      0x8da5cb5b\n      eq\n      tag_7\n      jumpi\n      dup1\n      0xf2fde38b\n      eq\n      tag_8\n      jumpi\n      dup1\n      0xfa1637b3\n      eq\n      tag_9\n      jumpi\n      jump(tag_1)\n    tag_10:\n      dup1\n      0x2625205e\n      eq\n      tag_2\n      jumpi\n      dup1\n      0x58790cd5\n      eq\n      tag_3\n      jumpi\n      dup1\n      0x6b9540d0\n      eq\n      tag_4\n      jumpi\n      dup1\n      0x715018a6\n      eq\n      tag_5\n      jumpi\n    tag_1:\n      revert(0x00, 0x00)\n        /* \"contracts/rent/RentDistribution.sol\":861:932  mapping(address => mapping(address => TokenHolder)) public tokenHolders */\n    tag_2:\n      callvalue\n      dup1\n      iszero\n      tag_11\n      jumpi\n      revert(0x00, 0x00)\n    tag_11:\n      pop\n      tag_12\n      0x04\n      dup1\n      calldatasize\n      sub\n      dup2\n      add\n      swap1\n      tag_13\n      swap2\n      swap1\n      tag_14\n      jump\t// in\n    tag_13:\n      tag_15\n      jump\t// in\n    tag_12:\n      mload(0x40)\n      tag_16\n      swap2\n      swap1\n      tag_17\n      jump\t// in\n    tag_16:\n      mload(0x40)\n      dup1\n      swap2\n      sub\n      swap1\n      return\n        /* \"contracts/rent/RentDistribution.sol\":710:763  mapping(address => RentPayment[]) public rentPayments */\n    tag_3:\n      callvalue\n      dup1\n      iszero\n      tag_18\n      jumpi\n      revert(0x00, 0x00)\n    tag_18:\n      pop\n      tag_19\n      0x04\n      dup1\n      calldatasize\n      sub\n      dup2\n      add\n      swap1\n      tag_20\n      swap2\n      swap1\n      tag_21\n      jump\t// in\n    tag_20:\n      tag_22\n      jump\t// in\n    tag_19:\n      mload(0x40)\n      tag_23\n      swap4\n      swap3\n      swap2\n      swap1\n      tag_24\n      jump\t// in\n    tag_23:\n      mload(0x40)\n      dup1\n      swap2\n      sub\n      swap1\n      return\n        /* \"contracts/rent/RentDistribution.sol\":3130:4140  function getUnclaimedRent(address _propertyToken, address _tokenHolder) external view returns (uint256) {... */\n    tag_4:\n      callvalue\n      dup1\n      iszero\n      tag_25\n      jumpi\n      revert(0x00, 0x00)\n    tag_25:\n      pop\n      tag_26\n      0x04\n      dup1\n      calldatasize\n      sub\n      dup2\n      add\n      swap1\n      tag_27\n      swap2\n      swap1\n      tag_14\n      jump\t// in\n    tag_27:\n      tag_28\n      jump\t// in\n    tag_26:\n      mload(0x40)\n      tag_29\n      swap2\n      swap1\n      tag_17\n      jump\t// in\n    tag_29:\n      mload(0x40)\n      dup1\n      swap2\n      sub\n      swap1\n      return\n        /* \"https://github.com/OpenZeppelin/openzeppelin-contracts/blob/v5.0.0/contracts/access/Ownable.sol\":2293:2394  function renounceOwnership() public virtual onlyOwner {... */\n    tag_5:\n      callvalue\n      dup1\n      iszero\n      tag_30\n      jumpi\n      revert(0x00, 0x00)\n    tag_30:\n      pop\n      tag_31\n      tag_32\n      jump\t// in\n    tag_31:\n      stop\n        /* \"contracts/rent/RentDistribution.sol\":1284:1788  function depositRent(address _propertyToken) external payable {... */\n    tag_6:\n      tag_33\n      0x04\n      dup1\n      calldatasize\n      sub\n      dup2\n      add\n      swap1\n      tag_34\n      swap2\n      swap1\n      tag_35\n      jump\t// in\n    tag_34:\n      tag_36\n      jump\t// in\n    tag_33:\n      stop\n        /* \"https://github.com/OpenZeppelin/openzeppelin-contracts/blob/v5.0.0/contracts/access/Ownable.sol\":1638:1723  function owner() public view virtual returns (address) {... */\n    tag_7:\n      callvalue\n      dup1\n      iszero\n      tag_37\n      jumpi\n      revert(0x00, 0x00)\n    tag_37:\n      pop\n      tag_38\n      tag_39\n      jump\t// in\n    tag_38:\n      mload(0x40)\n      tag_40\n      swap2\n      swap1\n      tag_41\n      jump\t// in\n    tag_40:\n      mload(0x40)\n      dup1\n      swap2\n      sub\n      swap1\n      return\n        /* \"https://github.com/OpenZeppelin/openzeppelin-contracts/blob/v5.0.0/contracts/access/Ownable.sol\":2543:2758  function transferOwnership(address newOwner) public virtual onlyOwner {... */\n    tag_8:\n      callvalue\n      dup1\n      iszero\n      tag_42\n      jumpi\n      revert(0x00, 0x00)\n    tag_42:\n      pop\n      tag_43\n      0x04\n      dup1\n      calldatasize\n      sub\n      dup2\n      add\n      swap1\n      tag_44\n      swap2\n      swap1\n      tag_35\n      jump\t// in\n    tag_44:\n      tag_45\n      jump\t// in\n    tag_43:\n      stop\n        /* \"contracts/rent/RentDistribution.sol\":1852:3068  function claimRent(address _propertyToken) external nonReentrant {... */\n    tag_9:\n      callvalue\n      dup1\n      iszero\n      tag_46\n      jumpi\n      revert(0x00, 0x00)\n    tag_46:\n      pop\n      tag_47\n      0x04\n      dup1\n      calldatasize\n      sub\n      dup2\n      add\n      swap1\n      tag_48\n      swap2\n      swap1\n      tag_35\n      jump\t// in\n    tag_48:\n      tag_49\n      jump\t// in\n    tag_47:\n      stop\n        /* \"contracts/rent/RentDistribution.sol\":861:932  mapping(address => mapping(address => TokenHolder)) public tokenHolders */\n    tag_15:\n      mstore(0x20, 0x03)\n      dup2\n      0x00\n      mstore\n      mstore(0x20, keccak256(0x00, 0x40))\n      dup1\n      0x00\n      mstore\n      keccak256(0x00, 0x40)\n      0x00\n      swap2\n      pop\n      swap2\n      pop\n      pop\n      dup1\n      0x00\n      add\n      sload\n      swap1\n      pop\n      dup2\n      jump\t// out\n        /* \"contracts/rent/RentDistribution.sol\":710:763  mapping(address => RentPayment[]) public rentPayments */\n    tag_22:\n      mstore(0x20, 0x02)\n      dup2\n      0x00\n      mstore\n      keccak256(0x00, 0x40)\n      dup2\n      dup2\n      sload\n      dup2\n      lt\n      tag_50\n      jumpi\n      0x00\n      dup1\n      revert\n    tag_50:\n      swap1\n      0x00\n      mstore\n      keccak256(0x00, 0x20)\n      swap1\n      0x03\n      mul\n      add\n      0x00\n      swap2\n      pop\n      swap2\n      pop\n      pop\n      dup1\n      0x00\n      add\n      sload\n      swap1\n      dup1\n      0x01\n      add\n      sload\n      swap1\n      dup1\n      0x02\n      add\n      sload\n      swap1\n      pop\n      dup4\n      jump\t// out\n        /* \"contracts/rent/RentDistribution.sol\":3130:4140  function getUnclaimedRent(address _propertyToken, address _tokenHolder) external view returns (uint256) {... */\n    tag_28:\n        /* \"contracts/rent/RentDistribution.sol\":3225:3232  uint256 */\n      0x00\n        /* \"contracts/rent/RentDistribution.sol\":3244:3256  IERC20 token */\n      0x00\n        /* \"contracts/rent/RentDistribution.sol\":3266:3280  _propertyToken */\n      dup4\n        /* \"contracts/rent/RentDistribution.sol\":3244:3281  IERC20 token = IERC20(_propertyToken) */\n      swap1\n      pop\n        /* \"contracts/rent/RentDistribution.sol\":3291:3306  uint256 balance */\n      0x00\n        /* \"contracts/rent/RentDistribution.sol\":3309:3314  token */\n      dup2\n        /* \"contracts/rent/RentDistribution.sol\":3309:3324  token.balanceOf */\n      0xffffffffffffffffffffffffffffffffffffffff\n      and\n      0x70a08231\n        /* \"contracts/rent/RentDistribution.sol\":3325:3337  _tokenHolder */\n      dup6\n        /* \"contracts/rent/RentDistribution.sol\":3309:3338  token.balanceOf(_tokenHolder) */\n      mload(0x40)\n      dup3\n      0xffffffff\n      and\n      0xe0\n      shl\n      dup2\n      mstore\n      0x04\n      add\n      tag_53\n      swap2\n      swap1\n      tag_41\n      jump\t// in\n    tag_53:\n      0x20\n      mload(0x40)\n      dup1\n      dup4\n      sub\n      dup2\n      dup7\n      gas\n      staticcall\n      iszero\n      dup1\n      iszero\n      tag_55\n      jumpi\n      returndatacopy(0x00, 0x00, returndatasize)\n      revert(0x00, returndatasize)\n    tag_55:\n      pop\n      pop\n      pop\n      pop\n      mload(0x40)\n      returndatasize\n      not(0x1f)\n      0x1f\n      dup3\n      add\n      and\n      dup3\n      add\n      dup1\n      0x40\n      mstore\n      pop\n      dup2\n      add\n      swap1\n      tag_56\n      swap2\n      swap1\n      tag_57\n      jump\t// in\n    tag_56:\n        /* \"contracts/rent/RentDistribution.sol\":3291:3338  uint256 balance = token.balanceOf(_tokenHolder) */\n      swap1\n      pop\n        /* \"contracts/rent/RentDistribution.sol\":3372:3373  0 */\n      0x00\n        /* \"contracts/rent/RentDistribution.sol\":3361:3368  balance */\n      dup2\n        /* \"contracts/rent/RentDistribution.sol\":3361:3373  balance == 0 */\n      sub\n        /* \"contracts/rent/RentDistribution.sol\":3357:3408  if (balance == 0) {... */\n      tag_58\n      jumpi\n        /* \"contracts/rent/RentDistribution.sol\":3396:3397  0 */\n      0x00\n        /* \"contracts/rent/RentDistribution.sol\":3389:3397  return 0 */\n      swap3\n      pop\n      pop\n      pop\n      jump(tag_52)\n        /* \"contracts/rent/RentDistribution.sol\":3357:3408  if (balance == 0) {... */\n    tag_58:\n        /* \"contracts/rent/RentDistribution.sol\":3426:3452  TokenHolder storage holder */\n      0x00\n        /* \"contracts/rent/RentDistribution.sol\":3455:3467  tokenHolders */\n      0x03\n        /* \"contracts/rent/RentDistribution.sol\":3455:3483  tokenHolders[_propertyToken] */\n      0x00\n        /* \"contracts/rent/RentDistribution.sol\":3468:3482  _propertyToken */\n      dup8\n        /* \"contracts/rent/RentDistribution.sol\":3455:3483  tokenHolders[_propertyToken] */\n      0xffffffffffffffffffffffffffffffffffffffff\n      and\n      0xffffffffffffffffffffffffffffffffffffffff\n      and\n      dup2\n      mstore\n      0x20\n      add\n      swap1\n      dup2\n      mstore\n      0x20\n      add\n      0x00\n      keccak256\n        /* \"contracts/rent/RentDistribution.sol\":3455:3497  tokenHolders[_propertyToken][_tokenHolder] */\n      0x00\n        /* \"contracts/rent/RentDistribution.sol\":3484:3496  _tokenHolder */\n      dup7\n        /* \"contracts/rent/RentDistribution.sol\":3455:3497  tokenHolders[_propertyToken][_tokenHolder] */\n      0xffffffffffffffffffffffffffffffffffffffff\n      and\n      0xffffffffffffffffffffffffffffffffffffffff\n      and\n      dup2\n      mstore\n      0x20\n      add\n      swap1\n      dup2\n      mstore\n      0x20\n      add\n      0x00\n      keccak256\n        /* \"contracts/rent/RentDistribution.sol\":3426:3497  TokenHolder storage holder = tokenHolders[_propertyToken][_tokenHolder] */\n      swap1\n      pop\n        /* \"contracts/rent/RentDistribution.sol\":3507:3525  uint256 startIndex */\n      0x00\n        /* \"contracts/rent/RentDistribution.sol\":3528:3534  holder */\n      dup2\n        /* \"contracts/rent/RentDistribution.sol\":3528:3551  holder.lastClaimedIndex */\n      0x00\n      add\n      sload\n        /* \"contracts/rent/RentDistribution.sol\":3507:3551  uint256 startIndex = holder.lastClaimedIndex */\n      swap1\n      pop\n        /* \"contracts/rent/RentDistribution.sol\":3561:3577  uint256 endIndex */\n      0x00\n        /* \"contracts/rent/RentDistribution.sol\":3580:3592  rentPayments */\n      0x02\n        /* \"contracts/rent/RentDistribution.sol\":3580:3608  rentPayments[_propertyToken] */\n      0x00\n        /* \"contracts/rent/RentDistribution.sol\":3593:3607  _propertyToken */\n      dup10\n        /* \"contracts/rent/RentDistribution.sol\":3580:3608  rentPayments[_propertyToken] */\n      0xffffffffffffffffffffffffffffffffffffffff\n      and\n      0xffffffffffffffffffffffffffffffffffffffff\n      and\n      dup2\n      mstore\n      0x20\n      add\n      swap1\n      dup2\n      mstore\n      0x20\n      add\n      0x00\n      keccak256\n        /* \"contracts/rent/RentDistribution.sol\":3580:3615  rentPayments[_propertyToken].length */\n      dup1\n      sload\n      swap1\n      pop\n        /* \"contracts/rent/RentDistribution.sol\":3561:3615  uint256 endIndex = rentPayments[_propertyToken].length */\n      swap1\n      pop\n        /* \"contracts/rent/RentDistribution.sol\":3652:3660  endIndex */\n      dup1\n        /* \"contracts/rent/RentDistribution.sol\":3638:3648  startIndex */\n      dup3\n        /* \"contracts/rent/RentDistribution.sol\":3638:3660  startIndex >= endIndex */\n      lt\n        /* \"contracts/rent/RentDistribution.sol\":3634:3695  if (startIndex >= endIndex) {... */\n      tag_59\n      jumpi\n        /* \"contracts/rent/RentDistribution.sol\":3683:3684  0 */\n      0x00\n        /* \"contracts/rent/RentDistribution.sol\":3676:3684  return 0 */\n      swap6\n      pop\n      pop\n      pop\n      pop\n      pop\n      pop\n      jump(tag_52)\n        /* \"contracts/rent/RentDistribution.sol\":3634:3695  if (startIndex >= endIndex) {... */\n    tag_59:\n        /* \"contracts/rent/RentDistribution.sol\":3713:3737  uint256 totalRentToClaim */\n      0x00\n        /* \"contracts/rent/RentDistribution.sol\":3740:3741  0 */\n      0x00\n        /* \"contracts/rent/RentDistribution.sol\":3713:3741  uint256 totalRentToClaim = 0 */\n      swap1\n      pop\n        /* \"contracts/rent/RentDistribution.sol\":3765:3774  uint256 i */\n      0x00\n        /* \"contracts/rent/RentDistribution.sol\":3777:3787  startIndex */\n      dup4\n        /* \"contracts/rent/RentDistribution.sol\":3765:3787  uint256 i = startIndex */\n      swap1\n      pop\n        /* \"contracts/rent/RentDistribution.sol\":3760:4092  for (uint256 i = startIndex; i < endIndex; i++) {... */\n    tag_60:\n        /* \"contracts/rent/RentDistribution.sol\":3793:3801  endIndex */\n      dup3\n        /* \"contracts/rent/RentDistribution.sol\":3789:3790  i */\n      dup2\n        /* \"contracts/rent/RentDistribution.sol\":3789:3801  i < endIndex */\n      lt\n        /* \"contracts/rent/RentDistribution.sol\":3760:4092  for (uint256 i = startIndex; i < endIndex; i++) {... */\n      iszero\n      tag_61\n      jumpi\n        /* \"contracts/rent/RentDistribution.sol\":3822:3849  RentPayment storage payment */\n      0x00\n        /* \"contracts/rent/RentDistribution.sol\":3852:3864  rentPayments */\n      0x02\n        /* \"contracts/rent/RentDistribution.sol\":3852:3880  rentPayments[_propertyToken] */\n      0x00\n        /* \"contracts/rent/RentDistribution.sol\":3865:3879  _propertyToken */\n      dup13\n        /* \"contracts/rent/RentDistribution.sol\":3852:3880  rentPayments[_propertyToken] */\n      0xffffffffffffffffffffffffffffffffffffffff\n      and\n      0xffffffffffffffffffffffffffffffffffffffff\n      and\n      dup2\n      mstore\n      0x20\n      add\n      swap1\n      dup2\n      mstore\n      0x20\n      add\n      0x00\n      keccak256\n        /* \"contracts/rent/RentDistribution.sol\":3881:3882  i */\n      dup3\n        /* \"contracts/rent/RentDistribution.sol\":3852:3883  rentPayments[_propertyToken][i] */\n      dup2\n      sload\n      dup2\n      lt\n      tag_63\n      jumpi\n      tag_64\n      tag_65\n      jump\t// in\n    tag_64:\n    tag_63:\n      swap1\n      0x00\n      mstore\n      keccak256(0x00, 0x20)\n      swap1\n      0x03\n      mul\n      add\n        /* \"contracts/rent/RentDistribution.sol\":3822:3883  RentPayment storage payment = rentPayments[_propertyToken][i] */\n      swap1\n      pop\n        /* \"contracts/rent/RentDistribution.sol\":3970:3983  uint256 share */\n      0x00\n        /* \"contracts/rent/RentDistribution.sol\":4015:4022  payment */\n      dup2\n        /* \"contracts/rent/RentDistribution.sol\":4015:4042  payment.totalSupplySnapshot */\n      0x02\n      add\n      sload\n        /* \"contracts/rent/RentDistribution.sol\":4004:4011  balance */\n      dup9\n        /* \"contracts/rent/RentDistribution.sol\":3987:3994  payment */\n      dup4\n        /* \"contracts/rent/RentDistribution.sol\":3987:4001  payment.amount */\n      0x00\n      add\n      sload\n        /* \"contracts/rent/RentDistribution.sol\":3987:4011  payment.amount * balance */\n      tag_67\n      swap2\n      swap1\n      tag_68\n      jump\t// in\n    tag_67:\n        /* \"contracts/rent/RentDistribution.sol\":3986:4042  (payment.amount * balance) / payment.totalSupplySnapshot */\n      tag_69\n      swap2\n      swap1\n      tag_70\n      jump\t// in\n    tag_69:\n        /* \"contracts/rent/RentDistribution.sol\":3970:4042  uint256 share = (payment.amount * balance) / payment.totalSupplySnapshot */\n      swap1\n      pop\n        /* \"contracts/rent/RentDistribution.sol\":4076:4081  share */\n      dup1\n        /* \"contracts/rent/RentDistribution.sol\":4056:4081  totalRentToClaim += share */\n      dup5\n      tag_71\n      swap2\n      swap1\n      tag_72\n      jump\t// in\n    tag_71:\n      swap4\n      pop\n        /* \"contracts/rent/RentDistribution.sol\":3808:4092  {... */\n      pop\n      pop\n        /* \"contracts/rent/RentDistribution.sol\":3803:3806  i++ */\n      dup1\n      dup1\n      0x01\n      add\n      swap2\n      pop\n      pop\n        /* \"contracts/rent/RentDistribution.sol\":3760:4092  for (uint256 i = startIndex; i < endIndex; i++) {... */\n      jump(tag_60)\n    tag_61:\n      pop\n        /* \"contracts/rent/RentDistribution.sol\":4117:4133  totalRentToClaim */\n      dup1\n        /* \"contracts/rent/RentDistribution.sol\":4110:4133  return totalRentToClaim */\n      swap7\n      pop\n      pop\n      pop\n      pop\n      pop\n      pop\n      pop\n        /* \"contracts/rent/RentDistribution.sol\":3130:4140  function getUnclaimedRent(address _propertyToken, address _tokenHolder) external view returns (uint256) {... */\n    tag_52:\n      swap3\n      swap2\n      pop\n      pop\n      jump\t// out\n        /* \"https://github.com/OpenZeppelin/openzeppelin-contracts/blob/v5.0.0/contracts/access/Ownable.sol\":2293:2394  function renounceOwnership() public virtual onlyOwner {... */\n    tag_32:\n        /* \"https://github.com/OpenZeppelin/openzeppelin-contracts/blob/v5.0.0/contracts/access/Ownable.sol\":1531:1544  _checkOwner() */\n      tag_74\n        /* \"https://github.com/OpenZeppelin/openzeppelin-contracts/blob/v5.0.0/contracts/access/Ownable.sol\":1531:1542  _checkOwner */\n      tag_75\n        /* \"https://github.com/OpenZeppelin/openzeppelin-contracts/blob/v5.0.0/contracts/access/Ownable.sol\":1531:1544  _checkOwner() */\n      jump\t// in\n    tag_74:\n        /* \"https://github.com/OpenZeppelin/openzeppelin-contracts/blob/v5.0.0/contracts/access/Ownable.sol\":2357:2387  _transferOwnership(address(0)) */\n      tag_77\n        /* \"https://github.com/OpenZeppelin/openzeppelin-contracts/blob/v5.0.0/contracts/access/Ownable.sol\":2384:2385  0 */\n      0x00\n        /* \"https://github.com/OpenZeppelin/openzeppelin-contracts/blob/v5.0.0/contracts/access/Ownable.sol\":2357:2375  _transferOwnership */\n      tag_78\n        /* \"https://github.com/OpenZeppelin/openzeppelin-contracts/blob/v5.0.0/contracts/access/Ownable.sol\":2357:2387  _transferOwnership(address(0)) */\n      jump\t// in\n    tag_77:\n        /* \"https://github.com/OpenZeppelin/openzeppelin-contracts/blob/v5.0.0/contracts/access/Ownable.sol\":2293:2394  function renounceOwnership() public virtual onlyOwner {... */\n      jump\t// out\n        /* \"contracts/rent/RentDistribution.sol\":1284:1788  function depositRent(address _propertyToken) external payable {... */\n    tag_36:\n        /* \"contracts/rent/RentDistribution.sol\":1376:1377  0 */\n      0x00\n        /* \"contracts/rent/RentDistribution.sol\":1364:1373  msg.value */\n      callvalue\n        /* \"contracts/rent/RentDistribution.sol\":1364:1377  msg.value > 0 */\n      gt\n        /* \"contracts/rent/RentDistribution.sol\":1356:1400  require(msg.value > 0, \"No rent to deposit\") */\n      tag_80\n      jumpi\n      mload(0x40)\n      0x08c379a000000000000000000000000000000000000000000000000000000000\n      dup2\n      mstore\n      0x04\n      add\n      tag_81\n      swap1\n      tag_82\n      jump\t// in\n    tag_81:\n      mload(0x40)\n      dup1\n      swap2\n      sub\n      swap1\n      revert\n    tag_80:\n        /* \"contracts/rent/RentDistribution.sol\":1419:1431  IERC20 token */\n      0x00\n        /* \"contracts/rent/RentDistribution.sol\":1441:1455  _propertyToken */\n      dup2\n        /* \"contracts/rent/RentDistribution.sol\":1419:1456  IERC20 token = IERC20(_propertyToken) */\n      swap1\n      pop\n        /* \"contracts/rent/RentDistribution.sol\":1466:1485  uint256 totalSupply */\n      0x00\n        /* \"contracts/rent/RentDistribution.sol\":1488:1493  token */\n      dup2\n        /* \"contracts/rent/RentDistribution.sol\":1488:1505  token.totalSupply */\n      0xffffffffffffffffffffffffffffffffffffffff\n      and\n      0x18160ddd\n        /* \"contracts/rent/RentDistribution.sol\":1488:1507  token.totalSupply() */\n      mload(0x40)\n      dup2\n      0xffffffff\n      and\n      0xe0\n      shl\n      dup2\n      mstore\n      0x04\n      add\n      0x20\n      mload(0x40)\n      dup1\n      dup4\n      sub\n      dup2\n      dup7\n      gas\n      staticcall\n      iszero\n      dup1\n      iszero\n      tag_84\n      jumpi\n      returndatacopy(0x00, 0x00, returndatasize)\n      revert(0x00, returndatasize)\n    tag_84:\n      pop\n      pop\n      pop\n      pop\n      mload(0x40)\n      returndatasize\n      not(0x1f)\n      0x1f\n      dup3\n      add\n      and\n      dup3\n      add\n      dup1\n      0x40\n      mstore\n      pop\n      dup2\n      add\n      swap1\n      tag_85\n      swap2\n      swap1\n      tag_57\n      jump\t// in\n    tag_85:\n        /* \"contracts/rent/RentDistribution.sol\":1466:1507  uint256 totalSupply = token.totalSupply() */\n      swap1\n      pop\n        /* \"contracts/rent/RentDistribution.sol\":1526:1538  rentPayments */\n      0x02\n        /* \"contracts/rent/RentDistribution.sol\":1526:1554  rentPayments[_propertyToken] */\n      0x00\n        /* \"contracts/rent/RentDistribution.sol\":1539:1553  _propertyToken */\n      dup5\n        /* \"contracts/rent/RentDistribution.sol\":1526:1554  rentPayments[_propertyToken] */\n      0xffffffffffffffffffffffffffffffffffffffff\n      and\n      0xffffffffffffffffffffffffffffffffffffffff\n      and\n      dup2\n      mstore\n      0x20\n      add\n      swap1\n      dup2\n      mstore\n      0x20\n      add\n      0x00\n      keccak256\n        /* \"contracts/rent/RentDistribution.sol\":1560:1700  RentPayment({... */\n      mload(0x40)\n      dup1\n      0x60\n      add\n      0x40\n      mstore\n      dup1\n        /* \"contracts/rent/RentDistribution.sol\":1594:1603  msg.value */\n      callvalue\n        /* \"contracts/rent/RentDistribution.sol\":1560:1700  RentPayment({... */\n      dup2\n      mstore\n      0x20\n      add\n        /* \"contracts/rent/RentDistribution.sol\":1628:1643  block.timestamp */\n      timestamp\n        /* \"contracts/rent/RentDistribution.sol\":1560:1700  RentPayment({... */\n      dup2\n      mstore\n      0x20\n      add\n        /* \"contracts/rent/RentDistribution.sol\":1678:1689  totalSupply */\n      dup4\n        /* \"contracts/rent/RentDistribution.sol\":1560:1700  RentPayment({... */\n      dup2\n      mstore\n      pop\n        /* \"contracts/rent/RentDistribution.sol\":1526:1701  rentPayments[_propertyToken].push(RentPayment({... */\n      swap1\n      dup1\n      0x01\n      dup2\n      sload\n      add\n      dup1\n      dup3\n      sstore\n      dup1\n      swap2\n      pop\n      pop\n      0x01\n      swap1\n      sub\n      swap1\n      0x00\n      mstore\n      keccak256(0x00, 0x20)\n      swap1\n      0x03\n      mul\n      add\n      0x00\n      swap1\n      swap2\n      swap1\n      swap2\n      swap1\n      swap2\n      pop\n      0x00\n      dup3\n      add\n      mload\n      dup2\n      0x00\n      add\n      sstore\n      0x20\n      dup3\n      add\n      mload\n      dup2\n      0x01\n      add\n      sstore\n      0x40\n      dup3\n      add\n      mload\n      dup2\n      0x02\n      add\n      sstore\n      pop\n      pop\n        /* \"contracts/rent/RentDistribution.sol\":1738:1752  _propertyToken */\n      dup3\n        /* \"contracts/rent/RentDistribution.sol\":1725:1781  RentReceived(_propertyToken, msg.value, block.timestamp) */\n      0xffffffffffffffffffffffffffffffffffffffff\n      and\n      0x11de96ae3aab92e2614e31859fb06c7ce666a333e21b21484e08412e0db35e03\n        /* \"contracts/rent/RentDistribution.sol\":1754:1763  msg.value */\n      callvalue\n        /* \"contracts/rent/RentDistribution.sol\":1765:1780  block.timestamp */\n      timestamp\n        /* \"contracts/rent/RentDistribution.sol\":1725:1781  RentReceived(_propertyToken, msg.value, block.timestamp) */\n      mload(0x40)\n      tag_87\n      swap3\n      swap2\n      swap1\n      tag_88\n      jump\t// in\n    tag_87:\n      mload(0x40)\n      dup1\n      swap2\n      sub\n      swap1\n      log2\n        /* \"contracts/rent/RentDistribution.sol\":1346:1788  {... */\n      pop\n      pop\n        /* \"contracts/rent/RentDistribution.sol\":1284:1788  function depositRent(address _propertyToken) external payable {... */\n      pop\n      jump\t// out\n        /* \"https://github.com/OpenZeppelin/openzeppelin-contracts/blob/v5.0.0/contracts/access/Ownable.sol\":1638:1723  function owner() public view virtual returns (address) {... */\n    tag_39:\n        /* \"https://github.com/OpenZeppelin/openzeppelin-contracts/blob/v5.0.0/contracts/access/Ownable.sol\":1684:1691  address */\n      0x00\n        /* \"https://github.com/OpenZeppelin/openzeppelin-contracts/blob/v5.0.0/contracts/access/Ownable.sol\":1710:1716  _owner */\n      0x01\n      0x00\n      swap1\n      sload\n      swap1\n      0x0100\n      exp\n      swap1\n      div\n      0xffffffffffffffffffffffffffffffffffffffff\n      and\n        /* \"https://github.com/OpenZeppelin/openzeppelin-contracts/blob/v5.0.0/contracts/access/Ownable.sol\":1703:1716  return _owner */\n      swap1\n      pop\n        /* \"https://github.com/OpenZeppelin/openzeppelin-contracts/blob/v5.0.0/contracts/access/Ownable.sol\":1638:1723  function owner() public view virtual returns (address) {... */\n      swap1\n      jump\t// out\n        /* \"https://github.com/OpenZeppelin/openzeppelin-contracts/blob/v5.0.0/contracts/access/Ownable.sol\":2543:2758  function transferOwnership(address newOwner) public virtual onlyOwner {... */\n    tag_45:\n        /* \"https://github.com/OpenZeppelin/openzeppelin-contracts/blob/v5.0.0/contracts/access/Ownable.sol\":1531:1544  _checkOwner() */\n      tag_91\n        /* \"https://github.com/OpenZeppelin/openzeppelin-contracts/blob/v5.0.0/contracts/access/Ownable.sol\":1531:1542  _checkOwner */\n      tag_75\n        /* \"https://github.com/OpenZeppelin/openzeppelin-contracts/blob/v5.0.0/contracts/access/Ownable.sol\":1531:1544  _checkOwner() */\n      jump\t// in\n    tag_91:\n        /* \"https://github.com/OpenZeppelin/openzeppelin-contracts/blob/v5.0.0/contracts/access/Ownable.sol\":2647:2648  0 */\n      0x00\n        /* \"https://github.com/OpenZeppelin/openzeppelin-contracts/blob/v5.0.0/contracts/access/Ownable.sol\":2627:2649  newOwner == address(0) */\n      0xffffffffffffffffffffffffffffffffffffffff\n      and\n        /* \"https://github.com/OpenZeppelin/openzeppelin-contracts/blob/v5.0.0/contracts/access/Ownable.sol\":2627:2635  newOwner */\n      dup2\n        /* \"https://github.com/OpenZeppelin/openzeppelin-contracts/blob/v5.0.0/contracts/access/Ownable.sol\":2627:2649  newOwner == address(0) */\n      0xffffffffffffffffffffffffffffffffffffffff\n      and\n      sub\n        /* \"https://github.com/OpenZeppelin/openzeppelin-contracts/blob/v5.0.0/contracts/access/Ownable.sol\":2623:2714  if (newOwner == address(0)) {... */\n      tag_93\n      jumpi\n        /* \"https://github.com/OpenZeppelin/openzeppelin-contracts/blob/v5.0.0/contracts/access/Ownable.sol\":2700:2701  0 */\n      0x00\n        /* \"https://github.com/OpenZeppelin/openzeppelin-contracts/blob/v5.0.0/contracts/access/Ownable.sol\":2672:2703  OwnableInvalidOwner(address(0)) */\n      mload(0x40)\n      0x1e4fbdf700000000000000000000000000000000000000000000000000000000\n      dup2\n      mstore\n      0x04\n      add\n      tag_94\n      swap2\n      swap1\n      tag_41\n      jump\t// in\n    tag_94:\n      mload(0x40)\n      dup1\n      swap2\n      sub\n      swap1\n      revert\n        /* \"https://github.com/OpenZeppelin/openzeppelin-contracts/blob/v5.0.0/contracts/access/Ownable.sol\":2623:2714  if (newOwner == address(0)) {... */\n    tag_93:\n        /* \"https://github.com/OpenZeppelin/openzeppelin-contracts/blob/v5.0.0/contracts/access/Ownable.sol\":2723:2751  _transferOwnership(newOwner) */\n      tag_95\n        /* \"https://github.com/OpenZeppelin/openzeppelin-contracts/blob/v5.0.0/contracts/access/Ownable.sol\":2742:2750  newOwner */\n      dup2\n        /* \"https://github.com/OpenZeppelin/openzeppelin-contracts/blob/v5.0.0/contracts/access/Ownable.sol\":2723:2741  _transferOwnership */\n      tag_78\n        /* \"https://github.com/OpenZeppelin/openzeppelin-contracts/blob/v5.0.0/contracts/access/Ownable.sol\":2723:2751  _transferOwnership(newOwner) */\n      jump\t// in\n    tag_95:\n        /* \"https://github.com/OpenZeppelin/openzeppelin-contracts/blob/v5.0.0/contracts/access/Ownable.sol\":2543:2758  function transferOwnership(address newOwner) public virtual onlyOwner {... */\n      pop\n      jump\t// out\n        /* \"contracts/rent/RentDistribution.sol\":1852:3068  function claimRent(address _propertyToken) external nonReentrant {... */\n    tag_49:\n        /* \"https://github.com/OpenZeppelin/openzeppelin-contracts/blob/v4.9.0/contracts/security/ReentrancyGuard.sol\":2261:2282  _nonReentrantBefore() */\n      tag_97\n        /* \"https://github.com/OpenZeppelin/openzeppelin-contracts/blob/v4.9.0/contracts/security/ReentrancyGuard.sol\":2261:2280  _nonReentrantBefore */\n      tag_98\n        /* \"https://github.com/OpenZeppelin/openzeppelin-contracts/blob/v4.9.0/contracts/security/ReentrancyGuard.sol\":2261:2282  _nonReentrantBefore() */\n      jump\t// in\n    tag_97:\n        /* \"contracts/rent/RentDistribution.sol\":1927:1939  IERC20 token */\n      0x00\n        /* \"contracts/rent/RentDistribution.sol\":1949:1963  _propertyToken */\n      dup2\n        /* \"contracts/rent/RentDistribution.sol\":1927:1964  IERC20 token = IERC20(_propertyToken) */\n      swap1\n      pop\n        /* \"contracts/rent/RentDistribution.sol\":1974:1989  uint256 balance */\n      0x00\n        /* \"contracts/rent/RentDistribution.sol\":1992:1997  token */\n      dup2\n        /* \"contracts/rent/RentDistribution.sol\":1992:2007  token.balanceOf */\n      0xffffffffffffffffffffffffffffffffffffffff\n      and\n      0x70a08231\n        /* \"contracts/rent/RentDistribution.sol\":2008:2018  msg.sender */\n      caller\n        /* \"contracts/rent/RentDistribution.sol\":1992:2019  token.balanceOf(msg.sender) */\n      mload(0x40)\n      dup3\n      0xffffffff\n      and\n      0xe0\n      shl\n      dup2\n      mstore\n      0x04\n      add\n      tag_100\n      swap2\n      swap1\n      tag_41\n      jump\t// in\n    tag_100:\n      0x20\n      mload(0x40)\n      dup1\n      dup4\n      sub\n      dup2\n      dup7\n      gas\n      staticcall\n      iszero\n      dup1\n      iszero\n      tag_102\n      jumpi\n      returndatacopy(0x00, 0x00, returndatasize)\n      revert(0x00, returndatasize)\n    tag_102:\n      pop\n      pop\n      pop\n      pop\n      mload(0x40)\n      returndatasize\n      not(0x1f)\n      0x1f\n      dup3\n      add\n      and\n      dup3\n      add\n      dup1\n      0x40\n      mstore\n      pop\n      dup2\n      add\n      swap1\n      tag_103\n      swap2\n      swap1\n      tag_57\n      jump\t// in\n    tag_103:\n        /* \"contracts/rent/RentDistribution.sol\":1974:2019  uint256 balance = token.balanceOf(msg.sender) */\n      swap1\n      pop\n        /* \"contracts/rent/RentDistribution.sol\":2047:2048  0 */\n      0x00\n        /* \"contracts/rent/RentDistribution.sol\":2037:2044  balance */\n      dup2\n        /* \"contracts/rent/RentDistribution.sol\":2037:2048  balance > 0 */\n      gt\n        /* \"contracts/rent/RentDistribution.sol\":2029:2068  require(balance > 0, \"No tokens owned\") */\n      tag_104\n      jumpi\n      mload(0x40)\n      0x08c379a000000000000000000000000000000000000000000000000000000000\n      dup2\n      mstore\n      0x04\n      add\n      tag_105\n      swap1\n      tag_106\n      jump\t// in\n    tag_105:\n      mload(0x40)\n      dup1\n      swap2\n      sub\n      swap1\n      revert\n    tag_104:\n        /* \"contracts/rent/RentDistribution.sol\":2087:2113  TokenHolder storage holder */\n      0x00\n        /* \"contracts/rent/RentDistribution.sol\":2116:2128  tokenHolders */\n      0x03\n        /* \"contracts/rent/RentDistribution.sol\":2116:2144  tokenHolders[_propertyToken] */\n      0x00\n        /* \"contracts/rent/RentDistribution.sol\":2129:2143  _propertyToken */\n      dup6\n        /* \"contracts/rent/RentDistribution.sol\":2116:2144  tokenHolders[_propertyToken] */\n      0xffffffffffffffffffffffffffffffffffffffff\n      and\n      0xffffffffffffffffffffffffffffffffffffffff\n      and\n      dup2\n      mstore\n      0x20\n      add\n      swap1\n      dup2\n      mstore\n      0x20\n      add\n      0x00\n      keccak256\n        /* \"contracts/rent/RentDistribution.sol\":2116:2156  tokenHolders[_propertyToken][msg.sender] */\n      0x00\n        /* \"contracts/rent/RentDistribution.sol\":2145:2155  msg.sender */\n      caller\n        /* \"contracts/rent/RentDistribution.sol\":2116:2156  tokenHolders[_propertyToken][msg.sender] */\n      0xffffffffffffffffffffffffffffffffffffffff\n      and\n      0xffffffffffffffffffffffffffffffffffffffff\n      and\n      dup2\n      mstore\n      0x20\n      add\n      swap1\n      dup2\n      mstore\n      0x20\n      add\n      0x00\n      keccak256\n        /* \"contracts/rent/RentDistribution.sol\":2087:2156  TokenHolder storage holder = tokenHolders[_propertyToken][msg.sender] */\n      swap1\n      pop\n        /* \"contracts/rent/RentDistribution.sol\":2166:2184  uint256 startIndex */\n      0x00\n        /* \"contracts/rent/RentDistribution.sol\":2187:2193  holder */\n      dup2\n        /* \"contracts/rent/RentDistribution.sol\":2187:2210  holder.lastClaimedIndex */\n      0x00\n      add\n      sload\n        /* \"contracts/rent/RentDistribution.sol\":2166:2210  uint256 startIndex = holder.lastClaimedIndex */\n      swap1\n      pop\n        /* \"contracts/rent/RentDistribution.sol\":2220:2236  uint256 endIndex */\n      0x00\n        /* \"contracts/rent/RentDistribution.sol\":2239:2251  rentPayments */\n      0x02\n        /* \"contracts/rent/RentDistribution.sol\":2239:2267  rentPayments[_propertyToken] */\n      0x00\n        /* \"contracts/rent/RentDistribution.sol\":2252:2266  _propertyToken */\n      dup8\n        /* \"contracts/rent/RentDistribution.sol\":2239:2267  rentPayments[_propertyToken] */\n      0xffffffffffffffffffffffffffffffffffffffff\n      and\n      0xffffffffffffffffffffffffffffffffffffffff\n      and\n      dup2\n      mstore\n      0x20\n      add\n      swap1\n      dup2\n      mstore\n      0x20\n      add\n      0x00\n      keccak256\n        /* \"contracts/rent/RentDistribution.sol\":2239:2274  rentPayments[_propertyToken].length */\n      dup1\n      sload\n      swap1\n      pop\n        /* \"contracts/rent/RentDistribution.sol\":2220:2274  uint256 endIndex = rentPayments[_propertyToken].length */\n      swap1\n      pop\n        /* \"contracts/rent/RentDistribution.sol\":2314:2322  endIndex */\n      dup1\n        /* \"contracts/rent/RentDistribution.sol\":2301:2311  startIndex */\n      dup3\n        /* \"contracts/rent/RentDistribution.sol\":2301:2322  startIndex < endIndex */\n      lt\n        /* \"contracts/rent/RentDistribution.sol\":2293:2347  require(startIndex < endIndex, \"No new rent to claim\") */\n      tag_107\n      jumpi\n      mload(0x40)\n      0x08c379a000000000000000000000000000000000000000000000000000000000\n      dup2\n      mstore\n      0x04\n      add\n      tag_108\n      swap1\n      tag_109\n      jump\t// in\n    tag_108:\n      mload(0x40)\n      dup1\n      swap2\n      sub\n      swap1\n      revert\n    tag_107:\n        /* \"contracts/rent/RentDistribution.sol\":2366:2390  uint256 totalRentToClaim */\n      0x00\n        /* \"contracts/rent/RentDistribution.sol\":2393:2394  0 */\n      0x00\n        /* \"contracts/rent/RentDistribution.sol\":2366:2394  uint256 totalRentToClaim = 0 */\n      swap1\n      pop\n        /* \"contracts/rent/RentDistribution.sol\":2418:2427  uint256 i */\n      0x00\n        /* \"contracts/rent/RentDistribution.sol\":2430:2440  startIndex */\n      dup4\n        /* \"contracts/rent/RentDistribution.sol\":2418:2440  uint256 i = startIndex */\n      swap1\n      pop\n        /* \"contracts/rent/RentDistribution.sol\":2413:2773  for (uint256 i = startIndex; i < endIndex; i++) {... */\n    tag_110:\n        /* \"contracts/rent/RentDistribution.sol\":2446:2454  endIndex */\n      dup3\n        /* \"contracts/rent/RentDistribution.sol\":2442:2443  i */\n      dup2\n        /* \"contracts/rent/RentDistribution.sol\":2442:2454  i < endIndex */\n      lt\n        /* \"contracts/rent/RentDistribution.sol\":2413:2773  for (uint256 i = startIndex; i < endIndex; i++) {... */\n      iszero\n      tag_111\n      jumpi\n        /* \"contracts/rent/RentDistribution.sol\":2475:2502  RentPayment storage payment */\n      0x00\n        /* \"contracts/rent/RentDistribution.sol\":2505:2517  rentPayments */\n      0x02\n        /* \"contracts/rent/RentDistribution.sol\":2505:2533  rentPayments[_propertyToken] */\n      0x00\n        /* \"contracts/rent/RentDistribution.sol\":2518:2532  _propertyToken */\n      dup11\n        /* \"contracts/rent/RentDistribution.sol\":2505:2533  rentPayments[_propertyToken] */\n      0xffffffffffffffffffffffffffffffffffffffff\n      and\n      0xffffffffffffffffffffffffffffffffffffffff\n      and\n      dup2\n      mstore\n      0x20\n      add\n      swap1\n      dup2\n      mstore\n      0x20\n      add\n      0x00\n      keccak256\n        /* \"contracts/rent/RentDistribution.sol\":2534:2535  i */\n      dup3\n        /* \"contracts/rent/RentDistribution.sol\":2505:2536  rentPayments[_propertyToken][i] */\n      dup2\n      sload\n      dup2\n      lt\n      tag_113\n      jumpi\n      tag_114\n      tag_65\n      jump\t// in\n    tag_114:\n    tag_113:\n      swap1\n      0x00\n      mstore\n      keccak256(0x00, 0x20)\n      swap1\n      0x03\n      mul\n      add\n        /* \"contracts/rent/RentDistribution.sol\":2475:2536  RentPayment storage payment = rentPayments[_propertyToken][i] */\n      swap1\n      pop\n        /* \"contracts/rent/RentDistribution.sol\":2651:2664  uint256 share */\n      0x00\n        /* \"contracts/rent/RentDistribution.sol\":2696:2703  payment */\n      dup2\n        /* \"contracts/rent/RentDistribution.sol\":2696:2723  payment.totalSupplySnapshot */\n      0x02\n      add\n      sload\n        /* \"contracts/rent/RentDistribution.sol\":2685:2692  balance */\n      dup9\n        /* \"contracts/rent/RentDistribution.sol\":2668:2675  payment */\n      dup4\n        /* \"contracts/rent/RentDistribution.sol\":2668:2682  payment.amount */\n      0x00\n      add\n      sload\n        /* \"contracts/rent/RentDistribution.sol\":2668:2692  payment.amount * balance */\n      tag_116\n      swap2\n      swap1\n      tag_68\n      jump\t// in\n    tag_116:\n        /* \"contracts/rent/RentDistribution.sol\":2667:2723  (payment.amount * balance) / payment.totalSupplySnapshot */\n      tag_117\n      swap2\n      swap1\n      tag_70\n      jump\t// in\n    tag_117:\n        /* \"contracts/rent/RentDistribution.sol\":2651:2723  uint256 share = (payment.amount * balance) / payment.totalSupplySnapshot */\n      swap1\n      pop\n        /* \"contracts/rent/RentDistribution.sol\":2757:2762  share */\n      dup1\n        /* \"contracts/rent/RentDistribution.sol\":2737:2762  totalRentToClaim += share */\n      dup5\n      tag_118\n      swap2\n      swap1\n      tag_72\n      jump\t// in\n    tag_118:\n      swap4\n      pop\n        /* \"contracts/rent/RentDistribution.sol\":2461:2773  {... */\n      pop\n      pop\n        /* \"contracts/rent/RentDistribution.sol\":2456:2459  i++ */\n      dup1\n      dup1\n      0x01\n      add\n      swap2\n      pop\n      pop\n        /* \"contracts/rent/RentDistribution.sol\":2413:2773  for (uint256 i = startIndex; i < endIndex; i++) {... */\n      jump(tag_110)\n    tag_111:\n      pop\n        /* \"contracts/rent/RentDistribution.sol\":2858:2866  endIndex */\n      dup2\n        /* \"contracts/rent/RentDistribution.sol\":2832:2838  holder */\n      dup5\n        /* \"contracts/rent/RentDistribution.sol\":2832:2855  holder.lastClaimedIndex */\n      0x00\n      add\n        /* \"contracts/rent/RentDistribution.sol\":2832:2866  holder.lastClaimedIndex = endIndex */\n      dup2\n      swap1\n      sstore\n      pop\n        /* \"contracts/rent/RentDistribution.sol\":2942:2952  msg.sender */\n      caller\n        /* \"contracts/rent/RentDistribution.sol\":2934:2962  payable(msg.sender).transfer */\n      0xffffffffffffffffffffffffffffffffffffffff\n      and\n        /* \"contracts/rent/RentDistribution.sol\":2934:2980  payable(msg.sender).transfer(totalRentToClaim) */\n      0x08fc\n        /* \"contracts/rent/RentDistribution.sol\":2963:2979  totalRentToClaim */\n      dup3\n        /* \"contracts/rent/RentDistribution.sol\":2934:2980  payable(msg.sender).transfer(totalRentToClaim) */\n      swap1\n      dup2\n      iszero\n      mul\n      swap1\n      mload(0x40)\n      0x00\n      mload(0x40)\n      dup1\n      dup4\n      sub\n      dup2\n      dup6\n      dup9\n      dup9\n      call\n      swap4\n      pop\n      pop\n      pop\n      pop\n      iszero\n      dup1\n      iszero\n      tag_120\n      jumpi\n      returndatacopy(0x00, 0x00, returndatasize)\n      revert(0x00, returndatasize)\n    tag_120:\n      pop\n        /* \"contracts/rent/RentDistribution.sol\":3032:3042  msg.sender */\n      caller\n        /* \"contracts/rent/RentDistribution.sol\":3004:3061  RentClaimed(_propertyToken, msg.sender, totalRentToClaim) */\n      0xffffffffffffffffffffffffffffffffffffffff\n      and\n        /* \"contracts/rent/RentDistribution.sol\":3016:3030  _propertyToken */\n      dup8\n        /* \"contracts/rent/RentDistribution.sol\":3004:3061  RentClaimed(_propertyToken, msg.sender, totalRentToClaim) */\n      0xffffffffffffffffffffffffffffffffffffffff\n      and\n      0x500ded40b22a4a352de0c71d37c6e390129e04faf312c11ece1104d9886af5d2\n        /* \"contracts/rent/RentDistribution.sol\":3044:3060  totalRentToClaim */\n      dup4\n        /* \"contracts/rent/RentDistribution.sol\":3004:3061  RentClaimed(_propertyToken, msg.sender, totalRentToClaim) */\n      mload(0x40)\n      tag_121\n      swap2\n      swap1\n      tag_17\n      jump\t// in\n    tag_121:\n      mload(0x40)\n      dup1\n      swap2\n      sub\n      swap1\n      log3\n        /* \"contracts/rent/RentDistribution.sol\":1917:3068  {... */\n      pop\n      pop\n      pop\n      pop\n      pop\n      pop\n        /* \"https://github.com/OpenZeppelin/openzeppelin-contracts/blob/v4.9.0/contracts/security/ReentrancyGuard.sol\":2303:2323  _nonReentrantAfter() */\n      tag_122\n        /* \"https://github.com/OpenZeppelin/openzeppelin-contracts/blob/v4.9.0/contracts/security/ReentrancyGuard.sol\":2303:2321  _nonReentrantAfter */\n      tag_123\n        /* \"https://github.com/OpenZeppelin/openzeppelin-contracts/blob/v4.9.0/contracts/security/ReentrancyGuard.sol\":2303:2323  _nonReentrantAfter() */\n      jump\t// in\n    tag_122:\n        /* \"contracts/rent/RentDistribution.sol\":1852:3068  function claimRent(address _propertyToken) external nonReentrant {... */\n      pop\n      jump\t// out\n        /* \"https://github.com/OpenZeppelin/openzeppelin-contracts/blob/v5.0.0/contracts/access/Ownable.sol\":1796:1958  function _checkOwner() internal view virtual {... */\n    tag_75:\n        /* \"https://github.com/OpenZeppelin/openzeppelin-contracts/blob/v5.0.0/contracts/access/Ownable.sol\":1866:1878  _msgSender() */\n      tag_125\n        /* \"https://github.com/OpenZeppelin/openzeppelin-contracts/blob/v5.0.0/contracts/access/Ownable.sol\":1866:1876  _msgSender */\n      tag_126\n        /* \"https://github.com/OpenZeppelin/openzeppelin-contracts/blob/v5.0.0/contracts/access/Ownable.sol\":1866:1878  _msgSender() */\n      jump\t// in\n    tag_125:\n        /* \"https://github.com/OpenZeppelin/openzeppelin-contracts/blob/v5.0.0/contracts/access/Ownable.sol\":1855:1878  owner() != _msgSender() */\n      0xffffffffffffffffffffffffffffffffffffffff\n      and\n        /* \"https://github.com/OpenZeppelin/openzeppelin-contracts/blob/v5.0.0/contracts/access/Ownable.sol\":1855:1862  owner() */\n      tag_127\n        /* \"https://github.com/OpenZeppelin/openzeppelin-contracts/blob/v5.0.0/contracts/access/Ownable.sol\":1855:1860  owner */\n      tag_39\n        /* \"https://github.com/OpenZeppelin/openzeppelin-contracts/blob/v5.0.0/contracts/access/Ownable.sol\":1855:1862  owner() */\n      jump\t// in\n    tag_127:\n        /* \"https://github.com/OpenZeppelin/openzeppelin-contracts/blob/v5.0.0/contracts/access/Ownable.sol\":1855:1878  owner() != _msgSender() */\n      0xffffffffffffffffffffffffffffffffffffffff\n      and\n      eq\n        /* \"https://github.com/OpenZeppelin/openzeppelin-contracts/blob/v5.0.0/contracts/access/Ownable.sol\":1851:1952  if (owner() != _msgSender()) {... */\n      tag_128\n      jumpi\n        /* \"https://github.com/OpenZeppelin/openzeppelin-contracts/blob/v5.0.0/contracts/access/Ownable.sol\":1928:1940  _msgSender() */\n      tag_129\n        /* \"https://github.com/OpenZeppelin/openzeppelin-contracts/blob/v5.0.0/contracts/access/Ownable.sol\":1928:1938  _msgSender */\n      tag_126\n        /* \"https://github.com/OpenZeppelin/openzeppelin-contracts/blob/v5.0.0/contracts/access/Ownable.sol\":1928:1940  _msgSender() */\n      jump\t// in\n    tag_129:\n        /* \"https://github.com/OpenZeppelin/openzeppelin-contracts/blob/v5.0.0/contracts/access/Ownable.sol\":1901:1941  OwnableUnauthorizedAccount(_msgSender()) */\n      mload(0x40)\n      0x118cdaa700000000000000000000000000000000000000000000000000000000\n      dup2\n      mstore\n      0x04\n      add\n      tag_130\n      swap2\n      swap1\n      tag_41\n      jump\t// in\n    tag_130:\n      mload(0x40)\n      dup1\n      swap2\n      sub\n      swap1\n      revert\n        /* \"https://github.com/OpenZeppelin/openzeppelin-contracts/blob/v5.0.0/contracts/access/Ownable.sol\":1851:1952  if (owner() != _msgSender()) {... */\n    tag_128:\n        /* \"https://github.com/OpenZeppelin/openzeppelin-contracts/blob/v5.0.0/contracts/access/Ownable.sol\":1796:1958  function _checkOwner() internal view virtual {... */\n      jump\t// out\n        /* \"https://github.com/OpenZeppelin/openzeppelin-contracts/blob/v5.0.0/contracts/access/Ownable.sol\":2912:3099  function _transferOwnership(address newOwner) internal virtual {... */\n    tag_78:\n        /* \"https://github.com/OpenZeppelin/openzeppelin-contracts/blob/v5.0.0/contracts/access/Ownable.sol\":2985:3001  address oldOwner */\n      0x00\n        /* \"https://github.com/OpenZeppelin/openzeppelin-contracts/blob/v5.0.0/contracts/access/Ownable.sol\":3004:3010  _owner */\n      0x01\n      0x00\n      swap1\n      sload\n      swap1\n      0x0100\n      exp\n      swap1\n      div\n      0xffffffffffffffffffffffffffffffffffffffff\n      and\n        /* \"https://github.com/OpenZeppelin/openzeppelin-contracts/blob/v5.0.0/contracts/access/Ownable.sol\":2985:3010  address oldOwner = _owner */\n      swap1\n      pop\n        /* \"https://github.com/OpenZeppelin/openzeppelin-contracts/blob/v5.0.0/contracts/access/Ownable.sol\":3029:3037  newOwner */\n      dup2\n        /* \"https://github.com/OpenZeppelin/openzeppelin-contracts/blob/v5.0.0/contracts/access/Ownable.sol\":3020:3026  _owner */\n      0x01\n      0x00\n        /* \"https://github.com/OpenZeppelin/openzeppelin-contracts/blob/v5.0.0/contracts/access/Ownable.sol\":3020:3037  _owner = newOwner */\n      0x0100\n      exp\n      dup2\n      sload\n      dup2\n      0xffffffffffffffffffffffffffffffffffffffff\n      mul\n      not\n      and\n      swap1\n      dup4\n      0xffffffffffffffffffffffffffffffffffffffff\n      and\n      mul\n      or\n      swap1\n      sstore\n      pop\n        /* \"https://github.com/OpenZeppelin/openzeppelin-contracts/blob/v5.0.0/contracts/access/Ownable.sol\":3083:3091  newOwner */\n      dup2\n        /* \"https://github.com/OpenZeppelin/openzeppelin-contracts/blob/v5.0.0/contracts/access/Ownable.sol\":3052:3092  OwnershipTransferred(oldOwner, newOwner) */\n      0xffffffffffffffffffffffffffffffffffffffff\n      and\n        /* \"https://github.com/OpenZeppelin/openzeppelin-contracts/blob/v5.0.0/contracts/access/Ownable.sol\":3073:3081  oldOwner */\n      dup2\n        /* \"https://github.com/OpenZeppelin/openzeppelin-contracts/blob/v5.0.0/contracts/access/Ownable.sol\":3052:3092  OwnershipTransferred(oldOwner, newOwner) */\n      0xffffffffffffffffffffffffffffffffffffffff\n      and\n      0x8be0079c531659141344cd1fd0a4f28419497f9722a3daafe3b4186f6b6457e0\n      mload(0x40)\n      mload(0x40)\n      dup1\n      swap2\n      sub\n      swap1\n      log3\n        /* \"https://github.com/OpenZeppelin/openzeppelin-contracts/blob/v5.0.0/contracts/access/Ownable.sol\":2975:3099  {... */\n      pop\n        /* \"https://github.com/OpenZeppelin/openzeppelin-contracts/blob/v5.0.0/contracts/access/Ownable.sol\":2912:3099  function _transferOwnership(address newOwner) internal virtual {... */\n      pop\n      jump\t// out\n        /* \"https://github.com/OpenZeppelin/openzeppelin-contracts/blob/v4.9.0/contracts/security/ReentrancyGuard.sol\":2336:2623  function _nonReentrantBefore() private {... */\n    tag_98:\n        /* \"https://github.com/OpenZeppelin/openzeppelin-contracts/blob/v4.9.0/contracts/security/ReentrancyGuard.sol\":1759:1760  2 */\n      0x02\n        /* \"https://github.com/OpenZeppelin/openzeppelin-contracts/blob/v4.9.0/contracts/security/ReentrancyGuard.sol\":2468:2475  _status */\n      sload(0x00)\n        /* \"https://github.com/OpenZeppelin/openzeppelin-contracts/blob/v4.9.0/contracts/security/ReentrancyGuard.sol\":2468:2487  _status != _ENTERED */\n      sub\n        /* \"https://github.com/OpenZeppelin/openzeppelin-contracts/blob/v4.9.0/contracts/security/ReentrancyGuard.sol\":2460:2523  require(_status != _ENTERED, \"ReentrancyGuard: reentrant call\") */\n      tag_133\n      jumpi\n      mload(0x40)\n      0x08c379a000000000000000000000000000000000000000000000000000000000\n      dup2\n      mstore\n      0x04\n      add\n      tag_134\n      swap1\n      tag_135\n      jump\t// in\n    tag_134:\n      mload(0x40)\n      dup1\n      swap2\n      sub\n      swap1\n      revert\n    tag_133:\n        /* \"https://github.com/OpenZeppelin/openzeppelin-contracts/blob/v4.9.0/contracts/security/ReentrancyGuard.sol\":1759:1760  2 */\n      0x02\n        /* \"https://github.com/OpenZeppelin/openzeppelin-contracts/blob/v4.9.0/contracts/security/ReentrancyGuard.sol\":2598:2605  _status */\n      0x00\n        /* \"https://github.com/OpenZeppelin/openzeppelin-contracts/blob/v4.9.0/contracts/security/ReentrancyGuard.sol\":2598:2616  _status = _ENTERED */\n      dup2\n      swap1\n      sstore\n      pop\n        /* \"https://github.com/OpenZeppelin/openzeppelin-contracts/blob/v4.9.0/contracts/security/ReentrancyGuard.sol\":2336:2623  function _nonReentrantBefore() private {... */\n      jump\t// out\n        /* \"https://github.com/OpenZeppelin/openzeppelin-contracts/blob/v4.9.0/contracts/security/ReentrancyGuard.sol\":2629:2838  function _nonReentrantAfter() private {... */\n    tag_123:\n        /* \"https://github.com/OpenZeppelin/openzeppelin-contracts/blob/v4.9.0/contracts/security/ReentrancyGuard.sol\":1716:1717  1 */\n      0x01\n        /* \"https://github.com/OpenZeppelin/openzeppelin-contracts/blob/v4.9.0/contracts/security/ReentrancyGuard.sol\":2809:2816  _status */\n      0x00\n        /* \"https://github.com/OpenZeppelin/openzeppelin-contracts/blob/v4.9.0/contracts/security/ReentrancyGuard.sol\":2809:2831  _status = _NOT_ENTERED */\n      dup2\n      swap1\n      sstore\n      pop\n        /* \"https://github.com/OpenZeppelin/openzeppelin-contracts/blob/v4.9.0/contracts/security/ReentrancyGuard.sol\":2629:2838  function _nonReentrantAfter() private {... */\n      jump\t// out\n        /* \"https://github.com/OpenZeppelin/openzeppelin-contracts/blob/v5.0.0/contracts/utils/Context.sol\":656:752  function _msgSender() internal view virtual returns (address) {... */\n    tag_126:\n        /* \"https://github.com/OpenZeppelin/openzeppelin-contracts/blob/v5.0.0/contracts/utils/Context.sol\":709:716  address */\n      0x00\n        /* \"https://github.com/OpenZeppelin/openzeppelin-contracts/blob/v5.0.0/contracts/utils/Context.sol\":735:745  msg.sender */\n      caller\n        /* \"https://github.com/OpenZeppelin/openzeppelin-contracts/blob/v5.0.0/contracts/utils/Context.sol\":728:745  return msg.sender */\n      swap1\n      pop\n        /* \"https://github.com/OpenZeppelin/openzeppelin-contracts/blob/v5.0.0/contracts/utils/Context.sol\":656:752  function _msgSender() internal view virtual returns (address) {... */\n      swap1\n      jump\t// out\n        /* \"#utility.yul\":88:205   */\n    tag_139:\n        /* \"#utility.yul\":197:198   */\n      0x00\n        /* \"#utility.yul\":194:195   */\n      0x00\n        /* \"#utility.yul\":187:199   */\n      revert\n        /* \"#utility.yul\":334:460   */\n    tag_141:\n        /* \"#utility.yul\":371:378   */\n      0x00\n        /* \"#utility.yul\":411:453   */\n      0xffffffffffffffffffffffffffffffffffffffff\n        /* \"#utility.yul\":404:409   */\n      dup3\n        /* \"#utility.yul\":400:454   */\n      and\n        /* \"#utility.yul\":389:454   */\n      swap1\n      pop\n        /* \"#utility.yul\":334:460   */\n      swap2\n      swap1\n      pop\n      jump\t// out\n        /* \"#utility.yul\":466:562   */\n    tag_142:\n        /* \"#utility.yul\":503:510   */\n      0x00\n        /* \"#utility.yul\":532:556   */\n      tag_168\n        /* \"#utility.yul\":550:555   */\n      dup3\n        /* \"#utility.yul\":532:556   */\n      tag_141\n      jump\t// in\n    tag_168:\n        /* \"#utility.yul\":521:556   */\n      swap1\n      pop\n        /* \"#utility.yul\":466:562   */\n      swap2\n      swap1\n      pop\n      jump\t// out\n        /* \"#utility.yul\":568:690   */\n    tag_143:\n        /* \"#utility.yul\":641:665   */\n      tag_170\n        /* \"#utility.yul\":659:664   */\n      dup2\n        /* \"#utility.yul\":641:665   */\n      tag_142\n      jump\t// in\n    tag_170:\n        /* \"#utility.yul\":634:639   */\n      dup2\n        /* \"#utility.yul\":631:666   */\n      eq\n        /* \"#utility.yul\":621:684   */\n      tag_171\n      jumpi\n        /* \"#utility.yul\":680:681   */\n      0x00\n        /* \"#utility.yul\":677:678   */\n      0x00\n        /* \"#utility.yul\":670:682   */\n      revert\n        /* \"#utility.yul\":621:684   */\n    tag_171:\n        /* \"#utility.yul\":568:690   */\n      pop\n      jump\t// out\n        /* \"#utility.yul\":696:835   */\n    tag_144:\n        /* \"#utility.yul\":742:747   */\n      0x00\n        /* \"#utility.yul\":780:786   */\n      dup2\n        /* \"#utility.yul\":767:787   */\n      calldataload\n        /* \"#utility.yul\":758:787   */\n      swap1\n      pop\n        /* \"#utility.yul\":796:829   */\n      tag_173\n        /* \"#utility.yul\":823:828   */\n      dup2\n        /* \"#utility.yul\":796:829   */\n      tag_143\n      jump\t// in\n    tag_173:\n        /* \"#utility.yul\":696:835   */\n      swap3\n      swap2\n      pop\n      pop\n      jump\t// out\n        /* \"#utility.yul\":841:1315   */\n    tag_14:\n        /* \"#utility.yul\":909:915   */\n      0x00\n        /* \"#utility.yul\":917:923   */\n      0x00\n        /* \"#utility.yul\":966:968   */\n      0x40\n        /* \"#utility.yul\":954:963   */\n      dup4\n        /* \"#utility.yul\":945:952   */\n      dup6\n        /* \"#utility.yul\":941:964   */\n      sub\n        /* \"#utility.yul\":937:969   */\n      slt\n        /* \"#utility.yul\":934:1053   */\n      iszero\n      tag_175\n      jumpi\n        /* \"#utility.yul\":972:1051   */\n      tag_176\n      tag_139\n      jump\t// in\n    tag_176:\n        /* \"#utility.yul\":934:1053   */\n    tag_175:\n        /* \"#utility.yul\":1092:1093   */\n      0x00\n        /* \"#utility.yul\":1117:1170   */\n      tag_177\n        /* \"#utility.yul\":1162:1169   */\n      dup6\n        /* \"#utility.yul\":1153:1159   */\n      dup3\n        /* \"#utility.yul\":1142:1151   */\n      dup7\n        /* \"#utility.yul\":1138:1160   */\n      add\n        /* \"#utility.yul\":1117:1170   */\n      tag_144\n      jump\t// in\n    tag_177:\n        /* \"#utility.yul\":1107:1170   */\n      swap3\n      pop\n        /* \"#utility.yul\":1063:1180   */\n      pop\n        /* \"#utility.yul\":1219:1221   */\n      0x20\n        /* \"#utility.yul\":1245:1298   */\n      tag_178\n        /* \"#utility.yul\":1290:1297   */\n      dup6\n        /* \"#utility.yul\":1281:1287   */\n      dup3\n        /* \"#utility.yul\":1270:1279   */\n      dup7\n        /* \"#utility.yul\":1266:1288   */\n      add\n        /* \"#utility.yul\":1245:1298   */\n      tag_144\n      jump\t// in\n    tag_178:\n        /* \"#utility.yul\":1235:1298   */\n      swap2\n      pop\n        /* \"#utility.yul\":1190:1308   */\n      pop\n        /* \"#utility.yul\":841:1315   */\n      swap3\n      pop\n      swap3\n      swap1\n      pop\n      jump\t// out\n        /* \"#utility.yul\":1321:1398   */\n    tag_145:\n        /* \"#utility.yul\":1358:1365   */\n      0x00\n        /* \"#utility.yul\":1387:1392   */\n      dup2\n        /* \"#utility.yul\":1376:1392   */\n      swap1\n      pop\n        /* \"#utility.yul\":1321:1398   */\n      swap2\n      swap1\n      pop\n      jump\t// out\n        /* \"#utility.yul\":1404:1522   */\n    tag_146:\n        /* \"#utility.yul\":1491:1515   */\n      tag_181\n        /* \"#utility.yul\":1509:1514   */\n      dup2\n        /* \"#utility.yul\":1491:1515   */\n      tag_145\n      jump\t// in\n    tag_181:\n        /* \"#utility.yul\":1486:1489   */\n      dup3\n        /* \"#utility.yul\":1479:1516   */\n      mstore\n        /* \"#utility.yul\":1404:1522   */\n      pop\n      pop\n      jump\t// out\n        /* \"#utility.yul\":1528:1750   */\n    tag_17:\n        /* \"#utility.yul\":1621:1625   */\n      0x00\n        /* \"#utility.yul\":1659:1661   */\n      0x20\n        /* \"#utility.yul\":1648:1657   */\n      dup3\n        /* \"#utility.yul\":1644:1662   */\n      add\n        /* \"#utility.yul\":1636:1662   */\n      swap1\n      pop\n        /* \"#utility.yul\":1672:1743   */\n      tag_183\n        /* \"#utility.yul\":1740:1741   */\n      0x00\n        /* \"#utility.yul\":1729:1738   */\n      dup4\n        /* \"#utility.yul\":1725:1742   */\n      add\n        /* \"#utility.yul\":1716:1722   */\n      dup5\n        /* \"#utility.yul\":1672:1743   */\n      tag_146\n      jump\t// in\n    tag_183:\n        /* \"#utility.yul\":1528:1750   */\n      swap3\n      swap2\n      pop\n      pop\n      jump\t// out\n        /* \"#utility.yul\":1756:1878   */\n    tag_147:\n        /* \"#utility.yul\":1829:1853   */\n      tag_185\n        /* \"#utility.yul\":1847:1852   */\n      dup2\n        /* \"#utility.yul\":1829:1853   */\n      tag_145\n      jump\t// in\n    tag_185:\n        /* \"#utility.yul\":1822:1827   */\n      dup2\n        /* \"#utility.yul\":1819:1854   */\n      eq\n        /* \"#utility.yul\":1809:1872   */\n      tag_186\n      jumpi\n        /* \"#utility.yul\":1868:1869   */\n      0x00\n        /* \"#utility.yul\":1865:1866   */\n      0x00\n        /* \"#utility.yul\":1858:1870   */\n      revert\n        /* \"#utility.yul\":1809:1872   */\n    tag_186:\n        /* \"#utility.yul\":1756:1878   */\n      pop\n      jump\t// out\n        /* \"#utility.yul\":1884:2023   */\n    tag_148:\n        /* \"#utility.yul\":1930:1935   */\n      0x00\n        /* \"#utility.yul\":1968:1974   */\n      dup2\n        /* \"#utility.yul\":1955:1975   */\n      calldataload\n        /* \"#utility.yul\":1946:1975   */\n      swap1\n      pop\n        /* \"#utility.yul\":1984:2017   */\n      tag_188\n        /* \"#utility.yul\":2011:2016   */\n      dup2\n        /* \"#utility.yul\":1984:2017   */\n      tag_147\n      jump\t// in\n    tag_188:\n        /* \"#utility.yul\":1884:2023   */\n      swap3\n      swap2\n      pop\n      pop\n      jump\t// out\n        /* \"#utility.yul\":2029:2503   */\n    tag_21:\n        /* \"#utility.yul\":2097:2103   */\n      0x00\n        /* \"#utility.yul\":2105:2111   */\n      0x00\n        /* \"#utility.yul\":2154:2156   */\n      0x40\n        /* \"#utility.yul\":2142:2151   */\n      dup4\n        /* \"#utility.yul\":2133:2140   */\n      dup6\n        /* \"#utility.yul\":2129:2152   */\n      sub\n        /* \"#utility.yul\":2125:2157   */\n      slt\n        /* \"#utility.yul\":2122:2241   */\n      iszero\n      tag_190\n      jumpi\n        /* \"#utility.yul\":2160:2239   */\n      tag_191\n      tag_139\n      jump\t// in\n    tag_191:\n        /* \"#utility.yul\":2122:2241   */\n    tag_190:\n        /* \"#utility.yul\":2280:2281   */\n      0x00\n        /* \"#utility.yul\":2305:2358   */\n      tag_192\n        /* \"#utility.yul\":2350:2357   */\n      dup6\n        /* \"#utility.yul\":2341:2347   */\n      dup3\n        /* \"#utility.yul\":2330:2339   */\n      dup7\n        /* \"#utility.yul\":2326:2348   */\n      add\n        /* \"#utility.yul\":2305:2358   */\n      tag_144\n      jump\t// in\n    tag_192:\n        /* \"#utility.yul\":2295:2358   */\n      swap3\n      pop\n        /* \"#utility.yul\":2251:2368   */\n      pop\n        /* \"#utility.yul\":2407:2409   */\n      0x20\n        /* \"#utility.yul\":2433:2486   */\n      tag_193\n        /* \"#utility.yul\":2478:2485   */\n      dup6\n        /* \"#utility.yul\":2469:2475   */\n      dup3\n        /* \"#utility.yul\":2458:2467   */\n      dup7\n        /* \"#utility.yul\":2454:2476   */\n      add\n        /* \"#utility.yul\":2433:2486   */\n      tag_148\n      jump\t// in\n    tag_193:\n        /* \"#utility.yul\":2423:2486   */\n      swap2\n      pop\n        /* \"#utility.yul\":2378:2496   */\n      pop\n        /* \"#utility.yul\":2029:2503   */\n      swap3\n      pop\n      swap3\n      swap1\n      pop\n      jump\t// out\n        /* \"#utility.yul\":2509:2951   */\n    tag_24:\n        /* \"#utility.yul\":2658:2662   */\n      0x00\n        /* \"#utility.yul\":2696:2698   */\n      0x60\n        /* \"#utility.yul\":2685:2694   */\n      dup3\n        /* \"#utility.yul\":2681:2699   */\n      add\n        /* \"#utility.yul\":2673:2699   */\n      swap1\n      pop\n        /* \"#utility.yul\":2709:2780   */\n      tag_195\n        /* \"#utility.yul\":2777:2778   */\n      0x00\n        /* \"#utility.yul\":2766:2775   */\n      dup4\n        /* \"#utility.yul\":2762:2779   */\n      add\n        /* \"#utility.yul\":2753:2759   */\n      dup7\n        /* \"#utility.yul\":2709:2780   */\n      tag_146\n      jump\t// in\n    tag_195:\n        /* \"#utility.yul\":2790:2862   */\n      tag_196\n        /* \"#utility.yul\":2858:2860   */\n      0x20\n        /* \"#utility.yul\":2847:2856   */\n      dup4\n        /* \"#utility.yul\":2843:2861   */\n      add\n        /* \"#utility.yul\":2834:2840   */\n      dup6\n        /* \"#utility.yul\":2790:2862   */\n      tag_146\n      jump\t// in\n    tag_196:\n        /* \"#utility.yul\":2872:2944   */\n      tag_197\n        /* \"#utility.yul\":2940:2942   */\n      0x40\n        /* \"#utility.yul\":2929:2938   */\n      dup4\n        /* \"#utility.yul\":2925:2943   */\n      add\n        /* \"#utility.yul\":2916:2922   */\n      dup5\n        /* \"#utility.yul\":2872:2944   */\n      tag_146\n      jump\t// in\n    tag_197:\n        /* \"#utility.yul\":2509:2951   */\n      swap5\n      swap4\n      pop\n      pop\n      pop\n      pop\n      jump\t// out\n        /* \"#utility.yul\":2957:3286   */\n    tag_35:\n        /* \"#utility.yul\":3016:3022   */\n      0x00\n        /* \"#utility.yul\":3065:3067   */\n      0x20\n        /* \"#utility.yul\":3053:3062   */\n      dup3\n        /* \"#utility.yul\":3044:3051   */\n      dup5\n        /* \"#utility.yul\":3040:3063   */\n      sub\n        /* \"#utility.yul\":3036:3068   */\n      slt\n        /* \"#utility.yul\":3033:3152   */\n      iszero\n      tag_199\n      jumpi\n        /* \"#utility.yul\":3071:3150   */\n      tag_200\n      tag_139\n      jump\t// in\n    tag_200:\n        /* \"#utility.yul\":3033:3152   */\n    tag_199:\n        /* \"#utility.yul\":3191:3192   */\n      0x00\n        /* \"#utility.yul\":3216:3269   */\n      tag_201\n        /* \"#utility.yul\":3261:3268   */\n      dup5\n        /* \"#utility.yul\":3252:3258   */\n      dup3\n        /* \"#utility.yul\":3241:3250   */\n      dup6\n        /* \"#utility.yul\":3237:3259   */\n      add\n        /* \"#utility.yul\":3216:3269   */\n      tag_144\n      jump\t// in\n    tag_201:\n        /* \"#utility.yul\":3206:3269   */\n      swap2\n      pop\n        /* \"#utility.yul\":3162:3279   */\n      pop\n        /* \"#utility.yul\":2957:3286   */\n      swap3\n      swap2\n      pop\n      pop\n      jump\t// out\n        /* \"#utility.yul\":3292:3410   */\n    tag_149:\n        /* \"#utility.yul\":3379:3403   */\n      tag_203\n        /* \"#utility.yul\":3397:3402   */\n      dup2\n        /* \"#utility.yul\":3379:3403   */\n      tag_142\n      jump\t// in\n    tag_203:\n        /* \"#utility.yul\":3374:3377   */\n      dup3\n        /* \"#utility.yul\":3367:3404   */\n      mstore\n        /* \"#utility.yul\":3292:3410   */\n      pop\n      pop\n      jump\t// out\n        /* \"#utility.yul\":3416:3638   */\n    tag_41:\n        /* \"#utility.yul\":3509:3513   */\n      0x00\n        /* \"#utility.yul\":3547:3549   */\n      0x20\n        /* \"#utility.yul\":3536:3545   */\n      dup3\n        /* \"#utility.yul\":3532:3550   */\n      add\n        /* \"#utility.yul\":3524:3550   */\n      swap1\n      pop\n        /* \"#utility.yul\":3560:3631   */\n      tag_205\n        /* \"#utility.yul\":3628:3629   */\n      0x00\n        /* \"#utility.yul\":3617:3626   */\n      dup4\n        /* \"#utility.yul\":3613:3630   */\n      add\n        /* \"#utility.yul\":3604:3610   */\n      dup5\n        /* \"#utility.yul\":3560:3631   */\n      tag_149\n      jump\t// in\n    tag_205:\n        /* \"#utility.yul\":3416:3638   */\n      swap3\n      swap2\n      pop\n      pop\n      jump\t// out\n        /* \"#utility.yul\":3644:3787   */\n    tag_150:\n        /* \"#utility.yul\":3701:3706   */\n      0x00\n        /* \"#utility.yul\":3732:3738   */\n      dup2\n        /* \"#utility.yul\":3726:3739   */\n      mload\n        /* \"#utility.yul\":3717:3739   */\n      swap1\n      pop\n        /* \"#utility.yul\":3748:3781   */\n      tag_207\n        /* \"#utility.yul\":3775:3780   */\n      dup2\n        /* \"#utility.yul\":3748:3781   */\n      tag_147\n      jump\t// in\n    tag_207:\n        /* \"#utility.yul\":3644:3787   */\n      swap3\n      swap2\n      pop\n      pop\n      jump\t// out\n        /* \"#utility.yul\":3793:4144   */\n    tag_57:\n        /* \"#utility.yul\":3863:3869   */\n      0x00\n        /* \"#utility.yul\":3912:3914   */\n      0x20\n        /* \"#utility.yul\":3900:3909   */\n      dup3\n        /* \"#utility.yul\":3891:3898   */\n      dup5\n        /* \"#utility.yul\":3887:3910   */\n      sub\n        /* \"#utility.yul\":3883:3915   */\n      slt\n        /* \"#utility.yul\":3880:3999   */\n      iszero\n      tag_209\n      jumpi\n        /* \"#utility.yul\":3918:3997   */\n      tag_210\n      tag_139\n      jump\t// in\n    tag_210:\n        /* \"#utility.yul\":3880:3999   */\n    tag_209:\n        /* \"#utility.yul\":4038:4039   */\n      0x00\n        /* \"#utility.yul\":4063:4127   */\n      tag_211\n        /* \"#utility.yul\":4119:4126   */\n      dup5\n        /* \"#utility.yul\":4110:4116   */\n      dup3\n        /* \"#utility.yul\":4099:4108   */\n      dup6\n        /* \"#utility.yul\":4095:4117   */\n      add\n        /* \"#utility.yul\":4063:4127   */\n      tag_150\n      jump\t// in\n    tag_211:\n        /* \"#utility.yul\":4053:4127   */\n      swap2\n      pop\n        /* \"#utility.yul\":4009:4137   */\n      pop\n        /* \"#utility.yul\":3793:4144   */\n      swap3\n      swap2\n      pop\n      pop\n      jump\t// out\n        /* \"#utility.yul\":4150:4330   */\n    tag_65:\n        /* \"#utility.yul\":4198:4275   */\n      0x4e487b7100000000000000000000000000000000000000000000000000000000\n        /* \"#utility.yul\":4195:4196   */\n      0x00\n        /* \"#utility.yul\":4188:4276   */\n      mstore\n        /* \"#utility.yul\":4295:4299   */\n      0x32\n        /* \"#utility.yul\":4292:4293   */\n      0x04\n        /* \"#utility.yul\":4285:4300   */\n      mstore\n        /* \"#utility.yul\":4319:4323   */\n      0x24\n        /* \"#utility.yul\":4316:4317   */\n      0x00\n        /* \"#utility.yul\":4309:4324   */\n      revert\n        /* \"#utility.yul\":4336:4516   */\n    tag_151:\n        /* \"#utility.yul\":4384:4461   */\n      0x4e487b7100000000000000000000000000000000000000000000000000000000\n        /* \"#utility.yul\":4381:4382   */\n      0x00\n        /* \"#utility.yul\":4374:4462   */\n      mstore\n        /* \"#utility.yul\":4481:4485   */\n      0x11\n        /* \"#utility.yul\":4478:4479   */\n      0x04\n        /* \"#utility.yul\":4471:4486   */\n      mstore\n        /* \"#utility.yul\":4505:4509   */\n      0x24\n        /* \"#utility.yul\":4502:4503   */\n      0x00\n        /* \"#utility.yul\":4495:4510   */\n      revert\n        /* \"#utility.yul\":4522:4932   */\n    tag_68:\n        /* \"#utility.yul\":4562:4569   */\n      0x00\n        /* \"#utility.yul\":4585:4605   */\n      tag_215\n        /* \"#utility.yul\":4603:4604   */\n      dup3\n        /* \"#utility.yul\":4585:4605   */\n      tag_145\n      jump\t// in\n    tag_215:\n        /* \"#utility.yul\":4580:4605   */\n      swap2\n      pop\n        /* \"#utility.yul\":4619:4639   */\n      tag_216\n        /* \"#utility.yul\":4637:4638   */\n      dup4\n        /* \"#utility.yul\":4619:4639   */\n      tag_145\n      jump\t// in\n    tag_216:\n        /* \"#utility.yul\":4614:4639   */\n      swap3\n      pop\n        /* \"#utility.yul\":4674:4675   */\n      dup3\n        /* \"#utility.yul\":4671:4672   */\n      dup3\n        /* \"#utility.yul\":4667:4676   */\n      mul\n        /* \"#utility.yul\":4696:4726   */\n      tag_217\n        /* \"#utility.yul\":4714:4725   */\n      dup2\n        /* \"#utility.yul\":4696:4726   */\n      tag_145\n      jump\t// in\n    tag_217:\n        /* \"#utility.yul\":4685:4726   */\n      swap2\n      pop\n        /* \"#utility.yul\":4875:4876   */\n      dup3\n        /* \"#utility.yul\":4866:4873   */\n      dup3\n        /* \"#utility.yul\":4862:4877   */\n      div\n        /* \"#utility.yul\":4859:4860   */\n      dup5\n        /* \"#utility.yul\":4856:4878   */\n      eq\n        /* \"#utility.yul\":4836:4837   */\n      dup4\n        /* \"#utility.yul\":4829:4838   */\n      iszero\n        /* \"#utility.yul\":4809:4892   */\n      or\n        /* \"#utility.yul\":4786:4925   */\n      tag_218\n      jumpi\n        /* \"#utility.yul\":4905:4923   */\n      tag_219\n      tag_151\n      jump\t// in\n    tag_219:\n        /* \"#utility.yul\":4786:4925   */\n    tag_218:\n        /* \"#utility.yul\":4570:4932   */\n      pop\n        /* \"#utility.yul\":4522:4932   */\n      swap3\n      swap2\n      pop\n      pop\n      jump\t// out\n        /* \"#utility.yul\":4938:5118   */\n    tag_152:\n        /* \"#utility.yul\":4986:5063   */\n      0x4e487b7100000000000000000000000000000000000000000000000000000000\n        /* \"#utility.yul\":4983:4984   */\n      0x00\n        /* \"#utility.yul\":4976:5064   */\n      mstore\n        /* \"#utility.yul\":5083:5087   */\n      0x12\n        /* \"#utility.yul\":5080:5081   */\n      0x04\n        /* \"#utility.yul\":5073:5088   */\n      mstore\n        /* \"#utility.yul\":5107:5111   */\n      0x24\n        /* \"#utility.yul\":5104:5105   */\n      0x00\n        /* \"#utility.yul\":5097:5112   */\n      revert\n        /* \"#utility.yul\":5124:5309   */\n    tag_70:\n        /* \"#utility.yul\":5164:5165   */\n      0x00\n        /* \"#utility.yul\":5181:5201   */\n      tag_222\n        /* \"#utility.yul\":5199:5200   */\n      dup3\n        /* \"#utility.yul\":5181:5201   */\n      tag_145\n      jump\t// in\n    tag_222:\n        /* \"#utility.yul\":5176:5201   */\n      swap2\n      pop\n        /* \"#utility.yul\":5215:5235   */\n      tag_223\n        /* \"#utility.yul\":5233:5234   */\n      dup4\n        /* \"#utility.yul\":5215:5235   */\n      tag_145\n      jump\t// in\n    tag_223:\n        /* \"#utility.yul\":5210:5235   */\n      swap3\n      pop\n        /* \"#utility.yul\":5254:5255   */\n      dup3\n        /* \"#utility.yul\":5244:5279   */\n      tag_224\n      jumpi\n        /* \"#utility.yul\":5259:5277   */\n      tag_225\n      tag_152\n      jump\t// in\n    tag_225:\n        /* \"#utility.yul\":5244:5279   */\n    tag_224:\n        /* \"#utility.yul\":5301:5302   */\n      dup3\n        /* \"#utility.yul\":5298:5299   */\n      dup3\n        /* \"#utility.yul\":5294:5303   */\n      div\n        /* \"#utility.yul\":5289:5303   */\n      swap1\n      pop\n        /* \"#utility.yul\":5124:5309   */\n      swap3\n      swap2\n      pop\n      pop\n      jump\t// out\n        /* \"#utility.yul\":5315:5506   */\n    tag_72:\n        /* \"#utility.yul\":5355:5358   */\n      0x00\n        /* \"#utility.yul\":5374:5394   */\n      tag_227\n        /* \"#utility.yul\":5392:5393   */\n      dup3\n        /* \"#utility.yul\":5374:5394   */\n      tag_145\n      jump\t// in\n    tag_227:\n        /* \"#utility.yul\":5369:5394   */\n      swap2\n      pop\n        /* \"#utility.yul\":5408:5428   */\n      tag_228\n        /* \"#utility.yul\":5426:5427   */\n      dup4\n        /* \"#utility.yul\":5408:5428   */\n      tag_145\n      jump\t// in\n    tag_228:\n        /* \"#utility.yul\":5403:5428   */\n      swap3\n      pop\n        /* \"#utility.yul\":5451:5452   */\n      dup3\n        /* \"#utility.yul\":5448:5449   */\n      dup3\n        /* \"#utility.yul\":5444:5453   */\n      add\n        /* \"#utility.yul\":5437:5453   */\n      swap1\n      pop\n        /* \"#utility.yul\":5472:5475   */\n      dup1\n        /* \"#utility.yul\":5469:5470   */\n      dup3\n        /* \"#utility.yul\":5466:5476   */\n      gt\n        /* \"#utility.yul\":5463:5499   */\n      iszero\n      tag_229\n      jumpi\n        /* \"#utility.yul\":5479:5497   */\n      tag_230\n      tag_151\n      jump\t// in\n    tag_230:\n        /* \"#utility.yul\":5463:5499   */\n    tag_229:\n        /* \"#utility.yul\":5315:5506   */\n      swap3\n      swap2\n      pop\n      pop\n      jump\t// out\n        /* \"#utility.yul\":5512:5681   */\n    tag_153:\n        /* \"#utility.yul\":5596:5607   */\n      0x00\n        /* \"#utility.yul\":5630:5636   */\n      dup3\n        /* \"#utility.yul\":5625:5628   */\n      dup3\n        /* \"#utility.yul\":5618:5637   */\n      mstore\n        /* \"#utility.yul\":5670:5674   */\n      0x20\n        /* \"#utility.yul\":5665:5668   */\n      dup3\n        /* \"#utility.yul\":5661:5675   */\n      add\n        /* \"#utility.yul\":5646:5675   */\n      swap1\n      pop\n        /* \"#utility.yul\":5512:5681   */\n      swap3\n      swap2\n      pop\n      pop\n      jump\t// out\n        /* \"#utility.yul\":5687:5855   */\n    tag_154:\n        /* \"#utility.yul\":5827:5847   */\n      0x4e6f2072656e7420746f206465706f7369740000000000000000000000000000\n        /* \"#utility.yul\":5823:5824   */\n      0x00\n        /* \"#utility.yul\":5815:5821   */\n      dup3\n        /* \"#utility.yul\":5811:5825   */\n      add\n        /* \"#utility.yul\":5804:5848   */\n      mstore\n        /* \"#utility.yul\":5687:5855   */\n      pop\n      jump\t// out\n        /* \"#utility.yul\":5861:6227   */\n    tag_155:\n        /* \"#utility.yul\":6003:6006   */\n      0x00\n        /* \"#utility.yul\":6024:6091   */\n      tag_234\n        /* \"#utility.yul\":6088:6090   */\n      0x12\n        /* \"#utility.yul\":6083:6086   */\n      dup4\n        /* \"#utility.yul\":6024:6091   */\n      tag_153\n      jump\t// in\n    tag_234:\n        /* \"#utility.yul\":6017:6091   */\n      swap2\n      pop\n        /* \"#utility.yul\":6100:6193   */\n      tag_235\n        /* \"#utility.yul\":6189:6192   */\n      dup3\n        /* \"#utility.yul\":6100:6193   */\n      tag_154\n      jump\t// in\n    tag_235:\n        /* \"#utility.yul\":6218:6220   */\n      0x20\n        /* \"#utility.yul\":6213:6216   */\n      dup3\n        /* \"#utility.yul\":6209:6221   */\n      add\n        /* \"#utility.yul\":6202:6221   */\n      swap1\n      pop\n        /* \"#utility.yul\":5861:6227   */\n      swap2\n      swap1\n      pop\n      jump\t// out\n        /* \"#utility.yul\":6233:6652   */\n    tag_82:\n        /* \"#utility.yul\":6399:6403   */\n      0x00\n        /* \"#utility.yul\":6437:6439   */\n      0x20\n        /* \"#utility.yul\":6426:6435   */\n      dup3\n        /* \"#utility.yul\":6422:6440   */\n      add\n        /* \"#utility.yul\":6414:6440   */\n      swap1\n      pop\n        /* \"#utility.yul\":6486:6495   */\n      dup2\n        /* \"#utility.yul\":6480:6484   */\n      dup2\n        /* \"#utility.yul\":6476:6496   */\n      sub\n        /* \"#utility.yul\":6472:6473   */\n      0x00\n        /* \"#utility.yul\":6461:6470   */\n      dup4\n        /* \"#utility.yul\":6457:6474   */\n      add\n        /* \"#utility.yul\":6450:6497   */\n      mstore\n        /* \"#utility.yul\":6514:6645   */\n      tag_237\n        /* \"#utility.yul\":6640:6644   */\n      dup2\n        /* \"#utility.yul\":6514:6645   */\n      tag_155\n      jump\t// in\n    tag_237:\n        /* \"#utility.yul\":6506:6645   */\n      swap1\n      pop\n        /* \"#utility.yul\":6233:6652   */\n      swap2\n      swap1\n      pop\n      jump\t// out\n        /* \"#utility.yul\":6658:6990   */\n    tag_88:\n        /* \"#utility.yul\":6779:6783   */\n      0x00\n        /* \"#utility.yul\":6817:6819   */\n      0x40\n        /* \"#utility.yul\":6806:6815   */\n      dup3\n        /* \"#utility.yul\":6802:6820   */\n      add\n        /* \"#utility.yul\":6794:6820   */\n      swap1\n      pop\n        /* \"#utility.yul\":6830:6901   */\n      tag_239\n        /* \"#utility.yul\":6898:6899   */\n      0x00\n        /* \"#utility.yul\":6887:6896   */\n      dup4\n        /* \"#utility.yul\":6883:6900   */\n      add\n        /* \"#utility.yul\":6874:6880   */\n      dup6\n        /* \"#utility.yul\":6830:6901   */\n      tag_146\n      jump\t// in\n    tag_239:\n        /* \"#utility.yul\":6911:6983   */\n      tag_240\n        /* \"#utility.yul\":6979:6981   */\n      0x20\n        /* \"#utility.yul\":6968:6977   */\n      dup4\n        /* \"#utility.yul\":6964:6982   */\n      add\n        /* \"#utility.yul\":6955:6961   */\n      dup5\n        /* \"#utility.yul\":6911:6983   */\n      tag_146\n      jump\t// in\n    tag_240:\n        /* \"#utility.yul\":6658:6990   */\n      swap4\n      swap3\n      pop\n      pop\n      pop\n      jump\t// out\n        /* \"#utility.yul\":6996:7161   */\n    tag_156:\n        /* \"#utility.yul\":7136:7153   */\n      0x4e6f20746f6b656e73206f776e65640000000000000000000000000000000000\n        /* \"#utility.yul\":7132:7133   */\n      0x00\n        /* \"#utility.yul\":7124:7130   */\n      dup3\n        /* \"#utility.yul\":7120:7134   */\n      add\n        /* \"#utility.yul\":7113:7154   */\n      mstore\n        /* \"#utility.yul\":6996:7161   */\n      pop\n      jump\t// out\n        /* \"#utility.yul\":7167:7533   */\n    tag_157:\n        /* \"#utility.yul\":7309:7312   */\n      0x00\n        /* \"#utility.yul\":7330:7397   */\n      tag_243\n        /* \"#utility.yul\":7394:7396   */\n      0x0f\n        /* \"#utility.yul\":7389:7392   */\n      dup4\n        /* \"#utility.yul\":7330:7397   */\n      tag_153\n      jump\t// in\n    tag_243:\n        /* \"#utility.yul\":7323:7397   */\n      swap2\n      pop\n        /* \"#utility.yul\":7406:7499   */\n      tag_244\n        /* \"#utility.yul\":7495:7498   */\n      dup3\n        /* \"#utility.yul\":7406:7499   */\n      tag_156\n      jump\t// in\n    tag_244:\n        /* \"#utility.yul\":7524:7526   */\n      0x20\n        /* \"#utility.yul\":7519:7522   */\n      dup3\n        /* \"#utility.yul\":7515:7527   */\n      add\n        /* \"#utility.yul\":7508:7527   */\n      swap1\n      pop\n        /* \"#utility.yul\":7167:7533   */\n      swap2\n      swap1\n      pop\n      jump\t// out\n        /* \"#utility.yul\":7539:7958   */\n    tag_106:\n        /* \"#utility.yul\":7705:7709   */\n      0x00\n        /* \"#utility.yul\":7743:7745   */\n      0x20\n        /* \"#utility.yul\":7732:7741   */\n      dup3\n        /* \"#utility.yul\":7728:7746   */\n      add\n        /* \"#utility.yul\":7720:7746   */\n      swap1\n      pop\n        /* \"#utility.yul\":7792:7801   */\n      dup2\n        /* \"#utility.yul\":7786:7790   */\n      dup2\n        /* \"#utility.yul\":7782:7802   */\n      sub\n        /* \"#utility.yul\":7778:7779   */\n      0x00\n        /* \"#utility.yul\":7767:7776   */\n      dup4\n        /* \"#utility.yul\":7763:7780   */\n      add\n        /* \"#utility.yul\":7756:7803   */\n      mstore\n        /* \"#utility.yul\":7820:7951   */\n      tag_246\n        /* \"#utility.yul\":7946:7950   */\n      dup2\n        /* \"#utility.yul\":7820:7951   */\n      tag_157\n      jump\t// in\n    tag_246:\n        /* \"#utility.yul\":7812:7951   */\n      swap1\n      pop\n        /* \"#utility.yul\":7539:7958   */\n      swap2\n      swap1\n      pop\n      jump\t// out\n        /* \"#utility.yul\":7964:8134   */\n    tag_158:\n        /* \"#utility.yul\":8104:8126   */\n      0x4e6f206e65772072656e7420746f20636c61696d000000000000000000000000\n        /* \"#utility.yul\":8100:8101   */\n      0x00\n        /* \"#utility.yul\":8092:8098   */\n      dup3\n        /* \"#utility.yul\":8088:8102   */\n      add\n        /* \"#utility.yul\":8081:8127   */\n      mstore\n        /* \"#utility.yul\":7964:8134   */\n      pop\n      jump\t// out\n        /* \"#utility.yul\":8140:8506   */\n    tag_159:\n        /* \"#utility.yul\":8282:8285   */\n      0x00\n        /* \"#utility.yul\":8303:8370   */\n      tag_249\n        /* \"#utility.yul\":8367:8369   */\n      0x14\n        /* \"#utility.yul\":8362:8365   */\n      dup4\n        /* \"#utility.yul\":8303:8370   */\n      tag_153\n      jump\t// in\n    tag_249:\n        /* \"#utility.yul\":8296:8370   */\n      swap2\n      pop\n        /* \"#utility.yul\":8379:8472   */\n      tag_250\n        /* \"#utility.yul\":8468:8471   */\n      dup3\n        /* \"#utility.yul\":8379:8472   */\n      tag_158\n      jump\t// in\n    tag_250:\n        /* \"#utility.yul\":8497:8499   */\n      0x20\n        /* \"#utility.yul\":8492:8495   */\n      dup3\n        /* \"#utility.yul\":8488:8500   */\n      add\n        /* \"#utility.yul\":8481:8500   */\n      swap1\n      pop\n        /* \"#utility.yul\":8140:8506   */\n      swap2\n      swap1\n      pop\n      jump\t// out\n        /* \"#utility.yul\":8512:8931   */\n    tag_109:\n        /* \"#utility.yul\":8678:8682   */\n      0x00\n        /* \"#utility.yul\":8716:8718   */\n      0x20\n        /* \"#utility.yul\":8705:8714   */\n      dup3\n        /* \"#utility.yul\":8701:8719   */\n      add\n        /* \"#utility.yul\":8693:8719   */\n      swap1\n      pop\n        /* \"#utility.yul\":8765:8774   */\n      dup2\n        /* \"#utility.yul\":8759:8763   */\n      dup2\n        /* \"#utility.yul\":8755:8775   */\n      sub\n        /* \"#utility.yul\":8751:8752   */\n      0x00\n        /* \"#utility.yul\":8740:8749   */\n      dup4\n        /* \"#utility.yul\":8736:8753   */\n      add\n        /* \"#utility.yul\":8729:8776   */\n      mstore\n        /* \"#utility.yul\":8793:8924   */\n      tag_252\n        /* \"#utility.yul\":8919:8923   */\n      dup2\n        /* \"#utility.yul\":8793:8924   */\n      tag_159\n      jump\t// in\n    tag_252:\n        /* \"#utility.yul\":8785:8924   */\n      swap1\n      pop\n        /* \"#utility.yul\":8512:8931   */\n      swap2\n      swap1\n      pop\n      jump\t// out\n        /* \"#utility.yul\":8937:9118   */\n    tag_160:\n        /* \"#utility.yul\":9077:9110   */\n      0x5265656e7472616e637947756172643a207265656e7472616e742063616c6c00\n        /* \"#utility.yul\":9073:9074   */\n      0x00\n        /* \"#utility.yul\":9065:9071   */\n      dup3\n        /* \"#utility.yul\":9061:9075   */\n      add\n        /* \"#utility.yul\":9054:9111   */\n      mstore\n        /* \"#utility.yul\":8937:9118   */\n      pop\n      jump\t// out\n        /* \"#utility.yul\":9124:9490   */\n    tag_161:\n        /* \"#utility.yul\":9266:9269   */\n      0x00\n        /* \"#utility.yul\":9287:9354   */\n      tag_255\n        /* \"#utility.yul\":9351:9353   */\n      0x1f\n        /* \"#utility.yul\":9346:9349   */\n      dup4\n        /* \"#utility.yul\":9287:9354   */\n      tag_153\n      jump\t// in\n    tag_255:\n        /* \"#utility.yul\":9280:9354   */\n      swap2\n      pop\n        /* \"#utility.yul\":9363:9456   */\n      tag_256\n        /* \"#utility.yul\":9452:9455   */\n      dup3\n        /* \"#utility.yul\":9363:9456   */\n      tag_160\n      jump\t// in\n    tag_256:\n        /* \"#utility.yul\":9481:9483   */\n      0x20\n        /* \"#utility.yul\":9476:9479   */\n      dup3\n        /* \"#utility.yul\":9472:9484   */\n      add\n        /* \"#utility.yul\":9465:9484   */\n      swap1\n      pop\n        /* \"#utility.yul\":9124:9490   */\n      swap2\n      swap1\n      pop\n      jump\t// out\n        /* \"#utility.yul\":9496:9915   */\n    tag_135:\n        /* \"#utility.yul\":9662:9666   */\n      0x00\n        /* \"#utility.yul\":9700:9702   */\n      0x20\n        /* \"#utility.yul\":9689:9698   */\n      dup3\n        /* \"#utility.yul\":9685:9703   */\n      add\n        /* \"#utility.yul\":9677:9703   */\n      swap1\n      pop\n        /* \"#utility.yul\":9749:9758   */\n      dup2\n        /* \"#utility.yul\":9743:9747   */\n      dup2\n        /* \"#utility.yul\":9739:9759   */\n      sub\n        /* \"#utility.yul\":9735:9736   */\n      0x00\n        /* \"#utility.yul\":9724:9733   */\n      dup4\n        /* \"#utility.yul\":9720:9737   */\n      add\n        /* \"#utility.yul\":9713:9760   */\n      mstore\n        /* \"#utility.yul\":9777:9908   */\n      tag_258\n        /* \"#utility.yul\":9903:9907   */\n      dup2\n        /* \"#utility.yul\":9777:9908   */\n      tag_161\n      jump\t// in\n    tag_258:\n        /* \"#utility.yul\":9769:9908   */\n      swap1\n      pop\n        /* \"#utility.yul\":9496:9915   */\n      swap2\n      swap1\n      pop\n      jump\t// out\n\n    auxdata: 0xa26469706673582212207ec800ade59f6372554e70bd810d2eaae166532a728d195ab2481103cbbbb1b764736f6c634300081d0033\n}\n",
				"bytecode": {
					"linkReferences": {},
					"object": "608060405234801561000f575f5ffd5b50604051611330380380611330833981810160405281019061003191906101e0565b8060015f819055505f73ffffffffffffffffffffffffffffffffffffffff168173ffffffffffffffffffffffffffffffffffffffff16036100a9575f6040517f1e4fbdf70000000000000000000000000000000000000000000000000000000081526004016100a0919061021a565b60405180910390fd5b6100b8816100bf60201b60201c565b5050610233565b5f60015f9054906101000a900473ffffffffffffffffffffffffffffffffffffffff1690508160015f6101000a81548173ffffffffffffffffffffffffffffffffffffffff021916908373ffffffffffffffffffffffffffffffffffffffff1602179055508173ffffffffffffffffffffffffffffffffffffffff168173ffffffffffffffffffffffffffffffffffffffff167f8be0079c531659141344cd1fd0a4f28419497f9722a3daafe3b4186f6b6457e060405160405180910390a35050565b5f5ffd5b5f73ffffffffffffffffffffffffffffffffffffffff82169050919050565b5f6101af82610186565b9050919050565b6101bf816101a5565b81146101c9575f5ffd5b50565b5f815190506101da816101b6565b92915050565b5f602082840312156101f5576101f4610182565b5b5f610202848285016101cc565b91505092915050565b610214816101a5565b82525050565b5f60208201905061022d5f83018461020b565b92915050565b6110f0806102405f395ff3fe60806040526004361061007a575f3560e01c8063781f36211161004d578063781f36211461014a5780638da5cb5b14610166578063f2fde38b14610190578063fa1637b3146101b85761007a565b80632625205e1461007e57806358790cd5146100ba5780636b9540d0146100f8578063715018a614610134575b5f5ffd5b348015610089575f5ffd5b506100a4600480360381019061009f9190610c1a565b6101e0565b6040516100b19190610c70565b60405180910390f35b3480156100c5575f5ffd5b506100e060048036038101906100db9190610cb3565b610205565b6040516100ef93929190610cf1565b60405180910390f35b348015610103575f5ffd5b5061011e60048036038101906101199190610c1a565b610245565b60405161012b9190610c70565b60405180910390f35b34801561013f575f5ffd5b5061014861046e565b005b610164600480360381019061015f9190610d26565b610481565b005b348015610171575f5ffd5b5061017a610628565b6040516101879190610d60565b60405180910390f35b34801561019b575f5ffd5b506101b660048036038101906101b19190610d26565b610650565b005b3480156101c3575f5ffd5b506101de60048036038101906101d99190610d26565b6106d4565b005b6003602052815f5260405f20602052805f5260405f205f9150915050805f0154905081565b6002602052815f5260405f20818154811061021e575f80fd5b905f5260205f2090600302015f9150915050805f0154908060010154908060020154905083565b5f5f8390505f8173ffffffffffffffffffffffffffffffffffffffff166370a08231856040518263ffffffff1660e01b81526004016102849190610d60565b602060405180830381865afa15801561029f573d5f5f3e3d5ffd5b505050506040513d601f19601f820116820180604052508101906102c39190610d8d565b90505f81036102d6575f92505050610468565b5f60035f8773ffffffffffffffffffffffffffffffffffffffff1673ffffffffffffffffffffffffffffffffffffffff1681526020019081526020015f205f8673ffffffffffffffffffffffffffffffffffffffff1673ffffffffffffffffffffffffffffffffffffffff1681526020019081526020015f2090505f815f015490505f60025f8973ffffffffffffffffffffffffffffffffffffffff1673ffffffffffffffffffffffffffffffffffffffff1681526020019081526020015f208054905090508082106103b0575f95505050505050610468565b5f5f90505f8390505b8281101561045d575f60025f8c73ffffffffffffffffffffffffffffffffffffffff1673ffffffffffffffffffffffffffffffffffffffff1681526020019081526020015f20828154811061041157610410610db8565b5b905f5260205f20906003020190505f816002015488835f01546104349190610e12565b61043e9190610e80565b9050808461044c9190610eb0565b9350505080806001019150506103b9565b508096505050505050505b92915050565b610476610a15565b61047f5f610a9c565b565b5f34116104c3576040517f08c379a00000000000000000000000000000000000000000000000000000000081526004016104ba90610f3d565b60405180910390fd5b5f8190505f8173ffffffffffffffffffffffffffffffffffffffff166318160ddd6040518163ffffffff1660e01b8152600401602060405180830381865afa158015610511573d5f5f3e3d5ffd5b505050506040513d601f19601f820116820180604052508101906105359190610d8d565b905060025f8473ffffffffffffffffffffffffffffffffffffffff1673ffffffffffffffffffffffffffffffffffffffff1681526020019081526020015f20604051806060016040528034815260200142815260200183815250908060018154018082558091505060019003905f5260205f2090600302015f909190919091505f820151815f0155602082015181600101556040820151816002015550508273ffffffffffffffffffffffffffffffffffffffff167f11de96ae3aab92e2614e31859fb06c7ce666a333e21b21484e08412e0db35e03344260405161061b929190610f5b565b60405180910390a2505050565b5f60015f9054906101000a900473ffffffffffffffffffffffffffffffffffffffff16905090565b610658610a15565b5f73ffffffffffffffffffffffffffffffffffffffff168173ffffffffffffffffffffffffffffffffffffffff16036106c8575f6040517f1e4fbdf70000000000000000000000000000000000000000000000000000000081526004016106bf9190610d60565b60405180910390fd5b6106d181610a9c565b50565b6106dc610b5f565b5f8190505f8173ffffffffffffffffffffffffffffffffffffffff166370a08231336040518263ffffffff1660e01b815260040161071a9190610d60565b602060405180830381865afa158015610735573d5f5f3e3d5ffd5b505050506040513d601f19601f820116820180604052508101906107599190610d8d565b90505f811161079d576040517f08c379a000000000000000000000000000000000000000000000000000000000815260040161079490610fcc565b60405180910390fd5b5f60035f8573ffffffffffffffffffffffffffffffffffffffff1673ffffffffffffffffffffffffffffffffffffffff1681526020019081526020015f205f3373ffffffffffffffffffffffffffffffffffffffff1673ffffffffffffffffffffffffffffffffffffffff1681526020019081526020015f2090505f815f015490505f60025f8773ffffffffffffffffffffffffffffffffffffffff1673ffffffffffffffffffffffffffffffffffffffff1681526020019081526020015f208054905090508082106108a5576040517f08c379a000000000000000000000000000000000000000000000000000000000815260040161089c90611034565b60405180910390fd5b5f5f90505f8390505b82811015610952575f60025f8a73ffffffffffffffffffffffffffffffffffffffff1673ffffffffffffffffffffffffffffffffffffffff1681526020019081526020015f20828154811061090657610905610db8565b5b905f5260205f20906003020190505f816002015488835f01546109299190610e12565b6109339190610e80565b905080846109419190610eb0565b9350505080806001019150506108ae565b5081845f01819055503373ffffffffffffffffffffffffffffffffffffffff166108fc8290811502906040515f60405180830381858888f1935050505015801561099e573d5f5f3e3d5ffd5b503373ffffffffffffffffffffffffffffffffffffffff168773ffffffffffffffffffffffffffffffffffffffff167f500ded40b22a4a352de0c71d37c6e390129e04faf312c11ece1104d9886af5d2836040516109fc9190610c70565b60405180910390a3505050505050610a12610bac565b50565b610a1d610bb5565b73ffffffffffffffffffffffffffffffffffffffff16610a3b610628565b73ffffffffffffffffffffffffffffffffffffffff1614610a9a57610a5e610bb5565b6040517f118cdaa7000000000000000000000000000000000000000000000000000000008152600401610a919190610d60565b60405180910390fd5b565b5f60015f9054906101000a900473ffffffffffffffffffffffffffffffffffffffff1690508160015f6101000a81548173ffffffffffffffffffffffffffffffffffffffff021916908373ffffffffffffffffffffffffffffffffffffffff1602179055508173ffffffffffffffffffffffffffffffffffffffff168173ffffffffffffffffffffffffffffffffffffffff167f8be0079c531659141344cd1fd0a4f28419497f9722a3daafe3b4186f6b6457e060405160405180910390a35050565b60025f5403610ba3576040517f08c379a0000000000000000000000000000000000000000000000000000000008152600401610b9a9061109c565b60405180910390fd5b60025f81905550565b60015f81905550565b5f33905090565b5f5ffd5b5f73ffffffffffffffffffffffffffffffffffffffff82169050919050565b5f610be982610bc0565b9050919050565b610bf981610bdf565b8114610c03575f5ffd5b50565b5f81359050610c1481610bf0565b92915050565b5f5f60408385031215610c3057610c2f610bbc565b5b5f610c3d85828601610c06565b9250506020610c4e85828601610c06565b9150509250929050565b5f819050919050565b610c6a81610c58565b82525050565b5f602082019050610c835f830184610c61565b92915050565b610c9281610c58565b8114610c9c575f5ffd5b50565b5f81359050610cad81610c89565b92915050565b5f5f60408385031215610cc957610cc8610bbc565b5b5f610cd685828601610c06565b9250506020610ce785828601610c9f565b9150509250929050565b5f606082019050610d045f830186610c61565b610d116020830185610c61565b610d1e6040830184610c61565b949350505050565b5f60208284031215610d3b57610d3a610bbc565b5b5f610d4884828501610c06565b91505092915050565b610d5a81610bdf565b82525050565b5f602082019050610d735f830184610d51565b92915050565b5f81519050610d8781610c89565b92915050565b5f60208284031215610da257610da1610bbc565b5b5f610daf84828501610d79565b91505092915050565b7f4e487b71000000000000000000000000000000000000000000000000000000005f52603260045260245ffd5b7f4e487b71000000000000000000000000000000000000000000000000000000005f52601160045260245ffd5b5f610e1c82610c58565b9150610e2783610c58565b9250828202610e3581610c58565b91508282048414831517610e4c57610e4b610de5565b5b5092915050565b7f4e487b71000000000000000000000000000000000000000000000000000000005f52601260045260245ffd5b5f610e8a82610c58565b9150610e9583610c58565b925082610ea557610ea4610e53565b5b828204905092915050565b5f610eba82610c58565b9150610ec583610c58565b9250828201905080821115610edd57610edc610de5565b5b92915050565b5f82825260208201905092915050565b7f4e6f2072656e7420746f206465706f73697400000000000000000000000000005f82015250565b5f610f27601283610ee3565b9150610f3282610ef3565b602082019050919050565b5f6020820190508181035f830152610f5481610f1b565b9050919050565b5f604082019050610f6e5f830185610c61565b610f7b6020830184610c61565b9392505050565b7f4e6f20746f6b656e73206f776e656400000000000000000000000000000000005f82015250565b5f610fb6600f83610ee3565b9150610fc182610f82565b602082019050919050565b5f6020820190508181035f830152610fe381610faa565b9050919050565b7f4e6f206e65772072656e7420746f20636c61696d0000000000000000000000005f82015250565b5f61101e601483610ee3565b915061102982610fea565b602082019050919050565b5f6020820190508181035f83015261104b81611012565b9050919050565b7f5265656e7472616e637947756172643a207265656e7472616e742063616c6c005f82015250565b5f611086601f83610ee3565b915061109182611052565b602082019050919050565b5f6020820190508181035f8301526110b38161107a565b905091905056fea26469706673582212207ec800ade59f6372554e70bd810d2eaae166532a728d195ab2481103cbbbb1b764736f6c634300081d0033",
					"opcodes": "PUSH1 0x80 PUSH1 0x40 MSTORE CALLVALUE DUP1 ISZERO PUSH2 0xF JUMPI PUSH0 PUSH0 REVERT JUMPDEST POP PUSH1 0x40 MLOAD PUSH2 0x1330 CODESIZE SUB DUP1 PUSH2 0x1330 DUP4 CODECOPY DUP2 DUP2 ADD PUSH1 0x40 MSTORE DUP2 ADD SWAP1 PUSH2 0x31 SWAP2 SWAP1 PUSH2 0x1E0 JUMP JUMPDEST DUP1 PUSH1 0x1 PUSH0 DUP2 SWAP1 SSTORE POP PUSH0 PUSH20 0xFFFFFFFFFFFFFFFFFFFFFFFFFFFFFFFFFFFFFFFF AND DUP2 PUSH20 0xFFFFFFFFFFFFFFFFFFFFFFFFFFFFFFFFFFFFFFFF AND SUB PUSH2 0xA9 JUMPI PUSH0 PUSH1 0x40 MLOAD PUSH32 0x1E4FBDF700000000000000000000000000000000000000000000000000000000 DUP2 MSTORE PUSH1 0x4 ADD PUSH2 0xA0 SWAP2 SWAP1 PUSH2 0x21A JUMP JUMPDEST PUSH1 0x40 MLOAD DUP1 SWAP2 SUB SWAP1 REVERT JUMPDEST PUSH2 0xB8 DUP2 PUSH2 0xBF PUSH1 0x20 SHL PUSH1 0x20 SHR JUMP JUMPDEST POP POP PUSH2 0x233 JUMP JUMPDEST PUSH0 PUSH1 0x1 PUSH0 SWAP1 SLOAD SWAP1 PUSH2 0x100 EXP SWAP1 DIV PUSH20 0xFFFFFFFFFFFFFFFFFFFFFFFFFFFFFFFFFFFFFFFF AND SWAP1 POP DUP2 PUSH1 0x1 PUSH0 PUSH2 0x100 EXP DUP2 SLOAD DUP2 PUSH20 0xFFFFFFFFFFFFFFFFFFFFFFFFFFFFFFFFFFFFFFFF MUL NOT AND SWAP1 DUP4 PUSH20 0xFFFFFFFFFFFFFFFFFFFFFFFFFFFFFFFFFFFFFFFF AND MUL OR SWAP1 SSTORE POP DUP2 PUSH20 0xFFFFFFFFFFFFFFFFFFFFFFFFFFFFFFFFFFFFFFFF AND DUP2 PUSH20 0xFFFFFFFFFFFFFFFFFFFFFFFFFFFFFFFFFFFFFFFF AND PUSH32 0x8BE0079C531659141344CD1FD0A4F28419497F9722A3DAAFE3B4186F6B6457E0 PUSH1 0x40 MLOAD PUSH1 0x40 MLOAD DUP1 SWAP2 SUB SWAP1 LOG3 POP POP JUMP JUMPDEST PUSH0 PUSH0 REVERT JUMPDEST PUSH0 PUSH20 0xFFFFFFFFFFFFFFFFFFFFFFFFFFFFFFFFFFFFFFFF DUP3 AND SWAP1 POP SWAP2 SWAP1 POP JUMP JUMPDEST PUSH0 PUSH2 0x1AF DUP3 PUSH2 0x186 JUMP JUMPDEST SWAP1 POP SWAP2 SWAP1 POP JUMP JUMPDEST PUSH2 0x1BF DUP2 PUSH2 0x1A5 JUMP JUMPDEST DUP2 EQ PUSH2 0x1C9 JUMPI PUSH0 PUSH0 REVERT JUMPDEST POP JUMP JUMPDEST PUSH0 DUP2 MLOAD SWAP1 POP PUSH2 0x1DA DUP2 PUSH2 0x1B6 JUMP JUMPDEST SWAP3 SWAP2 POP POP JUMP JUMPDEST PUSH0 PUSH1 0x20 DUP3 DUP5 SUB SLT ISZERO PUSH2 0x1F5 JUMPI PUSH2 0x1F4 PUSH2 0x182 JUMP JUMPDEST JUMPDEST PUSH0 PUSH2 0x202 DUP5 DUP3 DUP6 ADD PUSH2 0x1CC JUMP JUMPDEST SWAP2 POP POP SWAP3 SWAP2 POP POP JUMP JUMPDEST PUSH2 0x214 DUP2 PUSH2 0x1A5 JUMP JUMPDEST DUP3 MSTORE POP POP JUMP JUMPDEST PUSH0 PUSH1 0x20 DUP3 ADD SWAP1 POP PUSH2 0x22D PUSH0 DUP4 ADD DUP5 PUSH2 0x20B JUMP JUMPDEST SWAP3 SWAP2 POP POP JUMP JUMPDEST PUSH2 0x10F0 DUP1 PUSH2 0x240 PUSH0 CODECOPY PUSH0 RETURN INVALID PUSH1 0x80 PUSH1 0x40 MSTORE PUSH1 0x4 CALLDATASIZE LT PUSH2 0x7A JUMPI PUSH0 CALLDATALOAD PUSH1 0xE0 SHR DUP1 PUSH4 0x781F3621 GT PUSH2 0x4D JUMPI DUP1 PUSH4 0x781F3621 EQ PUSH2 0x14A JUMPI DUP1 PUSH4 0x8DA5CB5B EQ PUSH2 0x166 JUMPI DUP1 PUSH4 0xF2FDE38B EQ PUSH2 0x190 JUMPI DUP1 PUSH4 0xFA1637B3 EQ PUSH2 0x1B8 JUMPI PUSH2 0x7A JUMP JUMPDEST DUP1 PUSH4 0x2625205E EQ PUSH2 0x7E JUMPI DUP1 PUSH4 0x58790CD5 EQ PUSH2 0xBA JUMPI DUP1 PUSH4 0x6B9540D0 EQ PUSH2 0xF8 JUMPI DUP1 PUSH4 0x715018A6 EQ PUSH2 0x134 JUMPI JUMPDEST PUSH0 PUSH0 REVERT JUMPDEST CALLVALUE DUP1 ISZERO PUSH2 0x89 JUMPI PUSH0 PUSH0 REVERT JUMPDEST POP PUSH2 0xA4 PUSH1 0x4 DUP1 CALLDATASIZE SUB DUP2 ADD SWAP1 PUSH2 0x9F SWAP2 SWAP1 PUSH2 0xC1A JUMP JUMPDEST PUSH2 0x1E0 JUMP JUMPDEST PUSH1 0x40 MLOAD PUSH2 0xB1 SWAP2 SWAP1 PUSH2 0xC70 JUMP JUMPDEST PUSH1 0x40 MLOAD DUP1 SWAP2 SUB SWAP1 RETURN JUMPDEST CALLVALUE DUP1 ISZERO PUSH2 0xC5 JUMPI PUSH0 PUSH0 REVERT JUMPDEST POP PUSH2 0xE0 PUSH1 0x4 DUP1 CALLDATASIZE SUB DUP2 ADD SWAP1 PUSH2 0xDB SWAP2 SWAP1 PUSH2 0xCB3 JUMP JUMPDEST PUSH2 0x205 JUMP JUMPDEST PUSH1 0x40 MLOAD PUSH2 0xEF SWAP4 SWAP3 SWAP2 SWAP1 PUSH2 0xCF1 JUMP JUMPDEST PUSH1 0x40 MLOAD DUP1 SWAP2 SUB SWAP1 RETURN JUMPDEST CALLVALUE DUP1 ISZERO PUSH2 0x103 JUMPI PUSH0 PUSH0 REVERT JUMPDEST POP PUSH2 0x11E PUSH1 0x4 DUP1 CALLDATASIZE SUB DUP2 ADD SWAP1 PUSH2 0x119 SWAP2 SWAP1 PUSH2 0xC1A JUMP JUMPDEST PUSH2 0x245 JUMP JUMPDEST PUSH1 0x40 MLOAD PUSH2 0x12B SWAP2 SWAP1 PUSH2 0xC70 JUMP JUMPDEST PUSH1 0x40 MLOAD DUP1 SWAP2 SUB SWAP1 RETURN JUMPDEST CALLVALUE DUP1 ISZERO PUSH2 0x13F JUMPI PUSH0 PUSH0 REVERT JUMPDEST POP PUSH2 0x148 PUSH2 0x46E JUMP JUMPDEST STOP JUMPDEST PUSH2 0x164 PUSH1 0x4 DUP1 CALLDATASIZE SUB DUP2 ADD SWAP1 PUSH2 0x15F SWAP2 SWAP1 PUSH2 0xD26 JUMP JUMPDEST PUSH2 0x481 JUMP JUMPDEST STOP JUMPDEST CALLVALUE DUP1 ISZERO PUSH2 0x171 JUMPI PUSH0 PUSH0 REVERT JUMPDEST POP PUSH2 0x17A PUSH2 0x628 JUMP JUMPDEST PUSH1 0x40 MLOAD PUSH2 0x187 SWAP2 SWAP1 PUSH2 0xD60 JUMP JUMPDEST PUSH1 0x40 MLOAD DUP1 SWAP2 SUB SWAP1 RETURN JUMPDEST CALLVALUE DUP1 ISZERO PUSH2 0x19B JUMPI PUSH0 PUSH0 REVERT JUMPDEST POP PUSH2 0x1B6 PUSH1 0x4 DUP1 CALLDATASIZE SUB DUP2 ADD SWAP1 PUSH2 0x1B1 SWAP2 SWAP1 PUSH2 0xD26 JUMP JUMPDEST PUSH2 0x650 JUMP JUMPDEST STOP JUMPDEST CALLVALUE DUP1 ISZERO PUSH2 0x1C3 JUMPI PUSH0 PUSH0 REVERT JUMPDEST POP PUSH2 0x1DE PUSH1 0x4 DUP1 CALLDATASIZE SUB DUP2 ADD SWAP1 PUSH2 0x1D9 SWAP2 SWAP1 PUSH2 0xD26 JUMP JUMPDEST PUSH2 0x6D4 JUMP JUMPDEST STOP JUMPDEST PUSH1 0x3 PUSH1 0x20 MSTORE DUP2 PUSH0 MSTORE PUSH1 0x40 PUSH0 KECCAK256 PUSH1 0x20 MSTORE DUP1 PUSH0 MSTORE PUSH1 0x40 PUSH0 KECCAK256 PUSH0 SWAP2 POP SWAP2 POP POP DUP1 PUSH0 ADD SLOAD SWAP1 POP DUP2 JUMP JUMPDEST PUSH1 0x2 PUSH1 0x20 MSTORE DUP2 PUSH0 MSTORE PUSH1 0x40 PUSH0 KECCAK256 DUP2 DUP2 SLOAD DUP2 LT PUSH2 0x21E JUMPI PUSH0 DUP1 REVERT JUMPDEST SWAP1 PUSH0 MSTORE PUSH1 0x20 PUSH0 KECCAK256 SWAP1 PUSH1 0x3 MUL ADD PUSH0 SWAP2 POP SWAP2 POP POP DUP1 PUSH0 ADD SLOAD SWAP1 DUP1 PUSH1 0x1 ADD SLOAD SWAP1 DUP1 PUSH1 0x2 ADD SLOAD SWAP1 POP DUP4 JUMP JUMPDEST PUSH0 PUSH0 DUP4 SWAP1 POP PUSH0 DUP2 PUSH20 0xFFFFFFFFFFFFFFFFFFFFFFFFFFFFFFFFFFFFFFFF AND PUSH4 0x70A08231 DUP6 PUSH1 0x40 MLOAD DUP3 PUSH4 0xFFFFFFFF AND PUSH1 0xE0 SHL DUP2 MSTORE PUSH1 0x4 ADD PUSH2 0x284 SWAP2 SWAP1 PUSH2 0xD60 JUMP JUMPDEST PUSH1 0x20 PUSH1 0x40 MLOAD DUP1 DUP4 SUB DUP2 DUP7 GAS STATICCALL ISZERO DUP1 ISZERO PUSH2 0x29F JUMPI RETURNDATASIZE PUSH0 PUSH0 RETURNDATACOPY RETURNDATASIZE PUSH0 REVERT JUMPDEST POP POP POP POP PUSH1 0x40 MLOAD RETURNDATASIZE PUSH1 0x1F NOT PUSH1 0x1F DUP3 ADD AND DUP3 ADD DUP1 PUSH1 0x40 MSTORE POP DUP2 ADD SWAP1 PUSH2 0x2C3 SWAP2 SWAP1 PUSH2 0xD8D JUMP JUMPDEST SWAP1 POP PUSH0 DUP2 SUB PUSH2 0x2D6 JUMPI PUSH0 SWAP3 POP POP POP PUSH2 0x468 JUMP JUMPDEST PUSH0 PUSH1 0x3 PUSH0 DUP8 PUSH20 0xFFFFFFFFFFFFFFFFFFFFFFFFFFFFFFFFFFFFFFFF AND PUSH20 0xFFFFFFFFFFFFFFFFFFFFFFFFFFFFFFFFFFFFFFFF AND DUP2 MSTORE PUSH1 0x20 ADD SWAP1 DUP2 MSTORE PUSH1 0x20 ADD PUSH0 KECCAK256 PUSH0 DUP7 PUSH20 0xFFFFFFFFFFFFFFFFFFFFFFFFFFFFFFFFFFFFFFFF AND PUSH20 0xFFFFFFFFFFFFFFFFFFFFFFFFFFFFFFFFFFFFFFFF AND DUP2 MSTORE PUSH1 0x20 ADD SWAP1 DUP2 MSTORE PUSH1 0x20 ADD PUSH0 KECCAK256 SWAP1 POP PUSH0 DUP2 PUSH0 ADD SLOAD SWAP1 POP PUSH0 PUSH1 0x2 PUSH0 DUP10 PUSH20 0xFFFFFFFFFFFFFFFFFFFFFFFFFFFFFFFFFFFFFFFF AND PUSH20 0xFFFFFFFFFFFFFFFFFFFFFFFFFFFFFFFFFFFFFFFF AND DUP2 MSTORE PUSH1 0x20 ADD SWAP1 DUP2 MSTORE PUSH1 0x20 ADD PUSH0 KECCAK256 DUP1 SLOAD SWAP1 POP SWAP1 POP DUP1 DUP3 LT PUSH2 0x3B0 JUMPI PUSH0 SWAP6 POP POP POP POP POP POP PUSH2 0x468 JUMP JUMPDEST PUSH0 PUSH0 SWAP1 POP PUSH0 DUP4 SWAP1 POP JUMPDEST DUP3 DUP2 LT ISZERO PUSH2 0x45D JUMPI PUSH0 PUSH1 0x2 PUSH0 DUP13 PUSH20 0xFFFFFFFFFFFFFFFFFFFFFFFFFFFFFFFFFFFFFFFF AND PUSH20 0xFFFFFFFFFFFFFFFFFFFFFFFFFFFFFFFFFFFFFFFF AND DUP2 MSTORE PUSH1 0x20 ADD SWAP1 DUP2 MSTORE PUSH1 0x20 ADD PUSH0 KECCAK256 DUP3 DUP2 SLOAD DUP2 LT PUSH2 0x411 JUMPI PUSH2 0x410 PUSH2 0xDB8 JUMP JUMPDEST JUMPDEST SWAP1 PUSH0 MSTORE PUSH1 0x20 PUSH0 KECCAK256 SWAP1 PUSH1 0x3 MUL ADD SWAP1 POP PUSH0 DUP2 PUSH1 0x2 ADD SLOAD DUP9 DUP4 PUSH0 ADD SLOAD PUSH2 0x434 SWAP2 SWAP1 PUSH2 0xE12 JUMP JUMPDEST PUSH2 0x43E SWAP2 SWAP1 PUSH2 0xE80 JUMP JUMPDEST SWAP1 POP DUP1 DUP5 PUSH2 0x44C SWAP2 SWAP1 PUSH2 0xEB0 JUMP JUMPDEST SWAP4 POP POP POP DUP1 DUP1 PUSH1 0x1 ADD SWAP2 POP POP PUSH2 0x3B9 JUMP JUMPDEST POP DUP1 SWAP7 POP POP POP POP POP POP POP JUMPDEST SWAP3 SWAP2 POP POP JUMP JUMPDEST PUSH2 0x476 PUSH2 0xA15 JUMP JUMPDEST PUSH2 0x47F PUSH0 PUSH2 0xA9C JUMP JUMPDEST JUMP JUMPDEST PUSH0 CALLVALUE GT PUSH2 0x4C3 JUMPI PUSH1 0x40 MLOAD PUSH32 0x8C379A000000000000000000000000000000000000000000000000000000000 DUP2 MSTORE PUSH1 0x4 ADD PUSH2 0x4BA SWAP1 PUSH2 0xF3D JUMP JUMPDEST PUSH1 0x40 MLOAD DUP1 SWAP2 SUB SWAP1 REVERT JUMPDEST PUSH0 DUP2 SWAP1 POP PUSH0 DUP2 PUSH20 0xFFFFFFFFFFFFFFFFFFFFFFFFFFFFFFFFFFFFFFFF AND PUSH4 0x18160DDD PUSH1 0x40 MLOAD DUP2 PUSH4 0xFFFFFFFF AND PUSH1 0xE0 SHL DUP2 MSTORE PUSH1 0x4 ADD PUSH1 0x20 PUSH1 0x40 MLOAD DUP1 DUP4 SUB DUP2 DUP7 GAS STATICCALL ISZERO DUP1 ISZERO PUSH2 0x511 JUMPI RETURNDATASIZE PUSH0 PUSH0 RETURNDATACOPY RETURNDATASIZE PUSH0 REVERT JUMPDEST POP POP POP POP PUSH1 0x40 MLOAD RETURNDATASIZE PUSH1 0x1F NOT PUSH1 0x1F DUP3 ADD AND DUP3 ADD DUP1 PUSH1 0x40 MSTORE POP DUP2 ADD SWAP1 PUSH2 0x535 SWAP2 SWAP1 PUSH2 0xD8D JUMP JUMPDEST SWAP1 POP PUSH1 0x2 PUSH0 DUP5 PUSH20 0xFFFFFFFFFFFFFFFFFFFFFFFFFFFFFFFFFFFFFFFF AND PUSH20 0xFFFFFFFFFFFFFFFFFFFFFFFFFFFFFFFFFFFFFFFF AND DUP2 MSTORE PUSH1 0x20 ADD SWAP1 DUP2 MSTORE PUSH1 0x20 ADD PUSH0 KECCAK256 PUSH1 0x40 MLOAD DUP1 PUSH1 0x60 ADD PUSH1 0x40 MSTORE DUP1 CALLVALUE DUP2 MSTORE PUSH1 0x20 ADD TIMESTAMP DUP2 MSTORE PUSH1 0x20 ADD DUP4 DUP2 MSTORE POP SWAP1 DUP1 PUSH1 0x1 DUP2 SLOAD ADD DUP1 DUP3 SSTORE DUP1 SWAP2 POP POP PUSH1 0x1 SWAP1 SUB SWAP1 PUSH0 MSTORE PUSH1 0x20 PUSH0 KECCAK256 SWAP1 PUSH1 0x3 MUL ADD PUSH0 SWAP1 SWAP2 SWAP1 SWAP2 SWAP1 SWAP2 POP PUSH0 DUP3 ADD MLOAD DUP2 PUSH0 ADD SSTORE PUSH1 0x20 DUP3 ADD MLOAD DUP2 PUSH1 0x1 ADD SSTORE PUSH1 0x40 DUP3 ADD MLOAD DUP2 PUSH1 0x2 ADD SSTORE POP POP DUP3 PUSH20 0xFFFFFFFFFFFFFFFFFFFFFFFFFFFFFFFFFFFFFFFF AND PUSH32 0x11DE96AE3AAB92E2614E31859FB06C7CE666A333E21B21484E08412E0DB35E03 CALLVALUE TIMESTAMP PUSH1 0x40 MLOAD PUSH2 0x61B SWAP3 SWAP2 SWAP1 PUSH2 0xF5B JUMP JUMPDEST PUSH1 0x40 MLOAD DUP1 SWAP2 SUB SWAP1 LOG2 POP POP POP JUMP JUMPDEST PUSH0 PUSH1 0x1 PUSH0 SWAP1 SLOAD SWAP1 PUSH2 0x100 EXP SWAP1 DIV PUSH20 0xFFFFFFFFFFFFFFFFFFFFFFFFFFFFFFFFFFFFFFFF AND SWAP1 POP SWAP1 JUMP JUMPDEST PUSH2 0x658 PUSH2 0xA15 JUMP JUMPDEST PUSH0 PUSH20 0xFFFFFFFFFFFFFFFFFFFFFFFFFFFFFFFFFFFFFFFF AND DUP2 PUSH20 0xFFFFFFFFFFFFFFFFFFFFFFFFFFFFFFFFFFFFFFFF AND SUB PUSH2 0x6C8 JUMPI PUSH0 PUSH1 0x40 MLOAD PUSH32 0x1E4FBDF700000000000000000000000000000000000000000000000000000000 DUP2 MSTORE PUSH1 0x4 ADD PUSH2 0x6BF SWAP2 SWAP1 PUSH2 0xD60 JUMP JUMPDEST PUSH1 0x40 MLOAD DUP1 SWAP2 SUB SWAP1 REVERT JUMPDEST PUSH2 0x6D1 DUP2 PUSH2 0xA9C JUMP JUMPDEST POP JUMP JUMPDEST PUSH2 0x6DC PUSH2 0xB5F JUMP JUMPDEST PUSH0 DUP2 SWAP1 POP PUSH0 DUP2 PUSH20 0xFFFFFFFFFFFFFFFFFFFFFFFFFFFFFFFFFFFFFFFF AND PUSH4 0x70A08231 CALLER PUSH1 0x40 MLOAD DUP3 PUSH4 0xFFFFFFFF AND PUSH1 0xE0 SHL DUP2 MSTORE PUSH1 0x4 ADD PUSH2 0x71A SWAP2 SWAP1 PUSH2 0xD60 JUMP JUMPDEST PUSH1 0x20 PUSH1 0x40 MLOAD DUP1 DUP4 SUB DUP2 DUP7 GAS STATICCALL ISZERO DUP1 ISZERO PUSH2 0x735 JUMPI RETURNDATASIZE PUSH0 PUSH0 RETURNDATACOPY RETURNDATASIZE PUSH0 REVERT JUMPDEST POP POP POP POP PUSH1 0x40 MLOAD RETURNDATASIZE PUSH1 0x1F NOT PUSH1 0x1F DUP3 ADD AND DUP3 ADD DUP1 PUSH1 0x40 MSTORE POP DUP2 ADD SWAP1 PUSH2 0x759 SWAP2 SWAP1 PUSH2 0xD8D JUMP JUMPDEST SWAP1 POP PUSH0 DUP2 GT PUSH2 0x79D JUMPI PUSH1 0x40 MLOAD PUSH32 0x8C379A000000000000000000000000000000000000000000000000000000000 DUP2 MSTORE PUSH1 0x4 ADD PUSH2 0x794 SWAP1 PUSH2 0xFCC JUMP JUMPDEST PUSH1 0x40 MLOAD DUP1 SWAP2 SUB SWAP1 REVERT JUMPDEST PUSH0 PUSH1 0x3 PUSH0 DUP6 PUSH20 0xFFFFFFFFFFFFFFFFFFFFFFFFFFFFFFFFFFFFFFFF AND PUSH20 0xFFFFFFFFFFFFFFFFFFFFFFFFFFFFFFFFFFFFFFFF AND DUP2 MSTORE PUSH1 0x20 ADD SWAP1 DUP2 MSTORE PUSH1 0x20 ADD PUSH0 KECCAK256 PUSH0 CALLER PUSH20 0xFFFFFFFFFFFFFFFFFFFFFFFFFFFFFFFFFFFFFFFF AND PUSH20 0xFFFFFFFFFFFFFFFFFFFFFFFFFFFFFFFFFFFFFFFF AND DUP2 MSTORE PUSH1 0x20 ADD SWAP1 DUP2 MSTORE PUSH1 0x20 ADD PUSH0 KECCAK256 SWAP1 POP PUSH0 DUP2 PUSH0 ADD SLOAD SWAP1 POP PUSH0 PUSH1 0x2 PUSH0 DUP8 PUSH20 0xFFFFFFFFFFFFFFFFFFFFFFFFFFFFFFFFFFFFFFFF AND PUSH20 0xFFFFFFFFFFFFFFFFFFFFFFFFFFFFFFFFFFFFFFFF AND DUP2 MSTORE PUSH1 0x20 ADD SWAP1 DUP2 MSTORE PUSH1 0x20 ADD PUSH0 KECCAK256 DUP1 SLOAD SWAP1 POP SWAP1 POP DUP1 DUP3 LT PUSH2 0x8A5 JUMPI PUSH1 0x40 MLOAD PUSH32 0x8C379A000000000000000000000000000000000000000000000000000000000 DUP2 MSTORE PUSH1 0x4 ADD PUSH2 0x89C SWAP1 PUSH2 0x1034 JUMP JUMPDEST PUSH1 0x40 MLOAD DUP1 SWAP2 SUB SWAP1 REVERT JUMPDEST PUSH0 PUSH0 SWAP1 POP PUSH0 DUP4 SWAP1 POP JUMPDEST DUP3 DUP2 LT ISZERO PUSH2 0x952 JUMPI PUSH0 PUSH1 0x2 PUSH0 DUP11 PUSH20 0xFFFFFFFFFFFFFFFFFFFFFFFFFFFFFFFFFFFFFFFF AND PUSH20 0xFFFFFFFFFFFFFFFFFFFFFFFFFFFFFFFFFFFFFFFF AND DUP2 MSTORE PUSH1 0x20 ADD SWAP1 DUP2 MSTORE PUSH1 0x20 ADD PUSH0 KECCAK256 DUP3 DUP2 SLOAD DUP2 LT PUSH2 0x906 JUMPI PUSH2 0x905 PUSH2 0xDB8 JUMP JUMPDEST JUMPDEST SWAP1 PUSH0 MSTORE PUSH1 0x20 PUSH0 KECCAK256 SWAP1 PUSH1 0x3 MUL ADD SWAP1 POP PUSH0 DUP2 PUSH1 0x2 ADD SLOAD DUP9 DUP4 PUSH0 ADD SLOAD PUSH2 0x929 SWAP2 SWAP1 PUSH2 0xE12 JUMP JUMPDEST PUSH2 0x933 SWAP2 SWAP1 PUSH2 0xE80 JUMP JUMPDEST SWAP1 POP DUP1 DUP5 PUSH2 0x941 SWAP2 SWAP1 PUSH2 0xEB0 JUMP JUMPDEST SWAP4 POP POP POP DUP1 DUP1 PUSH1 0x1 ADD SWAP2 POP POP PUSH2 0x8AE JUMP JUMPDEST POP DUP2 DUP5 PUSH0 ADD DUP2 SWAP1 SSTORE POP CALLER PUSH20 0xFFFFFFFFFFFFFFFFFFFFFFFFFFFFFFFFFFFFFFFF AND PUSH2 0x8FC DUP3 SWAP1 DUP2 ISZERO MUL SWAP1 PUSH1 0x40 MLOAD PUSH0 PUSH1 0x40 MLOAD DUP1 DUP4 SUB DUP2 DUP6 DUP9 DUP9 CALL SWAP4 POP POP POP POP ISZERO DUP1 ISZERO PUSH2 0x99E JUMPI RETURNDATASIZE PUSH0 PUSH0 RETURNDATACOPY RETURNDATASIZE PUSH0 REVERT JUMPDEST POP CALLER PUSH20 0xFFFFFFFFFFFFFFFFFFFFFFFFFFFFFFFFFFFFFFFF AND DUP8 PUSH20 0xFFFFFFFFFFFFFFFFFFFFFFFFFFFFFFFFFFFFFFFF AND PUSH32 0x500DED40B22A4A352DE0C71D37C6E390129E04FAF312C11ECE1104D9886AF5D2 DUP4 PUSH1 0x40 MLOAD PUSH2 0x9FC SWAP2 SWAP1 PUSH2 0xC70 JUMP JUMPDEST PUSH1 0x40 MLOAD DUP1 SWAP2 SUB SWAP1 LOG3 POP POP POP POP POP POP PUSH2 0xA12 PUSH2 0xBAC JUMP JUMPDEST POP JUMP JUMPDEST PUSH2 0xA1D PUSH2 0xBB5 JUMP JUMPDEST PUSH20 0xFFFFFFFFFFFFFFFFFFFFFFFFFFFFFFFFFFFFFFFF AND PUSH2 0xA3B PUSH2 0x628 JUMP JUMPDEST PUSH20 0xFFFFFFFFFFFFFFFFFFFFFFFFFFFFFFFFFFFFFFFF AND EQ PUSH2 0xA9A JUMPI PUSH2 0xA5E PUSH2 0xBB5 JUMP JUMPDEST PUSH1 0x40 MLOAD PUSH32 0x118CDAA700000000000000000000000000000000000000000000000000000000 DUP2 MSTORE PUSH1 0x4 ADD PUSH2 0xA91 SWAP2 SWAP1 PUSH2 0xD60 JUMP JUMPDEST PUSH1 0x40 MLOAD DUP1 SWAP2 SUB SWAP1 REVERT JUMPDEST JUMP JUMPDEST PUSH0 PUSH1 0x1 PUSH0 SWAP1 SLOAD SWAP1 PUSH2 0x100 EXP SWAP1 DIV PUSH20 0xFFFFFFFFFFFFFFFFFFFFFFFFFFFFFFFFFFFFFFFF AND SWAP1 POP DUP2 PUSH1 0x1 PUSH0 PUSH2 0x100 EXP DUP2 SLOAD DUP2 PUSH20 0xFFFFFFFFFFFFFFFFFFFFFFFFFFFFFFFFFFFFFFFF MUL NOT AND SWAP1 DUP4 PUSH20 0xFFFFFFFFFFFFFFFFFFFFFFFFFFFFFFFFFFFFFFFF AND MUL OR SWAP1 SSTORE POP DUP2 PUSH20 0xFFFFFFFFFFFFFFFFFFFFFFFFFFFFFFFFFFFFFFFF AND DUP2 PUSH20 0xFFFFFFFFFFFFFFFFFFFFFFFFFFFFFFFFFFFFFFFF AND PUSH32 0x8BE0079C531659141344CD1FD0A4F28419497F9722A3DAAFE3B4186F6B6457E0 PUSH1 0x40 MLOAD PUSH1 0x40 MLOAD DUP1 SWAP2 SUB SWAP1 LOG3 POP POP JUMP JUMPDEST PUSH1 0x2 PUSH0 SLOAD SUB PUSH2 0xBA3 JUMPI PUSH1 0x40 MLOAD PUSH32 0x8C379A000000000000000000000000000000000000000000000000000000000 DUP2 MSTORE PUSH1 0x4 ADD PUSH2 0xB9A SWAP1 PUSH2 0x109C JUMP JUMPDEST PUSH1 0x40 MLOAD DUP1 SWAP2 SUB SWAP1 REVERT JUMPDEST PUSH1 0x2 PUSH0 DUP2 SWAP1 SSTORE POP JUMP JUMPDEST PUSH1 0x1 PUSH0 DUP2 SWAP1 SSTORE POP JUMP JUMPDEST PUSH0 CALLER SWAP1 POP SWAP1 JUMP JUMPDEST PUSH0 PUSH0 REVERT JUMPDEST PUSH0 PUSH20 0xFFFFFFFFFFFFFFFFFFFFFFFFFFFFFFFFFFFFFFFF DUP3 AND SWAP1 POP SWAP2 SWAP1 POP JUMP JUMPDEST PUSH0 PUSH2 0xBE9 DUP3 PUSH2 0xBC0 JUMP JUMPDEST SWAP1 POP SWAP2 SWAP1 POP JUMP JUMPDEST PUSH2 0xBF9 DUP2 PUSH2 0xBDF JUMP JUMPDEST DUP2 EQ PUSH2 0xC03 JUMPI PUSH0 PUSH0 REVERT JUMPDEST POP JUMP JUMPDEST PUSH0 DUP2 CALLDATALOAD SWAP1 POP PUSH2 0xC14 DUP2 PUSH2 0xBF0 JUMP JUMPDEST SWAP3 SWAP2 POP POP JUMP JUMPDEST PUSH0 PUSH0 PUSH1 0x40 DUP4 DUP6 SUB SLT ISZERO PUSH2 0xC30 JUMPI PUSH2 0xC2F PUSH2 0xBBC JUMP JUMPDEST JUMPDEST PUSH0 PUSH2 0xC3D DUP6 DUP3 DUP7 ADD PUSH2 0xC06 JUMP JUMPDEST SWAP3 POP POP PUSH1 0x20 PUSH2 0xC4E DUP6 DUP3 DUP7 ADD PUSH2 0xC06 JUMP JUMPDEST SWAP2 POP POP SWAP3 POP SWAP3 SWAP1 POP JUMP JUMPDEST PUSH0 DUP2 SWAP1 POP SWAP2 SWAP1 POP JUMP JUMPDEST PUSH2 0xC6A DUP2 PUSH2 0xC58 JUMP JUMPDEST DUP3 MSTORE POP POP JUMP JUMPDEST PUSH0 PUSH1 0x20 DUP3 ADD SWAP1 POP PUSH2 0xC83 PUSH0 DUP4 ADD DUP5 PUSH2 0xC61 JUMP JUMPDEST SWAP3 SWAP2 POP POP JUMP JUMPDEST PUSH2 0xC92 DUP2 PUSH2 0xC58 JUMP JUMPDEST DUP2 EQ PUSH2 0xC9C JUMPI PUSH0 PUSH0 REVERT JUMPDEST POP JUMP JUMPDEST PUSH0 DUP2 CALLDATALOAD SWAP1 POP PUSH2 0xCAD DUP2 PUSH2 0xC89 JUMP JUMPDEST SWAP3 SWAP2 POP POP JUMP JUMPDEST PUSH0 PUSH0 PUSH1 0x40 DUP4 DUP6 SUB SLT ISZERO PUSH2 0xCC9 JUMPI PUSH2 0xCC8 PUSH2 0xBBC JUMP JUMPDEST JUMPDEST PUSH0 PUSH2 0xCD6 DUP6 DUP3 DUP7 ADD PUSH2 0xC06 JUMP JUMPDEST SWAP3 POP POP PUSH1 0x20 PUSH2 0xCE7 DUP6 DUP3 DUP7 ADD PUSH2 0xC9F JUMP JUMPDEST SWAP2 POP POP SWAP3 POP SWAP3 SWAP1 POP JUMP JUMPDEST PUSH0 PUSH1 0x60 DUP3 ADD SWAP1 POP PUSH2 0xD04 PUSH0 DUP4 ADD DUP7 PUSH2 0xC61 JUMP JUMPDEST PUSH2 0xD11 PUSH1 0x20 DUP4 ADD DUP6 PUSH2 0xC61 JUMP JUMPDEST PUSH2 0xD1E PUSH1 0x40 DUP4 ADD DUP5 PUSH2 0xC61 JUMP JUMPDEST SWAP5 SWAP4 POP POP POP POP JUMP JUMPDEST PUSH0 PUSH1 0x20 DUP3 DUP5 SUB SLT ISZERO PUSH2 0xD3B JUMPI PUSH2 0xD3A PUSH2 0xBBC JUMP JUMPDEST JUMPDEST PUSH0 PUSH2 0xD48 DUP5 DUP3 DUP6 ADD PUSH2 0xC06 JUMP JUMPDEST SWAP2 POP POP SWAP3 SWAP2 POP POP JUMP JUMPDEST PUSH2 0xD5A DUP2 PUSH2 0xBDF JUMP JUMPDEST DUP3 MSTORE POP POP JUMP JUMPDEST PUSH0 PUSH1 0x20 DUP3 ADD SWAP1 POP PUSH2 0xD73 PUSH0 DUP4 ADD DUP5 PUSH2 0xD51 JUMP JUMPDEST SWAP3 SWAP2 POP POP JUMP JUMPDEST PUSH0 DUP2 MLOAD SWAP1 POP PUSH2 0xD87 DUP2 PUSH2 0xC89 JUMP JUMPDEST SWAP3 SWAP2 POP POP JUMP JUMPDEST PUSH0 PUSH1 0x20 DUP3 DUP5 SUB SLT ISZERO PUSH2 0xDA2 JUMPI PUSH2 0xDA1 PUSH2 0xBBC JUMP JUMPDEST JUMPDEST PUSH0 PUSH2 0xDAF DUP5 DUP3 DUP6 ADD PUSH2 0xD79 JUMP JUMPDEST SWAP2 POP POP SWAP3 SWAP2 POP POP JUMP JUMPDEST PUSH32 0x4E487B7100000000000000000000000000000000000000000000000000000000 PUSH0 MSTORE PUSH1 0x32 PUSH1 0x4 MSTORE PUSH1 0x24 PUSH0 REVERT JUMPDEST PUSH32 0x4E487B7100000000000000000000000000000000000000000000000000000000 PUSH0 MSTORE PUSH1 0x11 PUSH1 0x4 MSTORE PUSH1 0x24 PUSH0 REVERT JUMPDEST PUSH0 PUSH2 0xE1C DUP3 PUSH2 0xC58 JUMP JUMPDEST SWAP2 POP PUSH2 0xE27 DUP4 PUSH2 0xC58 JUMP JUMPDEST SWAP3 POP DUP3 DUP3 MUL PUSH2 0xE35 DUP2 PUSH2 0xC58 JUMP JUMPDEST SWAP2 POP DUP3 DUP3 DIV DUP5 EQ DUP4 ISZERO OR PUSH2 0xE4C JUMPI PUSH2 0xE4B PUSH2 0xDE5 JUMP JUMPDEST JUMPDEST POP SWAP3 SWAP2 POP POP JUMP JUMPDEST PUSH32 0x4E487B7100000000000000000000000000000000000000000000000000000000 PUSH0 MSTORE PUSH1 0x12 PUSH1 0x4 MSTORE PUSH1 0x24 PUSH0 REVERT JUMPDEST PUSH0 PUSH2 0xE8A DUP3 PUSH2 0xC58 JUMP JUMPDEST SWAP2 POP PUSH2 0xE95 DUP4 PUSH2 0xC58 JUMP JUMPDEST SWAP3 POP DUP3 PUSH2 0xEA5 JUMPI PUSH2 0xEA4 PUSH2 0xE53 JUMP JUMPDEST JUMPDEST DUP3 DUP3 DIV SWAP1 POP SWAP3 SWAP2 POP POP JUMP JUMPDEST PUSH0 PUSH2 0xEBA DUP3 PUSH2 0xC58 JUMP JUMPDEST SWAP2 POP PUSH2 0xEC5 DUP4 PUSH2 0xC58 JUMP JUMPDEST SWAP3 POP DUP3 DUP3 ADD SWAP1 POP DUP1 DUP3 GT ISZERO PUSH2 0xEDD JUMPI PUSH2 0xEDC PUSH2 0xDE5 JUMP JUMPDEST JUMPDEST SWAP3 SWAP2 POP POP JUMP JUMPDEST PUSH0 DUP3 DUP3 MSTORE PUSH1 0x20 DUP3 ADD SWAP1 POP SWAP3 SWAP2 POP POP JUMP JUMPDEST PUSH32 0x4E6F2072656E7420746F206465706F7369740000000000000000000000000000 PUSH0 DUP3 ADD MSTORE POP JUMP JUMPDEST PUSH0 PUSH2 0xF27 PUSH1 0x12 DUP4 PUSH2 0xEE3 JUMP JUMPDEST SWAP2 POP PUSH2 0xF32 DUP3 PUSH2 0xEF3 JUMP JUMPDEST PUSH1 0x20 DUP3 ADD SWAP1 POP SWAP2 SWAP1 POP JUMP JUMPDEST PUSH0 PUSH1 0x20 DUP3 ADD SWAP1 POP DUP2 DUP2 SUB PUSH0 DUP4 ADD MSTORE PUSH2 0xF54 DUP2 PUSH2 0xF1B JUMP JUMPDEST SWAP1 POP SWAP2 SWAP1 POP JUMP JUMPDEST PUSH0 PUSH1 0x40 DUP3 ADD SWAP1 POP PUSH2 0xF6E PUSH0 DUP4 ADD DUP6 PUSH2 0xC61 JUMP JUMPDEST PUSH2 0xF7B PUSH1 0x20 DUP4 ADD DUP5 PUSH2 0xC61 JUMP JUMPDEST SWAP4 SWAP3 POP POP POP JUMP JUMPDEST PUSH32 0x4E6F20746F6B656E73206F776E65640000000000000000000000000000000000 PUSH0 DUP3 ADD MSTORE POP JUMP JUMPDEST PUSH0 PUSH2 0xFB6 PUSH1 0xF DUP4 PUSH2 0xEE3 JUMP JUMPDEST SWAP2 POP PUSH2 0xFC1 DUP3 PUSH2 0xF82 JUMP JUMPDEST PUSH1 0x20 DUP3 ADD SWAP1 POP SWAP2 SWAP1 POP JUMP JUMPDEST PUSH0 PUSH1 0x20 DUP3 ADD SWAP1 POP DUP2 DUP2 SUB PUSH0 DUP4 ADD MSTORE PUSH2 0xFE3 DUP2 PUSH2 0xFAA JUMP JUMPDEST SWAP1 POP SWAP2 SWAP1 POP JUMP JUMPDEST PUSH32 0x4E6F206E65772072656E7420746F20636C61696D000000000000000000000000 PUSH0 DUP3 ADD MSTORE POP JUMP JUMPDEST PUSH0 PUSH2 0x101E PUSH1 0x14 DUP4 PUSH2 0xEE3 JUMP JUMPDEST SWAP2 POP PUSH2 0x1029 DUP3 PUSH2 0xFEA JUMP JUMPDEST PUSH1 0x20 DUP3 ADD SWAP1 POP SWAP2 SWAP1 POP JUMP JUMPDEST PUSH0 PUSH1 0x20 DUP3 ADD SWAP1 POP DUP2 DUP2 SUB PUSH0 DUP4 ADD MSTORE PUSH2 0x104B DUP2 PUSH2 0x1012 JUMP JUMPDEST SWAP1 POP SWAP2 SWAP1 POP JUMP JUMPDEST PUSH32 0x5265656E7472616E637947756172643A207265656E7472616E742063616C6C00 PUSH0 DUP3 ADD MSTORE POP JUMP JUMPDEST PUSH0 PUSH2 0x1086 PUSH1 0x1F DUP4 PUSH2 0xEE3 JUMP JUMPDEST SWAP2 POP PUSH2 0x1091 DUP3 PUSH2 0x1052 JUMP JUMPDEST PUSH1 0x20 DUP3 ADD SWAP1 POP SWAP2 SWAP1 POP JUMP JUMPDEST PUSH0 PUSH1 0x20 DUP3 ADD SWAP1 POP DUP2 DUP2 SUB PUSH0 DUP4 ADD MSTORE PUSH2 0x10B3 DUP2 PUSH2 0x107A JUMP JUMPDEST SWAP1 POP SWAP2 SWAP1 POP JUMP INVALID LOG2 PUSH5 0x6970667358 0x22 SLT KECCAK256 PUSH31 0xC800ADE59F6372554E70BD810D2EAAE166532A728D195AB2481103CBBBB1B7 PUSH5 0x736F6C6343 STOP ADDMOD SAR STOP CALLER "
				},
				"gasEstimates": {
					"creation": {
						"codeDepositCost": "867200",
						"executionCost": "infinite",
						"totalCost": "infinite"
					},
					"external": {
						"claimRent(address)": "infinite",
						"depositRent(address)": "infinite",
						"getUnclaimedRent(address,address)": "infinite",
						"owner()": "2537",
						"renounceOwnership()": "infinite",
						"rentPayments(address,uint256)": "infinite",
						"tokenHolders(address,address)": "infinite",
						"transferOwnership(address)": "infinite"
					}
				},
				"methodIdentifiers": {
					"claimRent(address)": "fa1637b3",
					"depositRent(address)": "781f3621",
					"getUnclaimedRent(address,address)": "6b9540d0",
					"owner()": "8da5cb5b",
					"renounceOwnership()": "715018a6",
					"rentPayments(address,uint256)": "58790cd5",
					"tokenHolders(address,address)": "2625205e",
					"transferOwnership(address)": "f2fde38b"
				}
			},
			"storageLayout": {
				"storage": [
					{
						"astId": 338,
						"contract": "contracts/rent/RentDistribution.sol:RentDistribution",
						"label": "_status",
						"offset": 0,
						"slot": "0",
						"type": "t_uint256"
					},
					{
						"astId": 401,
						"contract": "contracts/rent/RentDistribution.sol:RentDistribution",
						"label": "_owner",
						"offset": 0,
						"slot": "1",
						"type": "t_address"
					},
					{
						"astId": 24,
						"contract": "contracts/rent/RentDistribution.sol:RentDistribution",
						"label": "rentPayments",
						"offset": 0,
						"slot": "2",
						"type": "t_mapping(t_address,t_array(t_struct(RentPayment)15_storage)dyn_storage)"
					},
					{
						"astId": 31,
						"contract": "contracts/rent/RentDistribution.sol:RentDistribution",
						"label": "tokenHolders",
						"offset": 0,
						"slot": "3",
						"type": "t_mapping(t_address,t_mapping(t_address,t_struct(TokenHolder)18_storage))"
					}
				],
				"types": {
					"t_address": {
						"encoding": "inplace",
						"label": "address",
						"numberOfBytes": "20"
					},
					"t_array(t_struct(RentPayment)15_storage)dyn_storage": {
						"base": "t_struct(RentPayment)15_storage",
						"encoding": "dynamic_array",
						"label": "struct RentDistribution.RentPayment[]",
						"numberOfBytes": "32"
					},
					"t_mapping(t_address,t_array(t_struct(RentPayment)15_storage)dyn_storage)": {
						"encoding": "mapping",
						"key": "t_address",
						"label": "mapping(address => struct RentDistribution.RentPayment[])",
						"numberOfBytes": "32",
						"value": "t_array(t_struct(RentPayment)15_storage)dyn_storage"
					},
					"t_mapping(t_address,t_mapping(t_address,t_struct(TokenHolder)18_storage))": {
						"encoding": "mapping",
						"key": "t_address",
						"label": "mapping(address => mapping(address => struct RentDistribution.TokenHolder))",
						"numberOfBytes": "32",
						"value": "t_mapping(t_address,t_struct(TokenHolder)18_storage)"
					},
					"t_mapping(t_address,t_struct(TokenHolder)18_storage)": {
						"encoding": "mapping",
						"key": "t_address",
						"label": "mapping(address => struct RentDistribution.TokenHolder)",
						"numberOfBytes": "32",
						"value": "t_struct(TokenHolder)18_storage"
					},
					"t_struct(RentPayment)15_storage": {
						"encoding": "inplace",
						"label": "struct RentDistribution.RentPayment",
						"members": [
							{
								"astId": 10,
								"contract": "contracts/rent/RentDistribution.sol:RentDistribution",
								"label": "amount",
								"offset": 0,
								"slot": "0",
								"type": "t_uint256"
							},
							{
								"astId": 12,
								"contract": "contracts/rent/RentDistribution.sol:RentDistribution",
								"label": "timestamp",
								"offset": 0,
								"slot": "1",
								"type": "t_uint256"
							},
							{
								"astId": 14,
								"contract": "contracts/rent/RentDistribution.sol:RentDistribution",
								"label": "totalSupplySnapshot",
								"offset": 0,
								"slot": "2",
								"type": "t_uint256"
							}
						],
						"numberOfBytes": "96"
					},
					"t_struct(TokenHolder)18_storage": {
						"encoding": "inplace",
						"label": "struct RentDistribution.TokenHolder",
						"members": [
							{
								"astId": 17,
								"contract": "contracts/rent/RentDistribution.sol:RentDistribution",
								"label": "lastClaimedIndex",
								"offset": 0,
								"slot": "0",
								"type": "t_uint256"
							}
						],
						"numberOfBytes": "32"
					},
					"t_uint256": {
						"encoding": "inplace",
						"label": "uint256",
						"numberOfBytes": "32"
					}
				}
			},
			"userdoc": {
				"kind": "user",
				"methods": {},
				"version": 1
			}
		}
	}
}