{
	"contracts/tokens/PropertyToken.sol": {
		"PropertyToken": {
			"abi": [
				{
					"inputs": [
						{
							"internalType": "string",
							"name": "_name",
							"type": "string"
						},
						{
							"internalType": "string",
							"name": "_symbol",
							"type": "string"
						},
						{
							"internalType": "uint256",
							"name": "_totalPropertyValue",
							"type": "uint256"
						},
						{
							"internalType": "uint256",
							"name": "_totalTokenSupply",
							"type": "uint256"
						},
						{
							"internalType": "address",
							"name": "initialOwner",
							"type": "address"
						}
					],
					"stateMutability": "nonpayable",
					"type": "constructor"
				},
				{
					"inputs": [
						{
							"internalType": "address",
							"name": "spender",
							"type": "address"
						},
						{
							"internalType": "uint256",
							"name": "allowance",
							"type": "uint256"
						},
						{
							"internalType": "uint256",
							"name": "needed",
							"type": "uint256"
						}
					],
					"name": "ERC20InsufficientAllowance",
					"type": "error"
				},
				{
					"inputs": [
						{
							"internalType": "address",
							"name": "sender",
							"type": "address"
						},
						{
							"internalType": "uint256",
							"name": "balance",
							"type": "uint256"
						},
						{
							"internalType": "uint256",
							"name": "needed",
							"type": "uint256"
						}
					],
					"name": "ERC20InsufficientBalance",
					"type": "error"
				},
				{
					"inputs": [
						{
							"internalType": "address",
							"name": "approver",
							"type": "address"
						}
					],
					"name": "ERC20InvalidApprover",
					"type": "error"
				},
				{
					"inputs": [
						{
							"internalType": "address",
							"name": "receiver",
							"type": "address"
						}
					],
					"name": "ERC20InvalidReceiver",
					"type": "error"
				},
				{
					"inputs": [
						{
							"internalType": "address",
							"name": "sender",
							"type": "address"
						}
					],
					"name": "ERC20InvalidSender",
					"type": "error"
				},
				{
					"inputs": [
						{
							"internalType": "address",
							"name": "spender",
							"type": "address"
						}
					],
					"name": "ERC20InvalidSpender",
					"type": "error"
				},
				{
					"inputs": [
						{
							"internalType": "address",
							"name": "owner",
							"type": "address"
						}
					],
					"name": "OwnableInvalidOwner",
					"type": "error"
				},
				{
					"inputs": [
						{
							"internalType": "address",
							"name": "account",
							"type": "address"
						}
					],
					"name": "OwnableUnauthorizedAccount",
					"type": "error"
				},
				{
					"anonymous": false,
					"inputs": [
						{
							"indexed": true,
							"internalType": "address",
							"name": "owner",
							"type": "address"
						},
						{
							"indexed": true,
							"internalType": "address",
							"name": "spender",
							"type": "address"
						},
						{
							"indexed": false,
							"internalType": "uint256",
							"name": "value",
							"type": "uint256"
						}
					],
					"name": "Approval",
					"type": "event"
				},
				{
					"anonymous": false,
					"inputs": [
						{
							"indexed": true,
							"internalType": "address",
							"name": "previousOwner",
							"type": "address"
						},
						{
							"indexed": true,
							"internalType": "address",
							"name": "newOwner",
							"type": "address"
						}
					],
					"name": "OwnershipTransferred",
					"type": "event"
				},
				{
					"anonymous": false,
					"inputs": [
						{
							"indexed": false,
							"internalType": "uint256",
							"name": "amount",
							"type": "uint256"
						},
						{
							"indexed": false,
							"internalType": "uint256",
							"name": "timestamp",
							"type": "uint256"
						}
					],
					"name": "RentDistributed",
					"type": "event"
				},
				{
					"anonymous": false,
					"inputs": [
						{
							"indexed": true,
							"internalType": "address",
							"name": "from",
							"type": "address"
						},
						{
							"indexed": true,
							"internalType": "address",
							"name": "to",
							"type": "address"
						},
						{
							"indexed": false,
							"internalType": "uint256",
							"name": "value",
							"type": "uint256"
						}
					],
					"name": "Transfer",
					"type": "event"
				},
				{
					"inputs": [
						{
							"internalType": "address",
							"name": "owner",
							"type": "address"
						},
						{
							"internalType": "address",
							"name": "spender",
							"type": "address"
						}
					],
					"name": "allowance",
					"outputs": [
						{
							"internalType": "uint256",
							"name": "",
							"type": "uint256"
						}
					],
					"stateMutability": "view",
					"type": "function"
				},
				{
					"inputs": [
						{
							"internalType": "address",
							"name": "spender",
							"type": "address"
						},
						{
							"internalType": "uint256",
							"name": "value",
							"type": "uint256"
						}
					],
					"name": "approve",
					"outputs": [
						{
							"internalType": "bool",
							"name": "",
							"type": "bool"
						}
					],
					"stateMutability": "nonpayable",
					"type": "function"
				},
				{
					"inputs": [
						{
							"internalType": "address",
							"name": "account",
							"type": "address"
						}
					],
					"name": "balanceOf",
					"outputs": [
						{
							"internalType": "uint256",
							"name": "",
							"type": "uint256"
						}
					],
					"stateMutability": "view",
					"type": "function"
				},
				{
					"inputs": [],
					"name": "claimRent",
					"outputs": [],
					"stateMutability": "nonpayable",
					"type": "function"
				},
				{
					"inputs": [],
					"name": "decimals",
					"outputs": [
						{
							"internalType": "uint8",
							"name": "",
							"type": "uint8"
						}
					],
					"stateMutability": "view",
					"type": "function"
				},
				{
					"inputs": [],
					"name": "distributeRent",
					"outputs": [],
					"stateMutability": "payable",
					"type": "function"
				},
				{
					"inputs": [
						{
							"internalType": "address",
							"name": "to",
							"type": "address"
						},
						{
							"internalType": "uint256",
							"name": "amount",
							"type": "uint256"
						}
					],
					"name": "mint",
					"outputs": [],
					"stateMutability": "nonpayable",
					"type": "function"
				},
				{
					"inputs": [],
					"name": "name",
					"outputs": [
						{
							"internalType": "string",
							"name": "",
							"type": "string"
						}
					],
					"stateMutability": "view",
					"type": "function"
				},
				{
					"inputs": [],
					"name": "owner",
					"outputs": [
						{
							"internalType": "address",
							"name": "",
							"type": "address"
						}
					],
					"stateMutability": "view",
					"type": "function"
				},
				{
					"inputs": [],
					"name": "propertyNFT",
					"outputs": [
						{
							"internalType": "address",
							"name": "",
							"type": "address"
						}
					],
					"stateMutability": "view",
					"type": "function"
				},
				{
					"inputs": [],
					"name": "renounceOwnership",
					"outputs": [],
					"stateMutability": "nonpayable",
					"type": "function"
				},
				{
					"inputs": [
						{
							"internalType": "address",
							"name": "_propertyNFT",
							"type": "address"
						}
					],
					"name": "setPropertyNFT",
					"outputs": [],
					"stateMutability": "nonpayable",
					"type": "function"
				},
				{
					"inputs": [],
					"name": "symbol",
					"outputs": [
						{
							"internalType": "string",
							"name": "",
							"type": "string"
						}
					],
					"stateMutability": "view",
					"type": "function"
				},
				{
					"inputs": [],
					"name": "totalPropertyValue",
					"outputs": [
						{
							"internalType": "uint256",
							"name": "",
							"type": "uint256"
						}
					],
					"stateMutability": "view",
					"type": "function"
				},
				{
					"inputs": [],
					"name": "totalSupply",
					"outputs": [
						{
							"internalType": "uint256",
							"name": "",
							"type": "uint256"
						}
					],
					"stateMutability": "view",
					"type": "function"
				},
				{
					"inputs": [],
					"name": "totalTokenSupply",
					"outputs": [
						{
							"internalType": "uint256",
							"name": "",
							"type": "uint256"
						}
					],
					"stateMutability": "view",
					"type": "function"
				},
				{
					"inputs": [
						{
							"internalType": "address",
							"name": "to",
							"type": "address"
						},
						{
							"internalType": "uint256",
							"name": "value",
							"type": "uint256"
						}
					],
					"name": "transfer",
					"outputs": [
						{
							"internalType": "bool",
							"name": "",
							"type": "bool"
						}
					],
					"stateMutability": "nonpayable",
					"type": "function"
				},
				{
					"inputs": [
						{
							"internalType": "address",
							"name": "from",
							"type": "address"
						},
						{
							"internalType": "address",
							"name": "to",
							"type": "address"
						},
						{
							"internalType": "uint256",
							"name": "value",
							"type": "uint256"
						}
					],
					"name": "transferFrom",
					"outputs": [
						{
							"internalType": "bool",
							"name": "",
							"type": "bool"
						}
					],
					"stateMutability": "nonpayable",
					"type": "function"
				},
				{
					"inputs": [
						{
							"internalType": "address",
							"name": "newOwner",
							"type": "address"
						}
					],
					"name": "transferOwnership",
					"outputs": [],
					"stateMutability": "nonpayable",
					"type": "function"
				}
			],
			"devdoc": {
				"errors": {
					"ERC20InsufficientAllowance(address,uint256,uint256)": [
						{
							"details": "Indicates a failure with the `spender`’s `allowance`. Used in transfers.",
							"params": {
								"allowance": "Amount of tokens a `spender` is allowed to operate with.",
								"needed": "Minimum amount required to perform a transfer.",
								"spender": "Address that may be allowed to operate on tokens without being their owner."
							}
						}
					],
					"ERC20InsufficientBalance(address,uint256,uint256)": [
						{
							"details": "Indicates an error related to the current `balance` of a `sender`. Used in transfers.",
							"params": {
								"balance": "Current balance for the interacting account.",
								"needed": "Minimum amount required to perform a transfer.",
								"sender": "Address whose tokens are being transferred."
							}
						}
					],
					"ERC20InvalidApprover(address)": [
						{
							"details": "Indicates a failure with the `approver` of a token to be approved. Used in approvals.",
							"params": {
								"approver": "Address initiating an approval operation."
							}
						}
					],
					"ERC20InvalidReceiver(address)": [
						{
							"details": "Indicates a failure with the token `receiver`. Used in transfers.",
							"params": {
								"receiver": "Address to which tokens are being transferred."
							}
						}
					],
					"ERC20InvalidSender(address)": [
						{
							"details": "Indicates a failure with the token `sender`. Used in transfers.",
							"params": {
								"sender": "Address whose tokens are being transferred."
							}
						}
					],
					"ERC20InvalidSpender(address)": [
						{
							"details": "Indicates a failure with the `spender` to be approved. Used in approvals.",
							"params": {
								"spender": "Address that may be allowed to operate on tokens without being their owner."
							}
						}
					],
					"OwnableInvalidOwner(address)": [
						{
							"details": "The owner is not a valid owner account. (eg. `address(0)`)"
						}
					],
					"OwnableUnauthorizedAccount(address)": [
						{
							"details": "The caller account is not authorized to perform an operation."
						}
					]
				},
				"events": {
					"Approval(address,address,uint256)": {
						"details": "Emitted when the allowance of a `spender` for an `owner` is set by a call to {approve}. `value` is the new allowance."
					},
					"Transfer(address,address,uint256)": {
						"details": "Emitted when `value` tokens are moved from one account (`from`) to another (`to`). Note that `value` may be zero."
					}
				},
				"kind": "dev",
				"methods": {
					"allowance(address,address)": {
						"details": "See {IERC20-allowance}."
					},
					"approve(address,uint256)": {
						"details": "See {IERC20-approve}. NOTE: If `value` is the maximum `uint256`, the allowance is not updated on `transferFrom`. This is semantically equivalent to an infinite approval. Requirements: - `spender` cannot be the zero address."
					},
					"balanceOf(address)": {
						"details": "See {IERC20-balanceOf}."
					},
					"decimals()": {
						"details": "Returns the number of decimals used to get its user representation. For example, if `decimals` equals `2`, a balance of `505` tokens should be displayed to a user as `5.05` (`505 / 10 ** 2`). Tokens usually opt for a value of 18, imitating the relationship between Ether and Wei. This is the default value returned by this function, unless it's overridden. NOTE: This information is only used for _display_ purposes: it in no way affects any of the arithmetic of the contract, including {IERC20-balanceOf} and {IERC20-transfer}."
					},
					"name()": {
						"details": "Returns the name of the token."
					},
					"owner()": {
						"details": "Returns the address of the current owner."
					},
					"renounceOwnership()": {
						"details": "Leaves the contract without owner. It will not be possible to call `onlyOwner` functions. Can only be called by the current owner. NOTE: Renouncing ownership will leave the contract without an owner, thereby disabling any functionality that is only available to the owner."
					},
					"symbol()": {
						"details": "Returns the symbol of the token, usually a shorter version of the name."
					},
					"totalSupply()": {
						"details": "See {IERC20-totalSupply}."
					},
					"transfer(address,uint256)": {
						"details": "See {IERC20-transfer}. Requirements: - `to` cannot be the zero address. - the caller must have a balance of at least `value`."
					},
					"transferFrom(address,address,uint256)": {
						"details": "See {IERC20-transferFrom}. Emits an {Approval} event indicating the updated allowance. This is not required by the EIP. See the note at the beginning of {ERC20}. NOTE: Does not update the allowance if the current allowance is the maximum `uint256`. Requirements: - `from` and `to` cannot be the zero address. - `from` must have a balance of at least `value`. - the caller must have allowance for ``from``'s tokens of at least `value`."
					},
					"transferOwnership(address)": {
						"details": "Transfers ownership of the contract to a new account (`newOwner`). Can only be called by the current owner."
					}
				},
				"version": 1
			},
			"evm": {
				"assembly": "    /* \"contracts/tokens/PropertyToken.sol\":274:2258  contract PropertyToken is ERC20, Ownable {... */\n  mstore(0x40, 0x80)\n    /* \"contracts/tokens/PropertyToken.sol\":638:965  constructor(... */\n  callvalue\n  dup1\n  iszero\n  tag_1\n  jumpi\n  0x00\n  dup1\n  revert\ntag_1:\n  pop\n  mload(0x40)\n  sub(codesize, bytecodeSize)\n  dup1\n  bytecodeSize\n  dup4\n  codecopy\n  dup2\n  add\n  0x40\n  dup2\n  swap1\n  mstore\n  tag_2\n  swap2\n  tag_3\n  jump\t// in\ntag_2:\n    /* \"contracts/tokens/PropertyToken.sol\":848:860  initialOwner */\n  dup1\n    /* \"contracts/tokens/PropertyToken.sol\":824:829  _name */\n  dup6\n    /* \"contracts/tokens/PropertyToken.sol\":831:838  _symbol */\n  dup6\n    /* \"https://github.com/OpenZeppelin/openzeppelin-contracts/blob/v5.0.0/contracts/token/ERC20/ERC20.sol\":1962:1967  _name */\n  0x03\n    /* \"https://github.com/OpenZeppelin/openzeppelin-contracts/blob/v5.0.0/contracts/token/ERC20/ERC20.sol\":1962:1975  _name = name_ */\n  tag_8\n    /* \"contracts/tokens/PropertyToken.sol\":824:829  _name */\n  dup4\n    /* \"https://github.com/OpenZeppelin/openzeppelin-contracts/blob/v5.0.0/contracts/token/ERC20/ERC20.sol\":1962:1967  _name */\n  dup3\n    /* \"https://github.com/OpenZeppelin/openzeppelin-contracts/blob/v5.0.0/contracts/token/ERC20/ERC20.sol\":1962:1975  _name = name_ */\n  tag_9\n  jump\t// in\ntag_8:\n  pop\n    /* \"https://github.com/OpenZeppelin/openzeppelin-contracts/blob/v5.0.0/contracts/token/ERC20/ERC20.sol\":1985:1992  _symbol */\n  0x04\n    /* \"https://github.com/OpenZeppelin/openzeppelin-contracts/blob/v5.0.0/contracts/token/ERC20/ERC20.sol\":1985:2002  _symbol = symbol_ */\n  tag_10\n    /* \"https://github.com/OpenZeppelin/openzeppelin-contracts/blob/v5.0.0/contracts/token/ERC20/ERC20.sol\":1995:2002  symbol_ */\n  dup3\n    /* \"https://github.com/OpenZeppelin/openzeppelin-contracts/blob/v5.0.0/contracts/token/ERC20/ERC20.sol\":1985:1992  _symbol */\n  dup3\n    /* \"https://github.com/OpenZeppelin/openzeppelin-contracts/blob/v5.0.0/contracts/token/ERC20/ERC20.sol\":1985:2002  _symbol = symbol_ */\n  tag_9\n  jump\t// in\ntag_10:\n  pop\n  pop\n  pop\n  sub(shl(0xa0, 0x01), 0x01)\n    /* \"https://github.com/OpenZeppelin/openzeppelin-contracts/blob/v5.0.0/contracts/access/Ownable.sol\":1273:1299  initialOwner == address(0) */\n  dup2\n  and\n    /* \"https://github.com/OpenZeppelin/openzeppelin-contracts/blob/v5.0.0/contracts/access/Ownable.sol\":1269:1364  if (initialOwner == address(0)) {... */\n  tag_12\n  jumpi\n    /* \"https://github.com/OpenZeppelin/openzeppelin-contracts/blob/v5.0.0/contracts/access/Ownable.sol\":1322:1353  OwnableInvalidOwner(address(0)) */\n  mload(0x40)\n  shl(0xe0, 0x1e4fbdf7)\n  dup2\n  mstore\n    /* \"https://github.com/OpenZeppelin/openzeppelin-contracts/blob/v5.0.0/contracts/access/Ownable.sol\":1350:1351  0 */\n  0x00\n    /* \"https://github.com/OpenZeppelin/openzeppelin-contracts/blob/v5.0.0/contracts/access/Ownable.sol\":1322:1353  OwnableInvalidOwner(address(0)) */\n  0x04\n  dup3\n  add\n    /* \"#utility.yul\":4584:4635   */\n  mstore\n    /* \"#utility.yul\":4557:4575   */\n  0x24\n  add\n    /* \"https://github.com/OpenZeppelin/openzeppelin-contracts/blob/v5.0.0/contracts/access/Ownable.sol\":1322:1353  OwnableInvalidOwner(address(0)) */\n  mload(0x40)\n  dup1\n  swap2\n  sub\n  swap1\n  revert\n    /* \"https://github.com/OpenZeppelin/openzeppelin-contracts/blob/v5.0.0/contracts/access/Ownable.sol\":1269:1364  if (initialOwner == address(0)) {... */\ntag_12:\n    /* \"https://github.com/OpenZeppelin/openzeppelin-contracts/blob/v5.0.0/contracts/access/Ownable.sol\":1373:1405  _transferOwnership(initialOwner) */\n  tag_15\n    /* \"https://github.com/OpenZeppelin/openzeppelin-contracts/blob/v5.0.0/contracts/access/Ownable.sol\":1392:1404  initialOwner */\n  dup2\n    /* \"https://github.com/OpenZeppelin/openzeppelin-contracts/blob/v5.0.0/contracts/access/Ownable.sol\":1373:1391  _transferOwnership */\n  tag_16\n    /* \"https://github.com/OpenZeppelin/openzeppelin-contracts/blob/v5.0.0/contracts/access/Ownable.sol\":1373:1405  _transferOwnership(initialOwner) */\n  jump\t// in\ntag_15:\n  pop\n  pop\n    /* \"contracts/tokens/PropertyToken.sol\":872:890  totalPropertyValue */\n  0x07\n    /* \"contracts/tokens/PropertyToken.sol\":872:912  totalPropertyValue = _totalPropertyValue */\n  swap2\n  swap1\n  swap2\n  sstore\n    /* \"contracts/tokens/PropertyToken.sol\":922:938  totalTokenSupply */\n  0x08\n    /* \"contracts/tokens/PropertyToken.sol\":922:958  totalTokenSupply = _totalTokenSupply */\n  sstore\n  pop\n    /* \"contracts/tokens/PropertyToken.sol\":274:2258  contract PropertyToken is ERC20, Ownable {... */\n  tag_26\n  swap1\n  pop\n  jump\n    /* \"https://github.com/OpenZeppelin/openzeppelin-contracts/blob/v5.0.0/contracts/access/Ownable.sol\":2912:3099  function _transferOwnership(address newOwner) internal virtual {... */\ntag_16:\n    /* \"https://github.com/OpenZeppelin/openzeppelin-contracts/blob/v5.0.0/contracts/access/Ownable.sol\":3004:3010  _owner */\n  0x05\n  dup1\n  sload\n  sub(shl(0xa0, 0x01), 0x01)\n    /* \"https://github.com/OpenZeppelin/openzeppelin-contracts/blob/v5.0.0/contracts/access/Ownable.sol\":3020:3037  _owner = newOwner */\n  dup4\n  dup2\n  and\n  not(sub(shl(0xa0, 0x01), 0x01))\n  dup4\n  and\n  dup2\n  or\n  swap1\n  swap4\n  sstore\n    /* \"https://github.com/OpenZeppelin/openzeppelin-contracts/blob/v5.0.0/contracts/access/Ownable.sol\":3052:3092  OwnershipTransferred(oldOwner, newOwner) */\n  mload(0x40)\n    /* \"https://github.com/OpenZeppelin/openzeppelin-contracts/blob/v5.0.0/contracts/access/Ownable.sol\":3004:3010  _owner */\n  swap2\n  and\n  swap2\n    /* \"https://github.com/OpenZeppelin/openzeppelin-contracts/blob/v5.0.0/contracts/access/Ownable.sol\":3020:3037  _owner = newOwner */\n  swap1\n    /* \"https://github.com/OpenZeppelin/openzeppelin-contracts/blob/v5.0.0/contracts/access/Ownable.sol\":3004:3010  _owner */\n  dup3\n  swap1\n    /* \"https://github.com/OpenZeppelin/openzeppelin-contracts/blob/v5.0.0/contracts/access/Ownable.sol\":3052:3092  OwnershipTransferred(oldOwner, newOwner) */\n  0x8be0079c531659141344cd1fd0a4f28419497f9722a3daafe3b4186f6b6457e0\n  swap1\n    /* \"https://github.com/OpenZeppelin/openzeppelin-contracts/blob/v5.0.0/contracts/access/Ownable.sol\":2985:3001  address oldOwner */\n  0x00\n  swap1\n    /* \"https://github.com/OpenZeppelin/openzeppelin-contracts/blob/v5.0.0/contracts/access/Ownable.sol\":3052:3092  OwnershipTransferred(oldOwner, newOwner) */\n  log3\n    /* \"https://github.com/OpenZeppelin/openzeppelin-contracts/blob/v5.0.0/contracts/access/Ownable.sol\":2975:3099  {... */\n  pop\n    /* \"https://github.com/OpenZeppelin/openzeppelin-contracts/blob/v5.0.0/contracts/access/Ownable.sol\":2912:3099  function _transferOwnership(address newOwner) internal virtual {... */\n  pop\n  jump\t// out\n    /* \"#utility.yul\":14:141   */\ntag_20:\n    /* \"#utility.yul\":75:85   */\n  0x4e487b71\n    /* \"#utility.yul\":70:73   */\n  0xe0\n    /* \"#utility.yul\":66:86   */\n  shl\n    /* \"#utility.yul\":63:64   */\n  0x00\n    /* \"#utility.yul\":56:87   */\n  mstore\n    /* \"#utility.yul\":106:110   */\n  0x41\n    /* \"#utility.yul\":103:104   */\n  0x04\n    /* \"#utility.yul\":96:111   */\n  mstore\n    /* \"#utility.yul\":130:134   */\n  0x24\n    /* \"#utility.yul\":127:128   */\n  0x00\n    /* \"#utility.yul\":120:135   */\n  revert\n    /* \"#utility.yul\":146:986   */\ntag_21:\n    /* \"#utility.yul\":200:205   */\n  0x00\n    /* \"#utility.yul\":253:256   */\n  dup3\n    /* \"#utility.yul\":246:250   */\n  0x1f\n    /* \"#utility.yul\":238:244   */\n  dup4\n    /* \"#utility.yul\":234:251   */\n  add\n    /* \"#utility.yul\":230:257   */\n  slt\n    /* \"#utility.yul\":220:275   */\n  tag_29\n  jumpi\n    /* \"#utility.yul\":271:272   */\n  0x00\n    /* \"#utility.yul\":268:269   */\n  dup1\n    /* \"#utility.yul\":261:273   */\n  revert\n    /* \"#utility.yul\":220:275   */\ntag_29:\n    /* \"#utility.yul\":294:307   */\n  dup2\n  mload\n  sub(shl(0x40, 0x01), 0x01)\n    /* \"#utility.yul\":356:366   */\n  dup1\n  dup3\n  gt\n    /* \"#utility.yul\":353:389   */\n  iszero\n  tag_31\n  jumpi\n    /* \"#utility.yul\":369:387   */\n  tag_31\n  tag_20\n  jump\t// in\ntag_31:\n    /* \"#utility.yul\":444:446   */\n  0x40\n    /* \"#utility.yul\":438:447   */\n  mload\n    /* \"#utility.yul\":412:414   */\n  0x1f\n    /* \"#utility.yul\":498:511   */\n  dup4\n  add\n  not(0x1f)\n    /* \"#utility.yul\":494:516   */\n  swap1\n  dup2\n  and\n    /* \"#utility.yul\":518:520   */\n  0x3f\n    /* \"#utility.yul\":490:521   */\n  add\n    /* \"#utility.yul\":486:526   */\n  and\n    /* \"#utility.yul\":474:527   */\n  dup2\n  add\n  swap1\n    /* \"#utility.yul\":542:560   */\n  dup3\n  dup3\n  gt\n    /* \"#utility.yul\":562:584   */\n  dup2\n  dup4\n  lt\n    /* \"#utility.yul\":539:585   */\n  or\n    /* \"#utility.yul\":536:608   */\n  iszero\n  tag_33\n  jumpi\n    /* \"#utility.yul\":588:606   */\n  tag_33\n  tag_20\n  jump\t// in\ntag_33:\n    /* \"#utility.yul\":628:638   */\n  dup2\n    /* \"#utility.yul\":624:626   */\n  0x40\n    /* \"#utility.yul\":617:639   */\n  mstore\n    /* \"#utility.yul\":663:665   */\n  dup4\n    /* \"#utility.yul\":655:661   */\n  dup2\n    /* \"#utility.yul\":648:666   */\n  mstore\n    /* \"#utility.yul\":685:689   */\n  0x20\n    /* \"#utility.yul\":675:689   */\n  swap3\n  pop\n    /* \"#utility.yul\":730:733   */\n  dup7\n    /* \"#utility.yul\":725:727   */\n  dup4\n    /* \"#utility.yul\":720:722   */\n  dup6\n    /* \"#utility.yul\":712:718   */\n  dup9\n    /* \"#utility.yul\":708:723   */\n  add\n    /* \"#utility.yul\":704:728   */\n  add\n    /* \"#utility.yul\":701:734   */\n  gt\n    /* \"#utility.yul\":698:751   */\n  iszero\n  tag_34\n  jumpi\n    /* \"#utility.yul\":747:748   */\n  0x00\n    /* \"#utility.yul\":744:745   */\n  dup1\n    /* \"#utility.yul\":737:749   */\n  revert\n    /* \"#utility.yul\":698:751   */\ntag_34:\n    /* \"#utility.yul\":769:770   */\n  0x00\n    /* \"#utility.yul\":760:770   */\n  swap2\n  pop\n    /* \"#utility.yul\":779:912   */\ntag_35:\n    /* \"#utility.yul\":793:795   */\n  dup4\n    /* \"#utility.yul\":790:791   */\n  dup3\n    /* \"#utility.yul\":787:796   */\n  lt\n    /* \"#utility.yul\":779:912   */\n  iszero\n  tag_37\n  jumpi\n    /* \"#utility.yul\":881:895   */\n  dup6\n  dup3\n  add\n    /* \"#utility.yul\":877:900   */\n  dup4\n  add\n    /* \"#utility.yul\":871:901   */\n  mload\n    /* \"#utility.yul\":850:864   */\n  dup2\n  dup4\n  add\n    /* \"#utility.yul\":846:869   */\n  dup5\n  add\n    /* \"#utility.yul\":839:902   */\n  mstore\n    /* \"#utility.yul\":804:814   */\n  swap1\n  dup3\n  add\n  swap1\n    /* \"#utility.yul\":779:912   */\n  jump(tag_35)\ntag_37:\n    /* \"#utility.yul\":954:955   */\n  0x00\n    /* \"#utility.yul\":932:947   */\n  swap4\n  dup2\n  add\n    /* \"#utility.yul\":928:952   */\n  swap1\n  swap3\n  add\n    /* \"#utility.yul\":921:956   */\n  swap3\n  swap1\n  swap3\n  mstore\n    /* \"#utility.yul\":936:942   */\n  swap5\n    /* \"#utility.yul\":146:986   */\n  swap4\n  pop\n  pop\n  pop\n  pop\n  jump\t// out\n    /* \"#utility.yul\":991:1844   */\ntag_3:\n    /* \"#utility.yul\":1117:1123   */\n  0x00\n    /* \"#utility.yul\":1125:1131   */\n  dup1\n    /* \"#utility.yul\":1133:1139   */\n  0x00\n    /* \"#utility.yul\":1141:1147   */\n  dup1\n    /* \"#utility.yul\":1149:1155   */\n  0x00\n    /* \"#utility.yul\":1202:1205   */\n  0xa0\n    /* \"#utility.yul\":1190:1199   */\n  dup7\n    /* \"#utility.yul\":1181:1188   */\n  dup9\n    /* \"#utility.yul\":1177:1200   */\n  sub\n    /* \"#utility.yul\":1173:1206   */\n  slt\n    /* \"#utility.yul\":1170:1223   */\n  iszero\n  tag_39\n  jumpi\n    /* \"#utility.yul\":1219:1220   */\n  0x00\n    /* \"#utility.yul\":1216:1217   */\n  dup1\n    /* \"#utility.yul\":1209:1221   */\n  revert\n    /* \"#utility.yul\":1170:1223   */\ntag_39:\n    /* \"#utility.yul\":1246:1262   */\n  dup6\n  mload\n  sub(shl(0x40, 0x01), 0x01)\n    /* \"#utility.yul\":1311:1325   */\n  dup1\n  dup3\n  gt\n    /* \"#utility.yul\":1308:1342   */\n  iszero\n  tag_40\n  jumpi\n    /* \"#utility.yul\":1338:1339   */\n  0x00\n    /* \"#utility.yul\":1335:1336   */\n  dup1\n    /* \"#utility.yul\":1328:1340   */\n  revert\n    /* \"#utility.yul\":1308:1342   */\ntag_40:\n    /* \"#utility.yul\":1361:1422   */\n  tag_41\n    /* \"#utility.yul\":1414:1421   */\n  dup10\n    /* \"#utility.yul\":1405:1411   */\n  dup4\n    /* \"#utility.yul\":1394:1403   */\n  dup11\n    /* \"#utility.yul\":1390:1412   */\n  add\n    /* \"#utility.yul\":1361:1422   */\n  tag_21\n  jump\t// in\ntag_41:\n    /* \"#utility.yul\":1351:1422   */\n  swap7\n  pop\n    /* \"#utility.yul\":1468:1470   */\n  0x20\n    /* \"#utility.yul\":1457:1466   */\n  dup9\n    /* \"#utility.yul\":1453:1471   */\n  add\n    /* \"#utility.yul\":1447:1472   */\n  mload\n    /* \"#utility.yul\":1431:1472   */\n  swap2\n  pop\n    /* \"#utility.yul\":1497:1499   */\n  dup1\n    /* \"#utility.yul\":1487:1495   */\n  dup3\n    /* \"#utility.yul\":1484:1500   */\n  gt\n    /* \"#utility.yul\":1481:1517   */\n  iszero\n  tag_42\n  jumpi\n    /* \"#utility.yul\":1513:1514   */\n  0x00\n    /* \"#utility.yul\":1510:1511   */\n  dup1\n    /* \"#utility.yul\":1503:1515   */\n  revert\n    /* \"#utility.yul\":1481:1517   */\ntag_42:\n  pop\n    /* \"#utility.yul\":1536:1599   */\n  tag_43\n    /* \"#utility.yul\":1591:1598   */\n  dup9\n    /* \"#utility.yul\":1580:1588   */\n  dup3\n    /* \"#utility.yul\":1569:1578   */\n  dup10\n    /* \"#utility.yul\":1565:1589   */\n  add\n    /* \"#utility.yul\":1536:1599   */\n  tag_21\n  jump\t// in\ntag_43:\n    /* \"#utility.yul\":1639:1641   */\n  0x40\n    /* \"#utility.yul\":1624:1642   */\n  dup9\n  add\n    /* \"#utility.yul\":1618:1643   */\n  mload\n    /* \"#utility.yul\":1683:1685   */\n  0x60\n    /* \"#utility.yul\":1668:1686   */\n  dup10\n  add\n    /* \"#utility.yul\":1662:1687   */\n  mload\n    /* \"#utility.yul\":1730:1733   */\n  0x80\n    /* \"#utility.yul\":1715:1734   */\n  dup11\n  add\n    /* \"#utility.yul\":1709:1735   */\n  mload\n    /* \"#utility.yul\":1526:1599   */\n  swap3\n  swap8\n  pop\n    /* \"#utility.yul\":1618:1643   */\n  swap1\n  swap6\n  pop\n    /* \"#utility.yul\":1662:1687   */\n  swap4\n  pop\n    /* \"#utility.yul\":1709:1735   */\n  swap1\n  pop\n  sub(shl(0xa0, 0x01), 0x01)\n    /* \"#utility.yul\":1764:1795   */\n  dup2\n  and\n    /* \"#utility.yul\":1754:1796   */\n  dup2\n  eq\n    /* \"#utility.yul\":1744:1814   */\n  tag_44\n  jumpi\n    /* \"#utility.yul\":1810:1811   */\n  0x00\n    /* \"#utility.yul\":1807:1808   */\n  dup1\n    /* \"#utility.yul\":1800:1812   */\n  revert\n    /* \"#utility.yul\":1744:1814   */\ntag_44:\n    /* \"#utility.yul\":1833:1838   */\n  dup1\n    /* \"#utility.yul\":1823:1838   */\n  swap2\n  pop\n  pop\n    /* \"#utility.yul\":991:1844   */\n  swap3\n  swap6\n  pop\n  swap3\n  swap6\n  swap1\n  swap4\n  pop\n  jump\t// out\n    /* \"#utility.yul\":1849:2229   */\ntag_22:\n    /* \"#utility.yul\":1928:1929   */\n  0x01\n    /* \"#utility.yul\":1924:1936   */\n  dup2\n  dup2\n  shr\n  swap1\n    /* \"#utility.yul\":1971:1983   */\n  dup3\n  and\n  dup1\n    /* \"#utility.yul\":1992:2053   */\n  tag_46\n  jumpi\n    /* \"#utility.yul\":2046:2050   */\n  0x7f\n    /* \"#utility.yul\":2038:2044   */\n  dup3\n    /* \"#utility.yul\":2034:2051   */\n  and\n    /* \"#utility.yul\":2024:2051   */\n  swap2\n  pop\n    /* \"#utility.yul\":1992:2053   */\ntag_46:\n    /* \"#utility.yul\":2099:2101   */\n  0x20\n    /* \"#utility.yul\":2091:2097   */\n  dup3\n    /* \"#utility.yul\":2088:2102   */\n  lt\n    /* \"#utility.yul\":2068:2086   */\n  dup2\n    /* \"#utility.yul\":2065:2103   */\n  sub\n    /* \"#utility.yul\":2062:2223   */\n  tag_47\n  jumpi\n    /* \"#utility.yul\":2145:2155   */\n  0x4e487b71\n    /* \"#utility.yul\":2140:2143   */\n  0xe0\n    /* \"#utility.yul\":2136:2156   */\n  shl\n    /* \"#utility.yul\":2133:2134   */\n  0x00\n    /* \"#utility.yul\":2126:2157   */\n  mstore\n    /* \"#utility.yul\":2180:2184   */\n  0x22\n    /* \"#utility.yul\":2177:2178   */\n  0x04\n    /* \"#utility.yul\":2170:2185   */\n  mstore\n    /* \"#utility.yul\":2208:2212   */\n  0x24\n    /* \"#utility.yul\":2205:2206   */\n  0x00\n    /* \"#utility.yul\":2198:2213   */\n  revert\n    /* \"#utility.yul\":2062:2223   */\ntag_47:\n  pop\n    /* \"#utility.yul\":1849:2229   */\n  swap2\n  swap1\n  pop\n  jump\t// out\n    /* \"#utility.yul\":2360:2905   */\ntag_24:\n    /* \"#utility.yul\":2462:2464   */\n  0x1f\n    /* \"#utility.yul\":2457:2460   */\n  dup3\n    /* \"#utility.yul\":2454:2465   */\n  gt\n    /* \"#utility.yul\":2451:2899   */\n  iszero\n  tag_50\n  jumpi\n    /* \"#utility.yul\":2498:2499   */\n  0x00\n    /* \"#utility.yul\":2523:2528   */\n  dup2\n    /* \"#utility.yul\":2519:2521   */\n  dup2\n    /* \"#utility.yul\":2512:2529   */\n  mstore\n    /* \"#utility.yul\":2568:2572   */\n  0x20\n    /* \"#utility.yul\":2564:2566   */\n  dup2\n    /* \"#utility.yul\":2554:2573   */\n  keccak256\n    /* \"#utility.yul\":2638:2640   */\n  0x1f\n    /* \"#utility.yul\":2626:2636   */\n  dup6\n    /* \"#utility.yul\":2622:2641   */\n  add\n    /* \"#utility.yul\":2619:2620   */\n  0x05\n    /* \"#utility.yul\":2615:2642   */\n  shr\n    /* \"#utility.yul\":2609:2613   */\n  dup2\n    /* \"#utility.yul\":2605:2643   */\n  add\n    /* \"#utility.yul\":2674:2678   */\n  0x20\n    /* \"#utility.yul\":2662:2672   */\n  dup7\n    /* \"#utility.yul\":2659:2679   */\n  lt\n    /* \"#utility.yul\":2656:2703   */\n  iszero\n  tag_51\n  jumpi\n  pop\n    /* \"#utility.yul\":2697:2701   */\n  dup1\n    /* \"#utility.yul\":2656:2703   */\ntag_51:\n    /* \"#utility.yul\":2752:2754   */\n  0x1f\n    /* \"#utility.yul\":2747:2750   */\n  dup6\n    /* \"#utility.yul\":2743:2755   */\n  add\n    /* \"#utility.yul\":2740:2741   */\n  0x05\n    /* \"#utility.yul\":2736:2756   */\n  shr\n    /* \"#utility.yul\":2730:2734   */\n  dup3\n    /* \"#utility.yul\":2726:2757   */\n  add\n    /* \"#utility.yul\":2716:2757   */\n  swap2\n  pop\n    /* \"#utility.yul\":2807:2889   */\ntag_52:\n    /* \"#utility.yul\":2825:2827   */\n  dup2\n    /* \"#utility.yul\":2818:2823   */\n  dup2\n    /* \"#utility.yul\":2815:2828   */\n  lt\n    /* \"#utility.yul\":2807:2889   */\n  iszero\n  tag_54\n  jumpi\n    /* \"#utility.yul\":2870:2887   */\n  dup3\n  dup2\n  sstore\n    /* \"#utility.yul\":2851:2852   */\n  0x01\n    /* \"#utility.yul\":2840:2853   */\n  add\n    /* \"#utility.yul\":2807:2889   */\n  jump(tag_52)\ntag_54:\n    /* \"#utility.yul\":2811:2814   */\n  pop\n  pop\n  pop\n    /* \"#utility.yul\":2451:2899   */\ntag_50:\n    /* \"#utility.yul\":2360:2905   */\n  pop\n  pop\n  pop\n  jump\t// out\n    /* \"#utility.yul\":3081:4433   */\ntag_9:\n    /* \"#utility.yul\":3201:3211   */\n  dup2\n  mload\n  sub(shl(0x40, 0x01), 0x01)\n    /* \"#utility.yul\":3223:3253   */\n  dup2\n  gt\n    /* \"#utility.yul\":3220:3276   */\n  iszero\n  tag_58\n  jumpi\n    /* \"#utility.yul\":3256:3274   */\n  tag_58\n  tag_20\n  jump\t// in\ntag_58:\n    /* \"#utility.yul\":3285:3382   */\n  tag_59\n    /* \"#utility.yul\":3375:3381   */\n  dup2\n    /* \"#utility.yul\":3335:3373   */\n  tag_60\n    /* \"#utility.yul\":3367:3371   */\n  dup5\n    /* \"#utility.yul\":3361:3372   */\n  sload\n    /* \"#utility.yul\":3335:3373   */\n  tag_22\n  jump\t// in\ntag_60:\n    /* \"#utility.yul\":3329:3333   */\n  dup5\n    /* \"#utility.yul\":3285:3382   */\n  tag_24\n  jump\t// in\ntag_59:\n    /* \"#utility.yul\":3437:3441   */\n  0x20\n  dup1\n    /* \"#utility.yul\":3501:3503   */\n  0x1f\n    /* \"#utility.yul\":3490:3504   */\n  dup4\n  gt\n    /* \"#utility.yul\":3518:3519   */\n  0x01\n    /* \"#utility.yul\":3513:4176   */\n  dup2\n  eq\n  tag_62\n  jumpi\n    /* \"#utility.yul\":4220:4221   */\n  0x00\n    /* \"#utility.yul\":4237:4243   */\n  dup5\n    /* \"#utility.yul\":4234:4323   */\n  iszero\n  tag_63\n  jumpi\n  pop\n    /* \"#utility.yul\":4289:4308   */\n  dup6\n  dup4\n  add\n    /* \"#utility.yul\":4283:4309   */\n  mload\n    /* \"#utility.yul\":4234:4323   */\ntag_63:\n  not(0x00)\n    /* \"#utility.yul\":3038:3039   */\n  0x03\n    /* \"#utility.yul\":3034:3045   */\n  dup7\n  swap1\n  shl\n    /* \"#utility.yul\":3030:3054   */\n  shr\n    /* \"#utility.yul\":3026:3055   */\n  not\n    /* \"#utility.yul\":3016:3056   */\n  and\n    /* \"#utility.yul\":3062:3063   */\n  0x01\n    /* \"#utility.yul\":3058:3069   */\n  dup6\n  swap1\n  shl\n    /* \"#utility.yul\":3013:3070   */\n  or\n    /* \"#utility.yul\":4336:4417   */\n  dup6\n  sstore\n    /* \"#utility.yul\":3483:4427   */\n  jump(tag_54)\n    /* \"#utility.yul\":3513:4176   */\ntag_62:\n    /* \"#utility.yul\":2307:2308   */\n  0x00\n    /* \"#utility.yul\":2300:2314   */\n  dup6\n  dup2\n  mstore\n    /* \"#utility.yul\":2344:2348   */\n  0x20\n    /* \"#utility.yul\":2331:2349   */\n  dup2\n  keccak256\n  not(0x1f)\n    /* \"#utility.yul\":3549:3569   */\n  dup7\n  and\n  swap2\n    /* \"#utility.yul\":3667:3903   */\ntag_66:\n    /* \"#utility.yul\":3681:3688   */\n  dup3\n    /* \"#utility.yul\":3678:3679   */\n  dup2\n    /* \"#utility.yul\":3675:3689   */\n  lt\n    /* \"#utility.yul\":3667:3903   */\n  iszero\n  tag_68\n  jumpi\n    /* \"#utility.yul\":3770:3789   */\n  dup9\n  dup7\n  add\n    /* \"#utility.yul\":3764:3790   */\n  mload\n    /* \"#utility.yul\":3749:3791   */\n  dup3\n  sstore\n    /* \"#utility.yul\":3862:3889   */\n  swap5\n  dup5\n  add\n  swap5\n    /* \"#utility.yul\":3830:3831   */\n  0x01\n    /* \"#utility.yul\":3818:3832   */\n  swap1\n  swap2\n  add\n  swap1\n    /* \"#utility.yul\":3697:3716   */\n  dup5\n  add\n    /* \"#utility.yul\":3667:3903   */\n  jump(tag_66)\ntag_68:\n    /* \"#utility.yul\":3671:3674   */\n  pop\n    /* \"#utility.yul\":3931:3937   */\n  dup6\n    /* \"#utility.yul\":3922:3929   */\n  dup3\n    /* \"#utility.yul\":3919:3938   */\n  lt\n    /* \"#utility.yul\":3916:4117   */\n  iszero\n  tag_69\n  jumpi\n    /* \"#utility.yul\":3992:4011   */\n  dup8\n  dup6\n  add\n    /* \"#utility.yul\":3986:4012   */\n  mload\n  not(0x00)\n    /* \"#utility.yul\":4075:4076   */\n  0x03\n    /* \"#utility.yul\":4071:4085   */\n  dup9\n  swap1\n  shl\n    /* \"#utility.yul\":4087:4090   */\n  0xf8\n    /* \"#utility.yul\":4067:4091   */\n  and\n    /* \"#utility.yul\":4063:4100   */\n  shr\n    /* \"#utility.yul\":4059:4101   */\n  not\n    /* \"#utility.yul\":4044:4102   */\n  and\n    /* \"#utility.yul\":4029:4103   */\n  dup2\n  sstore\n    /* \"#utility.yul\":3916:4117   */\ntag_69:\n  pop\n  pop\n  pop\n  pop\n  pop\n    /* \"#utility.yul\":4163:4164   */\n  0x01\n    /* \"#utility.yul\":4147:4161   */\n  swap1\n  dup2\n  shl\n    /* \"#utility.yul\":4143:4165   */\n  add\n    /* \"#utility.yul\":4130:4166   */\n  swap1\n  sstore\n  pop\n    /* \"#utility.yul\":3081:4433   */\n  jump\t// out\n    /* \"#utility.yul\":4438:4641   */\ntag_26:\n    /* \"contracts/tokens/PropertyToken.sol\":274:2258  contract PropertyToken is ERC20, Ownable {... */\n  dataSize(sub_0)\n  dup1\n  dataOffset(sub_0)\n  0x00\n  codecopy\n  0x00\n  return\nstop\n\nsub_0: assembly {\n        /* \"contracts/tokens/PropertyToken.sol\":274:2258  contract PropertyToken is ERC20, Ownable {... */\n      mstore(0x40, 0x80)\n      jumpi(tag_1, lt(calldatasize, 0x04))\n      shr(0xe0, calldataload(0x00))\n      dup1\n      0x5f1fbccc\n      gt\n      tag_21\n      jumpi\n      dup1\n      0x95d89b41\n      gt\n      tag_22\n      jumpi\n      dup1\n      0x95d89b41\n      eq\n      tag_16\n      jumpi\n      dup1\n      0xa9059cbb\n      eq\n      tag_17\n      jumpi\n      dup1\n      0xd7fac34b\n      eq\n      tag_18\n      jumpi\n      dup1\n      0xdd62ed3e\n      eq\n      tag_19\n      jumpi\n      dup1\n      0xf2fde38b\n      eq\n      tag_20\n      jumpi\n      0x00\n      dup1\n      revert\n    tag_22:\n      dup1\n      0x5f1fbccc\n      eq\n      tag_11\n      jumpi\n      dup1\n      0x70a08231\n      eq\n      tag_12\n      jumpi\n      dup1\n      0x715018a6\n      eq\n      tag_13\n      jumpi\n      dup1\n      0x8cbe5104\n      eq\n      tag_14\n      jumpi\n      dup1\n      0x8da5cb5b\n      eq\n      tag_15\n      jumpi\n      0x00\n      dup1\n      revert\n    tag_21:\n      dup1\n      0x1ca8b6cb\n      gt\n      tag_23\n      jumpi\n      dup1\n      0x1ca8b6cb\n      eq\n      tag_6\n      jumpi\n      dup1\n      0x23b872dd\n      eq\n      tag_7\n      jumpi\n      dup1\n      0x313ce567\n      eq\n      tag_8\n      jumpi\n      dup1\n      0x37f76838\n      eq\n      tag_9\n      jumpi\n      dup1\n      0x40c10f19\n      eq\n      tag_10\n      jumpi\n      0x00\n      dup1\n      revert\n    tag_23:\n      dup1\n      0x0293c8f6\n      eq\n      tag_2\n      jumpi\n      dup1\n      0x06fdde03\n      eq\n      tag_3\n      jumpi\n      dup1\n      0x095ea7b3\n      eq\n      tag_4\n      jumpi\n      dup1\n      0x18160ddd\n      eq\n      tag_5\n      jumpi\n    tag_1:\n      0x00\n      dup1\n      revert\n        /* \"contracts/tokens/PropertyToken.sol\":1642:2020  function distributeRent() external payable {... */\n    tag_2:\n      tag_24\n      tag_25\n      jump\t// in\n    tag_24:\n      stop\n        /* \"https://github.com/OpenZeppelin/openzeppelin-contracts/blob/v5.0.0/contracts/token/ERC20/ERC20.sol\":2074:2163  function name() public view virtual returns (string memory) {... */\n    tag_3:\n      callvalue\n      dup1\n      iszero\n      tag_26\n      jumpi\n      0x00\n      dup1\n      revert\n    tag_26:\n      pop\n      tag_27\n      tag_28\n      jump\t// in\n    tag_27:\n      mload(0x40)\n      tag_29\n      swap2\n      swap1\n      tag_30\n      jump\t// in\n    tag_29:\n      mload(0x40)\n      dup1\n      swap2\n      sub\n      swap1\n      return\n        /* \"https://github.com/OpenZeppelin/openzeppelin-contracts/blob/v5.0.0/contracts/token/ERC20/ERC20.sol\":4293:4479  function approve(address spender, uint256 value) public virtual returns (bool) {... */\n    tag_4:\n      callvalue\n      dup1\n      iszero\n      tag_31\n      jumpi\n      0x00\n      dup1\n      revert\n    tag_31:\n      pop\n      tag_32\n      tag_33\n      calldatasize\n      0x04\n      tag_34\n      jump\t// in\n    tag_33:\n      tag_35\n      jump\t// in\n    tag_32:\n      mload(0x40)\n        /* \"#utility.yul\":1169:1183   */\n      swap1\n      iszero\n        /* \"#utility.yul\":1162:1184   */\n      iszero\n        /* \"#utility.yul\":1144:1185   */\n      dup2\n      mstore\n        /* \"#utility.yul\":1132:1134   */\n      0x20\n        /* \"#utility.yul\":1117:1135   */\n      add\n        /* \"https://github.com/OpenZeppelin/openzeppelin-contracts/blob/v5.0.0/contracts/token/ERC20/ERC20.sol\":4293:4479  function approve(address spender, uint256 value) public virtual returns (bool) {... */\n      tag_29\n        /* \"#utility.yul\":1004:1191   */\n      jump\n        /* \"https://github.com/OpenZeppelin/openzeppelin-contracts/blob/v5.0.0/contracts/token/ERC20/ERC20.sol\":3144:3241  function totalSupply() public view virtual returns (uint256) {... */\n    tag_5:\n      callvalue\n      dup1\n      iszero\n      tag_38\n      jumpi\n      0x00\n      dup1\n      revert\n    tag_38:\n      pop\n        /* \"https://github.com/OpenZeppelin/openzeppelin-contracts/blob/v5.0.0/contracts/token/ERC20/ERC20.sol\":3222:3234  _totalSupply */\n      sload(0x02)\n        /* \"https://github.com/OpenZeppelin/openzeppelin-contracts/blob/v5.0.0/contracts/token/ERC20/ERC20.sol\":3144:3241  function totalSupply() public view virtual returns (uint256) {... */\n    tag_39:\n      mload(0x40)\n        /* \"#utility.yul\":1342:1367   */\n      swap1\n      dup2\n      mstore\n        /* \"#utility.yul\":1330:1332   */\n      0x20\n        /* \"#utility.yul\":1315:1333   */\n      add\n        /* \"https://github.com/OpenZeppelin/openzeppelin-contracts/blob/v5.0.0/contracts/token/ERC20/ERC20.sol\":3144:3241  function totalSupply() public view virtual returns (uint256) {... */\n      tag_29\n        /* \"#utility.yul\":1196:1373   */\n      jump\n        /* \"contracts/tokens/PropertyToken.sol\":479:510  uint256 public totalTokenSupply */\n    tag_6:\n      callvalue\n      dup1\n      iszero\n      tag_43\n      jumpi\n      0x00\n      dup1\n      revert\n    tag_43:\n      pop\n      tag_39\n      sload(0x08)\n      dup2\n      jump\n        /* \"https://github.com/OpenZeppelin/openzeppelin-contracts/blob/v5.0.0/contracts/token/ERC20/ERC20.sol\":5039:5283  function transferFrom(address from, address to, uint256 value) public virtual returns (bool) {... */\n    tag_7:\n      callvalue\n      dup1\n      iszero\n      tag_47\n      jumpi\n      0x00\n      dup1\n      revert\n    tag_47:\n      pop\n      tag_32\n      tag_49\n      calldatasize\n      0x04\n      tag_50\n      jump\t// in\n    tag_49:\n      tag_51\n      jump\t// in\n        /* \"https://github.com/OpenZeppelin/openzeppelin-contracts/blob/v5.0.0/contracts/token/ERC20/ERC20.sol\":3002:3084  function decimals() public view virtual returns (uint8) {... */\n    tag_8:\n      callvalue\n      dup1\n      iszero\n      tag_53\n      jumpi\n      0x00\n      dup1\n      revert\n    tag_53:\n      pop\n      mload(0x40)\n        /* \"https://github.com/OpenZeppelin/openzeppelin-contracts/blob/v5.0.0/contracts/token/ERC20/ERC20.sol\":3075:3077  18 */\n      0x12\n        /* \"#utility.yul\":1853:1889   */\n      dup2\n      mstore\n        /* \"#utility.yul\":1841:1843   */\n      0x20\n        /* \"#utility.yul\":1826:1844   */\n      add\n        /* \"https://github.com/OpenZeppelin/openzeppelin-contracts/blob/v5.0.0/contracts/token/ERC20/ERC20.sol\":3002:3084  function decimals() public view virtual returns (uint8) {... */\n      tag_29\n        /* \"#utility.yul\":1711:1895   */\n      jump\n        /* \"contracts/tokens/PropertyToken.sol\":321:347  address public propertyNFT */\n    tag_9:\n      callvalue\n      dup1\n      iszero\n      tag_58\n      jumpi\n      0x00\n      dup1\n      revert\n    tag_58:\n      pop\n      sload(0x06)\n      tag_59\n      swap1\n      sub(shl(0xa0, 0x01), 0x01)\n      and\n      dup2\n      jump\n    tag_59:\n      mload(0x40)\n      sub(shl(0xa0, 0x01), 0x01)\n        /* \"#utility.yul\":2064:2096   */\n      swap1\n      swap2\n      and\n        /* \"#utility.yul\":2046:2097   */\n      dup2\n      mstore\n        /* \"#utility.yul\":2034:2036   */\n      0x20\n        /* \"#utility.yul\":2019:2037   */\n      add\n        /* \"contracts/tokens/PropertyToken.sol\":321:347  address public propertyNFT */\n      tag_29\n        /* \"#utility.yul\":1900:2103   */\n      jump\n        /* \"contracts/tokens/PropertyToken.sol\":1394:1580  function mint(address to, uint256 amount) external onlyOwner {... */\n    tag_10:\n      callvalue\n      dup1\n      iszero\n      tag_63\n      jumpi\n      0x00\n      dup1\n      revert\n    tag_63:\n      pop\n      tag_24\n      tag_65\n      calldatasize\n      0x04\n      tag_34\n      jump\t// in\n    tag_65:\n      tag_66\n      jump\t// in\n        /* \"contracts/tokens/PropertyToken.sol\":1047:1292  function setPropertyNFT(address _propertyNFT) external {... */\n    tag_11:\n      callvalue\n      dup1\n      iszero\n      tag_67\n      jumpi\n      0x00\n      dup1\n      revert\n    tag_67:\n      pop\n      tag_24\n      tag_69\n      calldatasize\n      0x04\n      tag_70\n      jump\t// in\n    tag_69:\n      tag_71\n      jump\t// in\n        /* \"https://github.com/OpenZeppelin/openzeppelin-contracts/blob/v5.0.0/contracts/token/ERC20/ERC20.sol\":3299:3415  function balanceOf(address account) public view virtual returns (uint256) {... */\n    tag_12:\n      callvalue\n      dup1\n      iszero\n      tag_72\n      jumpi\n      0x00\n      dup1\n      revert\n    tag_72:\n      pop\n      tag_39\n      tag_74\n      calldatasize\n      0x04\n      tag_70\n      jump\t// in\n    tag_74:\n      sub(shl(0xa0, 0x01), 0x01)\n        /* \"https://github.com/OpenZeppelin/openzeppelin-contracts/blob/v5.0.0/contracts/token/ERC20/ERC20.sol\":3390:3408  _balances[account] */\n      and\n        /* \"https://github.com/OpenZeppelin/openzeppelin-contracts/blob/v5.0.0/contracts/token/ERC20/ERC20.sol\":3364:3371  uint256 */\n      0x00\n        /* \"https://github.com/OpenZeppelin/openzeppelin-contracts/blob/v5.0.0/contracts/token/ERC20/ERC20.sol\":3390:3408  _balances[account] */\n      swap1\n      dup2\n      mstore\n      0x20\n      dup2\n      swap1\n      mstore\n      0x40\n      swap1\n      keccak256\n      sload\n      swap1\n        /* \"https://github.com/OpenZeppelin/openzeppelin-contracts/blob/v5.0.0/contracts/token/ERC20/ERC20.sol\":3299:3415  function balanceOf(address account) public view virtual returns (uint256) {... */\n      jump\n        /* \"https://github.com/OpenZeppelin/openzeppelin-contracts/blob/v5.0.0/contracts/access/Ownable.sol\":2293:2394  function renounceOwnership() public virtual onlyOwner {... */\n    tag_13:\n      callvalue\n      dup1\n      iszero\n      tag_77\n      jumpi\n      0x00\n      dup1\n      revert\n    tag_77:\n      pop\n      tag_24\n      tag_79\n      jump\t// in\n        /* \"contracts/tokens/PropertyToken.sol\":2084:2256  function claimRent() external {... */\n    tag_14:\n      callvalue\n      dup1\n      iszero\n      tag_24\n      jumpi\n      0x00\n      dup1\n      revert\n        /* \"https://github.com/OpenZeppelin/openzeppelin-contracts/blob/v5.0.0/contracts/access/Ownable.sol\":1638:1723  function owner() public view virtual returns (address) {... */\n    tag_15:\n      callvalue\n      dup1\n      iszero\n      tag_83\n      jumpi\n      0x00\n      dup1\n      revert\n    tag_83:\n      pop\n        /* \"https://github.com/OpenZeppelin/openzeppelin-contracts/blob/v5.0.0/contracts/access/Ownable.sol\":1710:1716  _owner */\n      and(sub(shl(0xa0, 0x01), 0x01), sload(0x05))\n        /* \"https://github.com/OpenZeppelin/openzeppelin-contracts/blob/v5.0.0/contracts/access/Ownable.sol\":1638:1723  function owner() public view virtual returns (address) {... */\n      jump(tag_59)\n        /* \"https://github.com/OpenZeppelin/openzeppelin-contracts/blob/v5.0.0/contracts/token/ERC20/ERC20.sol\":2276:2369  function symbol() public view virtual returns (string memory) {... */\n    tag_16:\n      callvalue\n      dup1\n      iszero\n      tag_87\n      jumpi\n      0x00\n      dup1\n      revert\n    tag_87:\n      pop\n      tag_27\n      tag_89\n      jump\t// in\n        /* \"https://github.com/OpenZeppelin/openzeppelin-contracts/blob/v5.0.0/contracts/token/ERC20/ERC20.sol\":3610:3788  function transfer(address to, uint256 value) public virtual returns (bool) {... */\n    tag_17:\n      callvalue\n      dup1\n      iszero\n      tag_91\n      jumpi\n      0x00\n      dup1\n      revert\n    tag_91:\n      pop\n      tag_32\n      tag_93\n      calldatasize\n      0x04\n      tag_34\n      jump\t// in\n    tag_93:\n      tag_94\n      jump\t// in\n        /* \"contracts/tokens/PropertyToken.sol\":398:431  uint256 public totalPropertyValue */\n    tag_18:\n      callvalue\n      dup1\n      iszero\n      tag_96\n      jumpi\n      0x00\n      dup1\n      revert\n    tag_96:\n      pop\n      tag_39\n      sload(0x07)\n      dup2\n      jump\n        /* \"https://github.com/OpenZeppelin/openzeppelin-contracts/blob/v5.0.0/contracts/token/ERC20/ERC20.sol\":3846:3986  function allowance(address owner, address spender) public view virtual returns (uint256) {... */\n    tag_19:\n      callvalue\n      dup1\n      iszero\n      tag_100\n      jumpi\n      0x00\n      dup1\n      revert\n    tag_100:\n      pop\n      tag_39\n      tag_102\n      calldatasize\n      0x04\n      tag_103\n      jump\t// in\n    tag_102:\n      sub(shl(0xa0, 0x01), 0x01)\n        /* \"https://github.com/OpenZeppelin/openzeppelin-contracts/blob/v5.0.0/contracts/token/ERC20/ERC20.sol\":3952:3970  _allowances[owner] */\n      swap2\n      dup3\n      and\n        /* \"https://github.com/OpenZeppelin/openzeppelin-contracts/blob/v5.0.0/contracts/token/ERC20/ERC20.sol\":3926:3933  uint256 */\n      0x00\n        /* \"https://github.com/OpenZeppelin/openzeppelin-contracts/blob/v5.0.0/contracts/token/ERC20/ERC20.sol\":3952:3970  _allowances[owner] */\n      swap1\n      dup2\n      mstore\n        /* \"https://github.com/OpenZeppelin/openzeppelin-contracts/blob/v5.0.0/contracts/token/ERC20/ERC20.sol\":3952:3963  _allowances */\n      0x01\n        /* \"https://github.com/OpenZeppelin/openzeppelin-contracts/blob/v5.0.0/contracts/token/ERC20/ERC20.sol\":3952:3970  _allowances[owner] */\n      0x20\n      swap1\n      dup2\n      mstore\n      0x40\n      dup1\n      dup4\n      keccak256\n        /* \"https://github.com/OpenZeppelin/openzeppelin-contracts/blob/v5.0.0/contracts/token/ERC20/ERC20.sol\":3952:3979  _allowances[owner][spender] */\n      swap4\n      swap1\n      swap5\n      and\n      dup3\n      mstore\n      swap2\n      swap1\n      swap2\n      mstore\n      keccak256\n      sload\n      swap1\n        /* \"https://github.com/OpenZeppelin/openzeppelin-contracts/blob/v5.0.0/contracts/token/ERC20/ERC20.sol\":3846:3986  function allowance(address owner, address spender) public view virtual returns (uint256) {... */\n      jump\n        /* \"https://github.com/OpenZeppelin/openzeppelin-contracts/blob/v5.0.0/contracts/access/Ownable.sol\":2543:2758  function transferOwnership(address newOwner) public virtual onlyOwner {... */\n    tag_20:\n      callvalue\n      dup1\n      iszero\n      tag_106\n      jumpi\n      0x00\n      dup1\n      revert\n    tag_106:\n      pop\n      tag_24\n      tag_108\n      calldatasize\n      0x04\n      tag_70\n      jump\t// in\n    tag_108:\n      tag_109\n      jump\t// in\n        /* \"contracts/tokens/PropertyToken.sol\":1642:2020  function distributeRent() external payable {... */\n    tag_25:\n        /* \"contracts/tokens/PropertyToken.sol\":1715:1716  0 */\n      0x00\n        /* \"contracts/tokens/PropertyToken.sol\":1703:1712  msg.value */\n      callvalue\n        /* \"contracts/tokens/PropertyToken.sol\":1703:1716  msg.value > 0 */\n      gt\n        /* \"contracts/tokens/PropertyToken.sol\":1695:1742  require(msg.value > 0, \"No rent to distribute\") */\n      tag_111\n      jumpi\n      mload(0x40)\n      shl(0xe5, 0x461bcd)\n      dup2\n      mstore\n        /* \"#utility.yul\":2766:2768   */\n      0x20\n        /* \"contracts/tokens/PropertyToken.sol\":1695:1742  require(msg.value > 0, \"No rent to distribute\") */\n      0x04\n      dup3\n      add\n        /* \"#utility.yul\":2748:2769   */\n      mstore\n        /* \"#utility.yul\":2805:2807   */\n      0x15\n        /* \"#utility.yul\":2785:2803   */\n      0x24\n      dup3\n      add\n        /* \"#utility.yul\":2778:2808   */\n      mstore\n      shl(0x58, 0x4e6f2072656e7420746f2064697374726962757465)\n        /* \"#utility.yul\":2824:2842   */\n      0x44\n      dup3\n      add\n        /* \"#utility.yul\":2817:2868   */\n      mstore\n        /* \"#utility.yul\":2885:2903   */\n      0x64\n      add\n        /* \"contracts/tokens/PropertyToken.sol\":1695:1742  require(msg.value > 0, \"No rent to distribute\") */\n    tag_112:\n      mload(0x40)\n      dup1\n      swap2\n      sub\n      swap1\n      revert\n    tag_111:\n        /* \"contracts/tokens/PropertyToken.sol\":1812:1855  RentDistributed(msg.value, block.timestamp) */\n      0x40\n      dup1\n      mload\n        /* \"contracts/tokens/PropertyToken.sol\":1828:1837  msg.value */\n      callvalue\n        /* \"#utility.yul\":3088:3113   */\n      dup2\n      mstore\n        /* \"contracts/tokens/PropertyToken.sol\":1839:1854  block.timestamp */\n      timestamp\n        /* \"#utility.yul\":3144:3146   */\n      0x20\n        /* \"#utility.yul\":3129:3147   */\n      dup3\n      add\n        /* \"#utility.yul\":3122:3156   */\n      mstore\n        /* \"contracts/tokens/PropertyToken.sol\":1812:1855  RentDistributed(msg.value, block.timestamp) */\n      0xe119edd602f8057f976e78f3580fad7c24700f494e6ddca97279c332a213f384\n      swap2\n        /* \"#utility.yul\":3061:3079   */\n      add\n        /* \"contracts/tokens/PropertyToken.sol\":1812:1855  RentDistributed(msg.value, block.timestamp) */\n      mload(0x40)\n      dup1\n      swap2\n      sub\n      swap1\n      log1\n        /* \"contracts/tokens/PropertyToken.sol\":1642:2020  function distributeRent() external payable {... */\n      jump\t// out\n        /* \"https://github.com/OpenZeppelin/openzeppelin-contracts/blob/v5.0.0/contracts/token/ERC20/ERC20.sol\":2074:2163  function name() public view virtual returns (string memory) {... */\n    tag_28:\n        /* \"https://github.com/OpenZeppelin/openzeppelin-contracts/blob/v5.0.0/contracts/token/ERC20/ERC20.sol\":2119:2132  string memory */\n      0x60\n        /* \"https://github.com/OpenZeppelin/openzeppelin-contracts/blob/v5.0.0/contracts/token/ERC20/ERC20.sol\":2151:2156  _name */\n      0x03\n        /* \"https://github.com/OpenZeppelin/openzeppelin-contracts/blob/v5.0.0/contracts/token/ERC20/ERC20.sol\":2144:2156  return _name */\n      dup1\n      sload\n      tag_117\n      swap1\n      tag_118\n      jump\t// in\n    tag_117:\n      dup1\n      0x1f\n      add\n      0x20\n      dup1\n      swap2\n      div\n      mul\n      0x20\n      add\n      mload(0x40)\n      swap1\n      dup2\n      add\n      0x40\n      mstore\n      dup1\n      swap3\n      swap2\n      swap1\n      dup2\n      dup2\n      mstore\n      0x20\n      add\n      dup3\n      dup1\n      sload\n      tag_119\n      swap1\n      tag_118\n      jump\t// in\n    tag_119:\n      dup1\n      iszero\n      tag_120\n      jumpi\n      dup1\n      0x1f\n      lt\n      tag_121\n      jumpi\n      0x0100\n      dup1\n      dup4\n      sload\n      div\n      mul\n      dup4\n      mstore\n      swap2\n      0x20\n      add\n      swap2\n      jump(tag_120)\n    tag_121:\n      dup3\n      add\n      swap2\n      swap1\n      0x00\n      mstore\n      keccak256(0x00, 0x20)\n      swap1\n    tag_122:\n      dup2\n      sload\n      dup2\n      mstore\n      swap1\n      0x01\n      add\n      swap1\n      0x20\n      add\n      dup1\n      dup4\n      gt\n      tag_122\n      jumpi\n      dup3\n      swap1\n      sub\n      0x1f\n      and\n      dup3\n      add\n      swap2\n    tag_120:\n      pop\n      pop\n      pop\n      pop\n      pop\n      swap1\n      pop\n        /* \"https://github.com/OpenZeppelin/openzeppelin-contracts/blob/v5.0.0/contracts/token/ERC20/ERC20.sol\":2074:2163  function name() public view virtual returns (string memory) {... */\n      swap1\n      jump\t// out\n        /* \"https://github.com/OpenZeppelin/openzeppelin-contracts/blob/v5.0.0/contracts/token/ERC20/ERC20.sol\":4293:4479  function approve(address spender, uint256 value) public virtual returns (bool) {... */\n    tag_35:\n        /* \"https://github.com/OpenZeppelin/openzeppelin-contracts/blob/v5.0.0/contracts/token/ERC20/ERC20.sol\":4366:4370  bool */\n      0x00\n        /* \"https://github.com/OpenZeppelin/openzeppelin-contracts/blob/v5.0.0/contracts/utils/Context.sol\":735:745  msg.sender */\n      caller\n        /* \"https://github.com/OpenZeppelin/openzeppelin-contracts/blob/v5.0.0/contracts/token/ERC20/ERC20.sol\":4420:4451  _approve(owner, spender, value) */\n      tag_126\n        /* \"https://github.com/OpenZeppelin/openzeppelin-contracts/blob/v5.0.0/contracts/utils/Context.sol\":735:745  msg.sender */\n      dup2\n        /* \"https://github.com/OpenZeppelin/openzeppelin-contracts/blob/v5.0.0/contracts/token/ERC20/ERC20.sol\":4436:4443  spender */\n      dup6\n        /* \"https://github.com/OpenZeppelin/openzeppelin-contracts/blob/v5.0.0/contracts/token/ERC20/ERC20.sol\":4445:4450  value */\n      dup6\n        /* \"https://github.com/OpenZeppelin/openzeppelin-contracts/blob/v5.0.0/contracts/token/ERC20/ERC20.sol\":4420:4428  _approve */\n      tag_127\n        /* \"https://github.com/OpenZeppelin/openzeppelin-contracts/blob/v5.0.0/contracts/token/ERC20/ERC20.sol\":4420:4451  _approve(owner, spender, value) */\n      jump\t// in\n    tag_126:\n        /* \"https://github.com/OpenZeppelin/openzeppelin-contracts/blob/v5.0.0/contracts/token/ERC20/ERC20.sol\":4468:4472  true */\n      0x01\n        /* \"https://github.com/OpenZeppelin/openzeppelin-contracts/blob/v5.0.0/contracts/token/ERC20/ERC20.sol\":4461:4472  return true */\n      swap2\n      pop\n      pop\n        /* \"https://github.com/OpenZeppelin/openzeppelin-contracts/blob/v5.0.0/contracts/token/ERC20/ERC20.sol\":4293:4479  function approve(address spender, uint256 value) public virtual returns (bool) {... */\n    tag_123:\n      swap3\n      swap2\n      pop\n      pop\n      jump\t// out\n        /* \"https://github.com/OpenZeppelin/openzeppelin-contracts/blob/v5.0.0/contracts/token/ERC20/ERC20.sol\":5039:5283  function transferFrom(address from, address to, uint256 value) public virtual returns (bool) {... */\n    tag_51:\n        /* \"https://github.com/OpenZeppelin/openzeppelin-contracts/blob/v5.0.0/contracts/token/ERC20/ERC20.sol\":5126:5130  bool */\n      0x00\n        /* \"https://github.com/OpenZeppelin/openzeppelin-contracts/blob/v5.0.0/contracts/utils/Context.sol\":735:745  msg.sender */\n      caller\n        /* \"https://github.com/OpenZeppelin/openzeppelin-contracts/blob/v5.0.0/contracts/token/ERC20/ERC20.sol\":5182:5219  _spendAllowance(from, spender, value) */\n      tag_131\n        /* \"https://github.com/OpenZeppelin/openzeppelin-contracts/blob/v5.0.0/contracts/token/ERC20/ERC20.sol\":5198:5202  from */\n      dup6\n        /* \"https://github.com/OpenZeppelin/openzeppelin-contracts/blob/v5.0.0/contracts/utils/Context.sol\":735:745  msg.sender */\n      dup3\n        /* \"https://github.com/OpenZeppelin/openzeppelin-contracts/blob/v5.0.0/contracts/token/ERC20/ERC20.sol\":5213:5218  value */\n      dup6\n        /* \"https://github.com/OpenZeppelin/openzeppelin-contracts/blob/v5.0.0/contracts/token/ERC20/ERC20.sol\":5182:5197  _spendAllowance */\n      tag_132\n        /* \"https://github.com/OpenZeppelin/openzeppelin-contracts/blob/v5.0.0/contracts/token/ERC20/ERC20.sol\":5182:5219  _spendAllowance(from, spender, value) */\n      jump\t// in\n    tag_131:\n        /* \"https://github.com/OpenZeppelin/openzeppelin-contracts/blob/v5.0.0/contracts/token/ERC20/ERC20.sol\":5229:5255  _transfer(from, to, value) */\n      tag_133\n        /* \"https://github.com/OpenZeppelin/openzeppelin-contracts/blob/v5.0.0/contracts/token/ERC20/ERC20.sol\":5239:5243  from */\n      dup6\n        /* \"https://github.com/OpenZeppelin/openzeppelin-contracts/blob/v5.0.0/contracts/token/ERC20/ERC20.sol\":5245:5247  to */\n      dup6\n        /* \"https://github.com/OpenZeppelin/openzeppelin-contracts/blob/v5.0.0/contracts/token/ERC20/ERC20.sol\":5249:5254  value */\n      dup6\n        /* \"https://github.com/OpenZeppelin/openzeppelin-contracts/blob/v5.0.0/contracts/token/ERC20/ERC20.sol\":5229:5238  _transfer */\n      tag_134\n        /* \"https://github.com/OpenZeppelin/openzeppelin-contracts/blob/v5.0.0/contracts/token/ERC20/ERC20.sol\":5229:5255  _transfer(from, to, value) */\n      jump\t// in\n    tag_133:\n      pop\n        /* \"https://github.com/OpenZeppelin/openzeppelin-contracts/blob/v5.0.0/contracts/token/ERC20/ERC20.sol\":5272:5276  true */\n      0x01\n      swap5\n        /* \"https://github.com/OpenZeppelin/openzeppelin-contracts/blob/v5.0.0/contracts/token/ERC20/ERC20.sol\":5039:5283  function transferFrom(address from, address to, uint256 value) public virtual returns (bool) {... */\n      swap4\n      pop\n      pop\n      pop\n      pop\n      jump\t// out\n        /* \"contracts/tokens/PropertyToken.sol\":1394:1580  function mint(address to, uint256 amount) external onlyOwner {... */\n    tag_66:\n        /* \"https://github.com/OpenZeppelin/openzeppelin-contracts/blob/v5.0.0/contracts/access/Ownable.sol\":1531:1544  _checkOwner() */\n      tag_137\n        /* \"https://github.com/OpenZeppelin/openzeppelin-contracts/blob/v5.0.0/contracts/access/Ownable.sol\":1531:1542  _checkOwner */\n      tag_138\n        /* \"https://github.com/OpenZeppelin/openzeppelin-contracts/blob/v5.0.0/contracts/access/Ownable.sol\":1531:1544  _checkOwner() */\n      jump\t// in\n    tag_137:\n        /* \"contracts/tokens/PropertyToken.sol\":1499:1515  totalTokenSupply */\n      sload(0x08)\n        /* \"contracts/tokens/PropertyToken.sol\":1489:1495  amount */\n      dup2\n        /* \"contracts/tokens/PropertyToken.sol\":1473:1486  totalSupply() */\n      tag_140\n        /* \"https://github.com/OpenZeppelin/openzeppelin-contracts/blob/v5.0.0/contracts/token/ERC20/ERC20.sol\":3222:3234  _totalSupply */\n      sload(0x02)\n      swap1\n        /* \"https://github.com/OpenZeppelin/openzeppelin-contracts/blob/v5.0.0/contracts/token/ERC20/ERC20.sol\":3144:3241  function totalSupply() public view virtual returns (uint256) {... */\n      jump\n        /* \"contracts/tokens/PropertyToken.sol\":1473:1486  totalSupply() */\n    tag_140:\n        /* \"contracts/tokens/PropertyToken.sol\":1473:1495  totalSupply() + amount */\n      tag_141\n      swap2\n      swap1\n      tag_142\n      jump\t// in\n    tag_141:\n        /* \"contracts/tokens/PropertyToken.sol\":1473:1515  totalSupply() + amount <= totalTokenSupply */\n      gt\n      iszero\n        /* \"contracts/tokens/PropertyToken.sol\":1465:1546  require(totalSupply() + amount <= totalTokenSupply, \"Exceeds total token supply\") */\n      tag_143\n      jumpi\n      mload(0x40)\n      shl(0xe5, 0x461bcd)\n      dup2\n      mstore\n        /* \"#utility.yul\":3981:3983   */\n      0x20\n        /* \"contracts/tokens/PropertyToken.sol\":1465:1546  require(totalSupply() + amount <= totalTokenSupply, \"Exceeds total token supply\") */\n      0x04\n      dup3\n      add\n        /* \"#utility.yul\":3963:3984   */\n      mstore\n        /* \"#utility.yul\":4020:4022   */\n      0x1a\n        /* \"#utility.yul\":4000:4018   */\n      0x24\n      dup3\n      add\n        /* \"#utility.yul\":3993:4023   */\n      mstore\n        /* \"#utility.yul\":4059:4087   */\n      0x4578636565647320746f74616c20746f6b656e20737570706c79000000000000\n        /* \"#utility.yul\":4039:4057   */\n      0x44\n      dup3\n      add\n        /* \"#utility.yul\":4032:4088   */\n      mstore\n        /* \"#utility.yul\":4105:4123   */\n      0x64\n      add\n        /* \"contracts/tokens/PropertyToken.sol\":1465:1546  require(totalSupply() + amount <= totalTokenSupply, \"Exceeds total token supply\") */\n      tag_112\n        /* \"#utility.yul\":3779:4129   */\n      jump\n        /* \"contracts/tokens/PropertyToken.sol\":1465:1546  require(totalSupply() + amount <= totalTokenSupply, \"Exceeds total token supply\") */\n    tag_143:\n        /* \"contracts/tokens/PropertyToken.sol\":1556:1573  _mint(to, amount) */\n      tag_146\n        /* \"contracts/tokens/PropertyToken.sol\":1562:1564  to */\n      dup3\n        /* \"contracts/tokens/PropertyToken.sol\":1566:1572  amount */\n      dup3\n        /* \"contracts/tokens/PropertyToken.sol\":1556:1561  _mint */\n      tag_147\n        /* \"contracts/tokens/PropertyToken.sol\":1556:1573  _mint(to, amount) */\n      jump\t// in\n    tag_146:\n        /* \"contracts/tokens/PropertyToken.sol\":1394:1580  function mint(address to, uint256 amount) external onlyOwner {... */\n      pop\n      pop\n      jump\t// out\n        /* \"contracts/tokens/PropertyToken.sol\":1047:1292  function setPropertyNFT(address _propertyNFT) external {... */\n    tag_71:\n        /* \"contracts/tokens/PropertyToken.sol\":1120:1131  propertyNFT */\n      and(sub(shl(0xa0, 0x01), 0x01), sload(0x06))\n        /* \"contracts/tokens/PropertyToken.sol\":1120:1145  propertyNFT == address(0) */\n      iszero\n        /* \"contracts/tokens/PropertyToken.sol\":1112:1174  require(propertyNFT == address(0), \"Property NFT already set\") */\n      tag_149\n      jumpi\n      mload(0x40)\n      shl(0xe5, 0x461bcd)\n      dup2\n      mstore\n        /* \"#utility.yul\":4336:4338   */\n      0x20\n        /* \"contracts/tokens/PropertyToken.sol\":1112:1174  require(propertyNFT == address(0), \"Property NFT already set\") */\n      0x04\n      dup3\n      add\n        /* \"#utility.yul\":4318:4339   */\n      mstore\n        /* \"#utility.yul\":4375:4377   */\n      0x18\n        /* \"#utility.yul\":4355:4373   */\n      0x24\n      dup3\n      add\n        /* \"#utility.yul\":4348:4378   */\n      mstore\n        /* \"#utility.yul\":4414:4440   */\n      0x50726f7065727479204e465420616c7265616479207365740000000000000000\n        /* \"#utility.yul\":4394:4412   */\n      0x44\n      dup3\n      add\n        /* \"#utility.yul\":4387:4441   */\n      mstore\n        /* \"#utility.yul\":4458:4476   */\n      0x64\n      add\n        /* \"contracts/tokens/PropertyToken.sol\":1112:1174  require(propertyNFT == address(0), \"Property NFT already set\") */\n      tag_112\n        /* \"#utility.yul\":4134:4482   */\n      jump\n        /* \"contracts/tokens/PropertyToken.sol\":1112:1174  require(propertyNFT == address(0), \"Property NFT already set\") */\n    tag_149:\n        /* \"https://github.com/OpenZeppelin/openzeppelin-contracts/blob/v5.0.0/contracts/access/Ownable.sol\":1710:1716  _owner */\n      and(sub(shl(0xa0, 0x01), 0x01), sload(0x05))\n        /* \"contracts/tokens/PropertyToken.sol\":1192:1202  msg.sender */\n      caller\n        /* \"contracts/tokens/PropertyToken.sol\":1192:1213  msg.sender == owner() */\n      eq\n        /* \"contracts/tokens/PropertyToken.sol\":1184:1249  require(msg.sender == owner(), \"Only owner can set property NFT\") */\n      tag_153\n      jumpi\n      mload(0x40)\n      shl(0xe5, 0x461bcd)\n      dup2\n      mstore\n        /* \"#utility.yul\":4689:4691   */\n      0x20\n        /* \"contracts/tokens/PropertyToken.sol\":1184:1249  require(msg.sender == owner(), \"Only owner can set property NFT\") */\n      0x04\n      dup3\n      add\n        /* \"#utility.yul\":4671:4692   */\n      mstore\n        /* \"#utility.yul\":4728:4730   */\n      0x1f\n        /* \"#utility.yul\":4708:4726   */\n      0x24\n      dup3\n      add\n        /* \"#utility.yul\":4701:4731   */\n      mstore\n        /* \"#utility.yul\":4767:4800   */\n      0x4f6e6c79206f776e65722063616e207365742070726f7065727479204e465400\n        /* \"#utility.yul\":4747:4765   */\n      0x44\n      dup3\n      add\n        /* \"#utility.yul\":4740:4801   */\n      mstore\n        /* \"#utility.yul\":4818:4836   */\n      0x64\n      add\n        /* \"contracts/tokens/PropertyToken.sol\":1184:1249  require(msg.sender == owner(), \"Only owner can set property NFT\") */\n      tag_112\n        /* \"#utility.yul\":4487:4842   */\n      jump\n        /* \"contracts/tokens/PropertyToken.sol\":1184:1249  require(msg.sender == owner(), \"Only owner can set property NFT\") */\n    tag_153:\n        /* \"contracts/tokens/PropertyToken.sol\":1259:1270  propertyNFT */\n      0x06\n        /* \"contracts/tokens/PropertyToken.sol\":1259:1285  propertyNFT = _propertyNFT */\n      dup1\n      sload\n      not(sub(shl(0xa0, 0x01), 0x01))\n      and\n      sub(shl(0xa0, 0x01), 0x01)\n      swap3\n      swap1\n      swap3\n      and\n      swap2\n      swap1\n      swap2\n      or\n      swap1\n      sstore\n        /* \"contracts/tokens/PropertyToken.sol\":1047:1292  function setPropertyNFT(address _propertyNFT) external {... */\n      jump\t// out\n        /* \"https://github.com/OpenZeppelin/openzeppelin-contracts/blob/v5.0.0/contracts/access/Ownable.sol\":2293:2394  function renounceOwnership() public virtual onlyOwner {... */\n    tag_79:\n        /* \"https://github.com/OpenZeppelin/openzeppelin-contracts/blob/v5.0.0/contracts/access/Ownable.sol\":1531:1544  _checkOwner() */\n      tag_158\n        /* \"https://github.com/OpenZeppelin/openzeppelin-contracts/blob/v5.0.0/contracts/access/Ownable.sol\":1531:1542  _checkOwner */\n      tag_138\n        /* \"https://github.com/OpenZeppelin/openzeppelin-contracts/blob/v5.0.0/contracts/access/Ownable.sol\":1531:1544  _checkOwner() */\n      jump\t// in\n    tag_158:\n        /* \"https://github.com/OpenZeppelin/openzeppelin-contracts/blob/v5.0.0/contracts/access/Ownable.sol\":2357:2387  _transferOwnership(address(0)) */\n      tag_160\n        /* \"https://github.com/OpenZeppelin/openzeppelin-contracts/blob/v5.0.0/contracts/access/Ownable.sol\":2384:2385  0 */\n      0x00\n        /* \"https://github.com/OpenZeppelin/openzeppelin-contracts/blob/v5.0.0/contracts/access/Ownable.sol\":2357:2375  _transferOwnership */\n      tag_161\n        /* \"https://github.com/OpenZeppelin/openzeppelin-contracts/blob/v5.0.0/contracts/access/Ownable.sol\":2357:2387  _transferOwnership(address(0)) */\n      jump\t// in\n    tag_160:\n        /* \"https://github.com/OpenZeppelin/openzeppelin-contracts/blob/v5.0.0/contracts/access/Ownable.sol\":2293:2394  function renounceOwnership() public virtual onlyOwner {... */\n      jump\t// out\n        /* \"https://github.com/OpenZeppelin/openzeppelin-contracts/blob/v5.0.0/contracts/token/ERC20/ERC20.sol\":2276:2369  function symbol() public view virtual returns (string memory) {... */\n    tag_89:\n        /* \"https://github.com/OpenZeppelin/openzeppelin-contracts/blob/v5.0.0/contracts/token/ERC20/ERC20.sol\":2323:2336  string memory */\n      0x60\n        /* \"https://github.com/OpenZeppelin/openzeppelin-contracts/blob/v5.0.0/contracts/token/ERC20/ERC20.sol\":2355:2362  _symbol */\n      0x04\n        /* \"https://github.com/OpenZeppelin/openzeppelin-contracts/blob/v5.0.0/contracts/token/ERC20/ERC20.sol\":2348:2362  return _symbol */\n      dup1\n      sload\n      tag_117\n      swap1\n      tag_118\n      jump\t// in\n        /* \"https://github.com/OpenZeppelin/openzeppelin-contracts/blob/v5.0.0/contracts/token/ERC20/ERC20.sol\":3610:3788  function transfer(address to, uint256 value) public virtual returns (bool) {... */\n    tag_94:\n        /* \"https://github.com/OpenZeppelin/openzeppelin-contracts/blob/v5.0.0/contracts/token/ERC20/ERC20.sol\":3679:3683  bool */\n      0x00\n        /* \"https://github.com/OpenZeppelin/openzeppelin-contracts/blob/v5.0.0/contracts/utils/Context.sol\":735:745  msg.sender */\n      caller\n        /* \"https://github.com/OpenZeppelin/openzeppelin-contracts/blob/v5.0.0/contracts/token/ERC20/ERC20.sol\":3733:3760  _transfer(owner, to, value) */\n      tag_126\n        /* \"https://github.com/OpenZeppelin/openzeppelin-contracts/blob/v5.0.0/contracts/utils/Context.sol\":735:745  msg.sender */\n      dup2\n        /* \"https://github.com/OpenZeppelin/openzeppelin-contracts/blob/v5.0.0/contracts/token/ERC20/ERC20.sol\":3750:3752  to */\n      dup6\n        /* \"https://github.com/OpenZeppelin/openzeppelin-contracts/blob/v5.0.0/contracts/token/ERC20/ERC20.sol\":3754:3759  value */\n      dup6\n        /* \"https://github.com/OpenZeppelin/openzeppelin-contracts/blob/v5.0.0/contracts/token/ERC20/ERC20.sol\":3733:3742  _transfer */\n      tag_134\n        /* \"https://github.com/OpenZeppelin/openzeppelin-contracts/blob/v5.0.0/contracts/token/ERC20/ERC20.sol\":3733:3760  _transfer(owner, to, value) */\n      jump\t// in\n        /* \"https://github.com/OpenZeppelin/openzeppelin-contracts/blob/v5.0.0/contracts/access/Ownable.sol\":2543:2758  function transferOwnership(address newOwner) public virtual onlyOwner {... */\n    tag_109:\n        /* \"https://github.com/OpenZeppelin/openzeppelin-contracts/blob/v5.0.0/contracts/access/Ownable.sol\":1531:1544  _checkOwner() */\n      tag_175\n        /* \"https://github.com/OpenZeppelin/openzeppelin-contracts/blob/v5.0.0/contracts/access/Ownable.sol\":1531:1542  _checkOwner */\n      tag_138\n        /* \"https://github.com/OpenZeppelin/openzeppelin-contracts/blob/v5.0.0/contracts/access/Ownable.sol\":1531:1544  _checkOwner() */\n      jump\t// in\n    tag_175:\n      sub(shl(0xa0, 0x01), 0x01)\n        /* \"https://github.com/OpenZeppelin/openzeppelin-contracts/blob/v5.0.0/contracts/access/Ownable.sol\":2627:2649  newOwner == address(0) */\n      dup2\n      and\n        /* \"https://github.com/OpenZeppelin/openzeppelin-contracts/blob/v5.0.0/contracts/access/Ownable.sol\":2623:2714  if (newOwner == address(0)) {... */\n      tag_177\n      jumpi\n        /* \"https://github.com/OpenZeppelin/openzeppelin-contracts/blob/v5.0.0/contracts/access/Ownable.sol\":2672:2703  OwnableInvalidOwner(address(0)) */\n      mload(0x40)\n      shl(0xe0, 0x1e4fbdf7)\n      dup2\n      mstore\n        /* \"https://github.com/OpenZeppelin/openzeppelin-contracts/blob/v5.0.0/contracts/access/Ownable.sol\":2700:2701  0 */\n      0x00\n        /* \"https://github.com/OpenZeppelin/openzeppelin-contracts/blob/v5.0.0/contracts/access/Ownable.sol\":2672:2703  OwnableInvalidOwner(address(0)) */\n      0x04\n      dup3\n      add\n        /* \"#utility.yul\":2046:2097   */\n      mstore\n        /* \"#utility.yul\":2019:2037   */\n      0x24\n      add\n        /* \"https://github.com/OpenZeppelin/openzeppelin-contracts/blob/v5.0.0/contracts/access/Ownable.sol\":2672:2703  OwnableInvalidOwner(address(0)) */\n      tag_112\n        /* \"#utility.yul\":1900:2103   */\n      jump\n        /* \"https://github.com/OpenZeppelin/openzeppelin-contracts/blob/v5.0.0/contracts/access/Ownable.sol\":2623:2714  if (newOwner == address(0)) {... */\n    tag_177:\n        /* \"https://github.com/OpenZeppelin/openzeppelin-contracts/blob/v5.0.0/contracts/access/Ownable.sol\":2723:2751  _transferOwnership(newOwner) */\n      tag_179\n        /* \"https://github.com/OpenZeppelin/openzeppelin-contracts/blob/v5.0.0/contracts/access/Ownable.sol\":2742:2750  newOwner */\n      dup2\n        /* \"https://github.com/OpenZeppelin/openzeppelin-contracts/blob/v5.0.0/contracts/access/Ownable.sol\":2723:2741  _transferOwnership */\n      tag_161\n        /* \"https://github.com/OpenZeppelin/openzeppelin-contracts/blob/v5.0.0/contracts/access/Ownable.sol\":2723:2751  _transferOwnership(newOwner) */\n      jump\t// in\n    tag_179:\n        /* \"https://github.com/OpenZeppelin/openzeppelin-contracts/blob/v5.0.0/contracts/access/Ownable.sol\":2543:2758  function transferOwnership(address newOwner) public virtual onlyOwner {... */\n      pop\n      jump\t// out\n        /* \"https://github.com/OpenZeppelin/openzeppelin-contracts/blob/v5.0.0/contracts/token/ERC20/ERC20.sol\":8989:9117  function _approve(address owner, address spender, uint256 value) internal {... */\n    tag_127:\n        /* \"https://github.com/OpenZeppelin/openzeppelin-contracts/blob/v5.0.0/contracts/token/ERC20/ERC20.sol\":9073:9110  _approve(owner, spender, value, true) */\n      tag_182\n        /* \"https://github.com/OpenZeppelin/openzeppelin-contracts/blob/v5.0.0/contracts/token/ERC20/ERC20.sol\":9082:9087  owner */\n      dup4\n        /* \"https://github.com/OpenZeppelin/openzeppelin-contracts/blob/v5.0.0/contracts/token/ERC20/ERC20.sol\":9089:9096  spender */\n      dup4\n        /* \"https://github.com/OpenZeppelin/openzeppelin-contracts/blob/v5.0.0/contracts/token/ERC20/ERC20.sol\":9098:9103  value */\n      dup4\n        /* \"https://github.com/OpenZeppelin/openzeppelin-contracts/blob/v5.0.0/contracts/token/ERC20/ERC20.sol\":9105:9109  true */\n      0x01\n        /* \"https://github.com/OpenZeppelin/openzeppelin-contracts/blob/v5.0.0/contracts/token/ERC20/ERC20.sol\":9073:9081  _approve */\n      tag_183\n        /* \"https://github.com/OpenZeppelin/openzeppelin-contracts/blob/v5.0.0/contracts/token/ERC20/ERC20.sol\":9073:9110  _approve(owner, spender, value, true) */\n      jump\t// in\n    tag_182:\n        /* \"https://github.com/OpenZeppelin/openzeppelin-contracts/blob/v5.0.0/contracts/token/ERC20/ERC20.sol\":8989:9117  function _approve(address owner, address spender, uint256 value) internal {... */\n      pop\n      pop\n      pop\n      jump\t// out\n        /* \"https://github.com/OpenZeppelin/openzeppelin-contracts/blob/v5.0.0/contracts/token/ERC20/ERC20.sol\":10663:11140  function _spendAllowance(address owner, address spender, uint256 value) internal virtual {... */\n    tag_132:\n      sub(shl(0xa0, 0x01), 0x01)\n        /* \"https://github.com/OpenZeppelin/openzeppelin-contracts/blob/v5.0.0/contracts/token/ERC20/ERC20.sol\":3952:3970  _allowances[owner] */\n      dup4\n      dup2\n      and\n        /* \"https://github.com/OpenZeppelin/openzeppelin-contracts/blob/v5.0.0/contracts/token/ERC20/ERC20.sol\":10762:10786  uint256 currentAllowance */\n      0x00\n        /* \"https://github.com/OpenZeppelin/openzeppelin-contracts/blob/v5.0.0/contracts/token/ERC20/ERC20.sol\":3952:3970  _allowances[owner] */\n      swap1\n      dup2\n      mstore\n        /* \"https://github.com/OpenZeppelin/openzeppelin-contracts/blob/v5.0.0/contracts/token/ERC20/ERC20.sol\":3952:3963  _allowances */\n      0x01\n        /* \"https://github.com/OpenZeppelin/openzeppelin-contracts/blob/v5.0.0/contracts/token/ERC20/ERC20.sol\":3952:3970  _allowances[owner] */\n      0x20\n      swap1\n      dup2\n      mstore\n      0x40\n      dup1\n      dup4\n      keccak256\n        /* \"https://github.com/OpenZeppelin/openzeppelin-contracts/blob/v5.0.0/contracts/token/ERC20/ERC20.sol\":3952:3979  _allowances[owner][spender] */\n      swap4\n      dup7\n      and\n      dup4\n      mstore\n      swap3\n      swap1\n      mstore\n      keccak256\n      sload\n      not(0x00)\n        /* \"https://github.com/OpenZeppelin/openzeppelin-contracts/blob/v5.0.0/contracts/token/ERC20/ERC20.sol\":10828:10865  currentAllowance != type(uint256).max */\n      dup2\n      eq\n        /* \"https://github.com/OpenZeppelin/openzeppelin-contracts/blob/v5.0.0/contracts/token/ERC20/ERC20.sol\":10824:11134  if (currentAllowance != type(uint256).max) {... */\n      tag_190\n      jumpi\n        /* \"https://github.com/OpenZeppelin/openzeppelin-contracts/blob/v5.0.0/contracts/token/ERC20/ERC20.sol\":10904:10909  value */\n      dup2\n        /* \"https://github.com/OpenZeppelin/openzeppelin-contracts/blob/v5.0.0/contracts/token/ERC20/ERC20.sol\":10885:10901  currentAllowance */\n      dup2\n        /* \"https://github.com/OpenZeppelin/openzeppelin-contracts/blob/v5.0.0/contracts/token/ERC20/ERC20.sol\":10885:10909  currentAllowance < value */\n      lt\n        /* \"https://github.com/OpenZeppelin/openzeppelin-contracts/blob/v5.0.0/contracts/token/ERC20/ERC20.sol\":10881:11011  if (currentAllowance < value) {... */\n      iszero\n      tag_187\n      jumpi\n        /* \"https://github.com/OpenZeppelin/openzeppelin-contracts/blob/v5.0.0/contracts/token/ERC20/ERC20.sol\":10936:10996  ERC20InsufficientAllowance(spender, currentAllowance, value) */\n      mload(0x40)\n      shl(0xe1, 0x7dc7a0d9)\n      dup2\n      mstore\n      sub(shl(0xa0, 0x01), 0x01)\n        /* \"#utility.yul\":5067:5099   */\n      dup5\n      and\n        /* \"https://github.com/OpenZeppelin/openzeppelin-contracts/blob/v5.0.0/contracts/token/ERC20/ERC20.sol\":10936:10996  ERC20InsufficientAllowance(spender, currentAllowance, value) */\n      0x04\n      dup3\n      add\n        /* \"#utility.yul\":5049:5100   */\n      mstore\n        /* \"#utility.yul\":5116:5134   */\n      0x24\n      dup2\n      add\n        /* \"#utility.yul\":5109:5143   */\n      dup3\n      swap1\n      mstore\n        /* \"#utility.yul\":5159:5177   */\n      0x44\n      dup2\n      add\n        /* \"#utility.yul\":5152:5186   */\n      dup4\n      swap1\n      mstore\n        /* \"#utility.yul\":5022:5040   */\n      0x64\n      add\n        /* \"https://github.com/OpenZeppelin/openzeppelin-contracts/blob/v5.0.0/contracts/token/ERC20/ERC20.sol\":10936:10996  ERC20InsufficientAllowance(spender, currentAllowance, value) */\n      tag_112\n        /* \"#utility.yul\":4847:5192   */\n      jump\n        /* \"https://github.com/OpenZeppelin/openzeppelin-contracts/blob/v5.0.0/contracts/token/ERC20/ERC20.sol\":10881:11011  if (currentAllowance < value) {... */\n    tag_187:\n        /* \"https://github.com/OpenZeppelin/openzeppelin-contracts/blob/v5.0.0/contracts/token/ERC20/ERC20.sol\":11052:11109  _approve(owner, spender, currentAllowance - value, false) */\n      tag_190\n        /* \"https://github.com/OpenZeppelin/openzeppelin-contracts/blob/v5.0.0/contracts/token/ERC20/ERC20.sol\":11061:11066  owner */\n      dup5\n        /* \"https://github.com/OpenZeppelin/openzeppelin-contracts/blob/v5.0.0/contracts/token/ERC20/ERC20.sol\":11068:11075  spender */\n      dup5\n        /* \"https://github.com/OpenZeppelin/openzeppelin-contracts/blob/v5.0.0/contracts/token/ERC20/ERC20.sol\":11096:11101  value */\n      dup5\n        /* \"https://github.com/OpenZeppelin/openzeppelin-contracts/blob/v5.0.0/contracts/token/ERC20/ERC20.sol\":11077:11093  currentAllowance */\n      dup5\n        /* \"https://github.com/OpenZeppelin/openzeppelin-contracts/blob/v5.0.0/contracts/token/ERC20/ERC20.sol\":11077:11101  currentAllowance - value */\n      sub\n        /* \"https://github.com/OpenZeppelin/openzeppelin-contracts/blob/v5.0.0/contracts/token/ERC20/ERC20.sol\":11103:11108  false */\n      0x00\n        /* \"https://github.com/OpenZeppelin/openzeppelin-contracts/blob/v5.0.0/contracts/token/ERC20/ERC20.sol\":11052:11060  _approve */\n      tag_183\n        /* \"https://github.com/OpenZeppelin/openzeppelin-contracts/blob/v5.0.0/contracts/token/ERC20/ERC20.sol\":11052:11109  _approve(owner, spender, currentAllowance - value, false) */\n      jump\t// in\n    tag_190:\n        /* \"https://github.com/OpenZeppelin/openzeppelin-contracts/blob/v5.0.0/contracts/token/ERC20/ERC20.sol\":10752:11140  {... */\n      pop\n        /* \"https://github.com/OpenZeppelin/openzeppelin-contracts/blob/v5.0.0/contracts/token/ERC20/ERC20.sol\":10663:11140  function _spendAllowance(address owner, address spender, uint256 value) internal virtual {... */\n      pop\n      pop\n      pop\n      jump\t// out\n        /* \"https://github.com/OpenZeppelin/openzeppelin-contracts/blob/v5.0.0/contracts/token/ERC20/ERC20.sol\":5656:5956  function _transfer(address from, address to, uint256 value) internal {... */\n    tag_134:\n      sub(shl(0xa0, 0x01), 0x01)\n        /* \"https://github.com/OpenZeppelin/openzeppelin-contracts/blob/v5.0.0/contracts/token/ERC20/ERC20.sol\":5739:5757  from == address(0) */\n      dup4\n      and\n        /* \"https://github.com/OpenZeppelin/openzeppelin-contracts/blob/v5.0.0/contracts/token/ERC20/ERC20.sol\":5735:5821  if (from == address(0)) {... */\n      tag_192\n      jumpi\n        /* \"https://github.com/OpenZeppelin/openzeppelin-contracts/blob/v5.0.0/contracts/token/ERC20/ERC20.sol\":5780:5810  ERC20InvalidSender(address(0)) */\n      mload(0x40)\n      shl(0xe1, 0x4b637e8f)\n      dup2\n      mstore\n        /* \"https://github.com/OpenZeppelin/openzeppelin-contracts/blob/v5.0.0/contracts/token/ERC20/ERC20.sol\":5807:5808  0 */\n      0x00\n        /* \"https://github.com/OpenZeppelin/openzeppelin-contracts/blob/v5.0.0/contracts/token/ERC20/ERC20.sol\":5780:5810  ERC20InvalidSender(address(0)) */\n      0x04\n      dup3\n      add\n        /* \"#utility.yul\":2046:2097   */\n      mstore\n        /* \"#utility.yul\":2019:2037   */\n      0x24\n      add\n        /* \"https://github.com/OpenZeppelin/openzeppelin-contracts/blob/v5.0.0/contracts/token/ERC20/ERC20.sol\":5780:5810  ERC20InvalidSender(address(0)) */\n      tag_112\n        /* \"#utility.yul\":1900:2103   */\n      jump\n        /* \"https://github.com/OpenZeppelin/openzeppelin-contracts/blob/v5.0.0/contracts/token/ERC20/ERC20.sol\":5735:5821  if (from == address(0)) {... */\n    tag_192:\n      sub(shl(0xa0, 0x01), 0x01)\n        /* \"https://github.com/OpenZeppelin/openzeppelin-contracts/blob/v5.0.0/contracts/token/ERC20/ERC20.sol\":5834:5850  to == address(0) */\n      dup3\n      and\n        /* \"https://github.com/OpenZeppelin/openzeppelin-contracts/blob/v5.0.0/contracts/token/ERC20/ERC20.sol\":5830:5916  if (to == address(0)) {... */\n      tag_194\n      jumpi\n        /* \"https://github.com/OpenZeppelin/openzeppelin-contracts/blob/v5.0.0/contracts/token/ERC20/ERC20.sol\":5873:5905  ERC20InvalidReceiver(address(0)) */\n      mload(0x40)\n      shl(0xe0, 0xec442f05)\n      dup2\n      mstore\n        /* \"https://github.com/OpenZeppelin/openzeppelin-contracts/blob/v5.0.0/contracts/token/ERC20/ERC20.sol\":5902:5903  0 */\n      0x00\n        /* \"https://github.com/OpenZeppelin/openzeppelin-contracts/blob/v5.0.0/contracts/token/ERC20/ERC20.sol\":5873:5905  ERC20InvalidReceiver(address(0)) */\n      0x04\n      dup3\n      add\n        /* \"#utility.yul\":2046:2097   */\n      mstore\n        /* \"#utility.yul\":2019:2037   */\n      0x24\n      add\n        /* \"https://github.com/OpenZeppelin/openzeppelin-contracts/blob/v5.0.0/contracts/token/ERC20/ERC20.sol\":5873:5905  ERC20InvalidReceiver(address(0)) */\n      tag_112\n        /* \"#utility.yul\":1900:2103   */\n      jump\n        /* \"https://github.com/OpenZeppelin/openzeppelin-contracts/blob/v5.0.0/contracts/token/ERC20/ERC20.sol\":5830:5916  if (to == address(0)) {... */\n    tag_194:\n        /* \"https://github.com/OpenZeppelin/openzeppelin-contracts/blob/v5.0.0/contracts/token/ERC20/ERC20.sol\":5925:5949  _update(from, to, value) */\n      tag_182\n        /* \"https://github.com/OpenZeppelin/openzeppelin-contracts/blob/v5.0.0/contracts/token/ERC20/ERC20.sol\":5933:5937  from */\n      dup4\n        /* \"https://github.com/OpenZeppelin/openzeppelin-contracts/blob/v5.0.0/contracts/token/ERC20/ERC20.sol\":5939:5941  to */\n      dup4\n        /* \"https://github.com/OpenZeppelin/openzeppelin-contracts/blob/v5.0.0/contracts/token/ERC20/ERC20.sol\":5943:5948  value */\n      dup4\n        /* \"https://github.com/OpenZeppelin/openzeppelin-contracts/blob/v5.0.0/contracts/token/ERC20/ERC20.sol\":5925:5932  _update */\n      tag_197\n        /* \"https://github.com/OpenZeppelin/openzeppelin-contracts/blob/v5.0.0/contracts/token/ERC20/ERC20.sol\":5925:5949  _update(from, to, value) */\n      jump\t// in\n        /* \"https://github.com/OpenZeppelin/openzeppelin-contracts/blob/v5.0.0/contracts/access/Ownable.sol\":1796:1958  function _checkOwner() internal view virtual {... */\n    tag_138:\n        /* \"https://github.com/OpenZeppelin/openzeppelin-contracts/blob/v5.0.0/contracts/access/Ownable.sol\":1710:1716  _owner */\n      and(sub(shl(0xa0, 0x01), 0x01), sload(0x05))\n        /* \"https://github.com/OpenZeppelin/openzeppelin-contracts/blob/v5.0.0/contracts/utils/Context.sol\":735:745  msg.sender */\n      caller\n        /* \"https://github.com/OpenZeppelin/openzeppelin-contracts/blob/v5.0.0/contracts/access/Ownable.sol\":1855:1878  owner() != _msgSender() */\n      eq\n        /* \"https://github.com/OpenZeppelin/openzeppelin-contracts/blob/v5.0.0/contracts/access/Ownable.sol\":1851:1952  if (owner() != _msgSender()) {... */\n      tag_160\n      jumpi\n        /* \"https://github.com/OpenZeppelin/openzeppelin-contracts/blob/v5.0.0/contracts/access/Ownable.sol\":1901:1941  OwnableUnauthorizedAccount(_msgSender()) */\n      mload(0x40)\n      shl(0xe0, 0x118cdaa7)\n      dup2\n      mstore\n        /* \"https://github.com/OpenZeppelin/openzeppelin-contracts/blob/v5.0.0/contracts/utils/Context.sol\":735:745  msg.sender */\n      caller\n        /* \"https://github.com/OpenZeppelin/openzeppelin-contracts/blob/v5.0.0/contracts/access/Ownable.sol\":1901:1941  OwnableUnauthorizedAccount(_msgSender()) */\n      0x04\n      dup3\n      add\n        /* \"#utility.yul\":2046:2097   */\n      mstore\n        /* \"#utility.yul\":2019:2037   */\n      0x24\n      add\n        /* \"https://github.com/OpenZeppelin/openzeppelin-contracts/blob/v5.0.0/contracts/access/Ownable.sol\":1901:1941  OwnableUnauthorizedAccount(_msgSender()) */\n      tag_112\n        /* \"#utility.yul\":1900:2103   */\n      jump\n        /* \"https://github.com/OpenZeppelin/openzeppelin-contracts/blob/v5.0.0/contracts/token/ERC20/ERC20.sol\":7721:7929  function _mint(address account, uint256 value) internal {... */\n    tag_147:\n      sub(shl(0xa0, 0x01), 0x01)\n        /* \"https://github.com/OpenZeppelin/openzeppelin-contracts/blob/v5.0.0/contracts/token/ERC20/ERC20.sol\":7791:7812  account == address(0) */\n      dup3\n      and\n        /* \"https://github.com/OpenZeppelin/openzeppelin-contracts/blob/v5.0.0/contracts/token/ERC20/ERC20.sol\":7787:7878  if (account == address(0)) {... */\n      tag_205\n      jumpi\n        /* \"https://github.com/OpenZeppelin/openzeppelin-contracts/blob/v5.0.0/contracts/token/ERC20/ERC20.sol\":7835:7867  ERC20InvalidReceiver(address(0)) */\n      mload(0x40)\n      shl(0xe0, 0xec442f05)\n      dup2\n      mstore\n        /* \"https://github.com/OpenZeppelin/openzeppelin-contracts/blob/v5.0.0/contracts/token/ERC20/ERC20.sol\":7864:7865  0 */\n      0x00\n        /* \"https://github.com/OpenZeppelin/openzeppelin-contracts/blob/v5.0.0/contracts/token/ERC20/ERC20.sol\":7835:7867  ERC20InvalidReceiver(address(0)) */\n      0x04\n      dup3\n      add\n        /* \"#utility.yul\":2046:2097   */\n      mstore\n        /* \"#utility.yul\":2019:2037   */\n      0x24\n      add\n        /* \"https://github.com/OpenZeppelin/openzeppelin-contracts/blob/v5.0.0/contracts/token/ERC20/ERC20.sol\":7835:7867  ERC20InvalidReceiver(address(0)) */\n      tag_112\n        /* \"#utility.yul\":1900:2103   */\n      jump\n        /* \"https://github.com/OpenZeppelin/openzeppelin-contracts/blob/v5.0.0/contracts/token/ERC20/ERC20.sol\":7787:7878  if (account == address(0)) {... */\n    tag_205:\n        /* \"https://github.com/OpenZeppelin/openzeppelin-contracts/blob/v5.0.0/contracts/token/ERC20/ERC20.sol\":7887:7922  _update(address(0), account, value) */\n      tag_146\n        /* \"https://github.com/OpenZeppelin/openzeppelin-contracts/blob/v5.0.0/contracts/token/ERC20/ERC20.sol\":7903:7904  0 */\n      0x00\n        /* \"https://github.com/OpenZeppelin/openzeppelin-contracts/blob/v5.0.0/contracts/token/ERC20/ERC20.sol\":7907:7914  account */\n      dup4\n        /* \"https://github.com/OpenZeppelin/openzeppelin-contracts/blob/v5.0.0/contracts/token/ERC20/ERC20.sol\":7916:7921  value */\n      dup4\n        /* \"https://github.com/OpenZeppelin/openzeppelin-contracts/blob/v5.0.0/contracts/token/ERC20/ERC20.sol\":7887:7894  _update */\n      tag_197\n        /* \"https://github.com/OpenZeppelin/openzeppelin-contracts/blob/v5.0.0/contracts/token/ERC20/ERC20.sol\":7887:7922  _update(address(0), account, value) */\n      jump\t// in\n        /* \"https://github.com/OpenZeppelin/openzeppelin-contracts/blob/v5.0.0/contracts/access/Ownable.sol\":2912:3099  function _transferOwnership(address newOwner) internal virtual {... */\n    tag_161:\n        /* \"https://github.com/OpenZeppelin/openzeppelin-contracts/blob/v5.0.0/contracts/access/Ownable.sol\":3004:3010  _owner */\n      0x05\n      dup1\n      sload\n      sub(shl(0xa0, 0x01), 0x01)\n        /* \"https://github.com/OpenZeppelin/openzeppelin-contracts/blob/v5.0.0/contracts/access/Ownable.sol\":3020:3037  _owner = newOwner */\n      dup4\n      dup2\n      and\n      not(sub(shl(0xa0, 0x01), 0x01))\n      dup4\n      and\n      dup2\n      or\n      swap1\n      swap4\n      sstore\n        /* \"https://github.com/OpenZeppelin/openzeppelin-contracts/blob/v5.0.0/contracts/access/Ownable.sol\":3052:3092  OwnershipTransferred(oldOwner, newOwner) */\n      mload(0x40)\n        /* \"https://github.com/OpenZeppelin/openzeppelin-contracts/blob/v5.0.0/contracts/access/Ownable.sol\":3004:3010  _owner */\n      swap2\n      and\n      swap2\n        /* \"https://github.com/OpenZeppelin/openzeppelin-contracts/blob/v5.0.0/contracts/access/Ownable.sol\":3020:3037  _owner = newOwner */\n      swap1\n        /* \"https://github.com/OpenZeppelin/openzeppelin-contracts/blob/v5.0.0/contracts/access/Ownable.sol\":3004:3010  _owner */\n      dup3\n      swap1\n        /* \"https://github.com/OpenZeppelin/openzeppelin-contracts/blob/v5.0.0/contracts/access/Ownable.sol\":3052:3092  OwnershipTransferred(oldOwner, newOwner) */\n      0x8be0079c531659141344cd1fd0a4f28419497f9722a3daafe3b4186f6b6457e0\n      swap1\n        /* \"https://github.com/OpenZeppelin/openzeppelin-contracts/blob/v5.0.0/contracts/access/Ownable.sol\":2985:3001  address oldOwner */\n      0x00\n      swap1\n        /* \"https://github.com/OpenZeppelin/openzeppelin-contracts/blob/v5.0.0/contracts/access/Ownable.sol\":3052:3092  OwnershipTransferred(oldOwner, newOwner) */\n      log3\n        /* \"https://github.com/OpenZeppelin/openzeppelin-contracts/blob/v5.0.0/contracts/access/Ownable.sol\":2975:3099  {... */\n      pop\n        /* \"https://github.com/OpenZeppelin/openzeppelin-contracts/blob/v5.0.0/contracts/access/Ownable.sol\":2912:3099  function _transferOwnership(address newOwner) internal virtual {... */\n      pop\n      jump\t// out\n        /* \"https://github.com/OpenZeppelin/openzeppelin-contracts/blob/v5.0.0/contracts/token/ERC20/ERC20.sol\":9949:10381  function _approve(address owner, address spender, uint256 value, bool emitEvent) internal virtual {... */\n    tag_183:\n      sub(shl(0xa0, 0x01), 0x01)\n        /* \"https://github.com/OpenZeppelin/openzeppelin-contracts/blob/v5.0.0/contracts/token/ERC20/ERC20.sol\":10061:10080  owner == address(0) */\n      dup5\n      and\n        /* \"https://github.com/OpenZeppelin/openzeppelin-contracts/blob/v5.0.0/contracts/token/ERC20/ERC20.sol\":10057:10146  if (owner == address(0)) {... */\n      tag_210\n      jumpi\n        /* \"https://github.com/OpenZeppelin/openzeppelin-contracts/blob/v5.0.0/contracts/token/ERC20/ERC20.sol\":10103:10135  ERC20InvalidApprover(address(0)) */\n      mload(0x40)\n      shl(0xe0, 0xe602df05)\n      dup2\n      mstore\n        /* \"https://github.com/OpenZeppelin/openzeppelin-contracts/blob/v5.0.0/contracts/token/ERC20/ERC20.sol\":10132:10133  0 */\n      0x00\n        /* \"https://github.com/OpenZeppelin/openzeppelin-contracts/blob/v5.0.0/contracts/token/ERC20/ERC20.sol\":10103:10135  ERC20InvalidApprover(address(0)) */\n      0x04\n      dup3\n      add\n        /* \"#utility.yul\":2046:2097   */\n      mstore\n        /* \"#utility.yul\":2019:2037   */\n      0x24\n      add\n        /* \"https://github.com/OpenZeppelin/openzeppelin-contracts/blob/v5.0.0/contracts/token/ERC20/ERC20.sol\":10103:10135  ERC20InvalidApprover(address(0)) */\n      tag_112\n        /* \"#utility.yul\":1900:2103   */\n      jump\n        /* \"https://github.com/OpenZeppelin/openzeppelin-contracts/blob/v5.0.0/contracts/token/ERC20/ERC20.sol\":10057:10146  if (owner == address(0)) {... */\n    tag_210:\n      sub(shl(0xa0, 0x01), 0x01)\n        /* \"https://github.com/OpenZeppelin/openzeppelin-contracts/blob/v5.0.0/contracts/token/ERC20/ERC20.sol\":10159:10180  spender == address(0) */\n      dup4\n      and\n        /* \"https://github.com/OpenZeppelin/openzeppelin-contracts/blob/v5.0.0/contracts/token/ERC20/ERC20.sol\":10155:10245  if (spender == address(0)) {... */\n      tag_212\n      jumpi\n        /* \"https://github.com/OpenZeppelin/openzeppelin-contracts/blob/v5.0.0/contracts/token/ERC20/ERC20.sol\":10203:10234  ERC20InvalidSpender(address(0)) */\n      mload(0x40)\n      shl(0xe1, 0x4a1406b1)\n      dup2\n      mstore\n        /* \"https://github.com/OpenZeppelin/openzeppelin-contracts/blob/v5.0.0/contracts/token/ERC20/ERC20.sol\":10231:10232  0 */\n      0x00\n        /* \"https://github.com/OpenZeppelin/openzeppelin-contracts/blob/v5.0.0/contracts/token/ERC20/ERC20.sol\":10203:10234  ERC20InvalidSpender(address(0)) */\n      0x04\n      dup3\n      add\n        /* \"#utility.yul\":2046:2097   */\n      mstore\n        /* \"#utility.yul\":2019:2037   */\n      0x24\n      add\n        /* \"https://github.com/OpenZeppelin/openzeppelin-contracts/blob/v5.0.0/contracts/token/ERC20/ERC20.sol\":10203:10234  ERC20InvalidSpender(address(0)) */\n      tag_112\n        /* \"#utility.yul\":1900:2103   */\n      jump\n        /* \"https://github.com/OpenZeppelin/openzeppelin-contracts/blob/v5.0.0/contracts/token/ERC20/ERC20.sol\":10155:10245  if (spender == address(0)) {... */\n    tag_212:\n      sub(shl(0xa0, 0x01), 0x01)\n        /* \"https://github.com/OpenZeppelin/openzeppelin-contracts/blob/v5.0.0/contracts/token/ERC20/ERC20.sol\":10254:10272  _allowances[owner] */\n      dup1\n      dup6\n      and\n      0x00\n      swap1\n      dup2\n      mstore\n        /* \"https://github.com/OpenZeppelin/openzeppelin-contracts/blob/v5.0.0/contracts/token/ERC20/ERC20.sol\":10254:10265  _allowances */\n      0x01\n        /* \"https://github.com/OpenZeppelin/openzeppelin-contracts/blob/v5.0.0/contracts/token/ERC20/ERC20.sol\":10254:10272  _allowances[owner] */\n      0x20\n      swap1\n      dup2\n      mstore\n      0x40\n      dup1\n      dup4\n      keccak256\n        /* \"https://github.com/OpenZeppelin/openzeppelin-contracts/blob/v5.0.0/contracts/token/ERC20/ERC20.sol\":10254:10281  _allowances[owner][spender] */\n      swap4\n      dup8\n      and\n      dup4\n      mstore\n      swap3\n      swap1\n      mstore\n      keccak256\n        /* \"https://github.com/OpenZeppelin/openzeppelin-contracts/blob/v5.0.0/contracts/token/ERC20/ERC20.sol\":10254:10289  _allowances[owner][spender] = value */\n      dup3\n      swap1\n      sstore\n        /* \"https://github.com/OpenZeppelin/openzeppelin-contracts/blob/v5.0.0/contracts/token/ERC20/ERC20.sol\":10299:10375  if (emitEvent) {... */\n      dup1\n      iszero\n      tag_190\n      jumpi\n        /* \"https://github.com/OpenZeppelin/openzeppelin-contracts/blob/v5.0.0/contracts/token/ERC20/ERC20.sol\":10349:10356  spender */\n      dup3\n      sub(shl(0xa0, 0x01), 0x01)\n        /* \"https://github.com/OpenZeppelin/openzeppelin-contracts/blob/v5.0.0/contracts/token/ERC20/ERC20.sol\":10333:10364  Approval(owner, spender, value) */\n      and\n        /* \"https://github.com/OpenZeppelin/openzeppelin-contracts/blob/v5.0.0/contracts/token/ERC20/ERC20.sol\":10342:10347  owner */\n      dup5\n      sub(shl(0xa0, 0x01), 0x01)\n        /* \"https://github.com/OpenZeppelin/openzeppelin-contracts/blob/v5.0.0/contracts/token/ERC20/ERC20.sol\":10333:10364  Approval(owner, spender, value) */\n      and\n      0x8c5be1e5ebec7d5bd14f71427d1e84f3dd0314c0f7b2291e5b200ac8c7c3b925\n        /* \"https://github.com/OpenZeppelin/openzeppelin-contracts/blob/v5.0.0/contracts/token/ERC20/ERC20.sol\":10358:10363  value */\n      dup5\n        /* \"https://github.com/OpenZeppelin/openzeppelin-contracts/blob/v5.0.0/contracts/token/ERC20/ERC20.sol\":10333:10364  Approval(owner, spender, value) */\n      mload(0x40)\n      tag_215\n      swap2\n        /* \"#utility.yul\":1342:1367   */\n      dup2\n      mstore\n        /* \"#utility.yul\":1330:1332   */\n      0x20\n        /* \"#utility.yul\":1315:1333   */\n      add\n      swap1\n        /* \"#utility.yul\":1196:1373   */\n      jump\n        /* \"https://github.com/OpenZeppelin/openzeppelin-contracts/blob/v5.0.0/contracts/token/ERC20/ERC20.sol\":10333:10364  Approval(owner, spender, value) */\n    tag_215:\n      mload(0x40)\n      dup1\n      swap2\n      sub\n      swap1\n      log3\n        /* \"https://github.com/OpenZeppelin/openzeppelin-contracts/blob/v5.0.0/contracts/token/ERC20/ERC20.sol\":9949:10381  function _approve(address owner, address spender, uint256 value, bool emitEvent) internal virtual {... */\n      pop\n      pop\n      pop\n      pop\n      jump\t// out\n        /* \"https://github.com/OpenZeppelin/openzeppelin-contracts/blob/v5.0.0/contracts/token/ERC20/ERC20.sol\":6271:7378  function _update(address from, address to, uint256 value) internal virtual {... */\n    tag_197:\n      sub(shl(0xa0, 0x01), 0x01)\n        /* \"https://github.com/OpenZeppelin/openzeppelin-contracts/blob/v5.0.0/contracts/token/ERC20/ERC20.sol\":6360:6378  from == address(0) */\n      dup4\n      and\n        /* \"https://github.com/OpenZeppelin/openzeppelin-contracts/blob/v5.0.0/contracts/token/ERC20/ERC20.sol\":6356:6896  if (from == address(0)) {... */\n      tag_217\n      jumpi\n        /* \"https://github.com/OpenZeppelin/openzeppelin-contracts/blob/v5.0.0/contracts/token/ERC20/ERC20.sol\":6512:6517  value */\n      dup1\n        /* \"https://github.com/OpenZeppelin/openzeppelin-contracts/blob/v5.0.0/contracts/token/ERC20/ERC20.sol\":6496:6508  _totalSupply */\n      0x02\n      0x00\n        /* \"https://github.com/OpenZeppelin/openzeppelin-contracts/blob/v5.0.0/contracts/token/ERC20/ERC20.sol\":6496:6517  _totalSupply += value */\n      dup3\n      dup3\n      sload\n      tag_218\n      swap2\n      swap1\n      tag_142\n      jump\t// in\n    tag_218:\n      swap1\n      swap2\n      sstore\n      pop\n        /* \"https://github.com/OpenZeppelin/openzeppelin-contracts/blob/v5.0.0/contracts/token/ERC20/ERC20.sol\":6356:6896  if (from == address(0)) {... */\n      tag_219\n      swap1\n      pop\n      jump\n    tag_217:\n      sub(shl(0xa0, 0x01), 0x01)\n        /* \"https://github.com/OpenZeppelin/openzeppelin-contracts/blob/v5.0.0/contracts/token/ERC20/ERC20.sol\":6570:6585  _balances[from] */\n      dup4\n      and\n        /* \"https://github.com/OpenZeppelin/openzeppelin-contracts/blob/v5.0.0/contracts/token/ERC20/ERC20.sol\":6548:6567  uint256 fromBalance */\n      0x00\n        /* \"https://github.com/OpenZeppelin/openzeppelin-contracts/blob/v5.0.0/contracts/token/ERC20/ERC20.sol\":6570:6585  _balances[from] */\n      swap1\n      dup2\n      mstore\n      0x20\n      dup2\n      swap1\n      mstore\n      0x40\n      swap1\n      keccak256\n      sload\n        /* \"https://github.com/OpenZeppelin/openzeppelin-contracts/blob/v5.0.0/contracts/token/ERC20/ERC20.sol\":6603:6622  fromBalance < value */\n      dup2\n      dup2\n      lt\n        /* \"https://github.com/OpenZeppelin/openzeppelin-contracts/blob/v5.0.0/contracts/token/ERC20/ERC20.sol\":6599:6714  if (fromBalance < value) {... */\n      iszero\n      tag_220\n      jumpi\n        /* \"https://github.com/OpenZeppelin/openzeppelin-contracts/blob/v5.0.0/contracts/token/ERC20/ERC20.sol\":6649:6699  ERC20InsufficientBalance(from, fromBalance, value) */\n      mload(0x40)\n      shl(0xe2, 0x391434e3)\n      dup2\n      mstore\n      sub(shl(0xa0, 0x01), 0x01)\n        /* \"#utility.yul\":5067:5099   */\n      dup6\n      and\n        /* \"https://github.com/OpenZeppelin/openzeppelin-contracts/blob/v5.0.0/contracts/token/ERC20/ERC20.sol\":6649:6699  ERC20InsufficientBalance(from, fromBalance, value) */\n      0x04\n      dup3\n      add\n        /* \"#utility.yul\":5049:5100   */\n      mstore\n        /* \"#utility.yul\":5116:5134   */\n      0x24\n      dup2\n      add\n        /* \"#utility.yul\":5109:5143   */\n      dup3\n      swap1\n      mstore\n        /* \"#utility.yul\":5159:5177   */\n      0x44\n      dup2\n      add\n        /* \"#utility.yul\":5152:5186   */\n      dup4\n      swap1\n      mstore\n        /* \"#utility.yul\":5022:5040   */\n      0x64\n      add\n        /* \"https://github.com/OpenZeppelin/openzeppelin-contracts/blob/v5.0.0/contracts/token/ERC20/ERC20.sol\":6649:6699  ERC20InsufficientBalance(from, fromBalance, value) */\n      tag_112\n        /* \"#utility.yul\":4847:5192   */\n      jump\n        /* \"https://github.com/OpenZeppelin/openzeppelin-contracts/blob/v5.0.0/contracts/token/ERC20/ERC20.sol\":6599:6714  if (fromBalance < value) {... */\n    tag_220:\n      sub(shl(0xa0, 0x01), 0x01)\n        /* \"https://github.com/OpenZeppelin/openzeppelin-contracts/blob/v5.0.0/contracts/token/ERC20/ERC20.sol\":6834:6849  _balances[from] */\n      dup5\n      and\n        /* \"https://github.com/OpenZeppelin/openzeppelin-contracts/blob/v5.0.0/contracts/token/ERC20/ERC20.sol\":6834:6843  _balances */\n      0x00\n        /* \"https://github.com/OpenZeppelin/openzeppelin-contracts/blob/v5.0.0/contracts/token/ERC20/ERC20.sol\":6834:6849  _balances[from] */\n      swap1\n      dup2\n      mstore\n      0x20\n      dup2\n      swap1\n      mstore\n      0x40\n      swap1\n      keccak256\n        /* \"https://github.com/OpenZeppelin/openzeppelin-contracts/blob/v5.0.0/contracts/token/ERC20/ERC20.sol\":6852:6871  fromBalance - value */\n      swap1\n      dup3\n      swap1\n      sub\n        /* \"https://github.com/OpenZeppelin/openzeppelin-contracts/blob/v5.0.0/contracts/token/ERC20/ERC20.sol\":6834:6871  _balances[from] = fromBalance - value */\n      swap1\n      sstore\n        /* \"https://github.com/OpenZeppelin/openzeppelin-contracts/blob/v5.0.0/contracts/token/ERC20/ERC20.sol\":6356:6896  if (from == address(0)) {... */\n    tag_219:\n      sub(shl(0xa0, 0x01), 0x01)\n        /* \"https://github.com/OpenZeppelin/openzeppelin-contracts/blob/v5.0.0/contracts/token/ERC20/ERC20.sol\":6910:6926  to == address(0) */\n      dup3\n      and\n        /* \"https://github.com/OpenZeppelin/openzeppelin-contracts/blob/v5.0.0/contracts/token/ERC20/ERC20.sol\":6906:7331  if (to == address(0)) {... */\n      tag_222\n      jumpi\n        /* \"https://github.com/OpenZeppelin/openzeppelin-contracts/blob/v5.0.0/contracts/token/ERC20/ERC20.sol\":7073:7085  _totalSupply */\n      0x02\n        /* \"https://github.com/OpenZeppelin/openzeppelin-contracts/blob/v5.0.0/contracts/token/ERC20/ERC20.sol\":7073:7094  _totalSupply -= value */\n      dup1\n      sload\n      dup3\n      swap1\n      sub\n      swap1\n      sstore\n        /* \"https://github.com/OpenZeppelin/openzeppelin-contracts/blob/v5.0.0/contracts/token/ERC20/ERC20.sol\":6906:7331  if (to == address(0)) {... */\n      jump(tag_223)\n    tag_222:\n      sub(shl(0xa0, 0x01), 0x01)\n        /* \"https://github.com/OpenZeppelin/openzeppelin-contracts/blob/v5.0.0/contracts/token/ERC20/ERC20.sol\":7284:7297  _balances[to] */\n      dup3\n      and\n        /* \"https://github.com/OpenZeppelin/openzeppelin-contracts/blob/v5.0.0/contracts/token/ERC20/ERC20.sol\":7284:7293  _balances */\n      0x00\n        /* \"https://github.com/OpenZeppelin/openzeppelin-contracts/blob/v5.0.0/contracts/token/ERC20/ERC20.sol\":7284:7297  _balances[to] */\n      swap1\n      dup2\n      mstore\n      0x20\n      dup2\n      swap1\n      mstore\n      0x40\n      swap1\n      keccak256\n        /* \"https://github.com/OpenZeppelin/openzeppelin-contracts/blob/v5.0.0/contracts/token/ERC20/ERC20.sol\":7284:7306  _balances[to] += value */\n      dup1\n      sload\n      dup3\n      add\n      swap1\n      sstore\n        /* \"https://github.com/OpenZeppelin/openzeppelin-contracts/blob/v5.0.0/contracts/token/ERC20/ERC20.sol\":6906:7331  if (to == address(0)) {... */\n    tag_223:\n        /* \"https://github.com/OpenZeppelin/openzeppelin-contracts/blob/v5.0.0/contracts/token/ERC20/ERC20.sol\":7361:7363  to */\n      dup2\n      sub(shl(0xa0, 0x01), 0x01)\n        /* \"https://github.com/OpenZeppelin/openzeppelin-contracts/blob/v5.0.0/contracts/token/ERC20/ERC20.sol\":7346:7371  Transfer(from, to, value) */\n      and\n        /* \"https://github.com/OpenZeppelin/openzeppelin-contracts/blob/v5.0.0/contracts/token/ERC20/ERC20.sol\":7355:7359  from */\n      dup4\n      sub(shl(0xa0, 0x01), 0x01)\n        /* \"https://github.com/OpenZeppelin/openzeppelin-contracts/blob/v5.0.0/contracts/token/ERC20/ERC20.sol\":7346:7371  Transfer(from, to, value) */\n      and\n      0xddf252ad1be2c89b69c2b068fc378daa952ba7f163c4a11628f55a4df523b3ef\n        /* \"https://github.com/OpenZeppelin/openzeppelin-contracts/blob/v5.0.0/contracts/token/ERC20/ERC20.sol\":7365:7370  value */\n      dup4\n        /* \"https://github.com/OpenZeppelin/openzeppelin-contracts/blob/v5.0.0/contracts/token/ERC20/ERC20.sol\":7346:7371  Transfer(from, to, value) */\n      mload(0x40)\n      tag_224\n      swap2\n        /* \"#utility.yul\":1342:1367   */\n      dup2\n      mstore\n        /* \"#utility.yul\":1330:1332   */\n      0x20\n        /* \"#utility.yul\":1315:1333   */\n      add\n      swap1\n        /* \"#utility.yul\":1196:1373   */\n      jump\n        /* \"https://github.com/OpenZeppelin/openzeppelin-contracts/blob/v5.0.0/contracts/token/ERC20/ERC20.sol\":7346:7371  Transfer(from, to, value) */\n    tag_224:\n      mload(0x40)\n      dup1\n      swap2\n      sub\n      swap1\n      log3\n        /* \"https://github.com/OpenZeppelin/openzeppelin-contracts/blob/v5.0.0/contracts/token/ERC20/ERC20.sol\":6271:7378  function _update(address from, address to, uint256 value) internal virtual {... */\n      pop\n      pop\n      pop\n      jump\t// out\n        /* \"#utility.yul\":14:562   */\n    tag_30:\n        /* \"#utility.yul\":126:130   */\n      0x00\n        /* \"#utility.yul\":155:157   */\n      0x20\n        /* \"#utility.yul\":184:186   */\n      dup1\n        /* \"#utility.yul\":173:182   */\n      dup4\n        /* \"#utility.yul\":166:187   */\n      mstore\n        /* \"#utility.yul\":216:222   */\n      dup4\n        /* \"#utility.yul\":210:223   */\n      mload\n        /* \"#utility.yul\":259:265   */\n      dup1\n        /* \"#utility.yul\":254:256   */\n      dup3\n        /* \"#utility.yul\":243:252   */\n      dup6\n        /* \"#utility.yul\":239:257   */\n      add\n        /* \"#utility.yul\":232:266   */\n      mstore\n        /* \"#utility.yul\":284:285   */\n      0x00\n        /* \"#utility.yul\":294:434   */\n    tag_228:\n        /* \"#utility.yul\":308:314   */\n      dup2\n        /* \"#utility.yul\":305:306   */\n      dup2\n        /* \"#utility.yul\":302:315   */\n      lt\n        /* \"#utility.yul\":294:434   */\n      iszero\n      tag_230\n      jumpi\n        /* \"#utility.yul\":403:417   */\n      dup6\n      dup2\n      add\n        /* \"#utility.yul\":399:422   */\n      dup4\n      add\n        /* \"#utility.yul\":393:423   */\n      mload\n        /* \"#utility.yul\":369:386   */\n      dup6\n      dup3\n      add\n        /* \"#utility.yul\":388:390   */\n      0x40\n        /* \"#utility.yul\":365:391   */\n      add\n        /* \"#utility.yul\":358:424   */\n      mstore\n        /* \"#utility.yul\":323:333   */\n      dup3\n      add\n        /* \"#utility.yul\":294:434   */\n      jump(tag_228)\n    tag_230:\n        /* \"#utility.yul\":298:301   */\n      pop\n        /* \"#utility.yul\":483:484   */\n      0x00\n        /* \"#utility.yul\":478:480   */\n      0x40\n        /* \"#utility.yul\":469:475   */\n      dup3\n        /* \"#utility.yul\":458:467   */\n      dup7\n        /* \"#utility.yul\":454:476   */\n      add\n        /* \"#utility.yul\":450:481   */\n      add\n        /* \"#utility.yul\":443:485   */\n      mstore\n        /* \"#utility.yul\":553:555   */\n      0x40\n        /* \"#utility.yul\":546:548   */\n      0x1f\n        /* \"#utility.yul\":542:549   */\n      not\n        /* \"#utility.yul\":537:539   */\n      0x1f\n        /* \"#utility.yul\":529:535   */\n      dup4\n        /* \"#utility.yul\":525:540   */\n      add\n        /* \"#utility.yul\":521:550   */\n      and\n        /* \"#utility.yul\":510:519   */\n      dup6\n        /* \"#utility.yul\":506:551   */\n      add\n        /* \"#utility.yul\":502:556   */\n      add\n        /* \"#utility.yul\":494:556   */\n      swap3\n      pop\n      pop\n      pop\n        /* \"#utility.yul\":14:562   */\n      swap3\n      swap2\n      pop\n      pop\n      jump\t// out\n        /* \"#utility.yul\":567:740   */\n    tag_225:\n        /* \"#utility.yul\":635:655   */\n      dup1\n      calldataload\n      sub(shl(0xa0, 0x01), 0x01)\n        /* \"#utility.yul\":684:715   */\n      dup2\n      and\n        /* \"#utility.yul\":674:716   */\n      dup2\n      eq\n        /* \"#utility.yul\":664:734   */\n      tag_232\n      jumpi\n        /* \"#utility.yul\":730:731   */\n      0x00\n        /* \"#utility.yul\":727:728   */\n      dup1\n        /* \"#utility.yul\":720:732   */\n      revert\n        /* \"#utility.yul\":664:734   */\n    tag_232:\n        /* \"#utility.yul\":567:740   */\n      swap2\n      swap1\n      pop\n      jump\t// out\n        /* \"#utility.yul\":745:999   */\n    tag_34:\n        /* \"#utility.yul\":813:819   */\n      0x00\n        /* \"#utility.yul\":821:827   */\n      dup1\n        /* \"#utility.yul\":874:876   */\n      0x40\n        /* \"#utility.yul\":862:871   */\n      dup4\n        /* \"#utility.yul\":853:860   */\n      dup6\n        /* \"#utility.yul\":849:872   */\n      sub\n        /* \"#utility.yul\":845:877   */\n      slt\n        /* \"#utility.yul\":842:894   */\n      iszero\n      tag_234\n      jumpi\n        /* \"#utility.yul\":890:891   */\n      0x00\n        /* \"#utility.yul\":887:888   */\n      dup1\n        /* \"#utility.yul\":880:892   */\n      revert\n        /* \"#utility.yul\":842:894   */\n    tag_234:\n        /* \"#utility.yul\":913:942   */\n      tag_235\n        /* \"#utility.yul\":932:941   */\n      dup4\n        /* \"#utility.yul\":913:942   */\n      tag_225\n      jump\t// in\n    tag_235:\n        /* \"#utility.yul\":903:942   */\n      swap5\n        /* \"#utility.yul\":989:991   */\n      0x20\n        /* \"#utility.yul\":974:992   */\n      swap4\n      swap1\n      swap4\n      add\n        /* \"#utility.yul\":961:993   */\n      calldataload\n      swap4\n      pop\n      pop\n      pop\n        /* \"#utility.yul\":745:999   */\n      jump\t// out\n        /* \"#utility.yul\":1378:1706   */\n    tag_50:\n        /* \"#utility.yul\":1455:1461   */\n      0x00\n        /* \"#utility.yul\":1463:1469   */\n      dup1\n        /* \"#utility.yul\":1471:1477   */\n      0x00\n        /* \"#utility.yul\":1524:1526   */\n      0x60\n        /* \"#utility.yul\":1512:1521   */\n      dup5\n        /* \"#utility.yul\":1503:1510   */\n      dup7\n        /* \"#utility.yul\":1499:1522   */\n      sub\n        /* \"#utility.yul\":1495:1527   */\n      slt\n        /* \"#utility.yul\":1492:1544   */\n      iszero\n      tag_239\n      jumpi\n        /* \"#utility.yul\":1540:1541   */\n      0x00\n        /* \"#utility.yul\":1537:1538   */\n      dup1\n        /* \"#utility.yul\":1530:1542   */\n      revert\n        /* \"#utility.yul\":1492:1544   */\n    tag_239:\n        /* \"#utility.yul\":1563:1592   */\n      tag_240\n        /* \"#utility.yul\":1582:1591   */\n      dup5\n        /* \"#utility.yul\":1563:1592   */\n      tag_225\n      jump\t// in\n    tag_240:\n        /* \"#utility.yul\":1553:1592   */\n      swap3\n      pop\n        /* \"#utility.yul\":1611:1649   */\n      tag_241\n        /* \"#utility.yul\":1645:1647   */\n      0x20\n        /* \"#utility.yul\":1634:1643   */\n      dup6\n        /* \"#utility.yul\":1630:1648   */\n      add\n        /* \"#utility.yul\":1611:1649   */\n      tag_225\n      jump\t// in\n    tag_241:\n        /* \"#utility.yul\":1601:1649   */\n      swap2\n      pop\n        /* \"#utility.yul\":1696:1698   */\n      0x40\n        /* \"#utility.yul\":1685:1694   */\n      dup5\n        /* \"#utility.yul\":1681:1699   */\n      add\n        /* \"#utility.yul\":1668:1700   */\n      calldataload\n        /* \"#utility.yul\":1658:1700   */\n      swap1\n      pop\n        /* \"#utility.yul\":1378:1706   */\n      swap3\n      pop\n      swap3\n      pop\n      swap3\n      jump\t// out\n        /* \"#utility.yul\":2108:2294   */\n    tag_70:\n        /* \"#utility.yul\":2167:2173   */\n      0x00\n        /* \"#utility.yul\":2220:2222   */\n      0x20\n        /* \"#utility.yul\":2208:2217   */\n      dup3\n        /* \"#utility.yul\":2199:2206   */\n      dup5\n        /* \"#utility.yul\":2195:2218   */\n      sub\n        /* \"#utility.yul\":2191:2223   */\n      slt\n        /* \"#utility.yul\":2188:2240   */\n      iszero\n      tag_245\n      jumpi\n        /* \"#utility.yul\":2236:2237   */\n      0x00\n        /* \"#utility.yul\":2233:2234   */\n      dup1\n        /* \"#utility.yul\":2226:2238   */\n      revert\n        /* \"#utility.yul\":2188:2240   */\n    tag_245:\n        /* \"#utility.yul\":2259:2288   */\n      tag_246\n        /* \"#utility.yul\":2278:2287   */\n      dup3\n        /* \"#utility.yul\":2259:2288   */\n      tag_225\n      jump\t// in\n    tag_246:\n        /* \"#utility.yul\":2249:2288   */\n      swap4\n        /* \"#utility.yul\":2108:2294   */\n      swap3\n      pop\n      pop\n      pop\n      jump\t// out\n        /* \"#utility.yul\":2299:2559   */\n    tag_103:\n        /* \"#utility.yul\":2367:2373   */\n      0x00\n        /* \"#utility.yul\":2375:2381   */\n      dup1\n        /* \"#utility.yul\":2428:2430   */\n      0x40\n        /* \"#utility.yul\":2416:2425   */\n      dup4\n        /* \"#utility.yul\":2407:2414   */\n      dup6\n        /* \"#utility.yul\":2403:2426   */\n      sub\n        /* \"#utility.yul\":2399:2431   */\n      slt\n        /* \"#utility.yul\":2396:2448   */\n      iszero\n      tag_248\n      jumpi\n        /* \"#utility.yul\":2444:2445   */\n      0x00\n        /* \"#utility.yul\":2441:2442   */\n      dup1\n        /* \"#utility.yul\":2434:2446   */\n      revert\n        /* \"#utility.yul\":2396:2448   */\n    tag_248:\n        /* \"#utility.yul\":2467:2496   */\n      tag_249\n        /* \"#utility.yul\":2486:2495   */\n      dup4\n        /* \"#utility.yul\":2467:2496   */\n      tag_225\n      jump\t// in\n    tag_249:\n        /* \"#utility.yul\":2457:2496   */\n      swap2\n      pop\n        /* \"#utility.yul\":2515:2553   */\n      tag_250\n        /* \"#utility.yul\":2549:2551   */\n      0x20\n        /* \"#utility.yul\":2538:2547   */\n      dup5\n        /* \"#utility.yul\":2534:2552   */\n      add\n        /* \"#utility.yul\":2515:2553   */\n      tag_225\n      jump\t// in\n    tag_250:\n        /* \"#utility.yul\":2505:2553   */\n      swap1\n      pop\n        /* \"#utility.yul\":2299:2559   */\n      swap3\n      pop\n      swap3\n      swap1\n      pop\n      jump\t// out\n        /* \"#utility.yul\":3167:3547   */\n    tag_118:\n        /* \"#utility.yul\":3246:3247   */\n      0x01\n        /* \"#utility.yul\":3242:3254   */\n      dup2\n      dup2\n      shr\n      swap1\n        /* \"#utility.yul\":3289:3301   */\n      dup3\n      and\n      dup1\n        /* \"#utility.yul\":3310:3371   */\n      tag_254\n      jumpi\n        /* \"#utility.yul\":3364:3368   */\n      0x7f\n        /* \"#utility.yul\":3356:3362   */\n      dup3\n        /* \"#utility.yul\":3352:3369   */\n      and\n        /* \"#utility.yul\":3342:3369   */\n      swap2\n      pop\n        /* \"#utility.yul\":3310:3371   */\n    tag_254:\n        /* \"#utility.yul\":3417:3419   */\n      0x20\n        /* \"#utility.yul\":3409:3415   */\n      dup3\n        /* \"#utility.yul\":3406:3420   */\n      lt\n        /* \"#utility.yul\":3386:3404   */\n      dup2\n        /* \"#utility.yul\":3383:3421   */\n      sub\n        /* \"#utility.yul\":3380:3541   */\n      tag_255\n      jumpi\n        /* \"#utility.yul\":3463:3473   */\n      0x4e487b71\n        /* \"#utility.yul\":3458:3461   */\n      0xe0\n        /* \"#utility.yul\":3454:3474   */\n      shl\n        /* \"#utility.yul\":3451:3452   */\n      0x00\n        /* \"#utility.yul\":3444:3475   */\n      mstore\n        /* \"#utility.yul\":3498:3502   */\n      0x22\n        /* \"#utility.yul\":3495:3496   */\n      0x04\n        /* \"#utility.yul\":3488:3503   */\n      mstore\n        /* \"#utility.yul\":3526:3530   */\n      0x24\n        /* \"#utility.yul\":3523:3524   */\n      0x00\n        /* \"#utility.yul\":3516:3531   */\n      revert\n        /* \"#utility.yul\":3380:3541   */\n    tag_255:\n      pop\n        /* \"#utility.yul\":3167:3547   */\n      swap2\n      swap1\n      pop\n      jump\t// out\n        /* \"#utility.yul\":3552:3774   */\n    tag_142:\n        /* \"#utility.yul\":3617:3626   */\n      dup1\n      dup3\n      add\n        /* \"#utility.yul\":3638:3648   */\n      dup1\n      dup3\n      gt\n        /* \"#utility.yul\":3635:3768   */\n      iszero\n      tag_123\n      jumpi\n        /* \"#utility.yul\":3690:3700   */\n      0x4e487b71\n        /* \"#utility.yul\":3685:3688   */\n      0xe0\n        /* \"#utility.yul\":3681:3701   */\n      shl\n        /* \"#utility.yul\":3678:3679   */\n      0x00\n        /* \"#utility.yul\":3671:3702   */\n      mstore\n        /* \"#utility.yul\":3725:3729   */\n      0x11\n        /* \"#utility.yul\":3722:3723   */\n      0x04\n        /* \"#utility.yul\":3715:3730   */\n      mstore\n        /* \"#utility.yul\":3753:3757   */\n      0x24\n        /* \"#utility.yul\":3750:3751   */\n      0x00\n        /* \"#utility.yul\":3743:3758   */\n      revert\n\n    auxdata: 0xa2646970667358221220add9d04cc460888ecf971c25db56c5355420a9b74d5f23284cc4dc09b1e074af64736f6c63430008140033\n}\n",
				"bytecode": {
					"linkReferences": {},
					"object": "60806040523480156200001157600080fd5b5060405162000fc538038062000fc58339810160408190526200003491620001bc565b8085856003620000458382620002ed565b506004620000548282620002ed565b5050506001600160a01b0381166200008657604051631e4fbdf760e01b81526000600482015260240160405180910390fd5b6200009181620000a5565b505060079190915560085550620003b99050565b600580546001600160a01b038381166001600160a01b0319831681179093556040519116919082907f8be0079c531659141344cd1fd0a4f28419497f9722a3daafe3b4186f6b6457e090600090a35050565b634e487b7160e01b600052604160045260246000fd5b600082601f8301126200011f57600080fd5b81516001600160401b03808211156200013c576200013c620000f7565b604051601f8301601f19908116603f01168101908282118183101715620001675762000167620000f7565b816040528381526020925086838588010111156200018457600080fd5b600091505b83821015620001a8578582018301518183018401529082019062000189565b600093810190920192909252949350505050565b600080600080600060a08688031215620001d557600080fd5b85516001600160401b0380821115620001ed57600080fd5b620001fb89838a016200010d565b965060208801519150808211156200021257600080fd5b5062000221888289016200010d565b6040880151606089015160808a0151929750909550935090506001600160a01b03811681146200025057600080fd5b809150509295509295909350565b600181811c908216806200027357607f821691505b6020821081036200029457634e487b7160e01b600052602260045260246000fd5b50919050565b601f821115620002e857600081815260208120601f850160051c81016020861015620002c35750805b601f850160051c820191505b81811015620002e457828155600101620002cf565b5050505b505050565b81516001600160401b03811115620003095762000309620000f7565b62000321816200031a84546200025e565b846200029a565b602080601f831160018114620003595760008415620003405750858301515b600019600386901b1c1916600185901b178555620002e4565b600085815260208120601f198616915b828110156200038a5788860151825594840194600190910190840162000369565b5085821015620003a95787850151600019600388901b60f8161c191681555b5050505050600190811b01905550565b610bfc80620003c96000396000f3fe6080604052600436106101145760003560e01c80635f1fbccc116100a057806395d89b411161006457806395d89b41146102dc578063a9059cbb146102f1578063d7fac34b14610311578063dd62ed3e14610327578063f2fde38b1461036d57600080fd5b80635f1fbccc1461024757806370a0823114610267578063715018a61461029d5780638cbe5104146102b25780638da5cb5b146102be57600080fd5b80631ca8b6cb116100e75780631ca8b6cb1461019d57806323b872dd146101b3578063313ce567146101d357806337f76838146101ef57806340c10f191461022757600080fd5b80630293c8f61461011957806306fdde0314610123578063095ea7b31461014e57806318160ddd1461017e575b600080fd5b61012161038d565b005b34801561012f57600080fd5b50610138610414565b6040516101459190610a46565b60405180910390f35b34801561015a57600080fd5b5061016e610169366004610ab0565b6104a6565b6040519015158152602001610145565b34801561018a57600080fd5b506002545b604051908152602001610145565b3480156101a957600080fd5b5061018f60085481565b3480156101bf57600080fd5b5061016e6101ce366004610ada565b6104c0565b3480156101df57600080fd5b5060405160128152602001610145565b3480156101fb57600080fd5b5060065461020f906001600160a01b031681565b6040516001600160a01b039091168152602001610145565b34801561023357600080fd5b50610121610242366004610ab0565b6104e4565b34801561025357600080fd5b50610121610262366004610b16565b61055f565b34801561027357600080fd5b5061018f610282366004610b16565b6001600160a01b031660009081526020819052604090205490565b3480156102a957600080fd5b50610121610634565b34801561012157600080fd5b3480156102ca57600080fd5b506005546001600160a01b031661020f565b3480156102e857600080fd5b50610138610648565b3480156102fd57600080fd5b5061016e61030c366004610ab0565b610657565b34801561031d57600080fd5b5061018f60075481565b34801561033357600080fd5b5061018f610342366004610b38565b6001600160a01b03918216600090815260016020908152604080832093909416825291909152205490565b34801561037957600080fd5b50610121610388366004610b16565b610665565b600034116103da5760405162461bcd60e51b81526020600482015260156024820152744e6f2072656e7420746f206469737472696275746560581b60448201526064015b60405180910390fd5b604080513481524260208201527fe119edd602f8057f976e78f3580fad7c24700f494e6ddca97279c332a213f384910160405180910390a1565b60606003805461042390610b6b565b80601f016020809104026020016040519081016040528092919081815260200182805461044f90610b6b565b801561049c5780601f106104715761010080835404028352916020019161049c565b820191906000526020600020905b81548152906001019060200180831161047f57829003601f168201915b5050505050905090565b6000336104b48185856106a3565b60019150505b92915050565b6000336104ce8582856106b5565b6104d9858585610733565b506001949350505050565b6104ec610792565b600854816104f960025490565b6105039190610ba5565b11156105515760405162461bcd60e51b815260206004820152601a60248201527f4578636565647320746f74616c20746f6b656e20737570706c7900000000000060448201526064016103d1565b61055b82826107bf565b5050565b6006546001600160a01b0316156105b85760405162461bcd60e51b815260206004820152601860248201527f50726f7065727479204e465420616c726561647920736574000000000000000060448201526064016103d1565b6005546001600160a01b031633146106125760405162461bcd60e51b815260206004820152601f60248201527f4f6e6c79206f776e65722063616e207365742070726f7065727479204e46540060448201526064016103d1565b600680546001600160a01b0319166001600160a01b0392909216919091179055565b61063c610792565b61064660006107f5565b565b60606004805461042390610b6b565b6000336104b4818585610733565b61066d610792565b6001600160a01b03811661069757604051631e4fbdf760e01b8152600060048201526024016103d1565b6106a0816107f5565b50565b6106b08383836001610847565b505050565b6001600160a01b03838116600090815260016020908152604080832093861683529290522054600019811461072d578181101561071e57604051637dc7a0d960e11b81526001600160a01b038416600482015260248101829052604481018390526064016103d1565b61072d84848484036000610847565b50505050565b6001600160a01b03831661075d57604051634b637e8f60e11b8152600060048201526024016103d1565b6001600160a01b0382166107875760405163ec442f0560e01b8152600060048201526024016103d1565b6106b083838361091c565b6005546001600160a01b031633146106465760405163118cdaa760e01b81523360048201526024016103d1565b6001600160a01b0382166107e95760405163ec442f0560e01b8152600060048201526024016103d1565b61055b6000838361091c565b600580546001600160a01b038381166001600160a01b0319831681179093556040519116919082907f8be0079c531659141344cd1fd0a4f28419497f9722a3daafe3b4186f6b6457e090600090a35050565b6001600160a01b0384166108715760405163e602df0560e01b8152600060048201526024016103d1565b6001600160a01b03831661089b57604051634a1406b160e11b8152600060048201526024016103d1565b6001600160a01b038085166000908152600160209081526040808320938716835292905220829055801561072d57826001600160a01b0316846001600160a01b03167f8c5be1e5ebec7d5bd14f71427d1e84f3dd0314c0f7b2291e5b200ac8c7c3b9258460405161090e91815260200190565b60405180910390a350505050565b6001600160a01b03831661094757806002600082825461093c9190610ba5565b909155506109b99050565b6001600160a01b0383166000908152602081905260409020548181101561099a5760405163391434e360e21b81526001600160a01b038516600482015260248101829052604481018390526064016103d1565b6001600160a01b03841660009081526020819052604090209082900390555b6001600160a01b0382166109d5576002805482900390556109f4565b6001600160a01b03821660009081526020819052604090208054820190555b816001600160a01b0316836001600160a01b03167fddf252ad1be2c89b69c2b068fc378daa952ba7f163c4a11628f55a4df523b3ef83604051610a3991815260200190565b60405180910390a3505050565b600060208083528351808285015260005b81811015610a7357858101830151858201604001528201610a57565b506000604082860101526040601f19601f8301168501019250505092915050565b80356001600160a01b0381168114610aab57600080fd5b919050565b60008060408385031215610ac357600080fd5b610acc83610a94565b946020939093013593505050565b600080600060608486031215610aef57600080fd5b610af884610a94565b9250610b0660208501610a94565b9150604084013590509250925092565b600060208284031215610b2857600080fd5b610b3182610a94565b9392505050565b60008060408385031215610b4b57600080fd5b610b5483610a94565b9150610b6260208401610a94565b90509250929050565b600181811c90821680610b7f57607f821691505b602082108103610b9f57634e487b7160e01b600052602260045260246000fd5b50919050565b808201808211156104ba57634e487b7160e01b600052601160045260246000fdfea2646970667358221220add9d04cc460888ecf971c25db56c5355420a9b74d5f23284cc4dc09b1e074af64736f6c63430008140033",
					"opcodes": "PUSH1 0x80 PUSH1 0x40 MSTORE CALLVALUE DUP1 ISZERO PUSH3 0x11 JUMPI PUSH1 0x0 DUP1 REVERT JUMPDEST POP PUSH1 0x40 MLOAD PUSH3 0xFC5 CODESIZE SUB DUP1 PUSH3 0xFC5 DUP4 CODECOPY DUP2 ADD PUSH1 0x40 DUP2 SWAP1 MSTORE PUSH3 0x34 SWAP2 PUSH3 0x1BC JUMP JUMPDEST DUP1 DUP6 DUP6 PUSH1 0x3 PUSH3 0x45 DUP4 DUP3 PUSH3 0x2ED JUMP JUMPDEST POP PUSH1 0x4 PUSH3 0x54 DUP3 DUP3 PUSH3 0x2ED JUMP JUMPDEST POP POP POP PUSH1 0x1 PUSH1 0x1 PUSH1 0xA0 SHL SUB DUP2 AND PUSH3 0x86 JUMPI PUSH1 0x40 MLOAD PUSH4 0x1E4FBDF7 PUSH1 0xE0 SHL DUP2 MSTORE PUSH1 0x0 PUSH1 0x4 DUP3 ADD MSTORE PUSH1 0x24 ADD PUSH1 0x40 MLOAD DUP1 SWAP2 SUB SWAP1 REVERT JUMPDEST PUSH3 0x91 DUP2 PUSH3 0xA5 JUMP JUMPDEST POP POP PUSH1 0x7 SWAP2 SWAP1 SWAP2 SSTORE PUSH1 0x8 SSTORE POP PUSH3 0x3B9 SWAP1 POP JUMP JUMPDEST PUSH1 0x5 DUP1 SLOAD PUSH1 0x1 PUSH1 0x1 PUSH1 0xA0 SHL SUB DUP4 DUP2 AND PUSH1 0x1 PUSH1 0x1 PUSH1 0xA0 SHL SUB NOT DUP4 AND DUP2 OR SWAP1 SWAP4 SSTORE PUSH1 0x40 MLOAD SWAP2 AND SWAP2 SWAP1 DUP3 SWAP1 PUSH32 0x8BE0079C531659141344CD1FD0A4F28419497F9722A3DAAFE3B4186F6B6457E0 SWAP1 PUSH1 0x0 SWAP1 LOG3 POP POP JUMP JUMPDEST PUSH4 0x4E487B71 PUSH1 0xE0 SHL PUSH1 0x0 MSTORE PUSH1 0x41 PUSH1 0x4 MSTORE PUSH1 0x24 PUSH1 0x0 REVERT JUMPDEST PUSH1 0x0 DUP3 PUSH1 0x1F DUP4 ADD SLT PUSH3 0x11F JUMPI PUSH1 0x0 DUP1 REVERT JUMPDEST DUP2 MLOAD PUSH1 0x1 PUSH1 0x1 PUSH1 0x40 SHL SUB DUP1 DUP3 GT ISZERO PUSH3 0x13C JUMPI PUSH3 0x13C PUSH3 0xF7 JUMP JUMPDEST PUSH1 0x40 MLOAD PUSH1 0x1F DUP4 ADD PUSH1 0x1F NOT SWAP1 DUP2 AND PUSH1 0x3F ADD AND DUP2 ADD SWAP1 DUP3 DUP3 GT DUP2 DUP4 LT OR ISZERO PUSH3 0x167 JUMPI PUSH3 0x167 PUSH3 0xF7 JUMP JUMPDEST DUP2 PUSH1 0x40 MSTORE DUP4 DUP2 MSTORE PUSH1 0x20 SWAP3 POP DUP7 DUP4 DUP6 DUP9 ADD ADD GT ISZERO PUSH3 0x184 JUMPI PUSH1 0x0 DUP1 REVERT JUMPDEST PUSH1 0x0 SWAP2 POP JUMPDEST DUP4 DUP3 LT ISZERO PUSH3 0x1A8 JUMPI DUP6 DUP3 ADD DUP4 ADD MLOAD DUP2 DUP4 ADD DUP5 ADD MSTORE SWAP1 DUP3 ADD SWAP1 PUSH3 0x189 JUMP JUMPDEST PUSH1 0x0 SWAP4 DUP2 ADD SWAP1 SWAP3 ADD SWAP3 SWAP1 SWAP3 MSTORE SWAP5 SWAP4 POP POP POP POP JUMP JUMPDEST PUSH1 0x0 DUP1 PUSH1 0x0 DUP1 PUSH1 0x0 PUSH1 0xA0 DUP7 DUP9 SUB SLT ISZERO PUSH3 0x1D5 JUMPI PUSH1 0x0 DUP1 REVERT JUMPDEST DUP6 MLOAD PUSH1 0x1 PUSH1 0x1 PUSH1 0x40 SHL SUB DUP1 DUP3 GT ISZERO PUSH3 0x1ED JUMPI PUSH1 0x0 DUP1 REVERT JUMPDEST PUSH3 0x1FB DUP10 DUP4 DUP11 ADD PUSH3 0x10D JUMP JUMPDEST SWAP7 POP PUSH1 0x20 DUP9 ADD MLOAD SWAP2 POP DUP1 DUP3 GT ISZERO PUSH3 0x212 JUMPI PUSH1 0x0 DUP1 REVERT JUMPDEST POP PUSH3 0x221 DUP9 DUP3 DUP10 ADD PUSH3 0x10D JUMP JUMPDEST PUSH1 0x40 DUP9 ADD MLOAD PUSH1 0x60 DUP10 ADD MLOAD PUSH1 0x80 DUP11 ADD MLOAD SWAP3 SWAP8 POP SWAP1 SWAP6 POP SWAP4 POP SWAP1 POP PUSH1 0x1 PUSH1 0x1 PUSH1 0xA0 SHL SUB DUP2 AND DUP2 EQ PUSH3 0x250 JUMPI PUSH1 0x0 DUP1 REVERT JUMPDEST DUP1 SWAP2 POP POP SWAP3 SWAP6 POP SWAP3 SWAP6 SWAP1 SWAP4 POP JUMP JUMPDEST PUSH1 0x1 DUP2 DUP2 SHR SWAP1 DUP3 AND DUP1 PUSH3 0x273 JUMPI PUSH1 0x7F DUP3 AND SWAP2 POP JUMPDEST PUSH1 0x20 DUP3 LT DUP2 SUB PUSH3 0x294 JUMPI PUSH4 0x4E487B71 PUSH1 0xE0 SHL PUSH1 0x0 MSTORE PUSH1 0x22 PUSH1 0x4 MSTORE PUSH1 0x24 PUSH1 0x0 REVERT JUMPDEST POP SWAP2 SWAP1 POP JUMP JUMPDEST PUSH1 0x1F DUP3 GT ISZERO PUSH3 0x2E8 JUMPI PUSH1 0x0 DUP2 DUP2 MSTORE PUSH1 0x20 DUP2 KECCAK256 PUSH1 0x1F DUP6 ADD PUSH1 0x5 SHR DUP2 ADD PUSH1 0x20 DUP7 LT ISZERO PUSH3 0x2C3 JUMPI POP DUP1 JUMPDEST PUSH1 0x1F DUP6 ADD PUSH1 0x5 SHR DUP3 ADD SWAP2 POP JUMPDEST DUP2 DUP2 LT ISZERO PUSH3 0x2E4 JUMPI DUP3 DUP2 SSTORE PUSH1 0x1 ADD PUSH3 0x2CF JUMP JUMPDEST POP POP POP JUMPDEST POP POP POP JUMP JUMPDEST DUP2 MLOAD PUSH1 0x1 PUSH1 0x1 PUSH1 0x40 SHL SUB DUP2 GT ISZERO PUSH3 0x309 JUMPI PUSH3 0x309 PUSH3 0xF7 JUMP JUMPDEST PUSH3 0x321 DUP2 PUSH3 0x31A DUP5 SLOAD PUSH3 0x25E JUMP JUMPDEST DUP5 PUSH3 0x29A JUMP JUMPDEST PUSH1 0x20 DUP1 PUSH1 0x1F DUP4 GT PUSH1 0x1 DUP2 EQ PUSH3 0x359 JUMPI PUSH1 0x0 DUP5 ISZERO PUSH3 0x340 JUMPI POP DUP6 DUP4 ADD MLOAD JUMPDEST PUSH1 0x0 NOT PUSH1 0x3 DUP7 SWAP1 SHL SHR NOT AND PUSH1 0x1 DUP6 SWAP1 SHL OR DUP6 SSTORE PUSH3 0x2E4 JUMP JUMPDEST PUSH1 0x0 DUP6 DUP2 MSTORE PUSH1 0x20 DUP2 KECCAK256 PUSH1 0x1F NOT DUP7 AND SWAP2 JUMPDEST DUP3 DUP2 LT ISZERO PUSH3 0x38A JUMPI DUP9 DUP7 ADD MLOAD DUP3 SSTORE SWAP5 DUP5 ADD SWAP5 PUSH1 0x1 SWAP1 SWAP2 ADD SWAP1 DUP5 ADD PUSH3 0x369 JUMP JUMPDEST POP DUP6 DUP3 LT ISZERO PUSH3 0x3A9 JUMPI DUP8 DUP6 ADD MLOAD PUSH1 0x0 NOT PUSH1 0x3 DUP9 SWAP1 SHL PUSH1 0xF8 AND SHR NOT AND DUP2 SSTORE JUMPDEST POP POP POP POP POP PUSH1 0x1 SWAP1 DUP2 SHL ADD SWAP1 SSTORE POP JUMP JUMPDEST PUSH2 0xBFC DUP1 PUSH3 0x3C9 PUSH1 0x0 CODECOPY PUSH1 0x0 RETURN INVALID PUSH1 0x80 PUSH1 0x40 MSTORE PUSH1 0x4 CALLDATASIZE LT PUSH2 0x114 JUMPI PUSH1 0x0 CALLDATALOAD PUSH1 0xE0 SHR DUP1 PUSH4 0x5F1FBCCC GT PUSH2 0xA0 JUMPI DUP1 PUSH4 0x95D89B41 GT PUSH2 0x64 JUMPI DUP1 PUSH4 0x95D89B41 EQ PUSH2 0x2DC JUMPI DUP1 PUSH4 0xA9059CBB EQ PUSH2 0x2F1 JUMPI DUP1 PUSH4 0xD7FAC34B EQ PUSH2 0x311 JUMPI DUP1 PUSH4 0xDD62ED3E EQ PUSH2 0x327 JUMPI DUP1 PUSH4 0xF2FDE38B EQ PUSH2 0x36D JUMPI PUSH1 0x0 DUP1 REVERT JUMPDEST DUP1 PUSH4 0x5F1FBCCC EQ PUSH2 0x247 JUMPI DUP1 PUSH4 0x70A08231 EQ PUSH2 0x267 JUMPI DUP1 PUSH4 0x715018A6 EQ PUSH2 0x29D JUMPI DUP1 PUSH4 0x8CBE5104 EQ PUSH2 0x2B2 JUMPI DUP1 PUSH4 0x8DA5CB5B EQ PUSH2 0x2BE JUMPI PUSH1 0x0 DUP1 REVERT JUMPDEST DUP1 PUSH4 0x1CA8B6CB GT PUSH2 0xE7 JUMPI DUP1 PUSH4 0x1CA8B6CB EQ PUSH2 0x19D JUMPI DUP1 PUSH4 0x23B872DD EQ PUSH2 0x1B3 JUMPI DUP1 PUSH4 0x313CE567 EQ PUSH2 0x1D3 JUMPI DUP1 PUSH4 0x37F76838 EQ PUSH2 0x1EF JUMPI DUP1 PUSH4 0x40C10F19 EQ PUSH2 0x227 JUMPI PUSH1 0x0 DUP1 REVERT JUMPDEST DUP1 PUSH4 0x293C8F6 EQ PUSH2 0x119 JUMPI DUP1 PUSH4 0x6FDDE03 EQ PUSH2 0x123 JUMPI DUP1 PUSH4 0x95EA7B3 EQ PUSH2 0x14E JUMPI DUP1 PUSH4 0x18160DDD EQ PUSH2 0x17E JUMPI JUMPDEST PUSH1 0x0 DUP1 REVERT JUMPDEST PUSH2 0x121 PUSH2 0x38D JUMP JUMPDEST STOP JUMPDEST CALLVALUE DUP1 ISZERO PUSH2 0x12F JUMPI PUSH1 0x0 DUP1 REVERT JUMPDEST POP PUSH2 0x138 PUSH2 0x414 JUMP JUMPDEST PUSH1 0x40 MLOAD PUSH2 0x145 SWAP2 SWAP1 PUSH2 0xA46 JUMP JUMPDEST PUSH1 0x40 MLOAD DUP1 SWAP2 SUB SWAP1 RETURN JUMPDEST CALLVALUE DUP1 ISZERO PUSH2 0x15A JUMPI PUSH1 0x0 DUP1 REVERT JUMPDEST POP PUSH2 0x16E PUSH2 0x169 CALLDATASIZE PUSH1 0x4 PUSH2 0xAB0 JUMP JUMPDEST PUSH2 0x4A6 JUMP JUMPDEST PUSH1 0x40 MLOAD SWAP1 ISZERO ISZERO DUP2 MSTORE PUSH1 0x20 ADD PUSH2 0x145 JUMP JUMPDEST CALLVALUE DUP1 ISZERO PUSH2 0x18A JUMPI PUSH1 0x0 DUP1 REVERT JUMPDEST POP PUSH1 0x2 SLOAD JUMPDEST PUSH1 0x40 MLOAD SWAP1 DUP2 MSTORE PUSH1 0x20 ADD PUSH2 0x145 JUMP JUMPDEST CALLVALUE DUP1 ISZERO PUSH2 0x1A9 JUMPI PUSH1 0x0 DUP1 REVERT JUMPDEST POP PUSH2 0x18F PUSH1 0x8 SLOAD DUP2 JUMP JUMPDEST CALLVALUE DUP1 ISZERO PUSH2 0x1BF JUMPI PUSH1 0x0 DUP1 REVERT JUMPDEST POP PUSH2 0x16E PUSH2 0x1CE CALLDATASIZE PUSH1 0x4 PUSH2 0xADA JUMP JUMPDEST PUSH2 0x4C0 JUMP JUMPDEST CALLVALUE DUP1 ISZERO PUSH2 0x1DF JUMPI PUSH1 0x0 DUP1 REVERT JUMPDEST POP PUSH1 0x40 MLOAD PUSH1 0x12 DUP2 MSTORE PUSH1 0x20 ADD PUSH2 0x145 JUMP JUMPDEST CALLVALUE DUP1 ISZERO PUSH2 0x1FB JUMPI PUSH1 0x0 DUP1 REVERT JUMPDEST POP PUSH1 0x6 SLOAD PUSH2 0x20F SWAP1 PUSH1 0x1 PUSH1 0x1 PUSH1 0xA0 SHL SUB AND DUP2 JUMP JUMPDEST PUSH1 0x40 MLOAD PUSH1 0x1 PUSH1 0x1 PUSH1 0xA0 SHL SUB SWAP1 SWAP2 AND DUP2 MSTORE PUSH1 0x20 ADD PUSH2 0x145 JUMP JUMPDEST CALLVALUE DUP1 ISZERO PUSH2 0x233 JUMPI PUSH1 0x0 DUP1 REVERT JUMPDEST POP PUSH2 0x121 PUSH2 0x242 CALLDATASIZE PUSH1 0x4 PUSH2 0xAB0 JUMP JUMPDEST PUSH2 0x4E4 JUMP JUMPDEST CALLVALUE DUP1 ISZERO PUSH2 0x253 JUMPI PUSH1 0x0 DUP1 REVERT JUMPDEST POP PUSH2 0x121 PUSH2 0x262 CALLDATASIZE PUSH1 0x4 PUSH2 0xB16 JUMP JUMPDEST PUSH2 0x55F JUMP JUMPDEST CALLVALUE DUP1 ISZERO PUSH2 0x273 JUMPI PUSH1 0x0 DUP1 REVERT JUMPDEST POP PUSH2 0x18F PUSH2 0x282 CALLDATASIZE PUSH1 0x4 PUSH2 0xB16 JUMP JUMPDEST PUSH1 0x1 PUSH1 0x1 PUSH1 0xA0 SHL SUB AND PUSH1 0x0 SWAP1 DUP2 MSTORE PUSH1 0x20 DUP2 SWAP1 MSTORE PUSH1 0x40 SWAP1 KECCAK256 SLOAD SWAP1 JUMP JUMPDEST CALLVALUE DUP1 ISZERO PUSH2 0x2A9 JUMPI PUSH1 0x0 DUP1 REVERT JUMPDEST POP PUSH2 0x121 PUSH2 0x634 JUMP JUMPDEST CALLVALUE DUP1 ISZERO PUSH2 0x121 JUMPI PUSH1 0x0 DUP1 REVERT JUMPDEST CALLVALUE DUP1 ISZERO PUSH2 0x2CA JUMPI PUSH1 0x0 DUP1 REVERT JUMPDEST POP PUSH1 0x5 SLOAD PUSH1 0x1 PUSH1 0x1 PUSH1 0xA0 SHL SUB AND PUSH2 0x20F JUMP JUMPDEST CALLVALUE DUP1 ISZERO PUSH2 0x2E8 JUMPI PUSH1 0x0 DUP1 REVERT JUMPDEST POP PUSH2 0x138 PUSH2 0x648 JUMP JUMPDEST CALLVALUE DUP1 ISZERO PUSH2 0x2FD JUMPI PUSH1 0x0 DUP1 REVERT JUMPDEST POP PUSH2 0x16E PUSH2 0x30C CALLDATASIZE PUSH1 0x4 PUSH2 0xAB0 JUMP JUMPDEST PUSH2 0x657 JUMP JUMPDEST CALLVALUE DUP1 ISZERO PUSH2 0x31D JUMPI PUSH1 0x0 DUP1 REVERT JUMPDEST POP PUSH2 0x18F PUSH1 0x7 SLOAD DUP2 JUMP JUMPDEST CALLVALUE DUP1 ISZERO PUSH2 0x333 JUMPI PUSH1 0x0 DUP1 REVERT JUMPDEST POP PUSH2 0x18F PUSH2 0x342 CALLDATASIZE PUSH1 0x4 PUSH2 0xB38 JUMP JUMPDEST PUSH1 0x1 PUSH1 0x1 PUSH1 0xA0 SHL SUB SWAP2 DUP3 AND PUSH1 0x0 SWAP1 DUP2 MSTORE PUSH1 0x1 PUSH1 0x20 SWAP1 DUP2 MSTORE PUSH1 0x40 DUP1 DUP4 KECCAK256 SWAP4 SWAP1 SWAP5 AND DUP3 MSTORE SWAP2 SWAP1 SWAP2 MSTORE KECCAK256 SLOAD SWAP1 JUMP JUMPDEST CALLVALUE DUP1 ISZERO PUSH2 0x379 JUMPI PUSH1 0x0 DUP1 REVERT JUMPDEST POP PUSH2 0x121 PUSH2 0x388 CALLDATASIZE PUSH1 0x4 PUSH2 0xB16 JUMP JUMPDEST PUSH2 0x665 JUMP JUMPDEST PUSH1 0x0 CALLVALUE GT PUSH2 0x3DA JUMPI PUSH1 0x40 MLOAD PUSH3 0x461BCD PUSH1 0xE5 SHL DUP2 MSTORE PUSH1 0x20 PUSH1 0x4 DUP3 ADD MSTORE PUSH1 0x15 PUSH1 0x24 DUP3 ADD MSTORE PUSH21 0x4E6F2072656E7420746F2064697374726962757465 PUSH1 0x58 SHL PUSH1 0x44 DUP3 ADD MSTORE PUSH1 0x64 ADD JUMPDEST PUSH1 0x40 MLOAD DUP1 SWAP2 SUB SWAP1 REVERT JUMPDEST PUSH1 0x40 DUP1 MLOAD CALLVALUE DUP2 MSTORE TIMESTAMP PUSH1 0x20 DUP3 ADD MSTORE PUSH32 0xE119EDD602F8057F976E78F3580FAD7C24700F494E6DDCA97279C332A213F384 SWAP2 ADD PUSH1 0x40 MLOAD DUP1 SWAP2 SUB SWAP1 LOG1 JUMP JUMPDEST PUSH1 0x60 PUSH1 0x3 DUP1 SLOAD PUSH2 0x423 SWAP1 PUSH2 0xB6B JUMP JUMPDEST DUP1 PUSH1 0x1F ADD PUSH1 0x20 DUP1 SWAP2 DIV MUL PUSH1 0x20 ADD PUSH1 0x40 MLOAD SWAP1 DUP2 ADD PUSH1 0x40 MSTORE DUP1 SWAP3 SWAP2 SWAP1 DUP2 DUP2 MSTORE PUSH1 0x20 ADD DUP3 DUP1 SLOAD PUSH2 0x44F SWAP1 PUSH2 0xB6B JUMP JUMPDEST DUP1 ISZERO PUSH2 0x49C JUMPI DUP1 PUSH1 0x1F LT PUSH2 0x471 JUMPI PUSH2 0x100 DUP1 DUP4 SLOAD DIV MUL DUP4 MSTORE SWAP2 PUSH1 0x20 ADD SWAP2 PUSH2 0x49C JUMP JUMPDEST DUP3 ADD SWAP2 SWAP1 PUSH1 0x0 MSTORE PUSH1 0x20 PUSH1 0x0 KECCAK256 SWAP1 JUMPDEST DUP2 SLOAD DUP2 MSTORE SWAP1 PUSH1 0x1 ADD SWAP1 PUSH1 0x20 ADD DUP1 DUP4 GT PUSH2 0x47F JUMPI DUP3 SWAP1 SUB PUSH1 0x1F AND DUP3 ADD SWAP2 JUMPDEST POP POP POP POP POP SWAP1 POP SWAP1 JUMP JUMPDEST PUSH1 0x0 CALLER PUSH2 0x4B4 DUP2 DUP6 DUP6 PUSH2 0x6A3 JUMP JUMPDEST PUSH1 0x1 SWAP2 POP POP JUMPDEST SWAP3 SWAP2 POP POP JUMP JUMPDEST PUSH1 0x0 CALLER PUSH2 0x4CE DUP6 DUP3 DUP6 PUSH2 0x6B5 JUMP JUMPDEST PUSH2 0x4D9 DUP6 DUP6 DUP6 PUSH2 0x733 JUMP JUMPDEST POP PUSH1 0x1 SWAP5 SWAP4 POP POP POP POP JUMP JUMPDEST PUSH2 0x4EC PUSH2 0x792 JUMP JUMPDEST PUSH1 0x8 SLOAD DUP2 PUSH2 0x4F9 PUSH1 0x2 SLOAD SWAP1 JUMP JUMPDEST PUSH2 0x503 SWAP2 SWAP1 PUSH2 0xBA5 JUMP JUMPDEST GT ISZERO PUSH2 0x551 JUMPI PUSH1 0x40 MLOAD PUSH3 0x461BCD PUSH1 0xE5 SHL DUP2 MSTORE PUSH1 0x20 PUSH1 0x4 DUP3 ADD MSTORE PUSH1 0x1A PUSH1 0x24 DUP3 ADD MSTORE PUSH32 0x4578636565647320746F74616C20746F6B656E20737570706C79000000000000 PUSH1 0x44 DUP3 ADD MSTORE PUSH1 0x64 ADD PUSH2 0x3D1 JUMP JUMPDEST PUSH2 0x55B DUP3 DUP3 PUSH2 0x7BF JUMP JUMPDEST POP POP JUMP JUMPDEST PUSH1 0x6 SLOAD PUSH1 0x1 PUSH1 0x1 PUSH1 0xA0 SHL SUB AND ISZERO PUSH2 0x5B8 JUMPI PUSH1 0x40 MLOAD PUSH3 0x461BCD PUSH1 0xE5 SHL DUP2 MSTORE PUSH1 0x20 PUSH1 0x4 DUP3 ADD MSTORE PUSH1 0x18 PUSH1 0x24 DUP3 ADD MSTORE PUSH32 0x50726F7065727479204E465420616C7265616479207365740000000000000000 PUSH1 0x44 DUP3 ADD MSTORE PUSH1 0x64 ADD PUSH2 0x3D1 JUMP JUMPDEST PUSH1 0x5 SLOAD PUSH1 0x1 PUSH1 0x1 PUSH1 0xA0 SHL SUB AND CALLER EQ PUSH2 0x612 JUMPI PUSH1 0x40 MLOAD PUSH3 0x461BCD PUSH1 0xE5 SHL DUP2 MSTORE PUSH1 0x20 PUSH1 0x4 DUP3 ADD MSTORE PUSH1 0x1F PUSH1 0x24 DUP3 ADD MSTORE PUSH32 0x4F6E6C79206F776E65722063616E207365742070726F7065727479204E465400 PUSH1 0x44 DUP3 ADD MSTORE PUSH1 0x64 ADD PUSH2 0x3D1 JUMP JUMPDEST PUSH1 0x6 DUP1 SLOAD PUSH1 0x1 PUSH1 0x1 PUSH1 0xA0 SHL SUB NOT AND PUSH1 0x1 PUSH1 0x1 PUSH1 0xA0 SHL SUB SWAP3 SWAP1 SWAP3 AND SWAP2 SWAP1 SWAP2 OR SWAP1 SSTORE JUMP JUMPDEST PUSH2 0x63C PUSH2 0x792 JUMP JUMPDEST PUSH2 0x646 PUSH1 0x0 PUSH2 0x7F5 JUMP JUMPDEST JUMP JUMPDEST PUSH1 0x60 PUSH1 0x4 DUP1 SLOAD PUSH2 0x423 SWAP1 PUSH2 0xB6B JUMP JUMPDEST PUSH1 0x0 CALLER PUSH2 0x4B4 DUP2 DUP6 DUP6 PUSH2 0x733 JUMP JUMPDEST PUSH2 0x66D PUSH2 0x792 JUMP JUMPDEST PUSH1 0x1 PUSH1 0x1 PUSH1 0xA0 SHL SUB DUP2 AND PUSH2 0x697 JUMPI PUSH1 0x40 MLOAD PUSH4 0x1E4FBDF7 PUSH1 0xE0 SHL DUP2 MSTORE PUSH1 0x0 PUSH1 0x4 DUP3 ADD MSTORE PUSH1 0x24 ADD PUSH2 0x3D1 JUMP JUMPDEST PUSH2 0x6A0 DUP2 PUSH2 0x7F5 JUMP JUMPDEST POP JUMP JUMPDEST PUSH2 0x6B0 DUP4 DUP4 DUP4 PUSH1 0x1 PUSH2 0x847 JUMP JUMPDEST POP POP POP JUMP JUMPDEST PUSH1 0x1 PUSH1 0x1 PUSH1 0xA0 SHL SUB DUP4 DUP2 AND PUSH1 0x0 SWAP1 DUP2 MSTORE PUSH1 0x1 PUSH1 0x20 SWAP1 DUP2 MSTORE PUSH1 0x40 DUP1 DUP4 KECCAK256 SWAP4 DUP7 AND DUP4 MSTORE SWAP3 SWAP1 MSTORE KECCAK256 SLOAD PUSH1 0x0 NOT DUP2 EQ PUSH2 0x72D JUMPI DUP2 DUP2 LT ISZERO PUSH2 0x71E JUMPI PUSH1 0x40 MLOAD PUSH4 0x7DC7A0D9 PUSH1 0xE1 SHL DUP2 MSTORE PUSH1 0x1 PUSH1 0x1 PUSH1 0xA0 SHL SUB DUP5 AND PUSH1 0x4 DUP3 ADD MSTORE PUSH1 0x24 DUP2 ADD DUP3 SWAP1 MSTORE PUSH1 0x44 DUP2 ADD DUP4 SWAP1 MSTORE PUSH1 0x64 ADD PUSH2 0x3D1 JUMP JUMPDEST PUSH2 0x72D DUP5 DUP5 DUP5 DUP5 SUB PUSH1 0x0 PUSH2 0x847 JUMP JUMPDEST POP POP POP POP JUMP JUMPDEST PUSH1 0x1 PUSH1 0x1 PUSH1 0xA0 SHL SUB DUP4 AND PUSH2 0x75D JUMPI PUSH1 0x40 MLOAD PUSH4 0x4B637E8F PUSH1 0xE1 SHL DUP2 MSTORE PUSH1 0x0 PUSH1 0x4 DUP3 ADD MSTORE PUSH1 0x24 ADD PUSH2 0x3D1 JUMP JUMPDEST PUSH1 0x1 PUSH1 0x1 PUSH1 0xA0 SHL SUB DUP3 AND PUSH2 0x787 JUMPI PUSH1 0x40 MLOAD PUSH4 0xEC442F05 PUSH1 0xE0 SHL DUP2 MSTORE PUSH1 0x0 PUSH1 0x4 DUP3 ADD MSTORE PUSH1 0x24 ADD PUSH2 0x3D1 JUMP JUMPDEST PUSH2 0x6B0 DUP4 DUP4 DUP4 PUSH2 0x91C JUMP JUMPDEST PUSH1 0x5 SLOAD PUSH1 0x1 PUSH1 0x1 PUSH1 0xA0 SHL SUB AND CALLER EQ PUSH2 0x646 JUMPI PUSH1 0x40 MLOAD PUSH4 0x118CDAA7 PUSH1 0xE0 SHL DUP2 MSTORE CALLER PUSH1 0x4 DUP3 ADD MSTORE PUSH1 0x24 ADD PUSH2 0x3D1 JUMP JUMPDEST PUSH1 0x1 PUSH1 0x1 PUSH1 0xA0 SHL SUB DUP3 AND PUSH2 0x7E9 JUMPI PUSH1 0x40 MLOAD PUSH4 0xEC442F05 PUSH1 0xE0 SHL DUP2 MSTORE PUSH1 0x0 PUSH1 0x4 DUP3 ADD MSTORE PUSH1 0x24 ADD PUSH2 0x3D1 JUMP JUMPDEST PUSH2 0x55B PUSH1 0x0 DUP4 DUP4 PUSH2 0x91C JUMP JUMPDEST PUSH1 0x5 DUP1 SLOAD PUSH1 0x1 PUSH1 0x1 PUSH1 0xA0 SHL SUB DUP4 DUP2 AND PUSH1 0x1 PUSH1 0x1 PUSH1 0xA0 SHL SUB NOT DUP4 AND DUP2 OR SWAP1 SWAP4 SSTORE PUSH1 0x40 MLOAD SWAP2 AND SWAP2 SWAP1 DUP3 SWAP1 PUSH32 0x8BE0079C531659141344CD1FD0A4F28419497F9722A3DAAFE3B4186F6B6457E0 SWAP1 PUSH1 0x0 SWAP1 LOG3 POP POP JUMP JUMPDEST PUSH1 0x1 PUSH1 0x1 PUSH1 0xA0 SHL SUB DUP5 AND PUSH2 0x871 JUMPI PUSH1 0x40 MLOAD PUSH4 0xE602DF05 PUSH1 0xE0 SHL DUP2 MSTORE PUSH1 0x0 PUSH1 0x4 DUP3 ADD MSTORE PUSH1 0x24 ADD PUSH2 0x3D1 JUMP JUMPDEST PUSH1 0x1 PUSH1 0x1 PUSH1 0xA0 SHL SUB DUP4 AND PUSH2 0x89B JUMPI PUSH1 0x40 MLOAD PUSH4 0x4A1406B1 PUSH1 0xE1 SHL DUP2 MSTORE PUSH1 0x0 PUSH1 0x4 DUP3 ADD MSTORE PUSH1 0x24 ADD PUSH2 0x3D1 JUMP JUMPDEST PUSH1 0x1 PUSH1 0x1 PUSH1 0xA0 SHL SUB DUP1 DUP6 AND PUSH1 0x0 SWAP1 DUP2 MSTORE PUSH1 0x1 PUSH1 0x20 SWAP1 DUP2 MSTORE PUSH1 0x40 DUP1 DUP4 KECCAK256 SWAP4 DUP8 AND DUP4 MSTORE SWAP3 SWAP1 MSTORE KECCAK256 DUP3 SWAP1 SSTORE DUP1 ISZERO PUSH2 0x72D JUMPI DUP3 PUSH1 0x1 PUSH1 0x1 PUSH1 0xA0 SHL SUB AND DUP5 PUSH1 0x1 PUSH1 0x1 PUSH1 0xA0 SHL SUB AND PUSH32 0x8C5BE1E5EBEC7D5BD14F71427D1E84F3DD0314C0F7B2291E5B200AC8C7C3B925 DUP5 PUSH1 0x40 MLOAD PUSH2 0x90E SWAP2 DUP2 MSTORE PUSH1 0x20 ADD SWAP1 JUMP JUMPDEST PUSH1 0x40 MLOAD DUP1 SWAP2 SUB SWAP1 LOG3 POP POP POP POP JUMP JUMPDEST PUSH1 0x1 PUSH1 0x1 PUSH1 0xA0 SHL SUB DUP4 AND PUSH2 0x947 JUMPI DUP1 PUSH1 0x2 PUSH1 0x0 DUP3 DUP3 SLOAD PUSH2 0x93C SWAP2 SWAP1 PUSH2 0xBA5 JUMP JUMPDEST SWAP1 SWAP2 SSTORE POP PUSH2 0x9B9 SWAP1 POP JUMP JUMPDEST PUSH1 0x1 PUSH1 0x1 PUSH1 0xA0 SHL SUB DUP4 AND PUSH1 0x0 SWAP1 DUP2 MSTORE PUSH1 0x20 DUP2 SWAP1 MSTORE PUSH1 0x40 SWAP1 KECCAK256 SLOAD DUP2 DUP2 LT ISZERO PUSH2 0x99A JUMPI PUSH1 0x40 MLOAD PUSH4 0x391434E3 PUSH1 0xE2 SHL DUP2 MSTORE PUSH1 0x1 PUSH1 0x1 PUSH1 0xA0 SHL SUB DUP6 AND PUSH1 0x4 DUP3 ADD MSTORE PUSH1 0x24 DUP2 ADD DUP3 SWAP1 MSTORE PUSH1 0x44 DUP2 ADD DUP4 SWAP1 MSTORE PUSH1 0x64 ADD PUSH2 0x3D1 JUMP JUMPDEST PUSH1 0x1 PUSH1 0x1 PUSH1 0xA0 SHL SUB DUP5 AND PUSH1 0x0 SWAP1 DUP2 MSTORE PUSH1 0x20 DUP2 SWAP1 MSTORE PUSH1 0x40 SWAP1 KECCAK256 SWAP1 DUP3 SWAP1 SUB SWAP1 SSTORE JUMPDEST PUSH1 0x1 PUSH1 0x1 PUSH1 0xA0 SHL SUB DUP3 AND PUSH2 0x9D5 JUMPI PUSH1 0x2 DUP1 SLOAD DUP3 SWAP1 SUB SWAP1 SSTORE PUSH2 0x9F4 JUMP JUMPDEST PUSH1 0x1 PUSH1 0x1 PUSH1 0xA0 SHL SUB DUP3 AND PUSH1 0x0 SWAP1 DUP2 MSTORE PUSH1 0x20 DUP2 SWAP1 MSTORE PUSH1 0x40 SWAP1 KECCAK256 DUP1 SLOAD DUP3 ADD SWAP1 SSTORE JUMPDEST DUP2 PUSH1 0x1 PUSH1 0x1 PUSH1 0xA0 SHL SUB AND DUP4 PUSH1 0x1 PUSH1 0x1 PUSH1 0xA0 SHL SUB AND PUSH32 0xDDF252AD1BE2C89B69C2B068FC378DAA952BA7F163C4A11628F55A4DF523B3EF DUP4 PUSH1 0x40 MLOAD PUSH2 0xA39 SWAP2 DUP2 MSTORE PUSH1 0x20 ADD SWAP1 JUMP JUMPDEST PUSH1 0x40 MLOAD DUP1 SWAP2 SUB SWAP1 LOG3 POP POP POP JUMP JUMPDEST PUSH1 0x0 PUSH1 0x20 DUP1 DUP4 MSTORE DUP4 MLOAD DUP1 DUP3 DUP6 ADD MSTORE PUSH1 0x0 JUMPDEST DUP2 DUP2 LT ISZERO PUSH2 0xA73 JUMPI DUP6 DUP2 ADD DUP4 ADD MLOAD DUP6 DUP3 ADD PUSH1 0x40 ADD MSTORE DUP3 ADD PUSH2 0xA57 JUMP JUMPDEST POP PUSH1 0x0 PUSH1 0x40 DUP3 DUP7 ADD ADD MSTORE PUSH1 0x40 PUSH1 0x1F NOT PUSH1 0x1F DUP4 ADD AND DUP6 ADD ADD SWAP3 POP POP POP SWAP3 SWAP2 POP POP JUMP JUMPDEST DUP1 CALLDATALOAD PUSH1 0x1 PUSH1 0x1 PUSH1 0xA0 SHL SUB DUP2 AND DUP2 EQ PUSH2 0xAAB JUMPI PUSH1 0x0 DUP1 REVERT JUMPDEST SWAP2 SWAP1 POP JUMP JUMPDEST PUSH1 0x0 DUP1 PUSH1 0x40 DUP4 DUP6 SUB SLT ISZERO PUSH2 0xAC3 JUMPI PUSH1 0x0 DUP1 REVERT JUMPDEST PUSH2 0xACC DUP4 PUSH2 0xA94 JUMP JUMPDEST SWAP5 PUSH1 0x20 SWAP4 SWAP1 SWAP4 ADD CALLDATALOAD SWAP4 POP POP POP JUMP JUMPDEST PUSH1 0x0 DUP1 PUSH1 0x0 PUSH1 0x60 DUP5 DUP7 SUB SLT ISZERO PUSH2 0xAEF JUMPI PUSH1 0x0 DUP1 REVERT JUMPDEST PUSH2 0xAF8 DUP5 PUSH2 0xA94 JUMP JUMPDEST SWAP3 POP PUSH2 0xB06 PUSH1 0x20 DUP6 ADD PUSH2 0xA94 JUMP JUMPDEST SWAP2 POP PUSH1 0x40 DUP5 ADD CALLDATALOAD SWAP1 POP SWAP3 POP SWAP3 POP SWAP3 JUMP JUMPDEST PUSH1 0x0 PUSH1 0x20 DUP3 DUP5 SUB SLT ISZERO PUSH2 0xB28 JUMPI PUSH1 0x0 DUP1 REVERT JUMPDEST PUSH2 0xB31 DUP3 PUSH2 0xA94 JUMP JUMPDEST SWAP4 SWAP3 POP POP POP JUMP JUMPDEST PUSH1 0x0 DUP1 PUSH1 0x40 DUP4 DUP6 SUB SLT ISZERO PUSH2 0xB4B JUMPI PUSH1 0x0 DUP1 REVERT JUMPDEST PUSH2 0xB54 DUP4 PUSH2 0xA94 JUMP JUMPDEST SWAP2 POP PUSH2 0xB62 PUSH1 0x20 DUP5 ADD PUSH2 0xA94 JUMP JUMPDEST SWAP1 POP SWAP3 POP SWAP3 SWAP1 POP JUMP JUMPDEST PUSH1 0x1 DUP2 DUP2 SHR SWAP1 DUP3 AND DUP1 PUSH2 0xB7F JUMPI PUSH1 0x7F DUP3 AND SWAP2 POP JUMPDEST PUSH1 0x20 DUP3 LT DUP2 SUB PUSH2 0xB9F JUMPI PUSH4 0x4E487B71 PUSH1 0xE0 SHL PUSH1 0x0 MSTORE PUSH1 0x22 PUSH1 0x4 MSTORE PUSH1 0x24 PUSH1 0x0 REVERT JUMPDEST POP SWAP2 SWAP1 POP JUMP JUMPDEST DUP1 DUP3 ADD DUP1 DUP3 GT ISZERO PUSH2 0x4BA JUMPI PUSH4 0x4E487B71 PUSH1 0xE0 SHL PUSH1 0x0 MSTORE PUSH1 0x11 PUSH1 0x4 MSTORE PUSH1 0x24 PUSH1 0x0 REVERT INVALID LOG2 PUSH5 0x6970667358 0x22 SLT KECCAK256 0xAD 0xD9 0xD0 0x4C 0xC4 PUSH1 0x88 DUP15 0xCF SWAP8 SHR 0x25 0xDB JUMP 0xC5 CALLDATALOAD SLOAD KECCAK256 0xA9 0xB7 0x4D PUSH0 0x23 0x28 0x4C 0xC4 0xDC MULMOD 0xB1 0xE0 PUSH21 0xAF64736F6C63430008140033000000000000000000 "
				},
				"gasEstimates": {
					"creation": {
						"codeDepositCost": "613600",
						"executionCost": "infinite",
						"totalCost": "infinite"
					},
					"external": {
						"allowance(address,address)": "infinite",
						"approve(address,uint256)": "24784",
						"balanceOf(address)": "2585",
						"claimRent()": "212",
						"decimals()": "244",
						"distributeRent()": "1495",
						"mint(address,uint256)": "infinite",
						"name()": "infinite",
						"owner()": "2442",
						"propertyNFT()": "2426",
						"renounceOwnership()": "infinite",
						"setPropertyNFT(address)": "28872",
						"symbol()": "infinite",
						"totalPropertyValue()": "2361",
						"totalSupply()": "2371",
						"totalTokenSupply()": "2318",
						"transfer(address,uint256)": "51266",
						"transferFrom(address,address,uint256)": "infinite",
						"transferOwnership(address)": "28446"
					}
				},
				"methodIdentifiers": {
					"allowance(address,address)": "dd62ed3e",
					"approve(address,uint256)": "095ea7b3",
					"balanceOf(address)": "70a08231",
					"claimRent()": "8cbe5104",
					"decimals()": "313ce567",
					"distributeRent()": "0293c8f6",
					"mint(address,uint256)": "40c10f19",
					"name()": "06fdde03",
					"owner()": "8da5cb5b",
					"propertyNFT()": "37f76838",
					"renounceOwnership()": "715018a6",
					"setPropertyNFT(address)": "5f1fbccc",
					"symbol()": "95d89b41",
					"totalPropertyValue()": "d7fac34b",
					"totalSupply()": "18160ddd",
					"totalTokenSupply()": "1ca8b6cb",
					"transfer(address,uint256)": "a9059cbb",
					"transferFrom(address,address,uint256)": "23b872dd",
					"transferOwnership(address)": "f2fde38b"
				}
			},
			"storageLayout": {
				"storage": [
					{
						"astId": 434,
						"contract": "contracts/tokens/PropertyToken.sol:PropertyToken",
						"label": "_balances",
						"offset": 0,
						"slot": "0",
						"type": "t_mapping(t_address,t_uint256)"
					},
					{
						"astId": 440,
						"contract": "contracts/tokens/PropertyToken.sol:PropertyToken",
						"label": "_allowances",
						"offset": 0,
						"slot": "1",
						"type": "t_mapping(t_address,t_mapping(t_address,t_uint256))"
					},
					{
						"astId": 442,
						"contract": "contracts/tokens/PropertyToken.sol:PropertyToken",
						"label": "_totalSupply",
						"offset": 0,
						"slot": "2",
						"type": "t_uint256"
					},
					{
						"astId": 444,
						"contract": "contracts/tokens/PropertyToken.sol:PropertyToken",
						"label": "_name",
						"offset": 0,
						"slot": "3",
						"type": "t_string_storage"
					},
					{
						"astId": 446,
						"contract": "contracts/tokens/PropertyToken.sol:PropertyToken",
						"label": "_symbol",
						"offset": 0,
						"slot": "4",
						"type": "t_string_storage"
					},
					{
						"astId": 135,
						"contract": "contracts/tokens/PropertyToken.sol:PropertyToken",
						"label": "_owner",
						"offset": 0,
						"slot": "5",
						"type": "t_address"
					},
					{
						"astId": 9,
						"contract": "contracts/tokens/PropertyToken.sol:PropertyToken",
						"label": "propertyNFT",
						"offset": 0,
						"slot": "6",
						"type": "t_address"
					},
					{
						"astId": 11,
						"contract": "contracts/tokens/PropertyToken.sol:PropertyToken",
						"label": "totalPropertyValue",
						"offset": 0,
						"slot": "7",
						"type": "t_uint256"
					},
					{
						"astId": 13,
						"contract": "contracts/tokens/PropertyToken.sol:PropertyToken",
						"label": "totalTokenSupply",
						"offset": 0,
						"slot": "8",
						"type": "t_uint256"
					}
				],
				"types": {
					"t_address": {
						"encoding": "inplace",
						"label": "address",
						"numberOfBytes": "20"
					},
					"t_mapping(t_address,t_mapping(t_address,t_uint256))": {
						"encoding": "mapping",
						"key": "t_address",
						"label": "mapping(address => mapping(address => uint256))",
						"numberOfBytes": "32",
						"value": "t_mapping(t_address,t_uint256)"
					},
					"t_mapping(t_address,t_uint256)": {
						"encoding": "mapping",
						"key": "t_address",
						"label": "mapping(address => uint256)",
						"numberOfBytes": "32",
						"value": "t_uint256"
					},
					"t_string_storage": {
						"encoding": "bytes",
						"label": "string",
						"numberOfBytes": "32"
					},
					"t_uint256": {
						"encoding": "inplace",
						"label": "uint256",
						"numberOfBytes": "32"
					}
				}
			},
			"userdoc": {
				"kind": "user",
				"methods": {},
				"version": 1
			}
		}
	}
}