{
	"contracts/registry/PropertyRegistry.sol": {
		"PropertyRegistry": {
			"abi": [
				{
					"inputs": [
						{
							"internalType": "address",
							"name": "initialOwner",
							"type": "address"
						}
					],
					"stateMutability": "nonpayable",
					"type": "constructor"
				},
				{
					"inputs": [
						{
							"internalType": "address",
							"name": "owner",
							"type": "address"
						}
					],
					"name": "OwnableInvalidOwner",
					"type": "error"
				},
				{
					"inputs": [
						{
							"internalType": "address",
							"name": "account",
							"type": "address"
						}
					],
					"name": "OwnableUnauthorizedAccount",
					"type": "error"
				},
				{
					"anonymous": false,
					"inputs": [
						{
							"indexed": true,
							"internalType": "address",
							"name": "previousOwner",
							"type": "address"
						},
						{
							"indexed": true,
							"internalType": "address",
							"name": "newOwner",
							"type": "address"
						}
					],
					"name": "OwnershipTransferred",
					"type": "event"
				},
				{
					"anonymous": false,
					"inputs": [
						{
							"indexed": true,
							"internalType": "address",
							"name": "propertyNFT",
							"type": "address"
						},
						{
							"indexed": true,
							"internalType": "address",
							"name": "propertyToken",
							"type": "address"
						},
						{
							"indexed": false,
							"internalType": "uint256",
							"name": "timestamp",
							"type": "uint256"
						}
					],
					"name": "PropertyRegistered",
					"type": "event"
				},
				{
					"anonymous": false,
					"inputs": [
						{
							"indexed": true,
							"internalType": "address",
							"name": "propertyNFT",
							"type": "address"
						},
						{
							"indexed": false,
							"internalType": "bool",
							"name": "isActive",
							"type": "bool"
						}
					],
					"name": "PropertyStatusChanged",
					"type": "event"
				},
				{
					"inputs": [],
					"name": "getActivePropertiesCount",
					"outputs": [
						{
							"internalType": "uint256",
							"name": "",
							"type": "uint256"
						}
					],
					"stateMutability": "view",
					"type": "function"
				},
				{
					"inputs": [],
					"name": "getAllProperties",
					"outputs": [
						{
							"components": [
								{
									"internalType": "address",
									"name": "propertyNFT",
									"type": "address"
								},
								{
									"internalType": "address",
									"name": "propertyToken",
									"type": "address"
								},
								{
									"internalType": "bool",
									"name": "isActive",
									"type": "bool"
								},
								{
									"internalType": "uint256",
									"name": "registrationDate",
									"type": "uint256"
								}
							],
							"internalType": "struct PropertyRegistry.RegisteredProperty[]",
							"name": "",
							"type": "tuple[]"
						}
					],
					"stateMutability": "view",
					"type": "function"
				},
				{
					"inputs": [],
					"name": "owner",
					"outputs": [
						{
							"internalType": "address",
							"name": "",
							"type": "address"
						}
					],
					"stateMutability": "view",
					"type": "function"
				},
				{
					"inputs": [
						{
							"internalType": "address",
							"name": "",
							"type": "address"
						}
					],
					"name": "propertyIndex",
					"outputs": [
						{
							"internalType": "uint256",
							"name": "",
							"type": "uint256"
						}
					],
					"stateMutability": "view",
					"type": "function"
				},
				{
					"inputs": [
						{
							"internalType": "address",
							"name": "_propertyNFT",
							"type": "address"
						},
						{
							"internalType": "address",
							"name": "_propertyToken",
							"type": "address"
						}
					],
					"name": "registerProperty",
					"outputs": [],
					"stateMutability": "nonpayable",
					"type": "function"
				},
				{
					"inputs": [
						{
							"internalType": "uint256",
							"name": "",
							"type": "uint256"
						}
					],
					"name": "registeredProperties",
					"outputs": [
						{
							"internalType": "address",
							"name": "propertyNFT",
							"type": "address"
						},
						{
							"internalType": "address",
							"name": "propertyToken",
							"type": "address"
						},
						{
							"internalType": "bool",
							"name": "isActive",
							"type": "bool"
						},
						{
							"internalType": "uint256",
							"name": "registrationDate",
							"type": "uint256"
						}
					],
					"stateMutability": "view",
					"type": "function"
				},
				{
					"inputs": [],
					"name": "renounceOwnership",
					"outputs": [],
					"stateMutability": "nonpayable",
					"type": "function"
				},
				{
					"inputs": [
						{
							"internalType": "address",
							"name": "_propertyNFT",
							"type": "address"
						},
						{
							"internalType": "bool",
							"name": "_isActive",
							"type": "bool"
						}
					],
					"name": "setPropertyStatus",
					"outputs": [],
					"stateMutability": "nonpayable",
					"type": "function"
				},
				{
					"inputs": [
						{
							"internalType": "address",
							"name": "newOwner",
							"type": "address"
						}
					],
					"name": "transferOwnership",
					"outputs": [],
					"stateMutability": "nonpayable",
					"type": "function"
				}
			],
			"devdoc": {
				"errors": {
					"OwnableInvalidOwner(address)": [
						{
							"details": "The owner is not a valid owner account. (eg. `address(0)`)"
						}
					],
					"OwnableUnauthorizedAccount(address)": [
						{
							"details": "The caller account is not authorized to perform an operation."
						}
					]
				},
				"kind": "dev",
				"methods": {
					"owner()": {
						"details": "Returns the address of the current owner."
					},
					"renounceOwnership()": {
						"details": "Leaves the contract without owner. It will not be possible to call `onlyOwner` functions. Can only be called by the current owner. NOTE: Renouncing ownership will leave the contract without an owner, thereby disabling any functionality that is only available to the owner."
					},
					"transferOwnership(address)": {
						"details": "Transfers ownership of the contract to a new account (`newOwner`). Can only be called by the current owner."
					}
				},
				"version": 1
			},
			"evm": {
				"assembly": "    /* \"contracts/registry/PropertyRegistry.sol\":165:2592  contract PropertyRegistry is Ownable {... */\n  mstore(0x40, 0x80)\n    /* \"contracts/registry/PropertyRegistry.sol\":818:876  constructor(address initialOwner) Ownable(initialOwner) {} */\n  callvalue\n  dup1\n  iszero\n  tag_1\n  jumpi\n  revert(0x00, 0x00)\ntag_1:\n  pop\n  mload(0x40)\n  sub(codesize, bytecodeSize)\n  dup1\n  bytecodeSize\n  dup4\n  codecopy\n  dup2\n  dup2\n  add\n  0x40\n  mstore\n  dup2\n  add\n  swap1\n  tag_2\n  swap2\n  swap1\n  tag_3\n  jump\t// in\ntag_2:\n    /* \"contracts/registry/PropertyRegistry.sol\":860:872  initialOwner */\n  dup1\n    /* \"https://github.com/OpenZeppelin/openzeppelin-contracts/blob/v5.0.0/contracts/access/Ownable.sol\":1297:1298  0 */\n  0x00\n    /* \"https://github.com/OpenZeppelin/openzeppelin-contracts/blob/v5.0.0/contracts/access/Ownable.sol\":1273:1299  initialOwner == address(0) */\n  0xffffffffffffffffffffffffffffffffffffffff\n  and\n    /* \"https://github.com/OpenZeppelin/openzeppelin-contracts/blob/v5.0.0/contracts/access/Ownable.sol\":1273:1285  initialOwner */\n  dup2\n    /* \"https://github.com/OpenZeppelin/openzeppelin-contracts/blob/v5.0.0/contracts/access/Ownable.sol\":1273:1299  initialOwner == address(0) */\n  0xffffffffffffffffffffffffffffffffffffffff\n  and\n  sub\n    /* \"https://github.com/OpenZeppelin/openzeppelin-contracts/blob/v5.0.0/contracts/access/Ownable.sol\":1269:1364  if (initialOwner == address(0)) {... */\n  tag_7\n  jumpi\n    /* \"https://github.com/OpenZeppelin/openzeppelin-contracts/blob/v5.0.0/contracts/access/Ownable.sol\":1350:1351  0 */\n  0x00\n    /* \"https://github.com/OpenZeppelin/openzeppelin-contracts/blob/v5.0.0/contracts/access/Ownable.sol\":1322:1353  OwnableInvalidOwner(address(0)) */\n  mload(0x40)\n  0x1e4fbdf700000000000000000000000000000000000000000000000000000000\n  dup2\n  mstore\n  0x04\n  add\n  tag_8\n  swap2\n  swap1\n  tag_9\n  jump\t// in\ntag_8:\n  mload(0x40)\n  dup1\n  swap2\n  sub\n  swap1\n  revert\n    /* \"https://github.com/OpenZeppelin/openzeppelin-contracts/blob/v5.0.0/contracts/access/Ownable.sol\":1269:1364  if (initialOwner == address(0)) {... */\ntag_7:\n    /* \"https://github.com/OpenZeppelin/openzeppelin-contracts/blob/v5.0.0/contracts/access/Ownable.sol\":1373:1405  _transferOwnership(initialOwner) */\n  tag_10\n    /* \"https://github.com/OpenZeppelin/openzeppelin-contracts/blob/v5.0.0/contracts/access/Ownable.sol\":1392:1404  initialOwner */\n  dup2\n    /* \"https://github.com/OpenZeppelin/openzeppelin-contracts/blob/v5.0.0/contracts/access/Ownable.sol\":1373:1391  _transferOwnership */\n  shl(0x20, tag_11)\n    /* \"https://github.com/OpenZeppelin/openzeppelin-contracts/blob/v5.0.0/contracts/access/Ownable.sol\":1373:1405  _transferOwnership(initialOwner) */\n  0x20\n  shr\n  jump\t// in\ntag_10:\n    /* \"https://github.com/OpenZeppelin/openzeppelin-contracts/blob/v5.0.0/contracts/access/Ownable.sol\":1225:1412  constructor(address initialOwner) {... */\n  pop\n    /* \"contracts/registry/PropertyRegistry.sol\":818:876  constructor(address initialOwner) Ownable(initialOwner) {} */\n  pop\n    /* \"contracts/registry/PropertyRegistry.sol\":165:2592  contract PropertyRegistry is Ownable {... */\n  jump(tag_13)\n    /* \"https://github.com/OpenZeppelin/openzeppelin-contracts/blob/v5.0.0/contracts/access/Ownable.sol\":2912:3099  function _transferOwnership(address newOwner) internal virtual {... */\ntag_11:\n    /* \"https://github.com/OpenZeppelin/openzeppelin-contracts/blob/v5.0.0/contracts/access/Ownable.sol\":2985:3001  address oldOwner */\n  0x00\n    /* \"https://github.com/OpenZeppelin/openzeppelin-contracts/blob/v5.0.0/contracts/access/Ownable.sol\":3004:3010  _owner */\n  0x00\n  0x00\n  swap1\n  sload\n  swap1\n  0x0100\n  exp\n  swap1\n  div\n  0xffffffffffffffffffffffffffffffffffffffff\n  and\n    /* \"https://github.com/OpenZeppelin/openzeppelin-contracts/blob/v5.0.0/contracts/access/Ownable.sol\":2985:3010  address oldOwner = _owner */\n  swap1\n  pop\n    /* \"https://github.com/OpenZeppelin/openzeppelin-contracts/blob/v5.0.0/contracts/access/Ownable.sol\":3029:3037  newOwner */\n  dup2\n    /* \"https://github.com/OpenZeppelin/openzeppelin-contracts/blob/v5.0.0/contracts/access/Ownable.sol\":3020:3026  _owner */\n  0x00\n  0x00\n    /* \"https://github.com/OpenZeppelin/openzeppelin-contracts/blob/v5.0.0/contracts/access/Ownable.sol\":3020:3037  _owner = newOwner */\n  0x0100\n  exp\n  dup2\n  sload\n  dup2\n  0xffffffffffffffffffffffffffffffffffffffff\n  mul\n  not\n  and\n  swap1\n  dup4\n  0xffffffffffffffffffffffffffffffffffffffff\n  and\n  mul\n  or\n  swap1\n  sstore\n  pop\n    /* \"https://github.com/OpenZeppelin/openzeppelin-contracts/blob/v5.0.0/contracts/access/Ownable.sol\":3083:3091  newOwner */\n  dup2\n    /* \"https://github.com/OpenZeppelin/openzeppelin-contracts/blob/v5.0.0/contracts/access/Ownable.sol\":3052:3092  OwnershipTransferred(oldOwner, newOwner) */\n  0xffffffffffffffffffffffffffffffffffffffff\n  and\n    /* \"https://github.com/OpenZeppelin/openzeppelin-contracts/blob/v5.0.0/contracts/access/Ownable.sol\":3073:3081  oldOwner */\n  dup2\n    /* \"https://github.com/OpenZeppelin/openzeppelin-contracts/blob/v5.0.0/contracts/access/Ownable.sol\":3052:3092  OwnershipTransferred(oldOwner, newOwner) */\n  0xffffffffffffffffffffffffffffffffffffffff\n  and\n  0x8be0079c531659141344cd1fd0a4f28419497f9722a3daafe3b4186f6b6457e0\n  mload(0x40)\n  mload(0x40)\n  dup1\n  swap2\n  sub\n  swap1\n  log3\n    /* \"https://github.com/OpenZeppelin/openzeppelin-contracts/blob/v5.0.0/contracts/access/Ownable.sol\":2975:3099  {... */\n  pop\n    /* \"https://github.com/OpenZeppelin/openzeppelin-contracts/blob/v5.0.0/contracts/access/Ownable.sol\":2912:3099  function _transferOwnership(address newOwner) internal virtual {... */\n  pop\n  jump\t// out\n    /* \"#utility.yul\":88:205   */\ntag_16:\n    /* \"#utility.yul\":197:198   */\n  0x00\n    /* \"#utility.yul\":194:195   */\n  0x00\n    /* \"#utility.yul\":187:199   */\n  revert\n    /* \"#utility.yul\":334:460   */\ntag_18:\n    /* \"#utility.yul\":371:378   */\n  0x00\n    /* \"#utility.yul\":411:453   */\n  0xffffffffffffffffffffffffffffffffffffffff\n    /* \"#utility.yul\":404:409   */\n  dup3\n    /* \"#utility.yul\":400:454   */\n  and\n    /* \"#utility.yul\":389:454   */\n  swap1\n  pop\n    /* \"#utility.yul\":334:460   */\n  swap2\n  swap1\n  pop\n  jump\t// out\n    /* \"#utility.yul\":466:562   */\ntag_19:\n    /* \"#utility.yul\":503:510   */\n  0x00\n    /* \"#utility.yul\":532:556   */\n  tag_29\n    /* \"#utility.yul\":550:555   */\n  dup3\n    /* \"#utility.yul\":532:556   */\n  tag_18\n  jump\t// in\ntag_29:\n    /* \"#utility.yul\":521:556   */\n  swap1\n  pop\n    /* \"#utility.yul\":466:562   */\n  swap2\n  swap1\n  pop\n  jump\t// out\n    /* \"#utility.yul\":568:690   */\ntag_20:\n    /* \"#utility.yul\":641:665   */\n  tag_31\n    /* \"#utility.yul\":659:664   */\n  dup2\n    /* \"#utility.yul\":641:665   */\n  tag_19\n  jump\t// in\ntag_31:\n    /* \"#utility.yul\":634:639   */\n  dup2\n    /* \"#utility.yul\":631:666   */\n  eq\n    /* \"#utility.yul\":621:684   */\n  tag_32\n  jumpi\n    /* \"#utility.yul\":680:681   */\n  0x00\n    /* \"#utility.yul\":677:678   */\n  0x00\n    /* \"#utility.yul\":670:682   */\n  revert\n    /* \"#utility.yul\":621:684   */\ntag_32:\n    /* \"#utility.yul\":568:690   */\n  pop\n  jump\t// out\n    /* \"#utility.yul\":696:839   */\ntag_21:\n    /* \"#utility.yul\":753:758   */\n  0x00\n    /* \"#utility.yul\":784:790   */\n  dup2\n    /* \"#utility.yul\":778:791   */\n  mload\n    /* \"#utility.yul\":769:791   */\n  swap1\n  pop\n    /* \"#utility.yul\":800:833   */\n  tag_34\n    /* \"#utility.yul\":827:832   */\n  dup2\n    /* \"#utility.yul\":800:833   */\n  tag_20\n  jump\t// in\ntag_34:\n    /* \"#utility.yul\":696:839   */\n  swap3\n  swap2\n  pop\n  pop\n  jump\t// out\n    /* \"#utility.yul\":845:1196   */\ntag_3:\n    /* \"#utility.yul\":915:921   */\n  0x00\n    /* \"#utility.yul\":964:966   */\n  0x20\n    /* \"#utility.yul\":952:961   */\n  dup3\n    /* \"#utility.yul\":943:950   */\n  dup5\n    /* \"#utility.yul\":939:962   */\n  sub\n    /* \"#utility.yul\":935:967   */\n  slt\n    /* \"#utility.yul\":932:1051   */\n  iszero\n  tag_36\n  jumpi\n    /* \"#utility.yul\":970:1049   */\n  tag_37\n  tag_16\n  jump\t// in\ntag_37:\n    /* \"#utility.yul\":932:1051   */\ntag_36:\n    /* \"#utility.yul\":1090:1091   */\n  0x00\n    /* \"#utility.yul\":1115:1179   */\n  tag_38\n    /* \"#utility.yul\":1171:1178   */\n  dup5\n    /* \"#utility.yul\":1162:1168   */\n  dup3\n    /* \"#utility.yul\":1151:1160   */\n  dup6\n    /* \"#utility.yul\":1147:1169   */\n  add\n    /* \"#utility.yul\":1115:1179   */\n  tag_21\n  jump\t// in\ntag_38:\n    /* \"#utility.yul\":1105:1179   */\n  swap2\n  pop\n    /* \"#utility.yul\":1061:1189   */\n  pop\n    /* \"#utility.yul\":845:1196   */\n  swap3\n  swap2\n  pop\n  pop\n  jump\t// out\n    /* \"#utility.yul\":1202:1320   */\ntag_22:\n    /* \"#utility.yul\":1289:1313   */\n  tag_40\n    /* \"#utility.yul\":1307:1312   */\n  dup2\n    /* \"#utility.yul\":1289:1313   */\n  tag_19\n  jump\t// in\ntag_40:\n    /* \"#utility.yul\":1284:1287   */\n  dup3\n    /* \"#utility.yul\":1277:1314   */\n  mstore\n    /* \"#utility.yul\":1202:1320   */\n  pop\n  pop\n  jump\t// out\n    /* \"#utility.yul\":1326:1548   */\ntag_9:\n    /* \"#utility.yul\":1419:1423   */\n  0x00\n    /* \"#utility.yul\":1457:1459   */\n  0x20\n    /* \"#utility.yul\":1446:1455   */\n  dup3\n    /* \"#utility.yul\":1442:1460   */\n  add\n    /* \"#utility.yul\":1434:1460   */\n  swap1\n  pop\n    /* \"#utility.yul\":1470:1541   */\n  tag_42\n    /* \"#utility.yul\":1538:1539   */\n  0x00\n    /* \"#utility.yul\":1527:1536   */\n  dup4\n    /* \"#utility.yul\":1523:1540   */\n  add\n    /* \"#utility.yul\":1514:1520   */\n  dup5\n    /* \"#utility.yul\":1470:1541   */\n  tag_22\n  jump\t// in\ntag_42:\n    /* \"#utility.yul\":1326:1548   */\n  swap3\n  swap2\n  pop\n  pop\n  jump\t// out\n    /* \"contracts/registry/PropertyRegistry.sol\":165:2592  contract PropertyRegistry is Ownable {... */\ntag_13:\n  dataSize(sub_0)\n  dup1\n  dataOffset(sub_0)\n  0x00\n  codecopy\n  0x00\n  return\nstop\n\nsub_0: assembly {\n        /* \"contracts/registry/PropertyRegistry.sol\":165:2592  contract PropertyRegistry is Ownable {... */\n      mstore(0x40, 0x80)\n      callvalue\n      dup1\n      iszero\n      tag_1\n      jumpi\n      revert(0x00, 0x00)\n    tag_1:\n      pop\n      jumpi(tag_2, lt(calldatasize, 0x04))\n      shr(0xe0, calldataload(0x00))\n      dup1\n      0x715018a6\n      gt\n      tag_12\n      jumpi\n      dup1\n      0x715018a6\n      eq\n      tag_7\n      jumpi\n      dup1\n      0x8da5cb5b\n      eq\n      tag_8\n      jumpi\n      dup1\n      0xa4beaa58\n      eq\n      tag_9\n      jumpi\n      dup1\n      0xaaf02937\n      eq\n      tag_10\n      jumpi\n      dup1\n      0xf2fde38b\n      eq\n      tag_11\n      jumpi\n      jump(tag_2)\n    tag_12:\n      dup1\n      0x02fb243a\n      eq\n      tag_3\n      jumpi\n      dup1\n      0x2e4774c6\n      eq\n      tag_4\n      jumpi\n      dup1\n      0x3d51402c\n      eq\n      tag_5\n      jumpi\n      dup1\n      0x603ddf11\n      eq\n      tag_6\n      jumpi\n    tag_2:\n      revert(0x00, 0x00)\n        /* \"contracts/registry/PropertyRegistry.sol\":917:1621  function registerProperty(address _propertyNFT, address _propertyToken) external onlyOwner {... */\n    tag_3:\n      tag_13\n      0x04\n      dup1\n      calldatasize\n      sub\n      dup2\n      add\n      swap1\n      tag_14\n      swap2\n      swap1\n      tag_15\n      jump\t// in\n    tag_14:\n      tag_16\n      jump\t// in\n    tag_13:\n      stop\n        /* \"contracts/registry/PropertyRegistry.sol\":554:602  mapping(address => uint256) public propertyIndex */\n    tag_4:\n      tag_17\n      0x04\n      dup1\n      calldatasize\n      sub\n      dup2\n      add\n      swap1\n      tag_18\n      swap2\n      swap1\n      tag_19\n      jump\t// in\n    tag_18:\n      tag_20\n      jump\t// in\n    tag_17:\n      mload(0x40)\n      tag_21\n      swap2\n      swap1\n      tag_22\n      jump\t// in\n    tag_21:\n      mload(0x40)\n      dup1\n      swap2\n      sub\n      swap1\n      return\n        /* \"contracts/registry/PropertyRegistry.sol\":2128:2252  function getAllProperties() external view returns (RegisteredProperty[] memory) {... */\n    tag_5:\n      tag_23\n      tag_24\n      jump\t// in\n    tag_23:\n      mload(0x40)\n      tag_25\n      swap2\n      swap1\n      tag_26\n      jump\t// in\n    tag_25:\n      mload(0x40)\n      dup1\n      swap2\n      sub\n      swap1\n      return\n        /* \"contracts/registry/PropertyRegistry.sol\":2297:2590  function getActivePropertiesCount() external view returns (uint256) {... */\n    tag_6:\n      tag_27\n      tag_28\n      jump\t// in\n    tag_27:\n      mload(0x40)\n      tag_29\n      swap2\n      swap1\n      tag_22\n      jump\t// in\n    tag_29:\n      mload(0x40)\n      dup1\n      swap2\n      sub\n      swap1\n      return\n        /* \"https://github.com/OpenZeppelin/openzeppelin-contracts/blob/v5.0.0/contracts/access/Ownable.sol\":2293:2394  function renounceOwnership() public virtual onlyOwner {... */\n    tag_7:\n      tag_30\n      tag_31\n      jump\t// in\n    tag_30:\n      stop\n        /* \"https://github.com/OpenZeppelin/openzeppelin-contracts/blob/v5.0.0/contracts/access/Ownable.sol\":1638:1723  function owner() public view virtual returns (address) {... */\n    tag_8:\n      tag_32\n      tag_33\n      jump\t// in\n    tag_32:\n      mload(0x40)\n      tag_34\n      swap2\n      swap1\n      tag_35\n      jump\t// in\n    tag_34:\n      mload(0x40)\n      dup1\n      swap2\n      sub\n      swap1\n      return\n        /* \"contracts/registry/PropertyRegistry.sol\":416:464  RegisteredProperty[] public registeredProperties */\n    tag_9:\n      tag_36\n      0x04\n      dup1\n      calldatasize\n      sub\n      dup2\n      add\n      swap1\n      tag_37\n      swap2\n      swap1\n      tag_38\n      jump\t// in\n    tag_37:\n      tag_39\n      jump\t// in\n    tag_36:\n      mload(0x40)\n      tag_40\n      swap5\n      swap4\n      swap3\n      swap2\n      swap1\n      tag_41\n      jump\t// in\n    tag_40:\n      mload(0x40)\n      dup1\n      swap2\n      sub\n      swap1\n      return\n        /* \"contracts/registry/PropertyRegistry.sol\":1688:2081  function setPropertyStatus(address _propertyNFT, bool _isActive) external onlyOwner {... */\n    tag_10:\n      tag_42\n      0x04\n      dup1\n      calldatasize\n      sub\n      dup2\n      add\n      swap1\n      tag_43\n      swap2\n      swap1\n      tag_44\n      jump\t// in\n    tag_43:\n      tag_45\n      jump\t// in\n    tag_42:\n      stop\n        /* \"https://github.com/OpenZeppelin/openzeppelin-contracts/blob/v5.0.0/contracts/access/Ownable.sol\":2543:2758  function transferOwnership(address newOwner) public virtual onlyOwner {... */\n    tag_11:\n      tag_46\n      0x04\n      dup1\n      calldatasize\n      sub\n      dup2\n      add\n      swap1\n      tag_47\n      swap2\n      swap1\n      tag_19\n      jump\t// in\n    tag_47:\n      tag_48\n      jump\t// in\n    tag_46:\n      stop\n        /* \"contracts/registry/PropertyRegistry.sol\":917:1621  function registerProperty(address _propertyNFT, address _propertyToken) external onlyOwner {... */\n    tag_16:\n        /* \"https://github.com/OpenZeppelin/openzeppelin-contracts/blob/v5.0.0/contracts/access/Ownable.sol\":1531:1544  _checkOwner() */\n      tag_50\n        /* \"https://github.com/OpenZeppelin/openzeppelin-contracts/blob/v5.0.0/contracts/access/Ownable.sol\":1531:1542  _checkOwner */\n      tag_51\n        /* \"https://github.com/OpenZeppelin/openzeppelin-contracts/blob/v5.0.0/contracts/access/Ownable.sol\":1531:1544  _checkOwner() */\n      jump\t// in\n    tag_50:\n        /* \"contracts/registry/PropertyRegistry.sol\":1118:1119  0 */\n      0x00\n        /* \"contracts/registry/PropertyRegistry.sol\":1087:1100  propertyIndex */\n      0x02\n        /* \"contracts/registry/PropertyRegistry.sol\":1087:1114  propertyIndex[_propertyNFT] */\n      0x00\n        /* \"contracts/registry/PropertyRegistry.sol\":1101:1113  _propertyNFT */\n      dup5\n        /* \"contracts/registry/PropertyRegistry.sol\":1087:1114  propertyIndex[_propertyNFT] */\n      0xffffffffffffffffffffffffffffffffffffffff\n      and\n      0xffffffffffffffffffffffffffffffffffffffff\n      and\n      dup2\n      mstore\n      0x20\n      add\n      swap1\n      dup2\n      mstore\n      0x20\n      add\n      0x00\n      keccak256\n      sload\n        /* \"contracts/registry/PropertyRegistry.sol\":1087:1119  propertyIndex[_propertyNFT] == 0 */\n      eq\n        /* \"contracts/registry/PropertyRegistry.sol\":1079:1151  require(propertyIndex[_propertyNFT] == 0, \"Property already registered\") */\n      tag_53\n      jumpi\n      mload(0x40)\n      0x08c379a000000000000000000000000000000000000000000000000000000000\n      dup2\n      mstore\n      0x04\n      add\n      tag_54\n      swap1\n      tag_55\n      jump\t// in\n    tag_54:\n      mload(0x40)\n      dup1\n      swap2\n      sub\n      swap1\n      revert\n    tag_53:\n        /* \"contracts/registry/PropertyRegistry.sol\":1170:1190  registeredProperties */\n      0x01\n        /* \"contracts/registry/PropertyRegistry.sol\":1196:1383  RegisteredProperty({... */\n      mload(0x40)\n      dup1\n      0x80\n      add\n      0x40\n      mstore\n      dup1\n        /* \"contracts/registry/PropertyRegistry.sol\":1242:1254  _propertyNFT */\n      dup5\n        /* \"contracts/registry/PropertyRegistry.sol\":1196:1383  RegisteredProperty({... */\n      0xffffffffffffffffffffffffffffffffffffffff\n      and\n      dup2\n      mstore\n      0x20\n      add\n        /* \"contracts/registry/PropertyRegistry.sol\":1283:1297  _propertyToken */\n      dup4\n        /* \"contracts/registry/PropertyRegistry.sol\":1196:1383  RegisteredProperty({... */\n      0xffffffffffffffffffffffffffffffffffffffff\n      and\n      dup2\n      mstore\n      0x20\n      add\n        /* \"contracts/registry/PropertyRegistry.sol\":1321:1325  true */\n      0x01\n        /* \"contracts/registry/PropertyRegistry.sol\":1196:1383  RegisteredProperty({... */\n      iszero\n      iszero\n      dup2\n      mstore\n      0x20\n      add\n        /* \"contracts/registry/PropertyRegistry.sol\":1357:1372  block.timestamp */\n      timestamp\n        /* \"contracts/registry/PropertyRegistry.sol\":1196:1383  RegisteredProperty({... */\n      dup2\n      mstore\n      pop\n        /* \"contracts/registry/PropertyRegistry.sol\":1170:1384  registeredProperties.push(RegisteredProperty({... */\n      swap1\n      dup1\n      0x01\n      dup2\n      sload\n      add\n      dup1\n      dup3\n      sstore\n      dup1\n      swap2\n      pop\n      pop\n      0x01\n      swap1\n      sub\n      swap1\n      0x00\n      mstore\n      keccak256(0x00, 0x20)\n      swap1\n      0x03\n      mul\n      add\n      0x00\n      swap1\n      swap2\n      swap1\n      swap2\n      swap1\n      swap2\n      pop\n      0x00\n      dup3\n      add\n      mload\n      dup2\n      0x00\n      add\n      exp(0x0100, 0x00)\n      dup2\n      sload\n      dup2\n      0xffffffffffffffffffffffffffffffffffffffff\n      mul\n      not\n      and\n      swap1\n      dup4\n      0xffffffffffffffffffffffffffffffffffffffff\n      and\n      mul\n      or\n      swap1\n      sstore\n      pop\n      0x20\n      dup3\n      add\n      mload\n      dup2\n      0x01\n      add\n      exp(0x0100, 0x00)\n      dup2\n      sload\n      dup2\n      0xffffffffffffffffffffffffffffffffffffffff\n      mul\n      not\n      and\n      swap1\n      dup4\n      0xffffffffffffffffffffffffffffffffffffffff\n      and\n      mul\n      or\n      swap1\n      sstore\n      pop\n      0x40\n      dup3\n      add\n      mload\n      dup2\n      0x01\n      add\n      exp(0x0100, 0x14)\n      dup2\n      sload\n      dup2\n      0xff\n      mul\n      not\n      and\n      swap1\n      dup4\n      iszero\n      iszero\n      mul\n      or\n      swap1\n      sstore\n      pop\n      0x60\n      dup3\n      add\n      mload\n      dup2\n      0x02\n      add\n      sstore\n      pop\n      pop\n        /* \"contracts/registry/PropertyRegistry.sol\":1498:1518  registeredProperties */\n      0x01\n        /* \"contracts/registry/PropertyRegistry.sol\":1498:1525  registeredProperties.length */\n      dup1\n      sload\n      swap1\n      pop\n        /* \"contracts/registry/PropertyRegistry.sol\":1468:1481  propertyIndex */\n      0x02\n        /* \"contracts/registry/PropertyRegistry.sol\":1468:1495  propertyIndex[_propertyNFT] */\n      0x00\n        /* \"contracts/registry/PropertyRegistry.sol\":1482:1494  _propertyNFT */\n      dup5\n        /* \"contracts/registry/PropertyRegistry.sol\":1468:1495  propertyIndex[_propertyNFT] */\n      0xffffffffffffffffffffffffffffffffffffffff\n      and\n      0xffffffffffffffffffffffffffffffffffffffff\n      and\n      dup2\n      mstore\n      0x20\n      add\n      swap1\n      dup2\n      mstore\n      0x20\n      add\n      0x00\n      keccak256\n        /* \"contracts/registry/PropertyRegistry.sol\":1468:1525  propertyIndex[_propertyNFT] = registeredProperties.length */\n      dup2\n      swap1\n      sstore\n      pop\n        /* \"contracts/registry/PropertyRegistry.sol\":1582:1596  _propertyToken */\n      dup1\n        /* \"contracts/registry/PropertyRegistry.sol\":1549:1614  PropertyRegistered(_propertyNFT, _propertyToken, block.timestamp) */\n      0xffffffffffffffffffffffffffffffffffffffff\n      and\n        /* \"contracts/registry/PropertyRegistry.sol\":1568:1580  _propertyNFT */\n      dup3\n        /* \"contracts/registry/PropertyRegistry.sol\":1549:1614  PropertyRegistered(_propertyNFT, _propertyToken, block.timestamp) */\n      0xffffffffffffffffffffffffffffffffffffffff\n      and\n      0x893a9c1d8d241f202772e01f1eaa3cea88cd9b2a5bb4ebd1f98bc7df4f740fac\n        /* \"contracts/registry/PropertyRegistry.sol\":1598:1613  block.timestamp */\n      timestamp\n        /* \"contracts/registry/PropertyRegistry.sol\":1549:1614  PropertyRegistered(_propertyNFT, _propertyToken, block.timestamp) */\n      mload(0x40)\n      tag_57\n      swap2\n      swap1\n      tag_22\n      jump\t// in\n    tag_57:\n      mload(0x40)\n      dup1\n      swap2\n      sub\n      swap1\n      log3\n        /* \"contracts/registry/PropertyRegistry.sol\":917:1621  function registerProperty(address _propertyNFT, address _propertyToken) external onlyOwner {... */\n      pop\n      pop\n      jump\t// out\n        /* \"contracts/registry/PropertyRegistry.sol\":554:602  mapping(address => uint256) public propertyIndex */\n    tag_20:\n      mstore(0x20, 0x02)\n      dup1\n      0x00\n      mstore\n      keccak256(0x00, 0x40)\n      0x00\n      swap2\n      pop\n      swap1\n      pop\n      sload\n      dup2\n      jump\t// out\n        /* \"contracts/registry/PropertyRegistry.sol\":2128:2252  function getAllProperties() external view returns (RegisteredProperty[] memory) {... */\n    tag_24:\n        /* \"contracts/registry/PropertyRegistry.sol\":2179:2206  RegisteredProperty[] memory */\n      0x60\n        /* \"contracts/registry/PropertyRegistry.sol\":2225:2245  registeredProperties */\n      0x01\n        /* \"contracts/registry/PropertyRegistry.sol\":2218:2245  return registeredProperties */\n      dup1\n      sload\n      dup1\n      0x20\n      mul\n      0x20\n      add\n      mload(0x40)\n      swap1\n      dup2\n      add\n      0x40\n      mstore\n      dup1\n      swap3\n      swap2\n      swap1\n      dup2\n      dup2\n      mstore\n      0x20\n      add\n      0x00\n      swap1\n    tag_59:\n      dup3\n      dup3\n      lt\n      iszero\n      tag_60\n      jumpi\n      dup4\n      dup3\n      swap1\n      0x00\n      mstore\n      keccak256(0x00, 0x20)\n      swap1\n      0x03\n      mul\n      add\n      mload(0x40)\n      dup1\n      0x80\n      add\n      0x40\n      mstore\n      swap1\n      dup2\n      0x00\n      dup3\n      add\n      0x00\n      swap1\n      sload\n      swap1\n      0x0100\n      exp\n      swap1\n      div\n      0xffffffffffffffffffffffffffffffffffffffff\n      and\n      0xffffffffffffffffffffffffffffffffffffffff\n      and\n      0xffffffffffffffffffffffffffffffffffffffff\n      and\n      dup2\n      mstore\n      0x20\n      add\n      0x01\n      dup3\n      add\n      0x00\n      swap1\n      sload\n      swap1\n      0x0100\n      exp\n      swap1\n      div\n      0xffffffffffffffffffffffffffffffffffffffff\n      and\n      0xffffffffffffffffffffffffffffffffffffffff\n      and\n      0xffffffffffffffffffffffffffffffffffffffff\n      and\n      dup2\n      mstore\n      0x20\n      add\n      0x01\n      dup3\n      add\n      0x14\n      swap1\n      sload\n      swap1\n      0x0100\n      exp\n      swap1\n      div\n      0xff\n      and\n      iszero\n      iszero\n      iszero\n      iszero\n      dup2\n      mstore\n      0x20\n      add\n      0x02\n      dup3\n      add\n      sload\n      dup2\n      mstore\n      pop\n      pop\n      dup2\n      mstore\n      0x20\n      add\n      swap1\n      0x01\n      add\n      swap1\n      jump(tag_59)\n    tag_60:\n      pop\n      pop\n      pop\n      pop\n      swap1\n      pop\n        /* \"contracts/registry/PropertyRegistry.sol\":2128:2252  function getAllProperties() external view returns (RegisteredProperty[] memory) {... */\n      swap1\n      jump\t// out\n        /* \"contracts/registry/PropertyRegistry.sol\":2297:2590  function getActivePropertiesCount() external view returns (uint256) {... */\n    tag_28:\n        /* \"contracts/registry/PropertyRegistry.sol\":2356:2363  uint256 */\n      0x00\n        /* \"contracts/registry/PropertyRegistry.sol\":2375:2388  uint256 count */\n      0x00\n        /* \"contracts/registry/PropertyRegistry.sol\":2391:2392  0 */\n      0x00\n        /* \"contracts/registry/PropertyRegistry.sol\":2375:2392  uint256 count = 0 */\n      swap1\n      pop\n        /* \"contracts/registry/PropertyRegistry.sol\":2407:2416  uint256 i */\n      0x00\n        /* \"contracts/registry/PropertyRegistry.sol\":2419:2420  0 */\n      0x00\n        /* \"contracts/registry/PropertyRegistry.sol\":2407:2420  uint256 i = 0 */\n      swap1\n      pop\n        /* \"contracts/registry/PropertyRegistry.sol\":2402:2562  for (uint256 i = 0; i < registeredProperties.length; i++) {... */\n    tag_63:\n        /* \"contracts/registry/PropertyRegistry.sol\":2426:2446  registeredProperties */\n      0x01\n        /* \"contracts/registry/PropertyRegistry.sol\":2426:2453  registeredProperties.length */\n      dup1\n      sload\n      swap1\n      pop\n        /* \"contracts/registry/PropertyRegistry.sol\":2422:2423  i */\n      dup2\n        /* \"contracts/registry/PropertyRegistry.sol\":2422:2453  i < registeredProperties.length */\n      lt\n        /* \"contracts/registry/PropertyRegistry.sol\":2402:2562  for (uint256 i = 0; i < registeredProperties.length; i++) {... */\n      iszero\n      tag_64\n      jumpi\n        /* \"contracts/registry/PropertyRegistry.sol\":2478:2498  registeredProperties */\n      0x01\n        /* \"contracts/registry/PropertyRegistry.sol\":2499:2500  i */\n      dup2\n        /* \"contracts/registry/PropertyRegistry.sol\":2478:2501  registeredProperties[i] */\n      dup2\n      sload\n      dup2\n      lt\n      tag_66\n      jumpi\n      tag_67\n      tag_68\n      jump\t// in\n    tag_67:\n    tag_66:\n      swap1\n      0x00\n      mstore\n      keccak256(0x00, 0x20)\n      swap1\n      0x03\n      mul\n      add\n        /* \"contracts/registry/PropertyRegistry.sol\":2478:2510  registeredProperties[i].isActive */\n      0x01\n      add\n      0x14\n      swap1\n      sload\n      swap1\n      0x0100\n      exp\n      swap1\n      div\n      0xff\n      and\n        /* \"contracts/registry/PropertyRegistry.sol\":2474:2552  if (registeredProperties[i].isActive) {... */\n      iszero\n      tag_70\n      jumpi\n        /* \"contracts/registry/PropertyRegistry.sol\":2530:2537  count++ */\n      dup2\n      dup1\n      tag_71\n      swap1\n      tag_72\n      jump\t// in\n    tag_71:\n      swap3\n      pop\n      pop\n        /* \"contracts/registry/PropertyRegistry.sol\":2474:2552  if (registeredProperties[i].isActive) {... */\n    tag_70:\n        /* \"contracts/registry/PropertyRegistry.sol\":2455:2458  i++ */\n      dup1\n      dup1\n      0x01\n      add\n      swap2\n      pop\n      pop\n        /* \"contracts/registry/PropertyRegistry.sol\":2402:2562  for (uint256 i = 0; i < registeredProperties.length; i++) {... */\n      jump(tag_63)\n    tag_64:\n      pop\n        /* \"contracts/registry/PropertyRegistry.sol\":2578:2583  count */\n      dup1\n        /* \"contracts/registry/PropertyRegistry.sol\":2571:2583  return count */\n      swap2\n      pop\n      pop\n        /* \"contracts/registry/PropertyRegistry.sol\":2297:2590  function getActivePropertiesCount() external view returns (uint256) {... */\n      swap1\n      jump\t// out\n        /* \"https://github.com/OpenZeppelin/openzeppelin-contracts/blob/v5.0.0/contracts/access/Ownable.sol\":2293:2394  function renounceOwnership() public virtual onlyOwner {... */\n    tag_31:\n        /* \"https://github.com/OpenZeppelin/openzeppelin-contracts/blob/v5.0.0/contracts/access/Ownable.sol\":1531:1544  _checkOwner() */\n      tag_74\n        /* \"https://github.com/OpenZeppelin/openzeppelin-contracts/blob/v5.0.0/contracts/access/Ownable.sol\":1531:1542  _checkOwner */\n      tag_51\n        /* \"https://github.com/OpenZeppelin/openzeppelin-contracts/blob/v5.0.0/contracts/access/Ownable.sol\":1531:1544  _checkOwner() */\n      jump\t// in\n    tag_74:\n        /* \"https://github.com/OpenZeppelin/openzeppelin-contracts/blob/v5.0.0/contracts/access/Ownable.sol\":2357:2387  _transferOwnership(address(0)) */\n      tag_76\n        /* \"https://github.com/OpenZeppelin/openzeppelin-contracts/blob/v5.0.0/contracts/access/Ownable.sol\":2384:2385  0 */\n      0x00\n        /* \"https://github.com/OpenZeppelin/openzeppelin-contracts/blob/v5.0.0/contracts/access/Ownable.sol\":2357:2375  _transferOwnership */\n      tag_77\n        /* \"https://github.com/OpenZeppelin/openzeppelin-contracts/blob/v5.0.0/contracts/access/Ownable.sol\":2357:2387  _transferOwnership(address(0)) */\n      jump\t// in\n    tag_76:\n        /* \"https://github.com/OpenZeppelin/openzeppelin-contracts/blob/v5.0.0/contracts/access/Ownable.sol\":2293:2394  function renounceOwnership() public virtual onlyOwner {... */\n      jump\t// out\n        /* \"https://github.com/OpenZeppelin/openzeppelin-contracts/blob/v5.0.0/contracts/access/Ownable.sol\":1638:1723  function owner() public view virtual returns (address) {... */\n    tag_33:\n        /* \"https://github.com/OpenZeppelin/openzeppelin-contracts/blob/v5.0.0/contracts/access/Ownable.sol\":1684:1691  address */\n      0x00\n        /* \"https://github.com/OpenZeppelin/openzeppelin-contracts/blob/v5.0.0/contracts/access/Ownable.sol\":1710:1716  _owner */\n      0x00\n      0x00\n      swap1\n      sload\n      swap1\n      0x0100\n      exp\n      swap1\n      div\n      0xffffffffffffffffffffffffffffffffffffffff\n      and\n        /* \"https://github.com/OpenZeppelin/openzeppelin-contracts/blob/v5.0.0/contracts/access/Ownable.sol\":1703:1716  return _owner */\n      swap1\n      pop\n        /* \"https://github.com/OpenZeppelin/openzeppelin-contracts/blob/v5.0.0/contracts/access/Ownable.sol\":1638:1723  function owner() public view virtual returns (address) {... */\n      swap1\n      jump\t// out\n        /* \"contracts/registry/PropertyRegistry.sol\":416:464  RegisteredProperty[] public registeredProperties */\n    tag_39:\n      0x01\n      dup2\n      dup2\n      sload\n      dup2\n      lt\n      tag_79\n      jumpi\n      0x00\n      dup1\n      revert\n    tag_79:\n      swap1\n      0x00\n      mstore\n      keccak256(0x00, 0x20)\n      swap1\n      0x03\n      mul\n      add\n      0x00\n      swap2\n      pop\n      swap1\n      pop\n      dup1\n      0x00\n      add\n      0x00\n      swap1\n      sload\n      swap1\n      0x0100\n      exp\n      swap1\n      div\n      0xffffffffffffffffffffffffffffffffffffffff\n      and\n      swap1\n      dup1\n      0x01\n      add\n      0x00\n      swap1\n      sload\n      swap1\n      0x0100\n      exp\n      swap1\n      div\n      0xffffffffffffffffffffffffffffffffffffffff\n      and\n      swap1\n      dup1\n      0x01\n      add\n      0x14\n      swap1\n      sload\n      swap1\n      0x0100\n      exp\n      swap1\n      div\n      0xff\n      and\n      swap1\n      dup1\n      0x02\n      add\n      sload\n      swap1\n      pop\n      dup5\n      jump\t// out\n        /* \"contracts/registry/PropertyRegistry.sol\":1688:2081  function setPropertyStatus(address _propertyNFT, bool _isActive) external onlyOwner {... */\n    tag_45:\n        /* \"https://github.com/OpenZeppelin/openzeppelin-contracts/blob/v5.0.0/contracts/access/Ownable.sol\":1531:1544  _checkOwner() */\n      tag_82\n        /* \"https://github.com/OpenZeppelin/openzeppelin-contracts/blob/v5.0.0/contracts/access/Ownable.sol\":1531:1542  _checkOwner */\n      tag_51\n        /* \"https://github.com/OpenZeppelin/openzeppelin-contracts/blob/v5.0.0/contracts/access/Ownable.sol\":1531:1544  _checkOwner() */\n      jump\t// in\n    tag_82:\n        /* \"contracts/registry/PropertyRegistry.sol\":1782:1795  uint256 index */\n      0x00\n        /* \"contracts/registry/PropertyRegistry.sol\":1798:1811  propertyIndex */\n      0x02\n        /* \"contracts/registry/PropertyRegistry.sol\":1798:1825  propertyIndex[_propertyNFT] */\n      0x00\n        /* \"contracts/registry/PropertyRegistry.sol\":1812:1824  _propertyNFT */\n      dup5\n        /* \"contracts/registry/PropertyRegistry.sol\":1798:1825  propertyIndex[_propertyNFT] */\n      0xffffffffffffffffffffffffffffffffffffffff\n      and\n      0xffffffffffffffffffffffffffffffffffffffff\n      and\n      dup2\n      mstore\n      0x20\n      add\n      swap1\n      dup2\n      mstore\n      0x20\n      add\n      0x00\n      keccak256\n      sload\n        /* \"contracts/registry/PropertyRegistry.sol\":1782:1825  uint256 index = propertyIndex[_propertyNFT] */\n      swap1\n      pop\n        /* \"contracts/registry/PropertyRegistry.sol\":1851:1852  0 */\n      0x00\n        /* \"contracts/registry/PropertyRegistry.sol\":1843:1848  index */\n      dup2\n        /* \"contracts/registry/PropertyRegistry.sol\":1843:1852  index > 0 */\n      gt\n        /* \"contracts/registry/PropertyRegistry.sol\":1835:1880  require(index > 0, \"Property not registered\") */\n      tag_84\n      jumpi\n      mload(0x40)\n      0x08c379a000000000000000000000000000000000000000000000000000000000\n      dup2\n      mstore\n      0x04\n      add\n      tag_85\n      swap1\n      tag_86\n      jump\t// in\n    tag_85:\n      mload(0x40)\n      dup1\n      swap2\n      sub\n      swap1\n      revert\n    tag_84:\n        /* \"contracts/registry/PropertyRegistry.sol\":1995:2004  _isActive */\n      dup2\n        /* \"contracts/registry/PropertyRegistry.sol\":1952:1972  registeredProperties */\n      0x01\n        /* \"contracts/registry/PropertyRegistry.sol\":1981:1982  1 */\n      dup1\n        /* \"contracts/registry/PropertyRegistry.sol\":1973:1978  index */\n      dup4\n        /* \"contracts/registry/PropertyRegistry.sol\":1973:1982  index - 1 */\n      tag_87\n      swap2\n      swap1\n      tag_88\n      jump\t// in\n    tag_87:\n        /* \"contracts/registry/PropertyRegistry.sol\":1952:1983  registeredProperties[index - 1] */\n      dup2\n      sload\n      dup2\n      lt\n      tag_89\n      jumpi\n      tag_90\n      tag_68\n      jump\t// in\n    tag_90:\n    tag_89:\n      swap1\n      0x00\n      mstore\n      keccak256(0x00, 0x20)\n      swap1\n      0x03\n      mul\n      add\n        /* \"contracts/registry/PropertyRegistry.sol\":1952:1992  registeredProperties[index - 1].isActive */\n      0x01\n      add\n      0x14\n        /* \"contracts/registry/PropertyRegistry.sol\":1952:2004  registeredProperties[index - 1].isActive = _isActive */\n      0x0100\n      exp\n      dup2\n      sload\n      dup2\n      0xff\n      mul\n      not\n      and\n      swap1\n      dup4\n      iszero\n      iszero\n      mul\n      or\n      swap1\n      sstore\n      pop\n        /* \"contracts/registry/PropertyRegistry.sol\":2050:2062  _propertyNFT */\n      dup3\n        /* \"contracts/registry/PropertyRegistry.sol\":2028:2074  PropertyStatusChanged(_propertyNFT, _isActive) */\n      0xffffffffffffffffffffffffffffffffffffffff\n      and\n      0x67f1125df14f08f21b9416ba66f0c4e6093ce1bbfa949a38a8cd5a52f8b56ed6\n        /* \"contracts/registry/PropertyRegistry.sol\":2064:2073  _isActive */\n      dup4\n        /* \"contracts/registry/PropertyRegistry.sol\":2028:2074  PropertyStatusChanged(_propertyNFT, _isActive) */\n      mload(0x40)\n      tag_92\n      swap2\n      swap1\n      tag_93\n      jump\t// in\n    tag_92:\n      mload(0x40)\n      dup1\n      swap2\n      sub\n      swap1\n      log2\n        /* \"contracts/registry/PropertyRegistry.sol\":1772:2081  {... */\n      pop\n        /* \"contracts/registry/PropertyRegistry.sol\":1688:2081  function setPropertyStatus(address _propertyNFT, bool _isActive) external onlyOwner {... */\n      pop\n      pop\n      jump\t// out\n        /* \"https://github.com/OpenZeppelin/openzeppelin-contracts/blob/v5.0.0/contracts/access/Ownable.sol\":2543:2758  function transferOwnership(address newOwner) public virtual onlyOwner {... */\n    tag_48:\n        /* \"https://github.com/OpenZeppelin/openzeppelin-contracts/blob/v5.0.0/contracts/access/Ownable.sol\":1531:1544  _checkOwner() */\n      tag_95\n        /* \"https://github.com/OpenZeppelin/openzeppelin-contracts/blob/v5.0.0/contracts/access/Ownable.sol\":1531:1542  _checkOwner */\n      tag_51\n        /* \"https://github.com/OpenZeppelin/openzeppelin-contracts/blob/v5.0.0/contracts/access/Ownable.sol\":1531:1544  _checkOwner() */\n      jump\t// in\n    tag_95:\n        /* \"https://github.com/OpenZeppelin/openzeppelin-contracts/blob/v5.0.0/contracts/access/Ownable.sol\":2647:2648  0 */\n      0x00\n        /* \"https://github.com/OpenZeppelin/openzeppelin-contracts/blob/v5.0.0/contracts/access/Ownable.sol\":2627:2649  newOwner == address(0) */\n      0xffffffffffffffffffffffffffffffffffffffff\n      and\n        /* \"https://github.com/OpenZeppelin/openzeppelin-contracts/blob/v5.0.0/contracts/access/Ownable.sol\":2627:2635  newOwner */\n      dup2\n        /* \"https://github.com/OpenZeppelin/openzeppelin-contracts/blob/v5.0.0/contracts/access/Ownable.sol\":2627:2649  newOwner == address(0) */\n      0xffffffffffffffffffffffffffffffffffffffff\n      and\n      sub\n        /* \"https://github.com/OpenZeppelin/openzeppelin-contracts/blob/v5.0.0/contracts/access/Ownable.sol\":2623:2714  if (newOwner == address(0)) {... */\n      tag_97\n      jumpi\n        /* \"https://github.com/OpenZeppelin/openzeppelin-contracts/blob/v5.0.0/contracts/access/Ownable.sol\":2700:2701  0 */\n      0x00\n        /* \"https://github.com/OpenZeppelin/openzeppelin-contracts/blob/v5.0.0/contracts/access/Ownable.sol\":2672:2703  OwnableInvalidOwner(address(0)) */\n      mload(0x40)\n      0x1e4fbdf700000000000000000000000000000000000000000000000000000000\n      dup2\n      mstore\n      0x04\n      add\n      tag_98\n      swap2\n      swap1\n      tag_35\n      jump\t// in\n    tag_98:\n      mload(0x40)\n      dup1\n      swap2\n      sub\n      swap1\n      revert\n        /* \"https://github.com/OpenZeppelin/openzeppelin-contracts/blob/v5.0.0/contracts/access/Ownable.sol\":2623:2714  if (newOwner == address(0)) {... */\n    tag_97:\n        /* \"https://github.com/OpenZeppelin/openzeppelin-contracts/blob/v5.0.0/contracts/access/Ownable.sol\":2723:2751  _transferOwnership(newOwner) */\n      tag_99\n        /* \"https://github.com/OpenZeppelin/openzeppelin-contracts/blob/v5.0.0/contracts/access/Ownable.sol\":2742:2750  newOwner */\n      dup2\n        /* \"https://github.com/OpenZeppelin/openzeppelin-contracts/blob/v5.0.0/contracts/access/Ownable.sol\":2723:2741  _transferOwnership */\n      tag_77\n        /* \"https://github.com/OpenZeppelin/openzeppelin-contracts/blob/v5.0.0/contracts/access/Ownable.sol\":2723:2751  _transferOwnership(newOwner) */\n      jump\t// in\n    tag_99:\n        /* \"https://github.com/OpenZeppelin/openzeppelin-contracts/blob/v5.0.0/contracts/access/Ownable.sol\":2543:2758  function transferOwnership(address newOwner) public virtual onlyOwner {... */\n      pop\n      jump\t// out\n        /* \"https://github.com/OpenZeppelin/openzeppelin-contracts/blob/v5.0.0/contracts/access/Ownable.sol\":1796:1958  function _checkOwner() internal view virtual {... */\n    tag_51:\n        /* \"https://github.com/OpenZeppelin/openzeppelin-contracts/blob/v5.0.0/contracts/access/Ownable.sol\":1866:1878  _msgSender() */\n      tag_101\n        /* \"https://github.com/OpenZeppelin/openzeppelin-contracts/blob/v5.0.0/contracts/access/Ownable.sol\":1866:1876  _msgSender */\n      tag_102\n        /* \"https://github.com/OpenZeppelin/openzeppelin-contracts/blob/v5.0.0/contracts/access/Ownable.sol\":1866:1878  _msgSender() */\n      jump\t// in\n    tag_101:\n        /* \"https://github.com/OpenZeppelin/openzeppelin-contracts/blob/v5.0.0/contracts/access/Ownable.sol\":1855:1878  owner() != _msgSender() */\n      0xffffffffffffffffffffffffffffffffffffffff\n      and\n        /* \"https://github.com/OpenZeppelin/openzeppelin-contracts/blob/v5.0.0/contracts/access/Ownable.sol\":1855:1862  owner() */\n      tag_103\n        /* \"https://github.com/OpenZeppelin/openzeppelin-contracts/blob/v5.0.0/contracts/access/Ownable.sol\":1855:1860  owner */\n      tag_33\n        /* \"https://github.com/OpenZeppelin/openzeppelin-contracts/blob/v5.0.0/contracts/access/Ownable.sol\":1855:1862  owner() */\n      jump\t// in\n    tag_103:\n        /* \"https://github.com/OpenZeppelin/openzeppelin-contracts/blob/v5.0.0/contracts/access/Ownable.sol\":1855:1878  owner() != _msgSender() */\n      0xffffffffffffffffffffffffffffffffffffffff\n      and\n      eq\n        /* \"https://github.com/OpenZeppelin/openzeppelin-contracts/blob/v5.0.0/contracts/access/Ownable.sol\":1851:1952  if (owner() != _msgSender()) {... */\n      tag_104\n      jumpi\n        /* \"https://github.com/OpenZeppelin/openzeppelin-contracts/blob/v5.0.0/contracts/access/Ownable.sol\":1928:1940  _msgSender() */\n      tag_105\n        /* \"https://github.com/OpenZeppelin/openzeppelin-contracts/blob/v5.0.0/contracts/access/Ownable.sol\":1928:1938  _msgSender */\n      tag_102\n        /* \"https://github.com/OpenZeppelin/openzeppelin-contracts/blob/v5.0.0/contracts/access/Ownable.sol\":1928:1940  _msgSender() */\n      jump\t// in\n    tag_105:\n        /* \"https://github.com/OpenZeppelin/openzeppelin-contracts/blob/v5.0.0/contracts/access/Ownable.sol\":1901:1941  OwnableUnauthorizedAccount(_msgSender()) */\n      mload(0x40)\n      0x118cdaa700000000000000000000000000000000000000000000000000000000\n      dup2\n      mstore\n      0x04\n      add\n      tag_106\n      swap2\n      swap1\n      tag_35\n      jump\t// in\n    tag_106:\n      mload(0x40)\n      dup1\n      swap2\n      sub\n      swap1\n      revert\n        /* \"https://github.com/OpenZeppelin/openzeppelin-contracts/blob/v5.0.0/contracts/access/Ownable.sol\":1851:1952  if (owner() != _msgSender()) {... */\n    tag_104:\n        /* \"https://github.com/OpenZeppelin/openzeppelin-contracts/blob/v5.0.0/contracts/access/Ownable.sol\":1796:1958  function _checkOwner() internal view virtual {... */\n      jump\t// out\n        /* \"https://github.com/OpenZeppelin/openzeppelin-contracts/blob/v5.0.0/contracts/access/Ownable.sol\":2912:3099  function _transferOwnership(address newOwner) internal virtual {... */\n    tag_77:\n        /* \"https://github.com/OpenZeppelin/openzeppelin-contracts/blob/v5.0.0/contracts/access/Ownable.sol\":2985:3001  address oldOwner */\n      0x00\n        /* \"https://github.com/OpenZeppelin/openzeppelin-contracts/blob/v5.0.0/contracts/access/Ownable.sol\":3004:3010  _owner */\n      0x00\n      0x00\n      swap1\n      sload\n      swap1\n      0x0100\n      exp\n      swap1\n      div\n      0xffffffffffffffffffffffffffffffffffffffff\n      and\n        /* \"https://github.com/OpenZeppelin/openzeppelin-contracts/blob/v5.0.0/contracts/access/Ownable.sol\":2985:3010  address oldOwner = _owner */\n      swap1\n      pop\n        /* \"https://github.com/OpenZeppelin/openzeppelin-contracts/blob/v5.0.0/contracts/access/Ownable.sol\":3029:3037  newOwner */\n      dup2\n        /* \"https://github.com/OpenZeppelin/openzeppelin-contracts/blob/v5.0.0/contracts/access/Ownable.sol\":3020:3026  _owner */\n      0x00\n      0x00\n        /* \"https://github.com/OpenZeppelin/openzeppelin-contracts/blob/v5.0.0/contracts/access/Ownable.sol\":3020:3037  _owner = newOwner */\n      0x0100\n      exp\n      dup2\n      sload\n      dup2\n      0xffffffffffffffffffffffffffffffffffffffff\n      mul\n      not\n      and\n      swap1\n      dup4\n      0xffffffffffffffffffffffffffffffffffffffff\n      and\n      mul\n      or\n      swap1\n      sstore\n      pop\n        /* \"https://github.com/OpenZeppelin/openzeppelin-contracts/blob/v5.0.0/contracts/access/Ownable.sol\":3083:3091  newOwner */\n      dup2\n        /* \"https://github.com/OpenZeppelin/openzeppelin-contracts/blob/v5.0.0/contracts/access/Ownable.sol\":3052:3092  OwnershipTransferred(oldOwner, newOwner) */\n      0xffffffffffffffffffffffffffffffffffffffff\n      and\n        /* \"https://github.com/OpenZeppelin/openzeppelin-contracts/blob/v5.0.0/contracts/access/Ownable.sol\":3073:3081  oldOwner */\n      dup2\n        /* \"https://github.com/OpenZeppelin/openzeppelin-contracts/blob/v5.0.0/contracts/access/Ownable.sol\":3052:3092  OwnershipTransferred(oldOwner, newOwner) */\n      0xffffffffffffffffffffffffffffffffffffffff\n      and\n      0x8be0079c531659141344cd1fd0a4f28419497f9722a3daafe3b4186f6b6457e0\n      mload(0x40)\n      mload(0x40)\n      dup1\n      swap2\n      sub\n      swap1\n      log3\n        /* \"https://github.com/OpenZeppelin/openzeppelin-contracts/blob/v5.0.0/contracts/access/Ownable.sol\":2975:3099  {... */\n      pop\n        /* \"https://github.com/OpenZeppelin/openzeppelin-contracts/blob/v5.0.0/contracts/access/Ownable.sol\":2912:3099  function _transferOwnership(address newOwner) internal virtual {... */\n      pop\n      jump\t// out\n        /* \"https://github.com/OpenZeppelin/openzeppelin-contracts/blob/v5.0.0/contracts/utils/Context.sol\":656:752  function _msgSender() internal view virtual returns (address) {... */\n    tag_102:\n        /* \"https://github.com/OpenZeppelin/openzeppelin-contracts/blob/v5.0.0/contracts/utils/Context.sol\":709:716  address */\n      0x00\n        /* \"https://github.com/OpenZeppelin/openzeppelin-contracts/blob/v5.0.0/contracts/utils/Context.sol\":735:745  msg.sender */\n      caller\n        /* \"https://github.com/OpenZeppelin/openzeppelin-contracts/blob/v5.0.0/contracts/utils/Context.sol\":728:745  return msg.sender */\n      swap1\n      pop\n        /* \"https://github.com/OpenZeppelin/openzeppelin-contracts/blob/v5.0.0/contracts/utils/Context.sol\":656:752  function _msgSender() internal view virtual returns (address) {... */\n      swap1\n      jump\t// out\n        /* \"#utility.yul\":88:205   */\n    tag_110:\n        /* \"#utility.yul\":197:198   */\n      0x00\n        /* \"#utility.yul\":194:195   */\n      0x00\n        /* \"#utility.yul\":187:199   */\n      revert\n        /* \"#utility.yul\":334:460   */\n    tag_112:\n        /* \"#utility.yul\":371:378   */\n      0x00\n        /* \"#utility.yul\":411:453   */\n      0xffffffffffffffffffffffffffffffffffffffff\n        /* \"#utility.yul\":404:409   */\n      dup3\n        /* \"#utility.yul\":400:454   */\n      and\n        /* \"#utility.yul\":389:454   */\n      swap1\n      pop\n        /* \"#utility.yul\":334:460   */\n      swap2\n      swap1\n      pop\n      jump\t// out\n        /* \"#utility.yul\":466:562   */\n    tag_113:\n        /* \"#utility.yul\":503:510   */\n      0x00\n        /* \"#utility.yul\":532:556   */\n      tag_147\n        /* \"#utility.yul\":550:555   */\n      dup3\n        /* \"#utility.yul\":532:556   */\n      tag_112\n      jump\t// in\n    tag_147:\n        /* \"#utility.yul\":521:556   */\n      swap1\n      pop\n        /* \"#utility.yul\":466:562   */\n      swap2\n      swap1\n      pop\n      jump\t// out\n        /* \"#utility.yul\":568:690   */\n    tag_114:\n        /* \"#utility.yul\":641:665   */\n      tag_149\n        /* \"#utility.yul\":659:664   */\n      dup2\n        /* \"#utility.yul\":641:665   */\n      tag_113\n      jump\t// in\n    tag_149:\n        /* \"#utility.yul\":634:639   */\n      dup2\n        /* \"#utility.yul\":631:666   */\n      eq\n        /* \"#utility.yul\":621:684   */\n      tag_150\n      jumpi\n        /* \"#utility.yul\":680:681   */\n      0x00\n        /* \"#utility.yul\":677:678   */\n      0x00\n        /* \"#utility.yul\":670:682   */\n      revert\n        /* \"#utility.yul\":621:684   */\n    tag_150:\n        /* \"#utility.yul\":568:690   */\n      pop\n      jump\t// out\n        /* \"#utility.yul\":696:835   */\n    tag_115:\n        /* \"#utility.yul\":742:747   */\n      0x00\n        /* \"#utility.yul\":780:786   */\n      dup2\n        /* \"#utility.yul\":767:787   */\n      calldataload\n        /* \"#utility.yul\":758:787   */\n      swap1\n      pop\n        /* \"#utility.yul\":796:829   */\n      tag_152\n        /* \"#utility.yul\":823:828   */\n      dup2\n        /* \"#utility.yul\":796:829   */\n      tag_114\n      jump\t// in\n    tag_152:\n        /* \"#utility.yul\":696:835   */\n      swap3\n      swap2\n      pop\n      pop\n      jump\t// out\n        /* \"#utility.yul\":841:1315   */\n    tag_15:\n        /* \"#utility.yul\":909:915   */\n      0x00\n        /* \"#utility.yul\":917:923   */\n      0x00\n        /* \"#utility.yul\":966:968   */\n      0x40\n        /* \"#utility.yul\":954:963   */\n      dup4\n        /* \"#utility.yul\":945:952   */\n      dup6\n        /* \"#utility.yul\":941:964   */\n      sub\n        /* \"#utility.yul\":937:969   */\n      slt\n        /* \"#utility.yul\":934:1053   */\n      iszero\n      tag_154\n      jumpi\n        /* \"#utility.yul\":972:1051   */\n      tag_155\n      tag_110\n      jump\t// in\n    tag_155:\n        /* \"#utility.yul\":934:1053   */\n    tag_154:\n        /* \"#utility.yul\":1092:1093   */\n      0x00\n        /* \"#utility.yul\":1117:1170   */\n      tag_156\n        /* \"#utility.yul\":1162:1169   */\n      dup6\n        /* \"#utility.yul\":1153:1159   */\n      dup3\n        /* \"#utility.yul\":1142:1151   */\n      dup7\n        /* \"#utility.yul\":1138:1160   */\n      add\n        /* \"#utility.yul\":1117:1170   */\n      tag_115\n      jump\t// in\n    tag_156:\n        /* \"#utility.yul\":1107:1170   */\n      swap3\n      pop\n        /* \"#utility.yul\":1063:1180   */\n      pop\n        /* \"#utility.yul\":1219:1221   */\n      0x20\n        /* \"#utility.yul\":1245:1298   */\n      tag_157\n        /* \"#utility.yul\":1290:1297   */\n      dup6\n        /* \"#utility.yul\":1281:1287   */\n      dup3\n        /* \"#utility.yul\":1270:1279   */\n      dup7\n        /* \"#utility.yul\":1266:1288   */\n      add\n        /* \"#utility.yul\":1245:1298   */\n      tag_115\n      jump\t// in\n    tag_157:\n        /* \"#utility.yul\":1235:1298   */\n      swap2\n      pop\n        /* \"#utility.yul\":1190:1308   */\n      pop\n        /* \"#utility.yul\":841:1315   */\n      swap3\n      pop\n      swap3\n      swap1\n      pop\n      jump\t// out\n        /* \"#utility.yul\":1321:1650   */\n    tag_19:\n        /* \"#utility.yul\":1380:1386   */\n      0x00\n        /* \"#utility.yul\":1429:1431   */\n      0x20\n        /* \"#utility.yul\":1417:1426   */\n      dup3\n        /* \"#utility.yul\":1408:1415   */\n      dup5\n        /* \"#utility.yul\":1404:1427   */\n      sub\n        /* \"#utility.yul\":1400:1432   */\n      slt\n        /* \"#utility.yul\":1397:1516   */\n      iszero\n      tag_159\n      jumpi\n        /* \"#utility.yul\":1435:1514   */\n      tag_160\n      tag_110\n      jump\t// in\n    tag_160:\n        /* \"#utility.yul\":1397:1516   */\n    tag_159:\n        /* \"#utility.yul\":1555:1556   */\n      0x00\n        /* \"#utility.yul\":1580:1633   */\n      tag_161\n        /* \"#utility.yul\":1625:1632   */\n      dup5\n        /* \"#utility.yul\":1616:1622   */\n      dup3\n        /* \"#utility.yul\":1605:1614   */\n      dup6\n        /* \"#utility.yul\":1601:1623   */\n      add\n        /* \"#utility.yul\":1580:1633   */\n      tag_115\n      jump\t// in\n    tag_161:\n        /* \"#utility.yul\":1570:1633   */\n      swap2\n      pop\n        /* \"#utility.yul\":1526:1643   */\n      pop\n        /* \"#utility.yul\":1321:1650   */\n      swap3\n      swap2\n      pop\n      pop\n      jump\t// out\n        /* \"#utility.yul\":1656:1733   */\n    tag_116:\n        /* \"#utility.yul\":1693:1700   */\n      0x00\n        /* \"#utility.yul\":1722:1727   */\n      dup2\n        /* \"#utility.yul\":1711:1727   */\n      swap1\n      pop\n        /* \"#utility.yul\":1656:1733   */\n      swap2\n      swap1\n      pop\n      jump\t// out\n        /* \"#utility.yul\":1739:1857   */\n    tag_117:\n        /* \"#utility.yul\":1826:1850   */\n      tag_164\n        /* \"#utility.yul\":1844:1849   */\n      dup2\n        /* \"#utility.yul\":1826:1850   */\n      tag_116\n      jump\t// in\n    tag_164:\n        /* \"#utility.yul\":1821:1824   */\n      dup3\n        /* \"#utility.yul\":1814:1851   */\n      mstore\n        /* \"#utility.yul\":1739:1857   */\n      pop\n      pop\n      jump\t// out\n        /* \"#utility.yul\":1863:2085   */\n    tag_22:\n        /* \"#utility.yul\":1956:1960   */\n      0x00\n        /* \"#utility.yul\":1994:1996   */\n      0x20\n        /* \"#utility.yul\":1983:1992   */\n      dup3\n        /* \"#utility.yul\":1979:1997   */\n      add\n        /* \"#utility.yul\":1971:1997   */\n      swap1\n      pop\n        /* \"#utility.yul\":2007:2078   */\n      tag_166\n        /* \"#utility.yul\":2075:2076   */\n      0x00\n        /* \"#utility.yul\":2064:2073   */\n      dup4\n        /* \"#utility.yul\":2060:2077   */\n      add\n        /* \"#utility.yul\":2051:2057   */\n      dup5\n        /* \"#utility.yul\":2007:2078   */\n      tag_117\n      jump\t// in\n    tag_166:\n        /* \"#utility.yul\":1863:2085   */\n      swap3\n      swap2\n      pop\n      pop\n      jump\t// out\n        /* \"#utility.yul\":2091:2239   */\n    tag_118:\n        /* \"#utility.yul\":2192:2198   */\n      0x00\n        /* \"#utility.yul\":2226:2231   */\n      dup2\n        /* \"#utility.yul\":2220:2232   */\n      mload\n        /* \"#utility.yul\":2210:2232   */\n      swap1\n      pop\n        /* \"#utility.yul\":2091:2239   */\n      swap2\n      swap1\n      pop\n      jump\t// out\n        /* \"#utility.yul\":2245:2463   */\n    tag_119:\n        /* \"#utility.yul\":2378:2389   */\n      0x00\n        /* \"#utility.yul\":2412:2418   */\n      dup3\n        /* \"#utility.yul\":2407:2410   */\n      dup3\n        /* \"#utility.yul\":2400:2419   */\n      mstore\n        /* \"#utility.yul\":2452:2456   */\n      0x20\n        /* \"#utility.yul\":2447:2450   */\n      dup3\n        /* \"#utility.yul\":2443:2457   */\n      add\n        /* \"#utility.yul\":2428:2457   */\n      swap1\n      pop\n        /* \"#utility.yul\":2245:2463   */\n      swap3\n      swap2\n      pop\n      pop\n      jump\t// out\n        /* \"#utility.yul\":2469:2635   */\n    tag_120:\n        /* \"#utility.yul\":2570:2574   */\n      0x00\n        /* \"#utility.yul\":2593:2596   */\n      dup2\n        /* \"#utility.yul\":2585:2596   */\n      swap1\n      pop\n        /* \"#utility.yul\":2623:2627   */\n      0x20\n        /* \"#utility.yul\":2618:2621   */\n      dup3\n        /* \"#utility.yul\":2614:2628   */\n      add\n        /* \"#utility.yul\":2606:2628   */\n      swap1\n      pop\n        /* \"#utility.yul\":2469:2635   */\n      swap2\n      swap1\n      pop\n      jump\t// out\n        /* \"#utility.yul\":2641:2749   */\n    tag_121:\n        /* \"#utility.yul\":2718:2742   */\n      tag_171\n        /* \"#utility.yul\":2736:2741   */\n      dup2\n        /* \"#utility.yul\":2718:2742   */\n      tag_113\n      jump\t// in\n    tag_171:\n        /* \"#utility.yul\":2713:2716   */\n      dup3\n        /* \"#utility.yul\":2706:2743   */\n      mstore\n        /* \"#utility.yul\":2641:2749   */\n      pop\n      pop\n      jump\t// out\n        /* \"#utility.yul\":2755:2845   */\n    tag_122:\n        /* \"#utility.yul\":2789:2796   */\n      0x00\n        /* \"#utility.yul\":2832:2837   */\n      dup2\n        /* \"#utility.yul\":2825:2838   */\n      iszero\n        /* \"#utility.yul\":2818:2839   */\n      iszero\n        /* \"#utility.yul\":2807:2839   */\n      swap1\n      pop\n        /* \"#utility.yul\":2755:2845   */\n      swap2\n      swap1\n      pop\n      jump\t// out\n        /* \"#utility.yul\":2851:2950   */\n    tag_123:\n        /* \"#utility.yul\":2922:2943   */\n      tag_174\n        /* \"#utility.yul\":2937:2942   */\n      dup2\n        /* \"#utility.yul\":2922:2943   */\n      tag_122\n      jump\t// in\n    tag_174:\n        /* \"#utility.yul\":2917:2920   */\n      dup3\n        /* \"#utility.yul\":2910:2944   */\n      mstore\n        /* \"#utility.yul\":2851:2950   */\n      pop\n      pop\n      jump\t// out\n        /* \"#utility.yul\":2956:3064   */\n    tag_124:\n        /* \"#utility.yul\":3033:3057   */\n      tag_176\n        /* \"#utility.yul\":3051:3056   */\n      dup2\n        /* \"#utility.yul\":3033:3057   */\n      tag_116\n      jump\t// in\n    tag_176:\n        /* \"#utility.yul\":3028:3031   */\n      dup3\n        /* \"#utility.yul\":3021:3058   */\n      mstore\n        /* \"#utility.yul\":2956:3064   */\n      pop\n      pop\n      jump\t// out\n        /* \"#utility.yul\":3166:4055   */\n    tag_125:\n        /* \"#utility.yul\":3321:3325   */\n      0x80\n        /* \"#utility.yul\":3316:3319   */\n      dup3\n        /* \"#utility.yul\":3312:3326   */\n      add\n        /* \"#utility.yul\":3415:3419   */\n      0x00\n        /* \"#utility.yul\":3408:3413   */\n      dup3\n        /* \"#utility.yul\":3404:3420   */\n      add\n        /* \"#utility.yul\":3398:3421   */\n      mload\n        /* \"#utility.yul\":3434:3497   */\n      tag_178\n        /* \"#utility.yul\":3491:3495   */\n      0x00\n        /* \"#utility.yul\":3486:3489   */\n      dup6\n        /* \"#utility.yul\":3482:3496   */\n      add\n        /* \"#utility.yul\":3468:3480   */\n      dup3\n        /* \"#utility.yul\":3434:3497   */\n      tag_121\n      jump\t// in\n    tag_178:\n        /* \"#utility.yul\":3336:3507   */\n      pop\n        /* \"#utility.yul\":3598:3602   */\n      0x20\n        /* \"#utility.yul\":3591:3596   */\n      dup3\n        /* \"#utility.yul\":3587:3603   */\n      add\n        /* \"#utility.yul\":3581:3604   */\n      mload\n        /* \"#utility.yul\":3617:3680   */\n      tag_179\n        /* \"#utility.yul\":3674:3678   */\n      0x20\n        /* \"#utility.yul\":3669:3672   */\n      dup6\n        /* \"#utility.yul\":3665:3679   */\n      add\n        /* \"#utility.yul\":3651:3663   */\n      dup3\n        /* \"#utility.yul\":3617:3680   */\n      tag_121\n      jump\t// in\n    tag_179:\n        /* \"#utility.yul\":3517:3690   */\n      pop\n        /* \"#utility.yul\":3776:3780   */\n      0x40\n        /* \"#utility.yul\":3769:3774   */\n      dup3\n        /* \"#utility.yul\":3765:3781   */\n      add\n        /* \"#utility.yul\":3759:3782   */\n      mload\n        /* \"#utility.yul\":3795:3852   */\n      tag_180\n        /* \"#utility.yul\":3846:3850   */\n      0x40\n        /* \"#utility.yul\":3841:3844   */\n      dup6\n        /* \"#utility.yul\":3837:3851   */\n      add\n        /* \"#utility.yul\":3823:3835   */\n      dup3\n        /* \"#utility.yul\":3795:3852   */\n      tag_123\n      jump\t// in\n    tag_180:\n        /* \"#utility.yul\":3700:3862   */\n      pop\n        /* \"#utility.yul\":3956:3960   */\n      0x60\n        /* \"#utility.yul\":3949:3954   */\n      dup3\n        /* \"#utility.yul\":3945:3961   */\n      add\n        /* \"#utility.yul\":3939:3962   */\n      mload\n        /* \"#utility.yul\":3975:4038   */\n      tag_181\n        /* \"#utility.yul\":4032:4036   */\n      0x60\n        /* \"#utility.yul\":4027:4030   */\n      dup6\n        /* \"#utility.yul\":4023:4037   */\n      add\n        /* \"#utility.yul\":4009:4021   */\n      dup3\n        /* \"#utility.yul\":3975:4038   */\n      tag_124\n      jump\t// in\n    tag_181:\n        /* \"#utility.yul\":3872:4048   */\n      pop\n        /* \"#utility.yul\":3290:4055   */\n      pop\n        /* \"#utility.yul\":3166:4055   */\n      pop\n      pop\n      jump\t// out\n        /* \"#utility.yul\":4061:4376   */\n    tag_126:\n        /* \"#utility.yul\":4198:4208   */\n      0x00\n        /* \"#utility.yul\":4219:4333   */\n      tag_183\n        /* \"#utility.yul\":4329:4332   */\n      dup4\n        /* \"#utility.yul\":4321:4327   */\n      dup4\n        /* \"#utility.yul\":4219:4333   */\n      tag_125\n      jump\t// in\n    tag_183:\n        /* \"#utility.yul\":4365:4369   */\n      0x80\n        /* \"#utility.yul\":4360:4363   */\n      dup4\n        /* \"#utility.yul\":4356:4370   */\n      add\n        /* \"#utility.yul\":4342:4370   */\n      swap1\n      pop\n        /* \"#utility.yul\":4061:4376   */\n      swap3\n      swap2\n      pop\n      pop\n      jump\t// out\n        /* \"#utility.yul\":4382:4529   */\n    tag_127:\n        /* \"#utility.yul\":4486:4490   */\n      0x00\n        /* \"#utility.yul\":4518:4522   */\n      0x20\n        /* \"#utility.yul\":4513:4516   */\n      dup3\n        /* \"#utility.yul\":4509:4523   */\n      add\n        /* \"#utility.yul\":4501:4523   */\n      swap1\n      pop\n        /* \"#utility.yul\":4382:4529   */\n      swap2\n      swap1\n      pop\n      jump\t// out\n        /* \"#utility.yul\":4635:5639   */\n    tag_128:\n        /* \"#utility.yul\":4822:4825   */\n      0x00\n        /* \"#utility.yul\":4851:4939   */\n      tag_186\n        /* \"#utility.yul\":4933:4938   */\n      dup3\n        /* \"#utility.yul\":4851:4939   */\n      tag_118\n      jump\t// in\n    tag_186:\n        /* \"#utility.yul\":4955:5075   */\n      tag_187\n        /* \"#utility.yul\":5068:5074   */\n      dup2\n        /* \"#utility.yul\":5063:5066   */\n      dup6\n        /* \"#utility.yul\":4955:5075   */\n      tag_119\n      jump\t// in\n    tag_187:\n        /* \"#utility.yul\":4948:5075   */\n      swap4\n      pop\n        /* \"#utility.yul\":5099:5189   */\n      tag_188\n        /* \"#utility.yul\":5183:5188   */\n      dup4\n        /* \"#utility.yul\":5099:5189   */\n      tag_120\n      jump\t// in\n    tag_188:\n        /* \"#utility.yul\":5212:5219   */\n      dup1\n        /* \"#utility.yul\":5243:5244   */\n      0x00\n        /* \"#utility.yul\":5228:5614   */\n    tag_189:\n        /* \"#utility.yul\":5253:5259   */\n      dup4\n        /* \"#utility.yul\":5250:5251   */\n      dup2\n        /* \"#utility.yul\":5247:5260   */\n      lt\n        /* \"#utility.yul\":5228:5614   */\n      iszero\n      tag_191\n      jumpi\n        /* \"#utility.yul\":5329:5335   */\n      dup2\n        /* \"#utility.yul\":5323:5336   */\n      mload\n        /* \"#utility.yul\":5356:5487   */\n      tag_192\n        /* \"#utility.yul\":5483:5486   */\n      dup9\n        /* \"#utility.yul\":5468:5481   */\n      dup3\n        /* \"#utility.yul\":5356:5487   */\n      tag_126\n      jump\t// in\n    tag_192:\n        /* \"#utility.yul\":5349:5487   */\n      swap8\n      pop\n        /* \"#utility.yul\":5510:5604   */\n      tag_193\n        /* \"#utility.yul\":5597:5603   */\n      dup4\n        /* \"#utility.yul\":5510:5604   */\n      tag_127\n      jump\t// in\n    tag_193:\n        /* \"#utility.yul\":5500:5604   */\n      swap3\n      pop\n        /* \"#utility.yul\":5288:5614   */\n      pop\n        /* \"#utility.yul\":5275:5276   */\n      0x01\n        /* \"#utility.yul\":5272:5273   */\n      dup2\n        /* \"#utility.yul\":5268:5277   */\n      add\n        /* \"#utility.yul\":5263:5277   */\n      swap1\n      pop\n        /* \"#utility.yul\":5228:5614   */\n      jump(tag_189)\n    tag_191:\n        /* \"#utility.yul\":5232:5246   */\n      pop\n        /* \"#utility.yul\":5630:5633   */\n      dup6\n        /* \"#utility.yul\":5623:5633   */\n      swap4\n      pop\n        /* \"#utility.yul\":4827:5639   */\n      pop\n      pop\n      pop\n        /* \"#utility.yul\":4635:5639   */\n      swap3\n      swap2\n      pop\n      pop\n      jump\t// out\n        /* \"#utility.yul\":5645:6154   */\n    tag_26:\n        /* \"#utility.yul\":5856:5860   */\n      0x00\n        /* \"#utility.yul\":5894:5896   */\n      0x20\n        /* \"#utility.yul\":5883:5892   */\n      dup3\n        /* \"#utility.yul\":5879:5897   */\n      add\n        /* \"#utility.yul\":5871:5897   */\n      swap1\n      pop\n        /* \"#utility.yul\":5943:5952   */\n      dup2\n        /* \"#utility.yul\":5937:5941   */\n      dup2\n        /* \"#utility.yul\":5933:5953   */\n      sub\n        /* \"#utility.yul\":5929:5930   */\n      0x00\n        /* \"#utility.yul\":5918:5927   */\n      dup4\n        /* \"#utility.yul\":5914:5931   */\n      add\n        /* \"#utility.yul\":5907:5954   */\n      mstore\n        /* \"#utility.yul\":5971:6147   */\n      tag_195\n        /* \"#utility.yul\":6142:6146   */\n      dup2\n        /* \"#utility.yul\":6133:6139   */\n      dup5\n        /* \"#utility.yul\":5971:6147   */\n      tag_128\n      jump\t// in\n    tag_195:\n        /* \"#utility.yul\":5963:6147   */\n      swap1\n      pop\n        /* \"#utility.yul\":5645:6154   */\n      swap3\n      swap2\n      pop\n      pop\n      jump\t// out\n        /* \"#utility.yul\":6160:6278   */\n    tag_129:\n        /* \"#utility.yul\":6247:6271   */\n      tag_197\n        /* \"#utility.yul\":6265:6270   */\n      dup2\n        /* \"#utility.yul\":6247:6271   */\n      tag_113\n      jump\t// in\n    tag_197:\n        /* \"#utility.yul\":6242:6245   */\n      dup3\n        /* \"#utility.yul\":6235:6272   */\n      mstore\n        /* \"#utility.yul\":6160:6278   */\n      pop\n      pop\n      jump\t// out\n        /* \"#utility.yul\":6284:6506   */\n    tag_35:\n        /* \"#utility.yul\":6377:6381   */\n      0x00\n        /* \"#utility.yul\":6415:6417   */\n      0x20\n        /* \"#utility.yul\":6404:6413   */\n      dup3\n        /* \"#utility.yul\":6400:6418   */\n      add\n        /* \"#utility.yul\":6392:6418   */\n      swap1\n      pop\n        /* \"#utility.yul\":6428:6499   */\n      tag_199\n        /* \"#utility.yul\":6496:6497   */\n      0x00\n        /* \"#utility.yul\":6485:6494   */\n      dup4\n        /* \"#utility.yul\":6481:6498   */\n      add\n        /* \"#utility.yul\":6472:6478   */\n      dup5\n        /* \"#utility.yul\":6428:6499   */\n      tag_129\n      jump\t// in\n    tag_199:\n        /* \"#utility.yul\":6284:6506   */\n      swap3\n      swap2\n      pop\n      pop\n      jump\t// out\n        /* \"#utility.yul\":6512:6634   */\n    tag_130:\n        /* \"#utility.yul\":6585:6609   */\n      tag_201\n        /* \"#utility.yul\":6603:6608   */\n      dup2\n        /* \"#utility.yul\":6585:6609   */\n      tag_116\n      jump\t// in\n    tag_201:\n        /* \"#utility.yul\":6578:6583   */\n      dup2\n        /* \"#utility.yul\":6575:6610   */\n      eq\n        /* \"#utility.yul\":6565:6628   */\n      tag_202\n      jumpi\n        /* \"#utility.yul\":6624:6625   */\n      0x00\n        /* \"#utility.yul\":6621:6622   */\n      0x00\n        /* \"#utility.yul\":6614:6626   */\n      revert\n        /* \"#utility.yul\":6565:6628   */\n    tag_202:\n        /* \"#utility.yul\":6512:6634   */\n      pop\n      jump\t// out\n        /* \"#utility.yul\":6640:6779   */\n    tag_131:\n        /* \"#utility.yul\":6686:6691   */\n      0x00\n        /* \"#utility.yul\":6724:6730   */\n      dup2\n        /* \"#utility.yul\":6711:6731   */\n      calldataload\n        /* \"#utility.yul\":6702:6731   */\n      swap1\n      pop\n        /* \"#utility.yul\":6740:6773   */\n      tag_204\n        /* \"#utility.yul\":6767:6772   */\n      dup2\n        /* \"#utility.yul\":6740:6773   */\n      tag_130\n      jump\t// in\n    tag_204:\n        /* \"#utility.yul\":6640:6779   */\n      swap3\n      swap2\n      pop\n      pop\n      jump\t// out\n        /* \"#utility.yul\":6785:7114   */\n    tag_38:\n        /* \"#utility.yul\":6844:6850   */\n      0x00\n        /* \"#utility.yul\":6893:6895   */\n      0x20\n        /* \"#utility.yul\":6881:6890   */\n      dup3\n        /* \"#utility.yul\":6872:6879   */\n      dup5\n        /* \"#utility.yul\":6868:6891   */\n      sub\n        /* \"#utility.yul\":6864:6896   */\n      slt\n        /* \"#utility.yul\":6861:6980   */\n      iszero\n      tag_206\n      jumpi\n        /* \"#utility.yul\":6899:6978   */\n      tag_207\n      tag_110\n      jump\t// in\n    tag_207:\n        /* \"#utility.yul\":6861:6980   */\n    tag_206:\n        /* \"#utility.yul\":7019:7020   */\n      0x00\n        /* \"#utility.yul\":7044:7097   */\n      tag_208\n        /* \"#utility.yul\":7089:7096   */\n      dup5\n        /* \"#utility.yul\":7080:7086   */\n      dup3\n        /* \"#utility.yul\":7069:7078   */\n      dup6\n        /* \"#utility.yul\":7065:7087   */\n      add\n        /* \"#utility.yul\":7044:7097   */\n      tag_131\n      jump\t// in\n    tag_208:\n        /* \"#utility.yul\":7034:7097   */\n      swap2\n      pop\n        /* \"#utility.yul\":6990:7107   */\n      pop\n        /* \"#utility.yul\":6785:7114   */\n      swap3\n      swap2\n      pop\n      pop\n      jump\t// out\n        /* \"#utility.yul\":7120:7229   */\n    tag_132:\n        /* \"#utility.yul\":7201:7222   */\n      tag_210\n        /* \"#utility.yul\":7216:7221   */\n      dup2\n        /* \"#utility.yul\":7201:7222   */\n      tag_122\n      jump\t// in\n    tag_210:\n        /* \"#utility.yul\":7196:7199   */\n      dup3\n        /* \"#utility.yul\":7189:7223   */\n      mstore\n        /* \"#utility.yul\":7120:7229   */\n      pop\n      pop\n      jump\t// out\n        /* \"#utility.yul\":7235:7776   */\n    tag_41:\n        /* \"#utility.yul\":7406:7410   */\n      0x00\n        /* \"#utility.yul\":7444:7447   */\n      0x80\n        /* \"#utility.yul\":7433:7442   */\n      dup3\n        /* \"#utility.yul\":7429:7448   */\n      add\n        /* \"#utility.yul\":7421:7448   */\n      swap1\n      pop\n        /* \"#utility.yul\":7458:7529   */\n      tag_212\n        /* \"#utility.yul\":7526:7527   */\n      0x00\n        /* \"#utility.yul\":7515:7524   */\n      dup4\n        /* \"#utility.yul\":7511:7528   */\n      add\n        /* \"#utility.yul\":7502:7508   */\n      dup8\n        /* \"#utility.yul\":7458:7529   */\n      tag_129\n      jump\t// in\n    tag_212:\n        /* \"#utility.yul\":7539:7611   */\n      tag_213\n        /* \"#utility.yul\":7607:7609   */\n      0x20\n        /* \"#utility.yul\":7596:7605   */\n      dup4\n        /* \"#utility.yul\":7592:7610   */\n      add\n        /* \"#utility.yul\":7583:7589   */\n      dup7\n        /* \"#utility.yul\":7539:7611   */\n      tag_129\n      jump\t// in\n    tag_213:\n        /* \"#utility.yul\":7621:7687   */\n      tag_214\n        /* \"#utility.yul\":7683:7685   */\n      0x40\n        /* \"#utility.yul\":7672:7681   */\n      dup4\n        /* \"#utility.yul\":7668:7686   */\n      add\n        /* \"#utility.yul\":7659:7665   */\n      dup6\n        /* \"#utility.yul\":7621:7687   */\n      tag_132\n      jump\t// in\n    tag_214:\n        /* \"#utility.yul\":7697:7769   */\n      tag_215\n        /* \"#utility.yul\":7765:7767   */\n      0x60\n        /* \"#utility.yul\":7754:7763   */\n      dup4\n        /* \"#utility.yul\":7750:7768   */\n      add\n        /* \"#utility.yul\":7741:7747   */\n      dup5\n        /* \"#utility.yul\":7697:7769   */\n      tag_117\n      jump\t// in\n    tag_215:\n        /* \"#utility.yul\":7235:7776   */\n      swap6\n      swap5\n      pop\n      pop\n      pop\n      pop\n      pop\n      jump\t// out\n        /* \"#utility.yul\":7782:7898   */\n    tag_133:\n        /* \"#utility.yul\":7852:7873   */\n      tag_217\n        /* \"#utility.yul\":7867:7872   */\n      dup2\n        /* \"#utility.yul\":7852:7873   */\n      tag_122\n      jump\t// in\n    tag_217:\n        /* \"#utility.yul\":7845:7850   */\n      dup2\n        /* \"#utility.yul\":7842:7874   */\n      eq\n        /* \"#utility.yul\":7832:7892   */\n      tag_218\n      jumpi\n        /* \"#utility.yul\":7888:7889   */\n      0x00\n        /* \"#utility.yul\":7885:7886   */\n      0x00\n        /* \"#utility.yul\":7878:7890   */\n      revert\n        /* \"#utility.yul\":7832:7892   */\n    tag_218:\n        /* \"#utility.yul\":7782:7898   */\n      pop\n      jump\t// out\n        /* \"#utility.yul\":7904:8037   */\n    tag_134:\n        /* \"#utility.yul\":7947:7952   */\n      0x00\n        /* \"#utility.yul\":7985:7991   */\n      dup2\n        /* \"#utility.yul\":7972:7992   */\n      calldataload\n        /* \"#utility.yul\":7963:7992   */\n      swap1\n      pop\n        /* \"#utility.yul\":8001:8031   */\n      tag_220\n        /* \"#utility.yul\":8025:8030   */\n      dup2\n        /* \"#utility.yul\":8001:8031   */\n      tag_133\n      jump\t// in\n    tag_220:\n        /* \"#utility.yul\":7904:8037   */\n      swap3\n      swap2\n      pop\n      pop\n      jump\t// out\n        /* \"#utility.yul\":8043:8511   */\n    tag_44:\n        /* \"#utility.yul\":8108:8114   */\n      0x00\n        /* \"#utility.yul\":8116:8122   */\n      0x00\n        /* \"#utility.yul\":8165:8167   */\n      0x40\n        /* \"#utility.yul\":8153:8162   */\n      dup4\n        /* \"#utility.yul\":8144:8151   */\n      dup6\n        /* \"#utility.yul\":8140:8163   */\n      sub\n        /* \"#utility.yul\":8136:8168   */\n      slt\n        /* \"#utility.yul\":8133:8252   */\n      iszero\n      tag_222\n      jumpi\n        /* \"#utility.yul\":8171:8250   */\n      tag_223\n      tag_110\n      jump\t// in\n    tag_223:\n        /* \"#utility.yul\":8133:8252   */\n    tag_222:\n        /* \"#utility.yul\":8291:8292   */\n      0x00\n        /* \"#utility.yul\":8316:8369   */\n      tag_224\n        /* \"#utility.yul\":8361:8368   */\n      dup6\n        /* \"#utility.yul\":8352:8358   */\n      dup3\n        /* \"#utility.yul\":8341:8350   */\n      dup7\n        /* \"#utility.yul\":8337:8359   */\n      add\n        /* \"#utility.yul\":8316:8369   */\n      tag_115\n      jump\t// in\n    tag_224:\n        /* \"#utility.yul\":8306:8369   */\n      swap3\n      pop\n        /* \"#utility.yul\":8262:8379   */\n      pop\n        /* \"#utility.yul\":8418:8420   */\n      0x20\n        /* \"#utility.yul\":8444:8494   */\n      tag_225\n        /* \"#utility.yul\":8486:8493   */\n      dup6\n        /* \"#utility.yul\":8477:8483   */\n      dup3\n        /* \"#utility.yul\":8466:8475   */\n      dup7\n        /* \"#utility.yul\":8462:8484   */\n      add\n        /* \"#utility.yul\":8444:8494   */\n      tag_134\n      jump\t// in\n    tag_225:\n        /* \"#utility.yul\":8434:8494   */\n      swap2\n      pop\n        /* \"#utility.yul\":8389:8504   */\n      pop\n        /* \"#utility.yul\":8043:8511   */\n      swap3\n      pop\n      swap3\n      swap1\n      pop\n      jump\t// out\n        /* \"#utility.yul\":8517:8686   */\n    tag_135:\n        /* \"#utility.yul\":8601:8612   */\n      0x00\n        /* \"#utility.yul\":8635:8641   */\n      dup3\n        /* \"#utility.yul\":8630:8633   */\n      dup3\n        /* \"#utility.yul\":8623:8642   */\n      mstore\n        /* \"#utility.yul\":8675:8679   */\n      0x20\n        /* \"#utility.yul\":8670:8673   */\n      dup3\n        /* \"#utility.yul\":8666:8680   */\n      add\n        /* \"#utility.yul\":8651:8680   */\n      swap1\n      pop\n        /* \"#utility.yul\":8517:8686   */\n      swap3\n      swap2\n      pop\n      pop\n      jump\t// out\n        /* \"#utility.yul\":8692:8869   */\n    tag_136:\n        /* \"#utility.yul\":8832:8861   */\n      0x50726f706572747920616c726561647920726567697374657265640000000000\n        /* \"#utility.yul\":8828:8829   */\n      0x00\n        /* \"#utility.yul\":8820:8826   */\n      dup3\n        /* \"#utility.yul\":8816:8830   */\n      add\n        /* \"#utility.yul\":8809:8862   */\n      mstore\n        /* \"#utility.yul\":8692:8869   */\n      pop\n      jump\t// out\n        /* \"#utility.yul\":8875:9241   */\n    tag_137:\n        /* \"#utility.yul\":9017:9020   */\n      0x00\n        /* \"#utility.yul\":9038:9105   */\n      tag_229\n        /* \"#utility.yul\":9102:9104   */\n      0x1b\n        /* \"#utility.yul\":9097:9100   */\n      dup4\n        /* \"#utility.yul\":9038:9105   */\n      tag_135\n      jump\t// in\n    tag_229:\n        /* \"#utility.yul\":9031:9105   */\n      swap2\n      pop\n        /* \"#utility.yul\":9114:9207   */\n      tag_230\n        /* \"#utility.yul\":9203:9206   */\n      dup3\n        /* \"#utility.yul\":9114:9207   */\n      tag_136\n      jump\t// in\n    tag_230:\n        /* \"#utility.yul\":9232:9234   */\n      0x20\n        /* \"#utility.yul\":9227:9230   */\n      dup3\n        /* \"#utility.yul\":9223:9235   */\n      add\n        /* \"#utility.yul\":9216:9235   */\n      swap1\n      pop\n        /* \"#utility.yul\":8875:9241   */\n      swap2\n      swap1\n      pop\n      jump\t// out\n        /* \"#utility.yul\":9247:9666   */\n    tag_55:\n        /* \"#utility.yul\":9413:9417   */\n      0x00\n        /* \"#utility.yul\":9451:9453   */\n      0x20\n        /* \"#utility.yul\":9440:9449   */\n      dup3\n        /* \"#utility.yul\":9436:9454   */\n      add\n        /* \"#utility.yul\":9428:9454   */\n      swap1\n      pop\n        /* \"#utility.yul\":9500:9509   */\n      dup2\n        /* \"#utility.yul\":9494:9498   */\n      dup2\n        /* \"#utility.yul\":9490:9510   */\n      sub\n        /* \"#utility.yul\":9486:9487   */\n      0x00\n        /* \"#utility.yul\":9475:9484   */\n      dup4\n        /* \"#utility.yul\":9471:9488   */\n      add\n        /* \"#utility.yul\":9464:9511   */\n      mstore\n        /* \"#utility.yul\":9528:9659   */\n      tag_232\n        /* \"#utility.yul\":9654:9658   */\n      dup2\n        /* \"#utility.yul\":9528:9659   */\n      tag_137\n      jump\t// in\n    tag_232:\n        /* \"#utility.yul\":9520:9659   */\n      swap1\n      pop\n        /* \"#utility.yul\":9247:9666   */\n      swap2\n      swap1\n      pop\n      jump\t// out\n        /* \"#utility.yul\":9672:9852   */\n    tag_68:\n        /* \"#utility.yul\":9720:9797   */\n      0x4e487b7100000000000000000000000000000000000000000000000000000000\n        /* \"#utility.yul\":9717:9718   */\n      0x00\n        /* \"#utility.yul\":9710:9798   */\n      mstore\n        /* \"#utility.yul\":9817:9821   */\n      0x32\n        /* \"#utility.yul\":9814:9815   */\n      0x04\n        /* \"#utility.yul\":9807:9822   */\n      mstore\n        /* \"#utility.yul\":9841:9845   */\n      0x24\n        /* \"#utility.yul\":9838:9839   */\n      0x00\n        /* \"#utility.yul\":9831:9846   */\n      revert\n        /* \"#utility.yul\":9858:10038   */\n    tag_138:\n        /* \"#utility.yul\":9906:9983   */\n      0x4e487b7100000000000000000000000000000000000000000000000000000000\n        /* \"#utility.yul\":9903:9904   */\n      0x00\n        /* \"#utility.yul\":9896:9984   */\n      mstore\n        /* \"#utility.yul\":10003:10007   */\n      0x11\n        /* \"#utility.yul\":10000:10001   */\n      0x04\n        /* \"#utility.yul\":9993:10008   */\n      mstore\n        /* \"#utility.yul\":10027:10031   */\n      0x24\n        /* \"#utility.yul\":10024:10025   */\n      0x00\n        /* \"#utility.yul\":10017:10032   */\n      revert\n        /* \"#utility.yul\":10044:10277   */\n    tag_72:\n        /* \"#utility.yul\":10083:10086   */\n      0x00\n        /* \"#utility.yul\":10106:10130   */\n      tag_236\n        /* \"#utility.yul\":10124:10129   */\n      dup3\n        /* \"#utility.yul\":10106:10130   */\n      tag_116\n      jump\t// in\n    tag_236:\n        /* \"#utility.yul\":10097:10130   */\n      swap2\n      pop\n        /* \"#utility.yul\":10152:10218   */\n      0xffffffffffffffffffffffffffffffffffffffffffffffffffffffffffffffff\n        /* \"#utility.yul\":10145:10150   */\n      dup3\n        /* \"#utility.yul\":10142:10219   */\n      sub\n        /* \"#utility.yul\":10139:10242   */\n      tag_237\n      jumpi\n        /* \"#utility.yul\":10222:10240   */\n      tag_238\n      tag_138\n      jump\t// in\n    tag_238:\n        /* \"#utility.yul\":10139:10242   */\n    tag_237:\n        /* \"#utility.yul\":10269:10270   */\n      0x01\n        /* \"#utility.yul\":10262:10267   */\n      dup3\n        /* \"#utility.yul\":10258:10271   */\n      add\n        /* \"#utility.yul\":10251:10271   */\n      swap1\n      pop\n        /* \"#utility.yul\":10044:10277   */\n      swap2\n      swap1\n      pop\n      jump\t// out\n        /* \"#utility.yul\":10283:10456   */\n    tag_139:\n        /* \"#utility.yul\":10423:10448   */\n      0x50726f7065727479206e6f742072656769737465726564000000000000000000\n        /* \"#utility.yul\":10419:10420   */\n      0x00\n        /* \"#utility.yul\":10411:10417   */\n      dup3\n        /* \"#utility.yul\":10407:10421   */\n      add\n        /* \"#utility.yul\":10400:10449   */\n      mstore\n        /* \"#utility.yul\":10283:10456   */\n      pop\n      jump\t// out\n        /* \"#utility.yul\":10462:10828   */\n    tag_140:\n        /* \"#utility.yul\":10604:10607   */\n      0x00\n        /* \"#utility.yul\":10625:10692   */\n      tag_241\n        /* \"#utility.yul\":10689:10691   */\n      0x17\n        /* \"#utility.yul\":10684:10687   */\n      dup4\n        /* \"#utility.yul\":10625:10692   */\n      tag_135\n      jump\t// in\n    tag_241:\n        /* \"#utility.yul\":10618:10692   */\n      swap2\n      pop\n        /* \"#utility.yul\":10701:10794   */\n      tag_242\n        /* \"#utility.yul\":10790:10793   */\n      dup3\n        /* \"#utility.yul\":10701:10794   */\n      tag_139\n      jump\t// in\n    tag_242:\n        /* \"#utility.yul\":10819:10821   */\n      0x20\n        /* \"#utility.yul\":10814:10817   */\n      dup3\n        /* \"#utility.yul\":10810:10822   */\n      add\n        /* \"#utility.yul\":10803:10822   */\n      swap1\n      pop\n        /* \"#utility.yul\":10462:10828   */\n      swap2\n      swap1\n      pop\n      jump\t// out\n        /* \"#utility.yul\":10834:11253   */\n    tag_86:\n        /* \"#utility.yul\":11000:11004   */\n      0x00\n        /* \"#utility.yul\":11038:11040   */\n      0x20\n        /* \"#utility.yul\":11027:11036   */\n      dup3\n        /* \"#utility.yul\":11023:11041   */\n      add\n        /* \"#utility.yul\":11015:11041   */\n      swap1\n      pop\n        /* \"#utility.yul\":11087:11096   */\n      dup2\n        /* \"#utility.yul\":11081:11085   */\n      dup2\n        /* \"#utility.yul\":11077:11097   */\n      sub\n        /* \"#utility.yul\":11073:11074   */\n      0x00\n        /* \"#utility.yul\":11062:11071   */\n      dup4\n        /* \"#utility.yul\":11058:11075   */\n      add\n        /* \"#utility.yul\":11051:11098   */\n      mstore\n        /* \"#utility.yul\":11115:11246   */\n      tag_244\n        /* \"#utility.yul\":11241:11245   */\n      dup2\n        /* \"#utility.yul\":11115:11246   */\n      tag_140\n      jump\t// in\n    tag_244:\n        /* \"#utility.yul\":11107:11246   */\n      swap1\n      pop\n        /* \"#utility.yul\":10834:11253   */\n      swap2\n      swap1\n      pop\n      jump\t// out\n        /* \"#utility.yul\":11259:11453   */\n    tag_88:\n        /* \"#utility.yul\":11299:11303   */\n      0x00\n        /* \"#utility.yul\":11319:11339   */\n      tag_246\n        /* \"#utility.yul\":11337:11338   */\n      dup3\n        /* \"#utility.yul\":11319:11339   */\n      tag_116\n      jump\t// in\n    tag_246:\n        /* \"#utility.yul\":11314:11339   */\n      swap2\n      pop\n        /* \"#utility.yul\":11353:11373   */\n      tag_247\n        /* \"#utility.yul\":11371:11372   */\n      dup4\n        /* \"#utility.yul\":11353:11373   */\n      tag_116\n      jump\t// in\n    tag_247:\n        /* \"#utility.yul\":11348:11373   */\n      swap3\n      pop\n        /* \"#utility.yul\":11397:11398   */\n      dup3\n        /* \"#utility.yul\":11394:11395   */\n      dup3\n        /* \"#utility.yul\":11390:11399   */\n      sub\n        /* \"#utility.yul\":11382:11399   */\n      swap1\n      pop\n        /* \"#utility.yul\":11421:11422   */\n      dup2\n        /* \"#utility.yul\":11415:11419   */\n      dup2\n        /* \"#utility.yul\":11412:11423   */\n      gt\n        /* \"#utility.yul\":11409:11446   */\n      iszero\n      tag_248\n      jumpi\n        /* \"#utility.yul\":11426:11444   */\n      tag_249\n      tag_138\n      jump\t// in\n    tag_249:\n        /* \"#utility.yul\":11409:11446   */\n    tag_248:\n        /* \"#utility.yul\":11259:11453   */\n      swap3\n      swap2\n      pop\n      pop\n      jump\t// out\n        /* \"#utility.yul\":11459:11669   */\n    tag_93:\n        /* \"#utility.yul\":11546:11550   */\n      0x00\n        /* \"#utility.yul\":11584:11586   */\n      0x20\n        /* \"#utility.yul\":11573:11582   */\n      dup3\n        /* \"#utility.yul\":11569:11587   */\n      add\n        /* \"#utility.yul\":11561:11587   */\n      swap1\n      pop\n        /* \"#utility.yul\":11597:11662   */\n      tag_251\n        /* \"#utility.yul\":11659:11660   */\n      0x00\n        /* \"#utility.yul\":11648:11657   */\n      dup4\n        /* \"#utility.yul\":11644:11661   */\n      add\n        /* \"#utility.yul\":11635:11641   */\n      dup5\n        /* \"#utility.yul\":11597:11662   */\n      tag_132\n      jump\t// in\n    tag_251:\n        /* \"#utility.yul\":11459:11669   */\n      swap3\n      swap2\n      pop\n      pop\n      jump\t// out\n\n    auxdata: 0xa2646970667358221220930f40415a160bd39eceb316390d06773934f664f591f7e1fadc709a74d7695b64736f6c634300081d0033\n}\n",
				"bytecode": {
					"linkReferences": {},
					"object": "608060405234801561000f575f5ffd5b50604051611138380380611138833981810160405281019061003191906101d7565b805f73ffffffffffffffffffffffffffffffffffffffff168173ffffffffffffffffffffffffffffffffffffffff16036100a2575f6040517f1e4fbdf70000000000000000000000000000000000000000000000000000000081526004016100999190610211565b60405180910390fd5b6100b1816100b860201b60201c565b505061022a565b5f5f5f9054906101000a900473ffffffffffffffffffffffffffffffffffffffff169050815f5f6101000a81548173ffffffffffffffffffffffffffffffffffffffff021916908373ffffffffffffffffffffffffffffffffffffffff1602179055508173ffffffffffffffffffffffffffffffffffffffff168173ffffffffffffffffffffffffffffffffffffffff167f8be0079c531659141344cd1fd0a4f28419497f9722a3daafe3b4186f6b6457e060405160405180910390a35050565b5f5ffd5b5f73ffffffffffffffffffffffffffffffffffffffff82169050919050565b5f6101a68261017d565b9050919050565b6101b68161019c565b81146101c0575f5ffd5b50565b5f815190506101d1816101ad565b92915050565b5f602082840312156101ec576101eb610179565b5b5f6101f9848285016101c3565b91505092915050565b61020b8161019c565b82525050565b5f6020820190506102245f830184610202565b92915050565b610f01806102375f395ff3fe608060405234801561000f575f5ffd5b5060043610610091575f3560e01c8063715018a611610064578063715018a61461011d5780638da5cb5b14610127578063a4beaa5814610145578063aaf0293714610178578063f2fde38b1461019457610091565b806302fb243a146100955780632e4774c6146100b15780633d51402c146100e1578063603ddf11146100ff575b5f5ffd5b6100af60048036038101906100aa91906109da565b6101b0565b005b6100cb60048036038101906100c69190610a18565b610415565b6040516100d89190610a5b565b60405180910390f35b6100e961042a565b6040516100f69190610ba7565b60405180910390f35b610107610554565b6040516101149190610a5b565b60405180910390f35b6101256105c5565b005b61012f6105d8565b60405161013c9190610bd6565b60405180910390f35b61015f600480360381019061015a9190610c19565b6105ff565b60405161016f9493929190610c53565b60405180910390f35b610192600480360381019061018d9190610cc0565b610685565b005b6101ae60048036038101906101a99190610a18565b6107a9565b005b6101b861082d565b5f60025f8473ffffffffffffffffffffffffffffffffffffffff1673ffffffffffffffffffffffffffffffffffffffff1681526020019081526020015f205414610237576040517f08c379a000000000000000000000000000000000000000000000000000000000815260040161022e90610d58565b60405180910390fd5b600160405180608001604052808473ffffffffffffffffffffffffffffffffffffffff1681526020018373ffffffffffffffffffffffffffffffffffffffff16815260200160011515815260200142815250908060018154018082558091505060019003905f5260205f2090600302015f909190919091505f820151815f015f6101000a81548173ffffffffffffffffffffffffffffffffffffffff021916908373ffffffffffffffffffffffffffffffffffffffff1602179055506020820151816001015f6101000a81548173ffffffffffffffffffffffffffffffffffffffff021916908373ffffffffffffffffffffffffffffffffffffffff16021790555060408201518160010160146101000a81548160ff02191690831515021790555060608201518160020155505060018054905060025f8473ffffffffffffffffffffffffffffffffffffffff1673ffffffffffffffffffffffffffffffffffffffff1681526020019081526020015f20819055508073ffffffffffffffffffffffffffffffffffffffff168273ffffffffffffffffffffffffffffffffffffffff167f893a9c1d8d241f202772e01f1eaa3cea88cd9b2a5bb4ebd1f98bc7df4f740fac426040516104099190610a5b565b60405180910390a35050565b6002602052805f5260405f205f915090505481565b60606001805480602002602001604051908101604052809291908181526020015f905b8282101561054b578382905f5260205f2090600302016040518060800160405290815f82015f9054906101000a900473ffffffffffffffffffffffffffffffffffffffff1673ffffffffffffffffffffffffffffffffffffffff1673ffffffffffffffffffffffffffffffffffffffff168152602001600182015f9054906101000a900473ffffffffffffffffffffffffffffffffffffffff1673ffffffffffffffffffffffffffffffffffffffff1673ffffffffffffffffffffffffffffffffffffffff1681526020016001820160149054906101000a900460ff161515151581526020016002820154815250508152602001906001019061044d565b50505050905090565b5f5f5f90505f5f90505b6001805490508110156105bd576001818154811061057f5761057e610d76565b5b905f5260205f20906003020160010160149054906101000a900460ff16156105b05781806105ac90610dd0565b9250505b808060010191505061055e565b508091505090565b6105cd61082d565b6105d65f6108b4565b565b5f5f5f9054906101000a900473ffffffffffffffffffffffffffffffffffffffff16905090565b6001818154811061060e575f80fd5b905f5260205f2090600302015f91509050805f015f9054906101000a900473ffffffffffffffffffffffffffffffffffffffff1690806001015f9054906101000a900473ffffffffffffffffffffffffffffffffffffffff16908060010160149054906101000a900460ff16908060020154905084565b61068d61082d565b5f60025f8473ffffffffffffffffffffffffffffffffffffffff1673ffffffffffffffffffffffffffffffffffffffff1681526020019081526020015f205490505f8111610710576040517f08c379a000000000000000000000000000000000000000000000000000000000815260040161070790610e61565b60405180910390fd5b816001808361071f9190610e7f565b815481106107305761072f610d76565b5b905f5260205f20906003020160010160146101000a81548160ff0219169083151502179055508273ffffffffffffffffffffffffffffffffffffffff167f67f1125df14f08f21b9416ba66f0c4e6093ce1bbfa949a38a8cd5a52f8b56ed68360405161079c9190610eb2565b60405180910390a2505050565b6107b161082d565b5f73ffffffffffffffffffffffffffffffffffffffff168173ffffffffffffffffffffffffffffffffffffffff1603610821575f6040517f1e4fbdf70000000000000000000000000000000000000000000000000000000081526004016108189190610bd6565b60405180910390fd5b61082a816108b4565b50565b610835610975565b73ffffffffffffffffffffffffffffffffffffffff166108536105d8565b73ffffffffffffffffffffffffffffffffffffffff16146108b257610876610975565b6040517f118cdaa70000000000000000000000000000000000000000000000000000000081526004016108a99190610bd6565b60405180910390fd5b565b5f5f5f9054906101000a900473ffffffffffffffffffffffffffffffffffffffff169050815f5f6101000a81548173ffffffffffffffffffffffffffffffffffffffff021916908373ffffffffffffffffffffffffffffffffffffffff1602179055508173ffffffffffffffffffffffffffffffffffffffff168173ffffffffffffffffffffffffffffffffffffffff167f8be0079c531659141344cd1fd0a4f28419497f9722a3daafe3b4186f6b6457e060405160405180910390a35050565b5f33905090565b5f5ffd5b5f73ffffffffffffffffffffffffffffffffffffffff82169050919050565b5f6109a982610980565b9050919050565b6109b98161099f565b81146109c3575f5ffd5b50565b5f813590506109d4816109b0565b92915050565b5f5f604083850312156109f0576109ef61097c565b5b5f6109fd858286016109c6565b9250506020610a0e858286016109c6565b9150509250929050565b5f60208284031215610a2d57610a2c61097c565b5b5f610a3a848285016109c6565b91505092915050565b5f819050919050565b610a5581610a43565b82525050565b5f602082019050610a6e5f830184610a4c565b92915050565b5f81519050919050565b5f82825260208201905092915050565b5f819050602082019050919050565b610aa68161099f565b82525050565b5f8115159050919050565b610ac081610aac565b82525050565b610acf81610a43565b82525050565b608082015f820151610ae95f850182610a9d565b506020820151610afc6020850182610a9d565b506040820151610b0f6040850182610ab7565b506060820151610b226060850182610ac6565b50505050565b5f610b338383610ad5565b60808301905092915050565b5f602082019050919050565b5f610b5582610a74565b610b5f8185610a7e565b9350610b6a83610a8e565b805f5b83811015610b9a578151610b818882610b28565b9750610b8c83610b3f565b925050600181019050610b6d565b5085935050505092915050565b5f6020820190508181035f830152610bbf8184610b4b565b905092915050565b610bd08161099f565b82525050565b5f602082019050610be95f830184610bc7565b92915050565b610bf881610a43565b8114610c02575f5ffd5b50565b5f81359050610c1381610bef565b92915050565b5f60208284031215610c2e57610c2d61097c565b5b5f610c3b84828501610c05565b91505092915050565b610c4d81610aac565b82525050565b5f608082019050610c665f830187610bc7565b610c736020830186610bc7565b610c806040830185610c44565b610c8d6060830184610a4c565b95945050505050565b610c9f81610aac565b8114610ca9575f5ffd5b50565b5f81359050610cba81610c96565b92915050565b5f5f60408385031215610cd657610cd561097c565b5b5f610ce3858286016109c6565b9250506020610cf485828601610cac565b9150509250929050565b5f82825260208201905092915050565b7f50726f706572747920616c7265616479207265676973746572656400000000005f82015250565b5f610d42601b83610cfe565b9150610d4d82610d0e565b602082019050919050565b5f6020820190508181035f830152610d6f81610d36565b9050919050565b7f4e487b71000000000000000000000000000000000000000000000000000000005f52603260045260245ffd5b7f4e487b71000000000000000000000000000000000000000000000000000000005f52601160045260245ffd5b5f610dda82610a43565b91507fffffffffffffffffffffffffffffffffffffffffffffffffffffffffffffffff8203610e0c57610e0b610da3565b5b600182019050919050565b7f50726f7065727479206e6f7420726567697374657265640000000000000000005f82015250565b5f610e4b601783610cfe565b9150610e5682610e17565b602082019050919050565b5f6020820190508181035f830152610e7881610e3f565b9050919050565b5f610e8982610a43565b9150610e9483610a43565b9250828203905081811115610eac57610eab610da3565b5b92915050565b5f602082019050610ec55f830184610c44565b9291505056fea2646970667358221220930f40415a160bd39eceb316390d06773934f664f591f7e1fadc709a74d7695b64736f6c634300081d0033",
					"opcodes": "PUSH1 0x80 PUSH1 0x40 MSTORE CALLVALUE DUP1 ISZERO PUSH2 0xF JUMPI PUSH0 PUSH0 REVERT JUMPDEST POP PUSH1 0x40 MLOAD PUSH2 0x1138 CODESIZE SUB DUP1 PUSH2 0x1138 DUP4 CODECOPY DUP2 DUP2 ADD PUSH1 0x40 MSTORE DUP2 ADD SWAP1 PUSH2 0x31 SWAP2 SWAP1 PUSH2 0x1D7 JUMP JUMPDEST DUP1 PUSH0 PUSH20 0xFFFFFFFFFFFFFFFFFFFFFFFFFFFFFFFFFFFFFFFF AND DUP2 PUSH20 0xFFFFFFFFFFFFFFFFFFFFFFFFFFFFFFFFFFFFFFFF AND SUB PUSH2 0xA2 JUMPI PUSH0 PUSH1 0x40 MLOAD PUSH32 0x1E4FBDF700000000000000000000000000000000000000000000000000000000 DUP2 MSTORE PUSH1 0x4 ADD PUSH2 0x99 SWAP2 SWAP1 PUSH2 0x211 JUMP JUMPDEST PUSH1 0x40 MLOAD DUP1 SWAP2 SUB SWAP1 REVERT JUMPDEST PUSH2 0xB1 DUP2 PUSH2 0xB8 PUSH1 0x20 SHL PUSH1 0x20 SHR JUMP JUMPDEST POP POP PUSH2 0x22A JUMP JUMPDEST PUSH0 PUSH0 PUSH0 SWAP1 SLOAD SWAP1 PUSH2 0x100 EXP SWAP1 DIV PUSH20 0xFFFFFFFFFFFFFFFFFFFFFFFFFFFFFFFFFFFFFFFF AND SWAP1 POP DUP2 PUSH0 PUSH0 PUSH2 0x100 EXP DUP2 SLOAD DUP2 PUSH20 0xFFFFFFFFFFFFFFFFFFFFFFFFFFFFFFFFFFFFFFFF MUL NOT AND SWAP1 DUP4 PUSH20 0xFFFFFFFFFFFFFFFFFFFFFFFFFFFFFFFFFFFFFFFF AND MUL OR SWAP1 SSTORE POP DUP2 PUSH20 0xFFFFFFFFFFFFFFFFFFFFFFFFFFFFFFFFFFFFFFFF AND DUP2 PUSH20 0xFFFFFFFFFFFFFFFFFFFFFFFFFFFFFFFFFFFFFFFF AND PUSH32 0x8BE0079C531659141344CD1FD0A4F28419497F9722A3DAAFE3B4186F6B6457E0 PUSH1 0x40 MLOAD PUSH1 0x40 MLOAD DUP1 SWAP2 SUB SWAP1 LOG3 POP POP JUMP JUMPDEST PUSH0 PUSH0 REVERT JUMPDEST PUSH0 PUSH20 0xFFFFFFFFFFFFFFFFFFFFFFFFFFFFFFFFFFFFFFFF DUP3 AND SWAP1 POP SWAP2 SWAP1 POP JUMP JUMPDEST PUSH0 PUSH2 0x1A6 DUP3 PUSH2 0x17D JUMP JUMPDEST SWAP1 POP SWAP2 SWAP1 POP JUMP JUMPDEST PUSH2 0x1B6 DUP2 PUSH2 0x19C JUMP JUMPDEST DUP2 EQ PUSH2 0x1C0 JUMPI PUSH0 PUSH0 REVERT JUMPDEST POP JUMP JUMPDEST PUSH0 DUP2 MLOAD SWAP1 POP PUSH2 0x1D1 DUP2 PUSH2 0x1AD JUMP JUMPDEST SWAP3 SWAP2 POP POP JUMP JUMPDEST PUSH0 PUSH1 0x20 DUP3 DUP5 SUB SLT ISZERO PUSH2 0x1EC JUMPI PUSH2 0x1EB PUSH2 0x179 JUMP JUMPDEST JUMPDEST PUSH0 PUSH2 0x1F9 DUP5 DUP3 DUP6 ADD PUSH2 0x1C3 JUMP JUMPDEST SWAP2 POP POP SWAP3 SWAP2 POP POP JUMP JUMPDEST PUSH2 0x20B DUP2 PUSH2 0x19C JUMP JUMPDEST DUP3 MSTORE POP POP JUMP JUMPDEST PUSH0 PUSH1 0x20 DUP3 ADD SWAP1 POP PUSH2 0x224 PUSH0 DUP4 ADD DUP5 PUSH2 0x202 JUMP JUMPDEST SWAP3 SWAP2 POP POP JUMP JUMPDEST PUSH2 0xF01 DUP1 PUSH2 0x237 PUSH0 CODECOPY PUSH0 RETURN INVALID PUSH1 0x80 PUSH1 0x40 MSTORE CALLVALUE DUP1 ISZERO PUSH2 0xF JUMPI PUSH0 PUSH0 REVERT JUMPDEST POP PUSH1 0x4 CALLDATASIZE LT PUSH2 0x91 JUMPI PUSH0 CALLDATALOAD PUSH1 0xE0 SHR DUP1 PUSH4 0x715018A6 GT PUSH2 0x64 JUMPI DUP1 PUSH4 0x715018A6 EQ PUSH2 0x11D JUMPI DUP1 PUSH4 0x8DA5CB5B EQ PUSH2 0x127 JUMPI DUP1 PUSH4 0xA4BEAA58 EQ PUSH2 0x145 JUMPI DUP1 PUSH4 0xAAF02937 EQ PUSH2 0x178 JUMPI DUP1 PUSH4 0xF2FDE38B EQ PUSH2 0x194 JUMPI PUSH2 0x91 JUMP JUMPDEST DUP1 PUSH4 0x2FB243A EQ PUSH2 0x95 JUMPI DUP1 PUSH4 0x2E4774C6 EQ PUSH2 0xB1 JUMPI DUP1 PUSH4 0x3D51402C EQ PUSH2 0xE1 JUMPI DUP1 PUSH4 0x603DDF11 EQ PUSH2 0xFF JUMPI JUMPDEST PUSH0 PUSH0 REVERT JUMPDEST PUSH2 0xAF PUSH1 0x4 DUP1 CALLDATASIZE SUB DUP2 ADD SWAP1 PUSH2 0xAA SWAP2 SWAP1 PUSH2 0x9DA JUMP JUMPDEST PUSH2 0x1B0 JUMP JUMPDEST STOP JUMPDEST PUSH2 0xCB PUSH1 0x4 DUP1 CALLDATASIZE SUB DUP2 ADD SWAP1 PUSH2 0xC6 SWAP2 SWAP1 PUSH2 0xA18 JUMP JUMPDEST PUSH2 0x415 JUMP JUMPDEST PUSH1 0x40 MLOAD PUSH2 0xD8 SWAP2 SWAP1 PUSH2 0xA5B JUMP JUMPDEST PUSH1 0x40 MLOAD DUP1 SWAP2 SUB SWAP1 RETURN JUMPDEST PUSH2 0xE9 PUSH2 0x42A JUMP JUMPDEST PUSH1 0x40 MLOAD PUSH2 0xF6 SWAP2 SWAP1 PUSH2 0xBA7 JUMP JUMPDEST PUSH1 0x40 MLOAD DUP1 SWAP2 SUB SWAP1 RETURN JUMPDEST PUSH2 0x107 PUSH2 0x554 JUMP JUMPDEST PUSH1 0x40 MLOAD PUSH2 0x114 SWAP2 SWAP1 PUSH2 0xA5B JUMP JUMPDEST PUSH1 0x40 MLOAD DUP1 SWAP2 SUB SWAP1 RETURN JUMPDEST PUSH2 0x125 PUSH2 0x5C5 JUMP JUMPDEST STOP JUMPDEST PUSH2 0x12F PUSH2 0x5D8 JUMP JUMPDEST PUSH1 0x40 MLOAD PUSH2 0x13C SWAP2 SWAP1 PUSH2 0xBD6 JUMP JUMPDEST PUSH1 0x40 MLOAD DUP1 SWAP2 SUB SWAP1 RETURN JUMPDEST PUSH2 0x15F PUSH1 0x4 DUP1 CALLDATASIZE SUB DUP2 ADD SWAP1 PUSH2 0x15A SWAP2 SWAP1 PUSH2 0xC19 JUMP JUMPDEST PUSH2 0x5FF JUMP JUMPDEST PUSH1 0x40 MLOAD PUSH2 0x16F SWAP5 SWAP4 SWAP3 SWAP2 SWAP1 PUSH2 0xC53 JUMP JUMPDEST PUSH1 0x40 MLOAD DUP1 SWAP2 SUB SWAP1 RETURN JUMPDEST PUSH2 0x192 PUSH1 0x4 DUP1 CALLDATASIZE SUB DUP2 ADD SWAP1 PUSH2 0x18D SWAP2 SWAP1 PUSH2 0xCC0 JUMP JUMPDEST PUSH2 0x685 JUMP JUMPDEST STOP JUMPDEST PUSH2 0x1AE PUSH1 0x4 DUP1 CALLDATASIZE SUB DUP2 ADD SWAP1 PUSH2 0x1A9 SWAP2 SWAP1 PUSH2 0xA18 JUMP JUMPDEST PUSH2 0x7A9 JUMP JUMPDEST STOP JUMPDEST PUSH2 0x1B8 PUSH2 0x82D JUMP JUMPDEST PUSH0 PUSH1 0x2 PUSH0 DUP5 PUSH20 0xFFFFFFFFFFFFFFFFFFFFFFFFFFFFFFFFFFFFFFFF AND PUSH20 0xFFFFFFFFFFFFFFFFFFFFFFFFFFFFFFFFFFFFFFFF AND DUP2 MSTORE PUSH1 0x20 ADD SWAP1 DUP2 MSTORE PUSH1 0x20 ADD PUSH0 KECCAK256 SLOAD EQ PUSH2 0x237 JUMPI PUSH1 0x40 MLOAD PUSH32 0x8C379A000000000000000000000000000000000000000000000000000000000 DUP2 MSTORE PUSH1 0x4 ADD PUSH2 0x22E SWAP1 PUSH2 0xD58 JUMP JUMPDEST PUSH1 0x40 MLOAD DUP1 SWAP2 SUB SWAP1 REVERT JUMPDEST PUSH1 0x1 PUSH1 0x40 MLOAD DUP1 PUSH1 0x80 ADD PUSH1 0x40 MSTORE DUP1 DUP5 PUSH20 0xFFFFFFFFFFFFFFFFFFFFFFFFFFFFFFFFFFFFFFFF AND DUP2 MSTORE PUSH1 0x20 ADD DUP4 PUSH20 0xFFFFFFFFFFFFFFFFFFFFFFFFFFFFFFFFFFFFFFFF AND DUP2 MSTORE PUSH1 0x20 ADD PUSH1 0x1 ISZERO ISZERO DUP2 MSTORE PUSH1 0x20 ADD TIMESTAMP DUP2 MSTORE POP SWAP1 DUP1 PUSH1 0x1 DUP2 SLOAD ADD DUP1 DUP3 SSTORE DUP1 SWAP2 POP POP PUSH1 0x1 SWAP1 SUB SWAP1 PUSH0 MSTORE PUSH1 0x20 PUSH0 KECCAK256 SWAP1 PUSH1 0x3 MUL ADD PUSH0 SWAP1 SWAP2 SWAP1 SWAP2 SWAP1 SWAP2 POP PUSH0 DUP3 ADD MLOAD DUP2 PUSH0 ADD PUSH0 PUSH2 0x100 EXP DUP2 SLOAD DUP2 PUSH20 0xFFFFFFFFFFFFFFFFFFFFFFFFFFFFFFFFFFFFFFFF MUL NOT AND SWAP1 DUP4 PUSH20 0xFFFFFFFFFFFFFFFFFFFFFFFFFFFFFFFFFFFFFFFF AND MUL OR SWAP1 SSTORE POP PUSH1 0x20 DUP3 ADD MLOAD DUP2 PUSH1 0x1 ADD PUSH0 PUSH2 0x100 EXP DUP2 SLOAD DUP2 PUSH20 0xFFFFFFFFFFFFFFFFFFFFFFFFFFFFFFFFFFFFFFFF MUL NOT AND SWAP1 DUP4 PUSH20 0xFFFFFFFFFFFFFFFFFFFFFFFFFFFFFFFFFFFFFFFF AND MUL OR SWAP1 SSTORE POP PUSH1 0x40 DUP3 ADD MLOAD DUP2 PUSH1 0x1 ADD PUSH1 0x14 PUSH2 0x100 EXP DUP2 SLOAD DUP2 PUSH1 0xFF MUL NOT AND SWAP1 DUP4 ISZERO ISZERO MUL OR SWAP1 SSTORE POP PUSH1 0x60 DUP3 ADD MLOAD DUP2 PUSH1 0x2 ADD SSTORE POP POP PUSH1 0x1 DUP1 SLOAD SWAP1 POP PUSH1 0x2 PUSH0 DUP5 PUSH20 0xFFFFFFFFFFFFFFFFFFFFFFFFFFFFFFFFFFFFFFFF AND PUSH20 0xFFFFFFFFFFFFFFFFFFFFFFFFFFFFFFFFFFFFFFFF AND DUP2 MSTORE PUSH1 0x20 ADD SWAP1 DUP2 MSTORE PUSH1 0x20 ADD PUSH0 KECCAK256 DUP2 SWAP1 SSTORE POP DUP1 PUSH20 0xFFFFFFFFFFFFFFFFFFFFFFFFFFFFFFFFFFFFFFFF AND DUP3 PUSH20 0xFFFFFFFFFFFFFFFFFFFFFFFFFFFFFFFFFFFFFFFF AND PUSH32 0x893A9C1D8D241F202772E01F1EAA3CEA88CD9B2A5BB4EBD1F98BC7DF4F740FAC TIMESTAMP PUSH1 0x40 MLOAD PUSH2 0x409 SWAP2 SWAP1 PUSH2 0xA5B JUMP JUMPDEST PUSH1 0x40 MLOAD DUP1 SWAP2 SUB SWAP1 LOG3 POP POP JUMP JUMPDEST PUSH1 0x2 PUSH1 0x20 MSTORE DUP1 PUSH0 MSTORE PUSH1 0x40 PUSH0 KECCAK256 PUSH0 SWAP2 POP SWAP1 POP SLOAD DUP2 JUMP JUMPDEST PUSH1 0x60 PUSH1 0x1 DUP1 SLOAD DUP1 PUSH1 0x20 MUL PUSH1 0x20 ADD PUSH1 0x40 MLOAD SWAP1 DUP2 ADD PUSH1 0x40 MSTORE DUP1 SWAP3 SWAP2 SWAP1 DUP2 DUP2 MSTORE PUSH1 0x20 ADD PUSH0 SWAP1 JUMPDEST DUP3 DUP3 LT ISZERO PUSH2 0x54B JUMPI DUP4 DUP3 SWAP1 PUSH0 MSTORE PUSH1 0x20 PUSH0 KECCAK256 SWAP1 PUSH1 0x3 MUL ADD PUSH1 0x40 MLOAD DUP1 PUSH1 0x80 ADD PUSH1 0x40 MSTORE SWAP1 DUP2 PUSH0 DUP3 ADD PUSH0 SWAP1 SLOAD SWAP1 PUSH2 0x100 EXP SWAP1 DIV PUSH20 0xFFFFFFFFFFFFFFFFFFFFFFFFFFFFFFFFFFFFFFFF AND PUSH20 0xFFFFFFFFFFFFFFFFFFFFFFFFFFFFFFFFFFFFFFFF AND PUSH20 0xFFFFFFFFFFFFFFFFFFFFFFFFFFFFFFFFFFFFFFFF AND DUP2 MSTORE PUSH1 0x20 ADD PUSH1 0x1 DUP3 ADD PUSH0 SWAP1 SLOAD SWAP1 PUSH2 0x100 EXP SWAP1 DIV PUSH20 0xFFFFFFFFFFFFFFFFFFFFFFFFFFFFFFFFFFFFFFFF AND PUSH20 0xFFFFFFFFFFFFFFFFFFFFFFFFFFFFFFFFFFFFFFFF AND PUSH20 0xFFFFFFFFFFFFFFFFFFFFFFFFFFFFFFFFFFFFFFFF AND DUP2 MSTORE PUSH1 0x20 ADD PUSH1 0x1 DUP3 ADD PUSH1 0x14 SWAP1 SLOAD SWAP1 PUSH2 0x100 EXP SWAP1 DIV PUSH1 0xFF AND ISZERO ISZERO ISZERO ISZERO DUP2 MSTORE PUSH1 0x20 ADD PUSH1 0x2 DUP3 ADD SLOAD DUP2 MSTORE POP POP DUP2 MSTORE PUSH1 0x20 ADD SWAP1 PUSH1 0x1 ADD SWAP1 PUSH2 0x44D JUMP JUMPDEST POP POP POP POP SWAP1 POP SWAP1 JUMP JUMPDEST PUSH0 PUSH0 PUSH0 SWAP1 POP PUSH0 PUSH0 SWAP1 POP JUMPDEST PUSH1 0x1 DUP1 SLOAD SWAP1 POP DUP2 LT ISZERO PUSH2 0x5BD JUMPI PUSH1 0x1 DUP2 DUP2 SLOAD DUP2 LT PUSH2 0x57F JUMPI PUSH2 0x57E PUSH2 0xD76 JUMP JUMPDEST JUMPDEST SWAP1 PUSH0 MSTORE PUSH1 0x20 PUSH0 KECCAK256 SWAP1 PUSH1 0x3 MUL ADD PUSH1 0x1 ADD PUSH1 0x14 SWAP1 SLOAD SWAP1 PUSH2 0x100 EXP SWAP1 DIV PUSH1 0xFF AND ISZERO PUSH2 0x5B0 JUMPI DUP2 DUP1 PUSH2 0x5AC SWAP1 PUSH2 0xDD0 JUMP JUMPDEST SWAP3 POP POP JUMPDEST DUP1 DUP1 PUSH1 0x1 ADD SWAP2 POP POP PUSH2 0x55E JUMP JUMPDEST POP DUP1 SWAP2 POP POP SWAP1 JUMP JUMPDEST PUSH2 0x5CD PUSH2 0x82D JUMP JUMPDEST PUSH2 0x5D6 PUSH0 PUSH2 0x8B4 JUMP JUMPDEST JUMP JUMPDEST PUSH0 PUSH0 PUSH0 SWAP1 SLOAD SWAP1 PUSH2 0x100 EXP SWAP1 DIV PUSH20 0xFFFFFFFFFFFFFFFFFFFFFFFFFFFFFFFFFFFFFFFF AND SWAP1 POP SWAP1 JUMP JUMPDEST PUSH1 0x1 DUP2 DUP2 SLOAD DUP2 LT PUSH2 0x60E JUMPI PUSH0 DUP1 REVERT JUMPDEST SWAP1 PUSH0 MSTORE PUSH1 0x20 PUSH0 KECCAK256 SWAP1 PUSH1 0x3 MUL ADD PUSH0 SWAP2 POP SWAP1 POP DUP1 PUSH0 ADD PUSH0 SWAP1 SLOAD SWAP1 PUSH2 0x100 EXP SWAP1 DIV PUSH20 0xFFFFFFFFFFFFFFFFFFFFFFFFFFFFFFFFFFFFFFFF AND SWAP1 DUP1 PUSH1 0x1 ADD PUSH0 SWAP1 SLOAD SWAP1 PUSH2 0x100 EXP SWAP1 DIV PUSH20 0xFFFFFFFFFFFFFFFFFFFFFFFFFFFFFFFFFFFFFFFF AND SWAP1 DUP1 PUSH1 0x1 ADD PUSH1 0x14 SWAP1 SLOAD SWAP1 PUSH2 0x100 EXP SWAP1 DIV PUSH1 0xFF AND SWAP1 DUP1 PUSH1 0x2 ADD SLOAD SWAP1 POP DUP5 JUMP JUMPDEST PUSH2 0x68D PUSH2 0x82D JUMP JUMPDEST PUSH0 PUSH1 0x2 PUSH0 DUP5 PUSH20 0xFFFFFFFFFFFFFFFFFFFFFFFFFFFFFFFFFFFFFFFF AND PUSH20 0xFFFFFFFFFFFFFFFFFFFFFFFFFFFFFFFFFFFFFFFF AND DUP2 MSTORE PUSH1 0x20 ADD SWAP1 DUP2 MSTORE PUSH1 0x20 ADD PUSH0 KECCAK256 SLOAD SWAP1 POP PUSH0 DUP2 GT PUSH2 0x710 JUMPI PUSH1 0x40 MLOAD PUSH32 0x8C379A000000000000000000000000000000000000000000000000000000000 DUP2 MSTORE PUSH1 0x4 ADD PUSH2 0x707 SWAP1 PUSH2 0xE61 JUMP JUMPDEST PUSH1 0x40 MLOAD DUP1 SWAP2 SUB SWAP1 REVERT JUMPDEST DUP2 PUSH1 0x1 DUP1 DUP4 PUSH2 0x71F SWAP2 SWAP1 PUSH2 0xE7F JUMP JUMPDEST DUP2 SLOAD DUP2 LT PUSH2 0x730 JUMPI PUSH2 0x72F PUSH2 0xD76 JUMP JUMPDEST JUMPDEST SWAP1 PUSH0 MSTORE PUSH1 0x20 PUSH0 KECCAK256 SWAP1 PUSH1 0x3 MUL ADD PUSH1 0x1 ADD PUSH1 0x14 PUSH2 0x100 EXP DUP2 SLOAD DUP2 PUSH1 0xFF MUL NOT AND SWAP1 DUP4 ISZERO ISZERO MUL OR SWAP1 SSTORE POP DUP3 PUSH20 0xFFFFFFFFFFFFFFFFFFFFFFFFFFFFFFFFFFFFFFFF AND PUSH32 0x67F1125DF14F08F21B9416BA66F0C4E6093CE1BBFA949A38A8CD5A52F8B56ED6 DUP4 PUSH1 0x40 MLOAD PUSH2 0x79C SWAP2 SWAP1 PUSH2 0xEB2 JUMP JUMPDEST PUSH1 0x40 MLOAD DUP1 SWAP2 SUB SWAP1 LOG2 POP POP POP JUMP JUMPDEST PUSH2 0x7B1 PUSH2 0x82D JUMP JUMPDEST PUSH0 PUSH20 0xFFFFFFFFFFFFFFFFFFFFFFFFFFFFFFFFFFFFFFFF AND DUP2 PUSH20 0xFFFFFFFFFFFFFFFFFFFFFFFFFFFFFFFFFFFFFFFF AND SUB PUSH2 0x821 JUMPI PUSH0 PUSH1 0x40 MLOAD PUSH32 0x1E4FBDF700000000000000000000000000000000000000000000000000000000 DUP2 MSTORE PUSH1 0x4 ADD PUSH2 0x818 SWAP2 SWAP1 PUSH2 0xBD6 JUMP JUMPDEST PUSH1 0x40 MLOAD DUP1 SWAP2 SUB SWAP1 REVERT JUMPDEST PUSH2 0x82A DUP2 PUSH2 0x8B4 JUMP JUMPDEST POP JUMP JUMPDEST PUSH2 0x835 PUSH2 0x975 JUMP JUMPDEST PUSH20 0xFFFFFFFFFFFFFFFFFFFFFFFFFFFFFFFFFFFFFFFF AND PUSH2 0x853 PUSH2 0x5D8 JUMP JUMPDEST PUSH20 0xFFFFFFFFFFFFFFFFFFFFFFFFFFFFFFFFFFFFFFFF AND EQ PUSH2 0x8B2 JUMPI PUSH2 0x876 PUSH2 0x975 JUMP JUMPDEST PUSH1 0x40 MLOAD PUSH32 0x118CDAA700000000000000000000000000000000000000000000000000000000 DUP2 MSTORE PUSH1 0x4 ADD PUSH2 0x8A9 SWAP2 SWAP1 PUSH2 0xBD6 JUMP JUMPDEST PUSH1 0x40 MLOAD DUP1 SWAP2 SUB SWAP1 REVERT JUMPDEST JUMP JUMPDEST PUSH0 PUSH0 PUSH0 SWAP1 SLOAD SWAP1 PUSH2 0x100 EXP SWAP1 DIV PUSH20 0xFFFFFFFFFFFFFFFFFFFFFFFFFFFFFFFFFFFFFFFF AND SWAP1 POP DUP2 PUSH0 PUSH0 PUSH2 0x100 EXP DUP2 SLOAD DUP2 PUSH20 0xFFFFFFFFFFFFFFFFFFFFFFFFFFFFFFFFFFFFFFFF MUL NOT AND SWAP1 DUP4 PUSH20 0xFFFFFFFFFFFFFFFFFFFFFFFFFFFFFFFFFFFFFFFF AND MUL OR SWAP1 SSTORE POP DUP2 PUSH20 0xFFFFFFFFFFFFFFFFFFFFFFFFFFFFFFFFFFFFFFFF AND DUP2 PUSH20 0xFFFFFFFFFFFFFFFFFFFFFFFFFFFFFFFFFFFFFFFF AND PUSH32 0x8BE0079C531659141344CD1FD0A4F28419497F9722A3DAAFE3B4186F6B6457E0 PUSH1 0x40 MLOAD PUSH1 0x40 MLOAD DUP1 SWAP2 SUB SWAP1 LOG3 POP POP JUMP JUMPDEST PUSH0 CALLER SWAP1 POP SWAP1 JUMP JUMPDEST PUSH0 PUSH0 REVERT JUMPDEST PUSH0 PUSH20 0xFFFFFFFFFFFFFFFFFFFFFFFFFFFFFFFFFFFFFFFF DUP3 AND SWAP1 POP SWAP2 SWAP1 POP JUMP JUMPDEST PUSH0 PUSH2 0x9A9 DUP3 PUSH2 0x980 JUMP JUMPDEST SWAP1 POP SWAP2 SWAP1 POP JUMP JUMPDEST PUSH2 0x9B9 DUP2 PUSH2 0x99F JUMP JUMPDEST DUP2 EQ PUSH2 0x9C3 JUMPI PUSH0 PUSH0 REVERT JUMPDEST POP JUMP JUMPDEST PUSH0 DUP2 CALLDATALOAD SWAP1 POP PUSH2 0x9D4 DUP2 PUSH2 0x9B0 JUMP JUMPDEST SWAP3 SWAP2 POP POP JUMP JUMPDEST PUSH0 PUSH0 PUSH1 0x40 DUP4 DUP6 SUB SLT ISZERO PUSH2 0x9F0 JUMPI PUSH2 0x9EF PUSH2 0x97C JUMP JUMPDEST JUMPDEST PUSH0 PUSH2 0x9FD DUP6 DUP3 DUP7 ADD PUSH2 0x9C6 JUMP JUMPDEST SWAP3 POP POP PUSH1 0x20 PUSH2 0xA0E DUP6 DUP3 DUP7 ADD PUSH2 0x9C6 JUMP JUMPDEST SWAP2 POP POP SWAP3 POP SWAP3 SWAP1 POP JUMP JUMPDEST PUSH0 PUSH1 0x20 DUP3 DUP5 SUB SLT ISZERO PUSH2 0xA2D JUMPI PUSH2 0xA2C PUSH2 0x97C JUMP JUMPDEST JUMPDEST PUSH0 PUSH2 0xA3A DUP5 DUP3 DUP6 ADD PUSH2 0x9C6 JUMP JUMPDEST SWAP2 POP POP SWAP3 SWAP2 POP POP JUMP JUMPDEST PUSH0 DUP2 SWAP1 POP SWAP2 SWAP1 POP JUMP JUMPDEST PUSH2 0xA55 DUP2 PUSH2 0xA43 JUMP JUMPDEST DUP3 MSTORE POP POP JUMP JUMPDEST PUSH0 PUSH1 0x20 DUP3 ADD SWAP1 POP PUSH2 0xA6E PUSH0 DUP4 ADD DUP5 PUSH2 0xA4C JUMP JUMPDEST SWAP3 SWAP2 POP POP JUMP JUMPDEST PUSH0 DUP2 MLOAD SWAP1 POP SWAP2 SWAP1 POP JUMP JUMPDEST PUSH0 DUP3 DUP3 MSTORE PUSH1 0x20 DUP3 ADD SWAP1 POP SWAP3 SWAP2 POP POP JUMP JUMPDEST PUSH0 DUP2 SWAP1 POP PUSH1 0x20 DUP3 ADD SWAP1 POP SWAP2 SWAP1 POP JUMP JUMPDEST PUSH2 0xAA6 DUP2 PUSH2 0x99F JUMP JUMPDEST DUP3 MSTORE POP POP JUMP JUMPDEST PUSH0 DUP2 ISZERO ISZERO SWAP1 POP SWAP2 SWAP1 POP JUMP JUMPDEST PUSH2 0xAC0 DUP2 PUSH2 0xAAC JUMP JUMPDEST DUP3 MSTORE POP POP JUMP JUMPDEST PUSH2 0xACF DUP2 PUSH2 0xA43 JUMP JUMPDEST DUP3 MSTORE POP POP JUMP JUMPDEST PUSH1 0x80 DUP3 ADD PUSH0 DUP3 ADD MLOAD PUSH2 0xAE9 PUSH0 DUP6 ADD DUP3 PUSH2 0xA9D JUMP JUMPDEST POP PUSH1 0x20 DUP3 ADD MLOAD PUSH2 0xAFC PUSH1 0x20 DUP6 ADD DUP3 PUSH2 0xA9D JUMP JUMPDEST POP PUSH1 0x40 DUP3 ADD MLOAD PUSH2 0xB0F PUSH1 0x40 DUP6 ADD DUP3 PUSH2 0xAB7 JUMP JUMPDEST POP PUSH1 0x60 DUP3 ADD MLOAD PUSH2 0xB22 PUSH1 0x60 DUP6 ADD DUP3 PUSH2 0xAC6 JUMP JUMPDEST POP POP POP POP JUMP JUMPDEST PUSH0 PUSH2 0xB33 DUP4 DUP4 PUSH2 0xAD5 JUMP JUMPDEST PUSH1 0x80 DUP4 ADD SWAP1 POP SWAP3 SWAP2 POP POP JUMP JUMPDEST PUSH0 PUSH1 0x20 DUP3 ADD SWAP1 POP SWAP2 SWAP1 POP JUMP JUMPDEST PUSH0 PUSH2 0xB55 DUP3 PUSH2 0xA74 JUMP JUMPDEST PUSH2 0xB5F DUP2 DUP6 PUSH2 0xA7E JUMP JUMPDEST SWAP4 POP PUSH2 0xB6A DUP4 PUSH2 0xA8E JUMP JUMPDEST DUP1 PUSH0 JUMPDEST DUP4 DUP2 LT ISZERO PUSH2 0xB9A JUMPI DUP2 MLOAD PUSH2 0xB81 DUP9 DUP3 PUSH2 0xB28 JUMP JUMPDEST SWAP8 POP PUSH2 0xB8C DUP4 PUSH2 0xB3F JUMP JUMPDEST SWAP3 POP POP PUSH1 0x1 DUP2 ADD SWAP1 POP PUSH2 0xB6D JUMP JUMPDEST POP DUP6 SWAP4 POP POP POP POP SWAP3 SWAP2 POP POP JUMP JUMPDEST PUSH0 PUSH1 0x20 DUP3 ADD SWAP1 POP DUP2 DUP2 SUB PUSH0 DUP4 ADD MSTORE PUSH2 0xBBF DUP2 DUP5 PUSH2 0xB4B JUMP JUMPDEST SWAP1 POP SWAP3 SWAP2 POP POP JUMP JUMPDEST PUSH2 0xBD0 DUP2 PUSH2 0x99F JUMP JUMPDEST DUP3 MSTORE POP POP JUMP JUMPDEST PUSH0 PUSH1 0x20 DUP3 ADD SWAP1 POP PUSH2 0xBE9 PUSH0 DUP4 ADD DUP5 PUSH2 0xBC7 JUMP JUMPDEST SWAP3 SWAP2 POP POP JUMP JUMPDEST PUSH2 0xBF8 DUP2 PUSH2 0xA43 JUMP JUMPDEST DUP2 EQ PUSH2 0xC02 JUMPI PUSH0 PUSH0 REVERT JUMPDEST POP JUMP JUMPDEST PUSH0 DUP2 CALLDATALOAD SWAP1 POP PUSH2 0xC13 DUP2 PUSH2 0xBEF JUMP JUMPDEST SWAP3 SWAP2 POP POP JUMP JUMPDEST PUSH0 PUSH1 0x20 DUP3 DUP5 SUB SLT ISZERO PUSH2 0xC2E JUMPI PUSH2 0xC2D PUSH2 0x97C JUMP JUMPDEST JUMPDEST PUSH0 PUSH2 0xC3B DUP5 DUP3 DUP6 ADD PUSH2 0xC05 JUMP JUMPDEST SWAP2 POP POP SWAP3 SWAP2 POP POP JUMP JUMPDEST PUSH2 0xC4D DUP2 PUSH2 0xAAC JUMP JUMPDEST DUP3 MSTORE POP POP JUMP JUMPDEST PUSH0 PUSH1 0x80 DUP3 ADD SWAP1 POP PUSH2 0xC66 PUSH0 DUP4 ADD DUP8 PUSH2 0xBC7 JUMP JUMPDEST PUSH2 0xC73 PUSH1 0x20 DUP4 ADD DUP7 PUSH2 0xBC7 JUMP JUMPDEST PUSH2 0xC80 PUSH1 0x40 DUP4 ADD DUP6 PUSH2 0xC44 JUMP JUMPDEST PUSH2 0xC8D PUSH1 0x60 DUP4 ADD DUP5 PUSH2 0xA4C JUMP JUMPDEST SWAP6 SWAP5 POP POP POP POP POP JUMP JUMPDEST PUSH2 0xC9F DUP2 PUSH2 0xAAC JUMP JUMPDEST DUP2 EQ PUSH2 0xCA9 JUMPI PUSH0 PUSH0 REVERT JUMPDEST POP JUMP JUMPDEST PUSH0 DUP2 CALLDATALOAD SWAP1 POP PUSH2 0xCBA DUP2 PUSH2 0xC96 JUMP JUMPDEST SWAP3 SWAP2 POP POP JUMP JUMPDEST PUSH0 PUSH0 PUSH1 0x40 DUP4 DUP6 SUB SLT ISZERO PUSH2 0xCD6 JUMPI PUSH2 0xCD5 PUSH2 0x97C JUMP JUMPDEST JUMPDEST PUSH0 PUSH2 0xCE3 DUP6 DUP3 DUP7 ADD PUSH2 0x9C6 JUMP JUMPDEST SWAP3 POP POP PUSH1 0x20 PUSH2 0xCF4 DUP6 DUP3 DUP7 ADD PUSH2 0xCAC JUMP JUMPDEST SWAP2 POP POP SWAP3 POP SWAP3 SWAP1 POP JUMP JUMPDEST PUSH0 DUP3 DUP3 MSTORE PUSH1 0x20 DUP3 ADD SWAP1 POP SWAP3 SWAP2 POP POP JUMP JUMPDEST PUSH32 0x50726F706572747920616C726561647920726567697374657265640000000000 PUSH0 DUP3 ADD MSTORE POP JUMP JUMPDEST PUSH0 PUSH2 0xD42 PUSH1 0x1B DUP4 PUSH2 0xCFE JUMP JUMPDEST SWAP2 POP PUSH2 0xD4D DUP3 PUSH2 0xD0E JUMP JUMPDEST PUSH1 0x20 DUP3 ADD SWAP1 POP SWAP2 SWAP1 POP JUMP JUMPDEST PUSH0 PUSH1 0x20 DUP3 ADD SWAP1 POP DUP2 DUP2 SUB PUSH0 DUP4 ADD MSTORE PUSH2 0xD6F DUP2 PUSH2 0xD36 JUMP JUMPDEST SWAP1 POP SWAP2 SWAP1 POP JUMP JUMPDEST PUSH32 0x4E487B7100000000000000000000000000000000000000000000000000000000 PUSH0 MSTORE PUSH1 0x32 PUSH1 0x4 MSTORE PUSH1 0x24 PUSH0 REVERT JUMPDEST PUSH32 0x4E487B7100000000000000000000000000000000000000000000000000000000 PUSH0 MSTORE PUSH1 0x11 PUSH1 0x4 MSTORE PUSH1 0x24 PUSH0 REVERT JUMPDEST PUSH0 PUSH2 0xDDA DUP3 PUSH2 0xA43 JUMP JUMPDEST SWAP2 POP PUSH32 0xFFFFFFFFFFFFFFFFFFFFFFFFFFFFFFFFFFFFFFFFFFFFFFFFFFFFFFFFFFFFFFFF DUP3 SUB PUSH2 0xE0C JUMPI PUSH2 0xE0B PUSH2 0xDA3 JUMP JUMPDEST JUMPDEST PUSH1 0x1 DUP3 ADD SWAP1 POP SWAP2 SWAP1 POP JUMP JUMPDEST PUSH32 0x50726F7065727479206E6F742072656769737465726564000000000000000000 PUSH0 DUP3 ADD MSTORE POP JUMP JUMPDEST PUSH0 PUSH2 0xE4B PUSH1 0x17 DUP4 PUSH2 0xCFE JUMP JUMPDEST SWAP2 POP PUSH2 0xE56 DUP3 PUSH2 0xE17 JUMP JUMPDEST PUSH1 0x20 DUP3 ADD SWAP1 POP SWAP2 SWAP1 POP JUMP JUMPDEST PUSH0 PUSH1 0x20 DUP3 ADD SWAP1 POP DUP2 DUP2 SUB PUSH0 DUP4 ADD MSTORE PUSH2 0xE78 DUP2 PUSH2 0xE3F JUMP JUMPDEST SWAP1 POP SWAP2 SWAP1 POP JUMP JUMPDEST PUSH0 PUSH2 0xE89 DUP3 PUSH2 0xA43 JUMP JUMPDEST SWAP2 POP PUSH2 0xE94 DUP4 PUSH2 0xA43 JUMP JUMPDEST SWAP3 POP DUP3 DUP3 SUB SWAP1 POP DUP2 DUP2 GT ISZERO PUSH2 0xEAC JUMPI PUSH2 0xEAB PUSH2 0xDA3 JUMP JUMPDEST JUMPDEST SWAP3 SWAP2 POP POP JUMP JUMPDEST PUSH0 PUSH1 0x20 DUP3 ADD SWAP1 POP PUSH2 0xEC5 PUSH0 DUP4 ADD DUP5 PUSH2 0xC44 JUMP JUMPDEST SWAP3 SWAP2 POP POP JUMP INVALID LOG2 PUSH5 0x6970667358 0x22 SLT KECCAK256 SWAP4 0xF BLOCKHASH COINBASE GAS AND SIGNEXTEND 0xD3 SWAP15 0xCE 0xB3 AND CODECOPY 0xD MOD PUSH24 0x3934F664F591F7E1FADC709A74D7695B64736F6C63430008 SAR STOP CALLER "
				},
				"gasEstimates": {
					"creation": {
						"codeDepositCost": "768200",
						"executionCost": "infinite",
						"totalCost": "infinite"
					},
					"external": {
						"getActivePropertiesCount()": "infinite",
						"getAllProperties()": "infinite",
						"owner()": "2536",
						"propertyIndex(address)": "2825",
						"registerProperty(address,address)": "infinite",
						"registeredProperties(uint256)": "infinite",
						"renounceOwnership()": "infinite",
						"setPropertyStatus(address,bool)": "infinite",
						"transferOwnership(address)": "infinite"
					}
				},
				"methodIdentifiers": {
					"getActivePropertiesCount()": "603ddf11",
					"getAllProperties()": "3d51402c",
					"owner()": "8da5cb5b",
					"propertyIndex(address)": "2e4774c6",
					"registerProperty(address,address)": "02fb243a",
					"registeredProperties(uint256)": "a4beaa58",
					"renounceOwnership()": "715018a6",
					"setPropertyStatus(address,bool)": "aaf02937",
					"transferOwnership(address)": "f2fde38b"
				}
			},
			"storageLayout": {
				"storage": [
					{
						"astId": 180,
						"contract": "contracts/registry/PropertyRegistry.sol:PropertyRegistry",
						"label": "_owner",
						"offset": 0,
						"slot": "0",
						"type": "t_address"
					},
					{
						"astId": 17,
						"contract": "contracts/registry/PropertyRegistry.sol:PropertyRegistry",
						"label": "registeredProperties",
						"offset": 0,
						"slot": "1",
						"type": "t_array(t_struct(RegisteredProperty)13_storage)dyn_storage"
					},
					{
						"astId": 21,
						"contract": "contracts/registry/PropertyRegistry.sol:PropertyRegistry",
						"label": "propertyIndex",
						"offset": 0,
						"slot": "2",
						"type": "t_mapping(t_address,t_uint256)"
					}
				],
				"types": {
					"t_address": {
						"encoding": "inplace",
						"label": "address",
						"numberOfBytes": "20"
					},
					"t_array(t_struct(RegisteredProperty)13_storage)dyn_storage": {
						"base": "t_struct(RegisteredProperty)13_storage",
						"encoding": "dynamic_array",
						"label": "struct PropertyRegistry.RegisteredProperty[]",
						"numberOfBytes": "32"
					},
					"t_bool": {
						"encoding": "inplace",
						"label": "bool",
						"numberOfBytes": "1"
					},
					"t_mapping(t_address,t_uint256)": {
						"encoding": "mapping",
						"key": "t_address",
						"label": "mapping(address => uint256)",
						"numberOfBytes": "32",
						"value": "t_uint256"
					},
					"t_struct(RegisteredProperty)13_storage": {
						"encoding": "inplace",
						"label": "struct PropertyRegistry.RegisteredProperty",
						"members": [
							{
								"astId": 6,
								"contract": "contracts/registry/PropertyRegistry.sol:PropertyRegistry",
								"label": "propertyNFT",
								"offset": 0,
								"slot": "0",
								"type": "t_address"
							},
							{
								"astId": 8,
								"contract": "contracts/registry/PropertyRegistry.sol:PropertyRegistry",
								"label": "propertyToken",
								"offset": 0,
								"slot": "1",
								"type": "t_address"
							},
							{
								"astId": 10,
								"contract": "contracts/registry/PropertyRegistry.sol:PropertyRegistry",
								"label": "isActive",
								"offset": 20,
								"slot": "1",
								"type": "t_bool"
							},
							{
								"astId": 12,
								"contract": "contracts/registry/PropertyRegistry.sol:PropertyRegistry",
								"label": "registrationDate",
								"offset": 0,
								"slot": "2",
								"type": "t_uint256"
							}
						],
						"numberOfBytes": "96"
					},
					"t_uint256": {
						"encoding": "inplace",
						"label": "uint256",
						"numberOfBytes": "32"
					}
				}
			},
			"userdoc": {
				"kind": "user",
				"methods": {},
				"version": 1
			}
		}
	}
}